{
  "_format": "hh-sol-artifact-1",
  "contractName": "LiquidityMaker",
  "sourceName": "contracts/LiquidityMaker.sol",
  "abi": [
    {
      "anonymous": false,
      "inputs": [
        {
          "indexed": false,
          "internalType": "uint8",
          "name": "version",
          "type": "uint8"
        }
      ],
      "name": "Initialized",
      "type": "event"
    },
    {
      "anonymous": false,
      "inputs": [
        {
          "indexed": false,
          "internalType": "uint256",
          "name": "reward",
          "type": "uint256"
        }
      ],
      "name": "LiquidityRewardAdded",
      "type": "event"
    },
    {
      "anonymous": false,
      "inputs": [
        {
          "indexed": true,
          "internalType": "address",
          "name": "user",
          "type": "address"
        },
        {
          "indexed": false,
          "internalType": "uint256",
          "name": "reward",
          "type": "uint256"
        }
      ],
      "name": "LiquidityRewardPaid",
      "type": "event"
    },
    {
      "anonymous": false,
      "inputs": [
        {
          "indexed": false,
          "internalType": "uint256",
          "name": "lockingPeriod",
          "type": "uint256"
        }
      ],
      "name": "LockingPeriodUpdated",
      "type": "event"
    },
    {
      "anonymous": false,
      "inputs": [
        {
          "indexed": false,
          "internalType": "uint256",
          "name": "maxTotalSupply",
          "type": "uint256"
        }
      ],
      "name": "MaxTotalSupplyUpdated",
      "type": "event"
    },
    {
      "anonymous": false,
      "inputs": [
        {
          "indexed": true,
          "internalType": "address",
          "name": "previousOwner",
          "type": "address"
        },
        {
          "indexed": true,
          "internalType": "address",
          "name": "newOwner",
          "type": "address"
        }
      ],
      "name": "OwnershipTransferred",
      "type": "event"
    },
    {
      "anonymous": false,
      "inputs": [
        {
          "indexed": false,
          "internalType": "address",
          "name": "account",
          "type": "address"
        }
      ],
      "name": "Paused",
      "type": "event"
    },
    {
      "anonymous": false,
      "inputs": [
        {
          "indexed": false,
          "internalType": "address",
          "name": "token",
          "type": "address"
        },
        {
          "indexed": false,
          "internalType": "uint256",
          "name": "amount",
          "type": "uint256"
        }
      ],
      "name": "Recovered",
      "type": "event"
    },
    {
      "anonymous": false,
      "inputs": [
        {
          "indexed": false,
          "internalType": "uint256",
          "name": "reward",
          "type": "uint256"
        }
      ],
      "name": "RewardAdded",
      "type": "event"
    },
    {
      "anonymous": false,
      "inputs": [
        {
          "indexed": true,
          "internalType": "address",
          "name": "user",
          "type": "address"
        },
        {
          "indexed": false,
          "internalType": "uint256",
          "name": "reward",
          "type": "uint256"
        }
      ],
      "name": "RewardPaid",
      "type": "event"
    },
    {
      "anonymous": false,
      "inputs": [
        {
          "indexed": false,
          "internalType": "uint256",
          "name": "newDuration",
          "type": "uint256"
        }
      ],
      "name": "RewardsDurationUpdated",
      "type": "event"
    },
    {
      "anonymous": false,
      "inputs": [
        {
          "indexed": true,
          "internalType": "address",
          "name": "user",
          "type": "address"
        },
        {
          "indexed": false,
          "internalType": "uint256",
          "name": "amount",
          "type": "uint256"
        }
      ],
      "name": "Staked",
      "type": "event"
    },
    {
      "anonymous": false,
      "inputs": [
        {
          "indexed": false,
          "internalType": "address",
          "name": "account",
          "type": "address"
        }
      ],
      "name": "Unpaused",
      "type": "event"
    },
    {
      "anonymous": false,
      "inputs": [
        {
          "indexed": true,
          "internalType": "address",
          "name": "user",
          "type": "address"
        },
        {
          "indexed": false,
          "internalType": "uint256",
          "name": "amount",
          "type": "uint256"
        }
      ],
      "name": "Withdrawn",
      "type": "event"
    },
    {
      "anonymous": false,
      "inputs": [
        {
          "indexed": false,
          "internalType": "uint256",
          "name": "newDuration",
          "type": "uint256"
        }
      ],
      "name": "liquidityRewardsDurationUpdated",
      "type": "event"
    },
    {
      "inputs": [
        {
          "internalType": "uint256",
          "name": "reward",
          "type": "uint256"
        }
      ],
      "name": "addLiquidityReward",
      "outputs": [],
      "stateMutability": "nonpayable",
      "type": "function"
    },
    {
      "inputs": [
        {
          "internalType": "uint256",
          "name": "reward",
          "type": "uint256"
        }
      ],
      "name": "addReward",
      "outputs": [],
      "stateMutability": "nonpayable",
      "type": "function"
    },
    {
      "inputs": [],
      "name": "baseTokenAddress",
      "outputs": [
        {
          "internalType": "address",
          "name": "",
          "type": "address"
        }
      ],
      "stateMutability": "view",
      "type": "function"
    },
    {
      "inputs": [
        {
          "internalType": "uint256",
          "name": "_slippage",
          "type": "uint256"
        }
      ],
      "name": "exit",
      "outputs": [],
      "stateMutability": "nonpayable",
      "type": "function"
    },
    {
      "inputs": [],
      "name": "getLiquidityReward",
      "outputs": [],
      "stateMutability": "nonpayable",
      "type": "function"
    },
    {
      "inputs": [],
      "name": "getLiquidityRewardForDuration",
      "outputs": [
        {
          "internalType": "uint256",
          "name": "",
          "type": "uint256"
        }
      ],
      "stateMutability": "view",
      "type": "function"
    },
    {
      "inputs": [],
      "name": "getReward",
      "outputs": [],
      "stateMutability": "nonpayable",
      "type": "function"
    },
    {
      "inputs": [],
      "name": "getRewardForDuration",
      "outputs": [
        {
          "internalType": "uint256",
          "name": "",
          "type": "uint256"
        }
      ],
      "stateMutability": "view",
      "type": "function"
    },
    {
      "inputs": [
        {
          "internalType": "address",
          "name": "",
          "type": "address"
        }
      ],
      "name": "holdersMapping",
      "outputs": [
        {
          "internalType": "uint256",
          "name": "liquidityBalance",
          "type": "uint256"
        },
        {
          "internalType": "uint256",
          "name": "lastLiquidityProvidingTime",
          "type": "uint256"
        },
        {
          "internalType": "uint256",
          "name": "userRewardPerTokenPaid",
          "type": "uint256"
        },
        {
          "internalType": "uint256",
          "name": "rewards",
          "type": "uint256"
        },
        {
          "internalType": "uint256",
          "name": "userLiquidityRewardPerTokenPaid",
          "type": "uint256"
        },
        {
          "internalType": "uint256",
          "name": "liquidityRewards",
          "type": "uint256"
        },
        {
          "internalType": "uint256",
          "name": "stakedInBaseToken",
          "type": "uint256"
        },
        {
          "internalType": "uint256",
          "name": "stakedInPairedToken",
          "type": "uint256"
        }
      ],
      "stateMutability": "view",
      "type": "function"
    },
    {
      "inputs": [
        {
          "internalType": "address",
          "name": "_baseToken",
          "type": "address"
        },
        {
          "internalType": "address",
          "name": "_pairedToken",
          "type": "address"
        },
        {
          "internalType": "address",
          "name": "_rewardToken",
          "type": "address"
        }
      ],
      "name": "initialize",
      "outputs": [],
      "stateMutability": "nonpayable",
      "type": "function"
    },
    {
      "inputs": [],
      "name": "lastLiquidityRewardUpdateTime",
      "outputs": [
        {
          "internalType": "uint256",
          "name": "",
          "type": "uint256"
        }
      ],
      "stateMutability": "view",
      "type": "function"
    },
    {
      "inputs": [],
      "name": "lastRewardUpdateTime",
      "outputs": [
        {
          "internalType": "uint256",
          "name": "",
          "type": "uint256"
        }
      ],
      "stateMutability": "view",
      "type": "function"
    },
    {
      "inputs": [],
      "name": "lastTimeLiquidityRewardApplicable",
      "outputs": [
        {
          "internalType": "uint256",
          "name": "",
          "type": "uint256"
        }
      ],
      "stateMutability": "view",
      "type": "function"
    },
    {
      "inputs": [],
      "name": "lastTimeRewardApplicable",
      "outputs": [
        {
          "internalType": "uint256",
          "name": "",
          "type": "uint256"
        }
      ],
      "stateMutability": "view",
      "type": "function"
    },
    {
      "inputs": [
        {
          "internalType": "address",
          "name": "account",
          "type": "address"
        }
      ],
      "name": "liquidityRewardEarned",
      "outputs": [
        {
          "internalType": "uint256",
          "name": "",
          "type": "uint256"
        }
      ],
      "stateMutability": "view",
      "type": "function"
    },
    {
      "inputs": [],
      "name": "liquidityRewardPerToken",
      "outputs": [
        {
          "internalType": "uint256",
          "name": "",
          "type": "uint256"
        }
      ],
      "stateMutability": "view",
      "type": "function"
    },
    {
      "inputs": [],
      "name": "liquidityRewardPerTokenStored",
      "outputs": [
        {
          "internalType": "uint256",
          "name": "",
          "type": "uint256"
        }
      ],
      "stateMutability": "view",
      "type": "function"
    },
    {
      "inputs": [],
      "name": "liquidityRewardPeriodFinish",
      "outputs": [
        {
          "internalType": "uint256",
          "name": "",
          "type": "uint256"
        }
      ],
      "stateMutability": "view",
      "type": "function"
    },
    {
      "inputs": [],
      "name": "liquidityRewardRate",
      "outputs": [
        {
          "internalType": "uint256",
          "name": "",
          "type": "uint256"
        }
      ],
      "stateMutability": "view",
      "type": "function"
    },
    {
      "inputs": [],
      "name": "liquidityRewardsDuration",
      "outputs": [
        {
          "internalType": "uint256",
          "name": "",
          "type": "uint256"
        }
      ],
      "stateMutability": "view",
      "type": "function"
    },
    {
      "inputs": [],
      "name": "liquidityToken",
      "outputs": [
        {
          "internalType": "contract IERC20Upgradeable",
          "name": "",
          "type": "address"
        }
      ],
      "stateMutability": "view",
      "type": "function"
    },
    {
      "inputs": [],
      "name": "lockingPeriod",
      "outputs": [
        {
          "internalType": "uint256",
          "name": "",
          "type": "uint256"
        }
      ],
      "stateMutability": "view",
      "type": "function"
    },
    {
      "inputs": [],
      "name": "maxTotalSupply",
      "outputs": [
        {
          "internalType": "uint256",
          "name": "",
          "type": "uint256"
        }
      ],
      "stateMutability": "view",
      "type": "function"
    },
    {
      "inputs": [
        {
          "internalType": "uint256",
          "name": "reward",
          "type": "uint256"
        }
      ],
      "name": "notifyLiquidityRewardAmount",
      "outputs": [],
      "stateMutability": "nonpayable",
      "type": "function"
    },
    {
      "inputs": [
        {
          "internalType": "uint256",
          "name": "reward",
          "type": "uint256"
        }
      ],
      "name": "notifyRewardAmount",
      "outputs": [],
      "stateMutability": "nonpayable",
      "type": "function"
    },
    {
      "inputs": [],
      "name": "owner",
      "outputs": [
        {
          "internalType": "address",
          "name": "",
          "type": "address"
        }
      ],
      "stateMutability": "view",
      "type": "function"
    },
    {
      "inputs": [],
      "name": "pair",
      "outputs": [
        {
          "internalType": "contract IUniswapV2Pair",
          "name": "",
          "type": "address"
        }
      ],
      "stateMutability": "view",
      "type": "function"
    },
    {
      "inputs": [],
      "name": "pairedTokenAddress",
      "outputs": [
        {
          "internalType": "address",
          "name": "",
          "type": "address"
        }
      ],
      "stateMutability": "view",
      "type": "function"
    },
    {
      "inputs": [],
      "name": "paused",
      "outputs": [
        {
          "internalType": "bool",
          "name": "",
          "type": "bool"
        }
      ],
      "stateMutability": "view",
      "type": "function"
    },
    {
      "inputs": [
        {
          "internalType": "address",
          "name": "tokenAddress",
          "type": "address"
        },
        {
          "internalType": "uint256",
          "name": "tokenAmount",
          "type": "uint256"
        }
      ],
      "name": "recoverERC20",
      "outputs": [],
      "stateMutability": "nonpayable",
      "type": "function"
    },
    {
      "inputs": [],
      "name": "renounceOwnership",
      "outputs": [],
      "stateMutability": "nonpayable",
      "type": "function"
    },
    {
      "inputs": [
        {
          "internalType": "address",
          "name": "account",
          "type": "address"
        }
      ],
      "name": "rewardEarned",
      "outputs": [
        {
          "internalType": "uint256",
          "name": "",
          "type": "uint256"
        }
      ],
      "stateMutability": "view",
      "type": "function"
    },
    {
      "inputs": [],
      "name": "rewardPerToken",
      "outputs": [
        {
          "internalType": "uint256",
          "name": "",
          "type": "uint256"
        }
      ],
      "stateMutability": "view",
      "type": "function"
    },
    {
      "inputs": [],
      "name": "rewardPerTokenStored",
      "outputs": [
        {
          "internalType": "uint256",
          "name": "",
          "type": "uint256"
        }
      ],
      "stateMutability": "view",
      "type": "function"
    },
    {
      "inputs": [],
      "name": "rewardPeriodFinish",
      "outputs": [
        {
          "internalType": "uint256",
          "name": "",
          "type": "uint256"
        }
      ],
      "stateMutability": "view",
      "type": "function"
    },
    {
      "inputs": [],
      "name": "rewardRate",
      "outputs": [
        {
          "internalType": "uint256",
          "name": "",
          "type": "uint256"
        }
      ],
      "stateMutability": "view",
      "type": "function"
    },
    {
      "inputs": [],
      "name": "rewardsDuration",
      "outputs": [
        {
          "internalType": "uint256",
          "name": "",
          "type": "uint256"
        }
      ],
      "stateMutability": "view",
      "type": "function"
    },
    {
      "inputs": [],
      "name": "rewardsToken",
      "outputs": [
        {
          "internalType": "contract IERC20Upgradeable",
          "name": "",
          "type": "address"
        }
      ],
      "stateMutability": "view",
      "type": "function"
    },
    {
      "inputs": [
        {
          "internalType": "uint256",
          "name": "_rewardsDuration",
          "type": "uint256"
        }
      ],
      "name": "setLiquidityRewardsDuration",
      "outputs": [],
      "stateMutability": "nonpayable",
      "type": "function"
    },
    {
      "inputs": [
        {
          "internalType": "uint256",
          "name": "_lockingPeriod",
          "type": "uint256"
        }
      ],
      "name": "setLockingPeriod",
      "outputs": [],
      "stateMutability": "nonpayable",
      "type": "function"
    },
    {
      "inputs": [
        {
          "internalType": "uint256",
          "name": "_maxTotalSupply",
          "type": "uint256"
        }
      ],
      "name": "setMaxTotalSupply",
      "outputs": [],
      "stateMutability": "nonpayable",
      "type": "function"
    },
    {
      "inputs": [
        {
          "internalType": "uint256",
          "name": "_rewardsDuration",
          "type": "uint256"
        }
      ],
      "name": "setRewardsDuration",
      "outputs": [],
      "stateMutability": "nonpayable",
      "type": "function"
    },
    {
      "inputs": [
        {
          "internalType": "uint256[]",
          "name": "_amountsBaseTokenIn",
          "type": "uint256[]"
        },
        {
          "internalType": "address[]",
          "name": "_beneficiaryBaseArray",
          "type": "address[]"
        },
        {
          "internalType": "uint256[]",
          "name": "_amountsPairedTokenIn",
          "type": "uint256[]"
        },
        {
          "internalType": "address[]",
          "name": "_beneficiaryPairedArray",
          "type": "address[]"
        },
        {
          "internalType": "uint256",
          "name": "baseSum",
          "type": "uint256"
        },
        {
          "internalType": "uint256",
          "name": "pairedSum",
          "type": "uint256"
        },
        {
          "internalType": "uint256",
          "name": "_slippage",
          "type": "uint256"
        }
      ],
      "name": "stakeInLP",
      "outputs": [
        {
          "internalType": "uint256",
          "name": "",
          "type": "uint256"
        },
        {
          "internalType": "uint256",
          "name": "",
          "type": "uint256"
        }
      ],
      "stateMutability": "nonpayable",
      "type": "function"
    },
    {
      "inputs": [],
      "name": "totalSupply",
      "outputs": [
        {
          "internalType": "uint256",
          "name": "",
          "type": "uint256"
        }
      ],
      "stateMutability": "view",
      "type": "function"
    },
    {
      "inputs": [
        {
          "internalType": "address",
          "name": "newOwner",
          "type": "address"
        }
      ],
      "name": "transferOwnership",
      "outputs": [],
      "stateMutability": "nonpayable",
      "type": "function"
    },
    {
      "inputs": [
        {
          "internalType": "uint256",
          "name": "_slippage",
          "type": "uint256"
        }
      ],
      "name": "withdrawLP",
      "outputs": [],
      "stateMutability": "nonpayable",
      "type": "function"
    }
  ],
  "bytecode": "0x608060405234801561001057600080fd5b506131a3806100206000396000f3fe608060405234801561001057600080fd5b506004361061028a5760003560e01c80637415cfe41161015c578063aff9fff5116100ce578063d1af0c7d11610087578063d1af0c7d14610571578063d98b5ee914610584578063dabf2dac1461058d578063df136d6514610596578063e4456ecb1461059f578063f2fde38b146105b257600080fd5b8063aff9fff514610520578063bf6278ea14610528578063c0c53b8b14610530578063c98e20c714610543578063cc1a378f14610556578063cd3daf9d1461056957600080fd5b80637f8661a1116101205780637f8661a1146104bb57806380faa57d146104ce5780638980f11f146104d65780638da5cb5b146104e9578063a8aa1b31146104fa578063acbca21e1461050d57600080fd5b80637415cfe41461047b57806374de4ec41461048457806377de1b96146104975780637b0a47ee1461049f5780637cb374bd146104a857600080fd5b80633ee28b6511610200578063550066d5116101b9578063550066d51461042f5780635c795aa2146104385780635c975abb1461044157806361fd49e2146104575780636927810d14610460578063715018a61461047357600080fd5b80633ee28b65146103225780633f3e4c111461033557806343cd8f7e1461034857806347fd27f01461036857806350fc8327146103f45780635251b1661461040757600080fd5b8063279084a611610252578063279084a6146102e35780632ab4d052146102ec5780632bd1755a146102f5578063386a9525146102fe5780633c6b16ab146103075780633d18b9121461031a57600080fd5b806304d55ef21461028f57806316ba6bf3146102aa57806318160ddd146102bd5780631c1f78eb146102c657806326b321d1146102ce575b600080fd5b6102976105c5565b6040519081526020015b60405180910390f35b6102976102b8366004612b59565b6105dc565b61029760ce5481565b610297610658565b6102e16102dc366004612b76565b61066a565b005b61029760d35481565b61029760cf5481565b61029760d65481565b61029760d55481565b6102e1610315366004612b76565b6106ae565b6102e16106c2565b6102e1610330366004612b76565b6107a3565b6102e1610343366004612b76565b6107c4565b60d85461035b906001600160a01b031681565b6040516102a19190612b8f565b6103b9610376366004612b59565b60d1602052600090815260409020805460018201546002830154600384015460048501546005860154600687015460079097015495969495939492939192909188565b604080519889526020890197909752958701949094526060860192909252608085015260a084015260c083015260e0820152610100016102a1565b610297610402366004612b59565b610801565b61041a610415366004612cdd565b610836565b604080519283526020830191909152016102a1565b61029760d05481565b61029760db5481565b60975460ff1660405190151581526020016102a1565b61029760da5481565b60cb5461035b906001600160a01b031681565b6102e1610892565b61029760d95481565b6102e1610492366004612b76565b6108a6565b6102976108be565b61029760d45481565b60c95461035b906001600160a01b031681565b6102e16104c9366004612b76565b610920565b610297610931565b6102e16104e4366004612da5565b610948565b6033546001600160a01b031661035b565b60cd5461035b906001600160a01b031681565b6102e161051b366004612b76565b610a20565b6102e1610a7e565b610297610b55565b6102e161053e366004612dd1565b610b67565b6102e1610551366004612b76565b610d94565b6102e1610564366004612b76565b610d9c565b610297610dfa565b60d25461035b906001600160a01b031681565b61029760dd5481565b61029760dc5481565b61029760d75481565b6102e16105ad366004612b76565b610e5c565b6102e16105c0366004612b59565b61144e565b600060db5460da546105d79190612e32565b905090565b6001600160a01b038116600090815260d1602052604081206003810154600290910154670de0b6b3a764000090610611610dfa565b61061b9190612e51565b6001600160a01b038516600090815260d1602052604090205461063e9190612e32565b6106489190612e68565b6106529190612e8a565b92915050565b600060d55460d4546105d79190612e32565b6106726114c4565b60d08190556040518181527f10e4464ec1508bc74373bc20969bfc3c86fb9f7b2fce089585495bf47bfce4bc906020015b60405180910390a150565b6106b66114c4565b6106bf8161151e565b50565b336106cb610dfa565b60d7556106d6610931565b60d6556001600160a01b0381161561071b576106f1816105dc565b6001600160a01b038216600090815260d160205260409020600381019190915560d7546002909101555b6107236116d8565b33600090815260d16020526040902060030154801561079f5733600081815260d1602052604081206003015560d254610768916001600160a01b03909116908361171e565b60405181815233907fe2403640ba68fed3a2f88b7557551d1993f84b99bb10ff833f0cf8db0c5e0486906020015b60405180910390a25b5050565b60d8546107bb906001600160a01b0316333084611779565b6106bf816117b1565b6107cc6114c4565b60cf8190556040518181527ff2672935fc79f5237559e2e2999dbe743bf65430894ac2b37666890e7c69e1af906020016106a3565b6001600160a01b038116600090815260d1602052604081206005810154600490910154670de0b6b3a7640000906106116108be565b6000806108416116d8565b60006040518060e001604052808b81526020018a815260200189815260200188815260200187815260200186815260200185815250905061088181611962565b925092505097509795505050505050565b61089a6114c4565b6108a46000611add565b565b60d2546106b6906001600160a01b0316333084611779565b600060ce54600014156108d2575060dd5490565b60ce5460da5460dc546108e3610b55565b6108ed9190612e51565b6108f79190612e32565b61090990670de0b6b3a7640000612e32565b6109139190612e68565b60dd546105d79190612e8a565b61092981610e5c565b6106bf6106c2565b600060d3544210610943575060d35490565b504290565b6109506114c4565b60d8546001600160a01b03838116911614156109bd5760405162461bcd60e51b815260206004820152602160248201527f43616e6e6f7420776974686472617720746865207374616b696e6720746f6b656044820152603760f91b60648201526084015b60405180910390fd5b6109e36109d26033546001600160a01b031690565b6001600160a01b038416908361171e565b7f8c1256b8896378cd5044f80c202f9772b9d77dc85c8a6eb51967210b09bfaa288282604051610a14929190612ea2565b60405180910390a15050565b610a286114c4565b60d9544211610a495760405162461bcd60e51b81526004016109b490612ebb565b60db8190556040518181527f6705e591c0abd6b7368d547f726cae5eeba031ff42bb14ced689b0829f0cd29c906020016106a3565b33610a876108be565b60dd55610a92610b55565b60dc556001600160a01b03811615610ad757610aad81610801565b6001600160a01b038216600090815260d160205260409020600581019190915560dd546004909101555b610adf6116d8565b33600090815260d16020526040902060050154801561079f5733600090815260d160205260408120600581018290558054839290610b1e908490612e8a565b909155505060405181815233907f748699c4f2c3d8abc1051941dc2337a504bf44992d01ebeafa4669f05fe6e2c390602001610796565b600060d9544210610943575060d95490565b600054610100900460ff1615808015610b875750600054600160ff909116105b80610ba15750303b158015610ba1575060005460ff166001145b610c045760405162461bcd60e51b815260206004820152602e60248201527f496e697469616c697a61626c653a20636f6e747261637420697320616c72656160448201526d191e481a5b9a5d1a585b1a5e995960921b60648201526084016109b4565b6000805460ff191660011790558015610c27576000805461ff0019166101001790555b610c2f611b2f565b610c37611b5e565b610c3f611b8d565b60d280546001600160a01b038481166001600160a01b03199283161790925560ca8054878416908316811790915560c9805483168217905560cc80549387169383168417905560cb8054909216831790915560405163e6a4390560e01b815260048101919091526024810191909152735c69bee701ef814a2b6a3edd4b1652cb9cc5aa6f9063e6a439059060440160206040518083038186803b158015610ce557600080fd5b505afa158015610cf9573d6000803e3d6000fd5b505050506040513d601f19601f82011682018060405250810190610d1d9190612f39565b60cd80546001600160a01b03929092166001600160a01b0319928316811790915560d880549092161790558015610d8e576000805461ff0019169055604051600181527f7f26b83ff96e1f2b6a682f133852f6798a09c465da95921460cefb38474024989060200160405180910390a15b50505050565b6107bb6114c4565b610da46114c4565b60d3544211610dc55760405162461bcd60e51b81526004016109b490612ebb565b60d58190556040518181527ffb46ca5a5e06d4540d6387b930a7c978bce0db5f449ec6b3f5d07c6e1d44f2d3906020016106a3565b600060ce5460001415610e0e575060d75490565b60ce5460d45460d654610e1f610931565b610e299190612e51565b610e339190612e32565b610e4590670de0b6b3a7640000612e32565b610e4f9190612e68565b60d7546105d79190612e8a565b33610e65610dfa565b60d755610e70610931565b60d6556001600160a01b03811615610eb557610e8b816105dc565b6001600160a01b038216600090815260d160205260409020600381019190915560d7546002909101555b33610ebe6108be565b60dd55610ec9610b55565b60dc556001600160a01b03811615610f0e57610ee481610801565b6001600160a01b038216600090815260d160205260409020600581019190915560dd546004909101555b60026065541415610f615760405162461bcd60e51b815260206004820152601f60248201527f5265656e7472616e637947756172643a207265656e7472616e742063616c6c0060448201526064016109b4565b6002606555610f6e6116d8565b60d05433600090815260d160205260409020600101544291610f8f91612e8a565b1115610fd95760405162461bcd60e51b8152602060048201526019602482015278131a5c5d5a591a5d1e481a5cc81cdd1a5b1b081b1bd8dad959603a1b60448201526064016109b4565b610fe1610a7e565b33600090815260d16020526040908190205460cd54915163095ea7b360e01b815290916001600160a01b03169063095ea7b39061103890737a250d5630b4cf539739df2c5dacb4c659f2488d908590600401612ea2565b602060405180830381600087803b15801561105257600080fd5b505af1158015611066573d6000803e3d6000fd5b505050506040513d601f19601f8201168201806040525081019061108a9190612f56565b5060c95460cd5460408051630dfe168160e01b8152905160009384936001600160a01b0391821693911691630dfe168191600480820192602092909190829003018186803b1580156110db57600080fd5b505afa1580156110ef573d6000803e3d6000fd5b505050506040513d601f19601f820116820180604052508101906111139190612f39565b6001600160a01b031614156111be5760cd60009054906101000a90046001600160a01b03166001600160a01b0316630902f1ac6040518163ffffffff1660e01b815260040160606040518083038186803b15801561117057600080fd5b505afa158015611184573d6000803e3d6000fd5b505050506040513d601f19601f820116820180604052508101906111a89190612f94565b506001600160701b039182169350169050611256565b60cd60009054906101000a90046001600160a01b03166001600160a01b0316630902f1ac6040518163ffffffff1660e01b815260040160606040518083038186803b15801561120c57600080fd5b505afa158015611220573d6000803e3d6000fd5b505050506040513d601f19601f820116820180604052508101906112449190612f94565b506001600160701b0390811693501690505b6000806112eb85858560cd60009054906101000a90046001600160a01b03166001600160a01b03166318160ddd6040518163ffffffff1660e01b815260040160206040518083038186803b1580156112ad57600080fd5b505afa1580156112c1573d6000803e3d6000fd5b505050506040513d601f19601f820116820180604052508101906112e59190612fd9565b8c611bbc565b915091508460ce60008282546113019190612e51565b909155505060c95461131d906001600160a01b0316338461171e565b60cb546001600160a01b031673c778417e063141139fce010982780140aa0cd5ab14156113dc57604051632e1a7d4d60e01b81526004810182905273c778417e063141139fce010982780140aa0cd5ab90632e1a7d4d90602401600060405180830381600087803b15801561139157600080fd5b505af11580156113a5573d6000803e3d6000fd5b505060405133925083156108fc02915083906000818181858888f193505050501580156113d6573d6000803e3d6000fd5b506113f3565b60cb546113f3906001600160a01b0316338361171e565b33600081815260d1602052604080822091909155517f7084f5476618d8e60b11ef0d7d3f06914655adb8793e28ff7f018d4c76d505d5906114379088815260200190565b60405180910390a250506001606555505050505050565b6114566114c4565b6001600160a01b0381166114bb5760405162461bcd60e51b815260206004820152602660248201527f4f776e61626c653a206e6577206f776e657220697320746865207a65726f206160448201526564647265737360d01b60648201526084016109b4565b6106bf81611add565b6033546001600160a01b031633146108a45760405162461bcd60e51b815260206004820181905260248201527f4f776e61626c653a2063616c6c6572206973206e6f7420746865206f776e657260448201526064016109b4565b6000611528610dfa565b60d755611533610931565b60d6556001600160a01b038116156115785761154e816105dc565b6001600160a01b038216600090815260d160205260409020600381019190915560d7546002909101555b60d35442106115965760d55461158e9083612e68565b60d4556115d8565b60004260d3546115a69190612e51565b9050600060d454826115b89190612e32565b60d5549091506115c88286612e8a565b6115d29190612e68565b60d45550505b60d2546040516370a0823160e01b81526000916001600160a01b0316906370a0823190611609903090600401612b8f565b60206040518083038186803b15801561162157600080fd5b505afa158015611635573d6000803e3d6000fd5b505050506040513d601f19601f820116820180604052508101906116599190612fd9565b905060d554816116699190612e68565b60d454111561168a5760405162461bcd60e51b81526004016109b490612ff2565b4260d681905560d55461169c91612e8a565b60d3556040518381527fde88a922e0d3b88b24e9623efeb464919c6bf9f66857a65e2bfcf2ce87a9433d906020015b60405180910390a1505050565b60975460ff16156108a45760405162461bcd60e51b815260206004820152601060248201526f14185d5cd8589b194e881c185d5cd95960821b60448201526064016109b4565b6117748363a9059cbb60e01b848460405160240161173d929190612ea2565b60408051601f198184030181529190526020810180516001600160e01b03166001600160e01b031990931692909217909152611d44565b505050565b6040516001600160a01b0380851660248301528316604482015260648101829052610d8e9085906323b872dd60e01b9060840161173d565b60006117bb6108be565b60dd556117c6610b55565b60dc556001600160a01b0381161561180b576117e181610801565b6001600160a01b038216600090815260d160205260409020600581019190915560dd546004909101555b60d95442106118295760db546118219083612e68565b60d45561186b565b60004260d9546118399190612e51565b9050600060da548261184b9190612e32565b60db5490915061185b8286612e8a565b6118659190612e68565b60d45550505b60d8546040516370a0823160e01b81526000916001600160a01b0316906370a082319061189c903090600401612b8f565b60206040518083038186803b1580156118b457600080fd5b505afa1580156118c8573d6000803e3d6000fd5b505050506040513d601f19601f820116820180604052508101906118ec9190612fd9565b905060db54816118fc9190612e68565b60da54111561191d5760405162461bcd60e51b81526004016109b490612ff2565b4260dc81905560db5461192f91612e8a565b60d9556040518381527f8123abeaa60b131ff611695ed07c6ee2a88f9f4970de4429001a17dba775e529906020016116cb565b608081015160c9546000918291611988916001600160a01b039091169033903090611779565b60a083015160cb546119a9916001600160a01b039091169033903090611779565b6000806119be85608001518660a00151611e16565b9150915060008060006119d685858a60c00151612136565b92509250925060cf548160ce546119ed9190612e8a565b1115611a375760405162461bcd60e51b815260206004820152601960248201527813585e081d1bdd185b081cdd5c1c1b1e48195e18d959591959603a1b60448201526064016109b4565b8060ce6000828254611a499190612e8a565b92505081905550611a7733848a60800151611a649190612e51565b60c9546001600160a01b0316919061171e565b611a9e33838a60a00151611a8b9190612e51565b60cb546001600160a01b0316919061171e565b611ab788602001518960000151858b6080015185612369565b611ad088606001518960400151848b60a001518561241d565b5090969095509350505050565b603380546001600160a01b038381166001600160a01b0319831681179093556040519116919082907f8be0079c531659141344cd1fd0a4f28419497f9722a3daafe3b4186f6b6457e090600090a35050565b600054610100900460ff16611b565760405162461bcd60e51b81526004016109b490613024565b6108a46124c9565b600054610100900460ff16611b855760405162461bcd60e51b81526004016109b490613024565b6108a46124f9565b600054610100900460ff16611bb45760405162461bcd60e51b81526004016109b490613024565b6108a461252c565b6000808084611bcb8989612e32565b611bd59190612e68565b9050600085611be48a89612e32565b611bee9190612e68565b60c95460cd5460408051630dfe168160e01b8152905193945060009384936001600160a01b03908116931691630dfe1681916004808301926020929190829003018186803b158015611c3f57600080fd5b505afa158015611c53573d6000803e3d6000fd5b505050506040513d601f19601f82011682018060405250810190611c779190612f39565b6001600160a01b03161415611ce75760c95460cb54611cdd916001600160a01b0390811691168d670de0b6b3a7640000611cb18c8a612e32565b611cbb9190612e68565b670de0b6b3a7640000611cce8d8a612e32565b611cd89190612e68565b61255a565b9092509050611d34565b60cb5460c954611d2f916001600160a01b0390811691168d670de0b6b3a7640000611d128c89612e32565b611d1c9190612e68565b670de0b6b3a7640000611cce8d8b612e32565b925090505b909a909950975050505050505050565b6000611d99826040518060400160405280602081526020017f5361666545524332303a206c6f772d6c6576656c2063616c6c206661696c6564815250856001600160a01b031661263b9092919063ffffffff16565b8051909150156117745780806020019051810190611db79190612f56565b6117745760405162461bcd60e51b815260206004820152602a60248201527f5361666545524332303a204552433230206f7065726174696f6e20646964206e6044820152691bdd081cdd58d8d9595960b21b60648201526084016109b4565b60c95460cd5460408051630dfe168160e01b815290516000938493849384936001600160a01b039384169390921691630dfe168191600480820192602092909190829003018186803b158015611e6b57600080fd5b505afa158015611e7f573d6000803e3d6000fd5b505050506040513d601f19601f82011682018060405250810190611ea39190612f39565b6001600160a01b03161415611f4e5760cd60009054906101000a90046001600160a01b03166001600160a01b0316630902f1ac6040518163ffffffff1660e01b815260040160606040518083038186803b158015611f0057600080fd5b505afa158015611f14573d6000803e3d6000fd5b505050506040513d601f19601f82011682018060405250810190611f389190612f94565b506001600160701b039182169350169050611fe6565b60cd60009054906101000a90046001600160a01b03166001600160a01b0316630902f1ac6040518163ffffffff1660e01b815260040160606040518083038186803b158015611f9c57600080fd5b505afa158015611fb0573d6000803e3d6000fd5b505050506040513d601f19601f82011682018060405250810190611fd49190612f94565b506001600160701b0390811693501690505b604051632b58577b60e21b8152600481018790526024810183905260448101829052600090737a250d5630b4cf539739df2c5dacb4c659f2488d9063ad615dec9060640160206040518083038186803b15801561204257600080fd5b505afa158015612056573d6000803e3d6000fd5b505050506040513d601f19601f8201168201806040525081019061207a9190612fd9565b90508581111561212257604051632b58577b60e21b8152600481018790526024810183905260448101849052737a250d5630b4cf539739df2c5dacb4c659f2488d9063ad615dec9060640160206040518083038186803b1580156120dd57600080fd5b505afa1580156120f1573d6000803e3d6000fd5b505050506040513d601f19601f820116820180604052508101906121159190612fd9565b869450945050505061212f565b869450925061212f915050565b9250929050565b60c95460405163095ea7b360e01b8152600091829182916001600160a01b03169063095ea7b39061218190737a250d5630b4cf539739df2c5dacb4c659f2488d908a90600401612ea2565b602060405180830381600087803b15801561219b57600080fd5b505af11580156121af573d6000803e3d6000fd5b505050506040513d601f19601f820116820180604052508101906121d39190612f56565b5060cb5460405163095ea7b360e01b81526001600160a01b039091169063095ea7b39061221a90737a250d5630b4cf539739df2c5dacb4c659f2488d908990600401612ea2565b602060405180830381600087803b15801561223457600080fd5b505af1158015612248573d6000803e3d6000fd5b505050506040513d601f19601f8201168201806040525081019061226c9190612f56565b5060c95460cd5460408051630dfe168160e01b81529051600093849384936001600160a01b03928316939190921691630dfe1681916004808301926020929190829003018186803b1580156122c057600080fd5b505afa1580156122d4573d6000803e3d6000fd5b505050506040513d601f19601f820116820180604052508101906122f89190612f39565b6001600160a01b031614156123325760c95460cb54612326916001600160a01b0390811691168b8b8b612654565b9194509250905061235a565b60cb5460c954612351916001600160a01b0390811691168a8c8b612654565b90945090925090505b91989097509095509350505050565b60005b85518110156124155761240386828151811061238a5761238a61306f565b6020026020010151848784815181106123a5576123a561306f565b6020026020010151876123b89190612e32565b6123c29190612e68565b858885815181106123d5576123d561306f565b60200260200101516002876123ea9190612e68565b6123f49190612e32565b6123fe9190612e68565b61277c565b8061240d81613085565b91505061236c565b505050505050565b60005b8551811015612415576124b786828151811061243e5761243e61306f565b6020026020010151848784815181106124595761245961306f565b60200260200101518761246c9190612e32565b6124769190612e68565b858885815181106124895761248961306f565b602002602001015160028761249e9190612e68565b6124a89190612e32565b6124b29190612e68565b6128d0565b806124c181613085565b915050612420565b600054610100900460ff166124f05760405162461bcd60e51b81526004016109b490613024565b6108a433611add565b600054610100900460ff166125205760405162461bcd60e51b81526004016109b490613024565b6097805460ff19169055565b600054610100900460ff166125535760405162461bcd60e51b81526004016109b490613024565b6001606555565b600080737a250d5630b4cf539739df2c5dacb4c659f2488d63baa2abde88888888883061258842600a612e8a565b60405160e089901b6001600160e01b03191681526001600160a01b039788166004820152958716602487015260448601949094526064850192909252608484015290921660a482015260c481019190915260e4016040805180830381600087803b1580156125f557600080fd5b505af1158015612609573d6000803e3d6000fd5b505050506040513d601f19601f8201168201806040525081019061262d91906130a0565b915091509550959350505050565b606061264a84846000856129da565b90505b9392505050565b60008080737a250d5630b4cf539739df2c5dacb4c659f2488d63e8e3370089898989670de0b6b3a76400006126898b84612e32565b6126939190612e68565b670de0b6b3a76400006126a68c8e612e32565b6126b09190612e68565b306126bc42600a612e8a565b60405160e08a901b6001600160e01b03191681526001600160a01b039889166004820152968816602488015260448701959095526064860193909352608485019190915260a484015290921660c482015260e481019190915261010401606060405180830381600087803b15801561273357600080fd5b505af1158015612747573d6000803e3d6000fd5b505050506040513d601f19601f8201168201806040525081019061276b91906130c4565b925092509250955095509592505050565b82612785610dfa565b60d755612790610931565b60d6556001600160a01b038116156127d5576127ab816105dc565b6001600160a01b038216600090815260d160205260409020600381019190915560d7546002909101555b836127de6108be565b60dd556127e9610b55565b60dc556001600160a01b0381161561282e5761280481610801565b6001600160a01b038216600090815260d160205260409020600581019190915560dd546004909101555b6001600160a01b038516600090815260d1602052604081208054859290612856908490612e8a565b90915550506001600160a01b038516600090815260d1602052604081206006018054869290612886908490612e8a565b90915550506040518381526001600160a01b038616907f9e71bc8eea02a63969f509818f2dafb9254532904319f9dbda79b67bd34a5f3d9060200160405180910390a25050505050565b826128d9610dfa565b60d7556128e4610931565b60d6556001600160a01b03811615612929576128ff816105dc565b6001600160a01b038216600090815260d160205260409020600381019190915560d7546002909101555b836129326108be565b60dd5561293d610b55565b60dc556001600160a01b038116156129825761295881610801565b6001600160a01b038216600090815260d160205260409020600581019190915560dd546004909101555b6001600160a01b038516600090815260d16020526040812080548592906129aa908490612e8a565b90915550506001600160a01b038516600090815260d1602052604081206007018054869290612886908490612e8a565b606082471015612a3b5760405162461bcd60e51b815260206004820152602660248201527f416464726573733a20696e73756666696369656e742062616c616e636520666f6044820152651c8818d85b1b60d21b60648201526084016109b4565b6001600160a01b0385163b612a925760405162461bcd60e51b815260206004820152601d60248201527f416464726573733a2063616c6c20746f206e6f6e2d636f6e747261637400000060448201526064016109b4565b600080866001600160a01b03168587604051612aae919061311e565b60006040518083038185875af1925050503d8060008114612aeb576040519150601f19603f3d011682016040523d82523d6000602084013e612af0565b606091505b5091509150612b00828286612b0b565b979650505050505050565b60608315612b1a57508161264d565b825115612b2a5782518084602001fd5b8160405162461bcd60e51b81526004016109b4919061313a565b6001600160a01b03811681146106bf57600080fd5b600060208284031215612b6b57600080fd5b813561264d81612b44565b600060208284031215612b8857600080fd5b5035919050565b6001600160a01b0391909116815260200190565b634e487b7160e01b600052604160045260246000fd5b604051601f8201601f1916810167ffffffffffffffff81118282101715612be257612be2612ba3565b604052919050565b600067ffffffffffffffff821115612c0457612c04612ba3565b5060051b60200190565b600082601f830112612c1f57600080fd5b81356020612c34612c2f83612bea565b612bb9565b82815260059290921b84018101918181019086841115612c5357600080fd5b8286015b84811015612c6e5780358352918301918301612c57565b509695505050505050565b600082601f830112612c8a57600080fd5b81356020612c9a612c2f83612bea565b82815260059290921b84018101918181019086841115612cb957600080fd5b8286015b84811015612c6e578035612cd081612b44565b8352918301918301612cbd565b600080600080600080600060e0888a031215612cf857600080fd5b873567ffffffffffffffff80821115612d1057600080fd5b612d1c8b838c01612c0e565b985060208a0135915080821115612d3257600080fd5b612d3e8b838c01612c79565b975060408a0135915080821115612d5457600080fd5b612d608b838c01612c0e565b965060608a0135915080821115612d7657600080fd5b50612d838a828b01612c79565b979a969950949760808101359660a0820135965060c090910135945092505050565b60008060408385031215612db857600080fd5b8235612dc381612b44565b946020939093013593505050565b600080600060608486031215612de657600080fd5b8335612df181612b44565b92506020840135612e0181612b44565b91506040840135612e1181612b44565b809150509250925092565b634e487b7160e01b600052601160045260246000fd5b6000816000190483118215151615612e4c57612e4c612e1c565b500290565b600082821015612e6357612e63612e1c565b500390565b600082612e8557634e487b7160e01b600052601260045260246000fd5b500490565b60008219821115612e9d57612e9d612e1c565b500190565b6001600160a01b03929092168252602082015260400190565b60208082526058908201527f50726576696f7573207265776172647320706572696f64206d7573742062652060408201527f636f6d706c657465206265666f7265206368616e67696e672074686520647572606082015277185d1a5bdb88199bdc881d1a19481b995dc81c195c9a5bd960421b608082015260a00190565b600060208284031215612f4b57600080fd5b815161264d81612b44565b600060208284031215612f6857600080fd5b8151801515811461264d57600080fd5b80516001600160701b0381168114612f8f57600080fd5b919050565b600080600060608486031215612fa957600080fd5b612fb284612f78565b9250612fc060208501612f78565b9150604084015163ffffffff81168114612e1157600080fd5b600060208284031215612feb57600080fd5b5051919050565b6020808252601890820152770a0e4deecd2c8cac840e4caeec2e4c840e8dede40d0d2ced60431b604082015260600190565b6020808252602b908201527f496e697469616c697a61626c653a20636f6e7472616374206973206e6f74206960408201526a6e697469616c697a696e6760a81b606082015260800190565b634e487b7160e01b600052603260045260246000fd5b600060001982141561309957613099612e1c565b5060010190565b600080604083850312156130b357600080fd5b505080516020909101519092909150565b6000806000606084860312156130d957600080fd5b8351925060208401519150604084015190509250925092565b60005b8381101561310d5781810151838201526020016130f5565b83811115610d8e5750506000910152565b600082516131308184602087016130f2565b9190910192915050565b60208152600082518060208401526131598160408501602087016130f2565b601f01601f1916919091016040019291505056fea2646970667358221220c2a6615839be0df26cc3044a74cc202491fa5bf8685d942b1cb3cb880e4c286964736f6c63430008090033",
  "linkReferences": {},
  "deployedLinkReferences": {}
}