{
  "_format": "hh-sol-artifact-1",
  "contractName": "LiquidityMaker",
  "sourceName": "contracts/LiquidityMaker.sol",
  "abi": [
    {
      "anonymous": false,
      "inputs": [
        {
          "indexed": false,
          "internalType": "uint8",
          "name": "version",
          "type": "uint8"
        }
      ],
      "name": "Initialized",
      "type": "event"
    },
    {
      "anonymous": false,
      "inputs": [
        {
          "indexed": false,
          "internalType": "uint256",
          "name": "_reward",
          "type": "uint256"
        }
      ],
      "name": "LiquidityRewardAdded",
      "type": "event"
    },
    {
      "anonymous": false,
      "inputs": [
        {
          "indexed": true,
          "internalType": "address",
          "name": "_user",
          "type": "address"
        },
        {
          "indexed": false,
          "internalType": "uint256",
          "name": "_reward",
          "type": "uint256"
        }
      ],
      "name": "LiquidityRewardPaid",
      "type": "event"
    },
    {
      "anonymous": false,
      "inputs": [
        {
          "indexed": false,
          "internalType": "uint256",
          "name": "_lockingPeriod",
          "type": "uint256"
        }
      ],
      "name": "LockingPeriodUpdated",
      "type": "event"
    },
    {
      "anonymous": false,
      "inputs": [
        {
          "indexed": false,
          "internalType": "uint256",
          "name": "_maxTotalSupply",
          "type": "uint256"
        }
      ],
      "name": "MaxTotalSupplyUpdated",
      "type": "event"
    },
    {
      "anonymous": false,
      "inputs": [
        {
          "indexed": true,
          "internalType": "address",
          "name": "previousOwner",
          "type": "address"
        },
        {
          "indexed": true,
          "internalType": "address",
          "name": "newOwner",
          "type": "address"
        }
      ],
      "name": "OwnershipTransferred",
      "type": "event"
    },
    {
      "anonymous": false,
      "inputs": [
        {
          "indexed": false,
          "internalType": "address",
          "name": "account",
          "type": "address"
        }
      ],
      "name": "Paused",
      "type": "event"
    },
    {
      "anonymous": false,
      "inputs": [
        {
          "indexed": false,
          "internalType": "address",
          "name": "_token",
          "type": "address"
        },
        {
          "indexed": false,
          "internalType": "uint256",
          "name": "_amount",
          "type": "uint256"
        }
      ],
      "name": "Recovered",
      "type": "event"
    },
    {
      "anonymous": false,
      "inputs": [
        {
          "indexed": false,
          "internalType": "uint256",
          "name": "_reward",
          "type": "uint256"
        }
      ],
      "name": "RewardAdded",
      "type": "event"
    },
    {
      "anonymous": false,
      "inputs": [
        {
          "indexed": true,
          "internalType": "address",
          "name": "_user",
          "type": "address"
        },
        {
          "indexed": false,
          "internalType": "uint256",
          "name": "_reward",
          "type": "uint256"
        }
      ],
      "name": "RewardPaid",
      "type": "event"
    },
    {
      "anonymous": false,
      "inputs": [
        {
          "indexed": false,
          "internalType": "uint256",
          "name": "_newDuration",
          "type": "uint256"
        }
      ],
      "name": "RewardsDurationUpdated",
      "type": "event"
    },
    {
      "anonymous": false,
      "inputs": [
        {
          "indexed": true,
          "internalType": "address",
          "name": "_user",
          "type": "address"
        },
        {
          "indexed": false,
          "internalType": "uint256",
          "name": "_amount",
          "type": "uint256"
        }
      ],
      "name": "Staked",
      "type": "event"
    },
    {
      "anonymous": false,
      "inputs": [
        {
          "indexed": false,
          "internalType": "address",
          "name": "account",
          "type": "address"
        }
      ],
      "name": "Unpaused",
      "type": "event"
    },
    {
      "anonymous": false,
      "inputs": [
        {
          "indexed": true,
          "internalType": "address",
          "name": "_user",
          "type": "address"
        },
        {
          "indexed": false,
          "internalType": "uint256",
          "name": "_amount",
          "type": "uint256"
        }
      ],
      "name": "Withdrawn",
      "type": "event"
    },
    {
      "anonymous": false,
      "inputs": [
        {
          "indexed": false,
          "internalType": "uint256",
          "name": "_newDuration",
          "type": "uint256"
        }
      ],
      "name": "liquidityRewardsDurationUpdated",
      "type": "event"
    },
    {
      "inputs": [
        {
          "internalType": "uint256",
          "name": "_reward",
          "type": "uint256"
        }
      ],
      "name": "addLiquidityReward",
      "outputs": [],
      "stateMutability": "nonpayable",
      "type": "function"
    },
    {
      "inputs": [
        {
          "internalType": "uint256",
          "name": "_reward",
          "type": "uint256"
        }
      ],
      "name": "addReward",
      "outputs": [],
      "stateMutability": "nonpayable",
      "type": "function"
    },
    {
      "inputs": [],
      "name": "baseTokenAddress",
      "outputs": [
        {
          "internalType": "address",
          "name": "",
          "type": "address"
        }
      ],
      "stateMutability": "view",
      "type": "function"
    },
    {
      "inputs": [],
      "name": "exit",
      "outputs": [],
      "stateMutability": "nonpayable",
      "type": "function"
    },
    {
      "inputs": [
        {
          "internalType": "uint256",
          "name": "_slippage",
          "type": "uint256"
        }
      ],
      "name": "exitTokens",
      "outputs": [],
      "stateMutability": "nonpayable",
      "type": "function"
    },
    {
      "inputs": [],
      "name": "getLiquidityReward",
      "outputs": [],
      "stateMutability": "nonpayable",
      "type": "function"
    },
    {
      "inputs": [],
      "name": "getReward",
      "outputs": [],
      "stateMutability": "nonpayable",
      "type": "function"
    },
    {
      "inputs": [
        {
          "internalType": "address",
          "name": "",
          "type": "address"
        }
      ],
      "name": "holdersMapping",
      "outputs": [
        {
          "internalType": "uint256",
          "name": "liquidityBalance",
          "type": "uint256"
        },
        {
          "internalType": "uint256",
          "name": "lastLiquidityProvidingTime",
          "type": "uint256"
        },
        {
          "internalType": "uint256",
          "name": "userRewardPerTokenPaid",
          "type": "uint256"
        },
        {
          "internalType": "uint256",
          "name": "rewards",
          "type": "uint256"
        },
        {
          "internalType": "uint256",
          "name": "userLiquidityRewardPerTokenPaid",
          "type": "uint256"
        },
        {
          "internalType": "uint256",
          "name": "liquidityRewards",
          "type": "uint256"
        },
        {
          "internalType": "uint256",
          "name": "stakedInBaseToken",
          "type": "uint256"
        },
        {
          "internalType": "uint256",
          "name": "stakedInPairedToken",
          "type": "uint256"
        }
      ],
      "stateMutability": "view",
      "type": "function"
    },
    {
      "inputs": [
        {
          "internalType": "address",
          "name": "_baseToken",
          "type": "address"
        },
        {
          "internalType": "address",
          "name": "_pairedToken",
          "type": "address"
        },
        {
          "internalType": "address",
          "name": "_rewardToken",
          "type": "address"
        },
        {
          "internalType": "address",
          "name": "_projectModerator",
          "type": "address"
        }
      ],
      "name": "initialize",
      "outputs": [],
      "stateMutability": "nonpayable",
      "type": "function"
    },
    {
      "inputs": [],
      "name": "lastLiquidityRewardUpdateTime",
      "outputs": [
        {
          "internalType": "uint256",
          "name": "",
          "type": "uint256"
        }
      ],
      "stateMutability": "view",
      "type": "function"
    },
    {
      "inputs": [],
      "name": "lastRewardUpdateTime",
      "outputs": [
        {
          "internalType": "uint256",
          "name": "",
          "type": "uint256"
        }
      ],
      "stateMutability": "view",
      "type": "function"
    },
    {
      "inputs": [],
      "name": "lastTimeLiquidityRewardApplicable",
      "outputs": [
        {
          "internalType": "uint256",
          "name": "",
          "type": "uint256"
        }
      ],
      "stateMutability": "view",
      "type": "function"
    },
    {
      "inputs": [],
      "name": "lastTimeRewardApplicable",
      "outputs": [
        {
          "internalType": "uint256",
          "name": "",
          "type": "uint256"
        }
      ],
      "stateMutability": "view",
      "type": "function"
    },
    {
      "inputs": [
        {
          "internalType": "address",
          "name": "_beneficiary",
          "type": "address"
        }
      ],
      "name": "liquidityRewardEarned",
      "outputs": [
        {
          "internalType": "uint256",
          "name": "",
          "type": "uint256"
        }
      ],
      "stateMutability": "view",
      "type": "function"
    },
    {
      "inputs": [],
      "name": "liquidityRewardPerToken",
      "outputs": [
        {
          "internalType": "uint256",
          "name": "",
          "type": "uint256"
        }
      ],
      "stateMutability": "view",
      "type": "function"
    },
    {
      "inputs": [],
      "name": "liquidityRewardPerTokenStored",
      "outputs": [
        {
          "internalType": "uint256",
          "name": "",
          "type": "uint256"
        }
      ],
      "stateMutability": "view",
      "type": "function"
    },
    {
      "inputs": [],
      "name": "liquidityRewardPeriodFinish",
      "outputs": [
        {
          "internalType": "uint256",
          "name": "",
          "type": "uint256"
        }
      ],
      "stateMutability": "view",
      "type": "function"
    },
    {
      "inputs": [],
      "name": "liquidityRewardRate",
      "outputs": [
        {
          "internalType": "uint256",
          "name": "",
          "type": "uint256"
        }
      ],
      "stateMutability": "view",
      "type": "function"
    },
    {
      "inputs": [],
      "name": "liquidityRewardsDuration",
      "outputs": [
        {
          "internalType": "uint256",
          "name": "",
          "type": "uint256"
        }
      ],
      "stateMutability": "view",
      "type": "function"
    },
    {
      "inputs": [],
      "name": "liquidityToken",
      "outputs": [
        {
          "internalType": "contract IERC20Upgradeable",
          "name": "",
          "type": "address"
        }
      ],
      "stateMutability": "view",
      "type": "function"
    },
    {
      "inputs": [],
      "name": "lockingPeriod",
      "outputs": [
        {
          "internalType": "uint256",
          "name": "",
          "type": "uint256"
        }
      ],
      "stateMutability": "view",
      "type": "function"
    },
    {
      "inputs": [],
      "name": "maxTotalSupply",
      "outputs": [
        {
          "internalType": "uint256",
          "name": "",
          "type": "uint256"
        }
      ],
      "stateMutability": "view",
      "type": "function"
    },
    {
      "inputs": [],
      "name": "owner",
      "outputs": [
        {
          "internalType": "address",
          "name": "",
          "type": "address"
        }
      ],
      "stateMutability": "view",
      "type": "function"
    },
    {
      "inputs": [],
      "name": "pair",
      "outputs": [
        {
          "internalType": "contract IUniswapV2Pair",
          "name": "",
          "type": "address"
        }
      ],
      "stateMutability": "view",
      "type": "function"
    },
    {
      "inputs": [],
      "name": "pairedTokenAddress",
      "outputs": [
        {
          "internalType": "address",
          "name": "",
          "type": "address"
        }
      ],
      "stateMutability": "view",
      "type": "function"
    },
    {
      "inputs": [],
      "name": "paused",
      "outputs": [
        {
          "internalType": "bool",
          "name": "",
          "type": "bool"
        }
      ],
      "stateMutability": "view",
      "type": "function"
    },
    {
      "inputs": [],
      "name": "projectModerator",
      "outputs": [
        {
          "internalType": "address",
          "name": "",
          "type": "address"
        }
      ],
      "stateMutability": "view",
      "type": "function"
    },
    {
      "inputs": [
        {
          "internalType": "address",
          "name": "_tokenAddress",
          "type": "address"
        },
        {
          "internalType": "uint256",
          "name": "_tokenAmount",
          "type": "uint256"
        }
      ],
      "name": "recoverERC20",
      "outputs": [],
      "stateMutability": "nonpayable",
      "type": "function"
    },
    {
      "inputs": [],
      "name": "renounceOwnership",
      "outputs": [],
      "stateMutability": "nonpayable",
      "type": "function"
    },
    {
      "inputs": [
        {
          "internalType": "address",
          "name": "_beneficiary",
          "type": "address"
        }
      ],
      "name": "rewardEarned",
      "outputs": [
        {
          "internalType": "uint256",
          "name": "",
          "type": "uint256"
        }
      ],
      "stateMutability": "view",
      "type": "function"
    },
    {
      "inputs": [],
      "name": "rewardPerToken",
      "outputs": [
        {
          "internalType": "uint256",
          "name": "",
          "type": "uint256"
        }
      ],
      "stateMutability": "view",
      "type": "function"
    },
    {
      "inputs": [],
      "name": "rewardPerTokenStored",
      "outputs": [
        {
          "internalType": "uint256",
          "name": "",
          "type": "uint256"
        }
      ],
      "stateMutability": "view",
      "type": "function"
    },
    {
      "inputs": [],
      "name": "rewardPeriodFinish",
      "outputs": [
        {
          "internalType": "uint256",
          "name": "",
          "type": "uint256"
        }
      ],
      "stateMutability": "view",
      "type": "function"
    },
    {
      "inputs": [],
      "name": "rewardRate",
      "outputs": [
        {
          "internalType": "uint256",
          "name": "",
          "type": "uint256"
        }
      ],
      "stateMutability": "view",
      "type": "function"
    },
    {
      "inputs": [],
      "name": "rewardsDuration",
      "outputs": [
        {
          "internalType": "uint256",
          "name": "",
          "type": "uint256"
        }
      ],
      "stateMutability": "view",
      "type": "function"
    },
    {
      "inputs": [],
      "name": "rewardsToken",
      "outputs": [
        {
          "internalType": "contract IERC20Upgradeable",
          "name": "",
          "type": "address"
        }
      ],
      "stateMutability": "view",
      "type": "function"
    },
    {
      "inputs": [
        {
          "internalType": "uint256",
          "name": "_rewardsDuration",
          "type": "uint256"
        }
      ],
      "name": "setLiquidityRewardsDuration",
      "outputs": [],
      "stateMutability": "nonpayable",
      "type": "function"
    },
    {
      "inputs": [
        {
          "internalType": "uint256",
          "name": "_lockingPeriod",
          "type": "uint256"
        }
      ],
      "name": "setLockingPeriod",
      "outputs": [],
      "stateMutability": "nonpayable",
      "type": "function"
    },
    {
      "inputs": [
        {
          "internalType": "uint256",
          "name": "_maxTotalSupply",
          "type": "uint256"
        }
      ],
      "name": "setMaxTotalSupply",
      "outputs": [],
      "stateMutability": "nonpayable",
      "type": "function"
    },
    {
      "inputs": [
        {
          "internalType": "uint256",
          "name": "_rewardsDuration",
          "type": "uint256"
        }
      ],
      "name": "setRewardsDuration",
      "outputs": [],
      "stateMutability": "nonpayable",
      "type": "function"
    },
    {
      "inputs": [
        {
          "internalType": "uint256",
          "name": "_amount",
          "type": "uint256"
        }
      ],
      "name": "stake",
      "outputs": [],
      "stateMutability": "nonpayable",
      "type": "function"
    },
    {
      "inputs": [
        {
          "internalType": "uint256[]",
          "name": "_amountsBaseTokenIn",
          "type": "uint256[]"
        },
        {
          "internalType": "address[]",
          "name": "_beneficiaryBaseArray",
          "type": "address[]"
        },
        {
          "internalType": "uint256[]",
          "name": "_amountsPairedTokenIn",
          "type": "uint256[]"
        },
        {
          "internalType": "address[]",
          "name": "_beneficiaryPairedArray",
          "type": "address[]"
        },
        {
          "internalType": "uint256",
          "name": "_baseSum",
          "type": "uint256"
        },
        {
          "internalType": "uint256",
          "name": "_pairedSum",
          "type": "uint256"
        },
        {
          "internalType": "uint256",
          "name": "_slippage",
          "type": "uint256"
        },
        {
          "internalType": "string",
          "name": "_exchange",
          "type": "string"
        },
        {
          "internalType": "address",
          "name": "_controller",
          "type": "address"
        }
      ],
      "name": "stakeInLiquidityMaker",
      "outputs": [
        {
          "internalType": "uint256",
          "name": "",
          "type": "uint256"
        },
        {
          "internalType": "uint256",
          "name": "",
          "type": "uint256"
        }
      ],
      "stateMutability": "nonpayable",
      "type": "function"
    },
    {
      "inputs": [],
      "name": "totalSupply",
      "outputs": [
        {
          "internalType": "uint256",
          "name": "",
          "type": "uint256"
        }
      ],
      "stateMutability": "view",
      "type": "function"
    },
    {
      "inputs": [
        {
          "internalType": "address",
          "name": "newOwner",
          "type": "address"
        }
      ],
      "name": "transferOwnership",
      "outputs": [],
      "stateMutability": "nonpayable",
      "type": "function"
    },
    {
      "inputs": [],
      "name": "withdrawLiquidity",
      "outputs": [],
      "stateMutability": "nonpayable",
      "type": "function"
    },
    {
      "inputs": [
        {
          "internalType": "uint256",
          "name": "_slippage",
          "type": "uint256"
        }
      ],
      "name": "withdrawTokens",
      "outputs": [],
      "stateMutability": "nonpayable",
      "type": "function"
    },
    {
      "stateMutability": "payable",
      "type": "receive"
    }
  ],
  "bytecode": "0x608060405234801561001057600080fd5b5061414b806100206000396000f3fe6080604052600436106102815760003560e01c806377de1b961161014f578063aff9fff5116100c1578063dabf2dac1161007a578063dabf2dac1461076f578063df136d6514610785578063e9fad8ee1461079b578063f2fde38b146107b0578063f5a08238146107d0578063f8c8765e146107f057600080fd5b8063aff9fff5146106da578063bf6278ea146106ef578063cc1a378f14610704578063cd3daf9d14610724578063d1af0c7d14610739578063d98b5ee91461075957600080fd5b80638980f11f116101135780638980f11f146106255780638da5cb5b14610645578063a1a2aa411461065a578063a694fc3a1461067a578063a8aa1b311461069a578063acbca21e146106ba57600080fd5b806377de1b96146105b05780637b0a47ee146105c55780637cb374bd146105db5780637ea382c1146105fb57806380faa57d1461061057600080fd5b806343cd8f7e116101f357806361fd49e2116101ac57806361fd49e2146104fa5780636927810d146105105780636f5e6fbc14610530578063715018a6146105655780637415cfe41461057a57806374de4ec41461059057600080fd5b806343cd8f7e146103c557806347fd27f0146103f257806350fc83271461048b578063550066d5146104ab5780635c795aa2146104c15780635c975abb146104d757600080fd5b80632bd1755a116102455780632bd1755a14610324578063315a095d1461033a578063386a95251461035a5780633d18b912146103705780633ee28b65146103855780633f3e4c11146103a557600080fd5b806316ba6bf31461028d57806318160ddd146102c057806326b321d1146102d6578063279084a6146102f85780632ab4d0521461030e57600080fd5b3661028857005b600080fd5b34801561029957600080fd5b506102ad6102a836600461386a565b610810565b6040519081526020015b60405180910390f35b3480156102cc57600080fd5b506102ad60d05481565b3480156102e257600080fd5b506102f66102f1366004613887565b61088c565b005b34801561030457600080fd5b506102ad60d45481565b34801561031a57600080fd5b506102ad60d15481565b34801561033057600080fd5b506102ad60d75481565b34801561034657600080fd5b506102f6610355366004613887565b61091e565b34801561036657600080fd5b506102ad60d65481565b34801561037c57600080fd5b506102f6610ebb565b34801561039157600080fd5b506102f66103a0366004613887565b610f9b565b3480156103b157600080fd5b506102f66103c0366004613887565b610fbf565b3480156103d157600080fd5b5060d9546103e5906001600160a01b031681565b6040516102b791906138a0565b3480156103fe57600080fd5b5061045061040d36600461386a565b60cf602052600090815260409020805460018201546002830154600384015460048501546005860154600687015460079097015495969495939492939192909188565b604080519889526020890197909752958701949094526060860192909252608085015260a084015260c083015260e0820152610100016102b7565b34801561049757600080fd5b506102ad6104a636600461386a565b611041565b3480156104b757600080fd5b506102ad60d25481565b3480156104cd57600080fd5b506102ad60dc5481565b3480156104e357600080fd5b5060975460ff1660405190151581526020016102b7565b34801561050657600080fd5b506102ad60db5481565b34801561051c57600080fd5b5060cc546103e5906001600160a01b031681565b34801561053c57600080fd5b5061055061054b366004613a30565b611076565b604080519283526020830191909152016102b7565b34801561057157600080fd5b506102f6611151565b34801561058657600080fd5b506102ad60da5481565b34801561059c57600080fd5b506102f66105ab366004613887565b611165565b3480156105bc57600080fd5b506102ad611186565b3480156105d157600080fd5b506102ad60d55481565b3480156105e757600080fd5b5060ca546103e5906001600160a01b031681565b34801561060757600080fd5b506102f66111ed565b34801561061c57600080fd5b506102ad6113b8565b34801561063157600080fd5b506102f6610640366004613b37565b6113cf565b34801561065157600080fd5b506103e5611498565b34801561066657600080fd5b506102f6610675366004613887565b6114a7565b34801561068657600080fd5b506102f6610695366004613887565b6114b8565b3480156106a657600080fd5b5060ce546103e5906001600160a01b031681565b3480156106c657600080fd5b506102f66106d5366004613887565b611676565b3480156106e657600080fd5b506102f6611719565b3480156106fb57600080fd5b506102ad61186b565b34801561071057600080fd5b506102f661071f366004613887565b61187d565b34801561073057600080fd5b506102ad611920565b34801561074557600080fd5b5060d3546103e5906001600160a01b031681565b34801561076557600080fd5b506102ad60de5481565b34801561077b57600080fd5b506102ad60dd5481565b34801561079157600080fd5b506102ad60d85481565b3480156107a757600080fd5b506102f6611982565b3480156107bc57600080fd5b506102f66107cb36600461386a565b611992565b3480156107dc57600080fd5b5060c9546103e5906001600160a01b031681565b3480156107fc57600080fd5b506102f661080b366004613b63565b611a08565b6001600160a01b038116600090815260cf602052604081206003810154600290910154670de0b6b3a764000090610845611920565b61084f9190613bd5565b6001600160a01b038516600090815260cf60205260409020546108729190613bec565b61087c9190613c0b565b6108869190613c2d565b92915050565b60c9546001600160a01b03163314806108bd57506108a8611498565b6001600160a01b0316336001600160a01b0316145b6108e25760405162461bcd60e51b81526004016108d990613c45565b60405180910390fd5b60d28190556040518181527f10e4464ec1508bc74373bc20969bfc3c86fb9f7b2fce089585495bf47bfce4bc906020015b60405180910390a150565b33610927611920565b60d8556109326113b8565b60d7556001600160a01b038116156109775761094d81610810565b6001600160a01b038216600090815260cf60205260409020600381019190915560d8546002909101555b33610980611186565b60de5561098b61186b565b60dd556001600160a01b038116156109d0576109a681611041565b6001600160a01b038216600090815260cf60205260409020600581019190915560de546004909101555b600260655414156109f35760405162461bcd60e51b81526004016108d990613c9b565b6002606555610a00611c54565b60d25433600090815260cf60205260409020600101544291610a2191613c2d565b1115610a3f5760405162461bcd60e51b81526004016108d990613cd2565b610a47611719565b33600090815260cf6020526040908190205460ce54915163095ea7b360e01b815290916001600160a01b03169063095ea7b390610a98906000805160206140f6833981519152908590600401613d05565b602060405180830381600087803b158015610ab257600080fd5b505af1158015610ac6573d6000803e3d6000fd5b505050506040513d601f19601f82011682018060405250810190610aea9190613d1e565b5060ca5460ce5460408051630dfe168160e01b8152905160009384936001600160a01b0391821693911691630dfe168191600480820192602092909190829003018186803b158015610b3b57600080fd5b505afa158015610b4f573d6000803e3d6000fd5b505050506040513d601f19601f82011682018060405250810190610b739190613d40565b6001600160a01b03161415610c1e5760ce60009054906101000a90046001600160a01b03166001600160a01b0316630902f1ac6040518163ffffffff1660e01b815260040160606040518083038186803b158015610bd057600080fd5b505afa158015610be4573d6000803e3d6000fd5b505050506040513d601f19601f82011682018060405250810190610c089190613d74565b506001600160701b039182169350169050610cb6565b60ce60009054906101000a90046001600160a01b03166001600160a01b0316630902f1ac6040518163ffffffff1660e01b815260040160606040518083038186803b158015610c6c57600080fd5b505afa158015610c80573d6000803e3d6000fd5b505050506040513d601f19601f82011682018060405250810190610ca49190613d74565b506001600160701b0390811693501690505b600080610d4b85858560ce60009054906101000a90046001600160a01b03166001600160a01b03166318160ddd6040518163ffffffff1660e01b815260040160206040518083038186803b158015610d0d57600080fd5b505afa158015610d21573d6000803e3d6000fd5b505050506040513d601f19601f82011682018060405250810190610d459190613dc4565b8c611c9a565b915091508460d06000828254610d619190613bd5565b909155505060ca54610d7d906001600160a01b03163384611e22565b60cc546001600160a01b031673bb4cdb9cbd36b01bd1cbaebf2de08d9173bc095c1415610e3c57604051632e1a7d4d60e01b81526004810182905273bb4cdb9cbd36b01bd1cbaebf2de08d9173bc095c90632e1a7d4d90602401600060405180830381600087803b158015610df157600080fd5b505af1158015610e05573d6000803e3d6000fd5b505060405133925083156108fc02915083906000818181858888f19350505050158015610e36573d6000803e3d6000fd5b50610e53565b60cc54610e53906001600160a01b03163383611e22565b33600081815260cf60205260408082208281556007810183905560060191909155517f7084f5476618d8e60b11ef0d7d3f06914655adb8793e28ff7f018d4c76d505d590610ea49088815260200190565b60405180910390a250506001606555505050505050565b33610ec4611920565b60d855610ecf6113b8565b60d7556001600160a01b03811615610f1457610eea81610810565b6001600160a01b038216600090815260cf60205260409020600381019190915560d8546002909101555b610f1c611c54565b33600090815260cf60205260409020600301548015610f975733600081815260cf602052604081206003015560d354610f61916001600160a01b039091169083611e22565b60405181815233907fe2403640ba68fed3a2f88b7557551d1993f84b99bb10ff833f0cf8db0c5e04869060200160405180910390a25b5050565b60d954610fb3906001600160a01b0316333084611e78565b610fbc81611eb6565b50565b60c9546001600160a01b0316331480610ff05750610fdb611498565b6001600160a01b0316336001600160a01b0316145b61100c5760405162461bcd60e51b81526004016108d990613c45565b60d18190556040518181527ff2672935fc79f5237559e2e2999dbe743bf65430894ac2b37666890e7c69e1af90602001610913565b6001600160a01b038116600090815260cf602052604081206005810154600490910154670de0b6b3a764000090610845611186565b600080611081611c54565b600260655414156110a45760405162461bcd60e51b81526004016108d990613c9b565b600260658190555060006040518061012001604052808e81526020018d81526020018c81526020018b81526020018a815260200189815260200188815260200187878080601f0160208091040260200160405190810160405280939291908181526020018383808284376000920191909152505050908252506001600160a01b038616602090910152905061113881612070565b6001606555909e909d509b505050505050505050505050565b611159612208565b6111636000612267565b565b60d35461117d906001600160a01b0316333084611e78565b610fbc816122b9565b600060d0546000141561119a575060de5490565b60d05460db5460dd546111ab61186b565b6111b59190613bd5565b6111bf9190613bec565b6111d190670de0b6b3a7640000613bec565b6111db9190613c0b565b60de546111e89190613c2d565b905090565b336111f6611920565b60d8556112016113b8565b60d7556001600160a01b038116156112465761121c81610810565b6001600160a01b038216600090815260cf60205260409020600381019190915560d8546002909101555b3361124f611186565b60de5561125a61186b565b60dd556001600160a01b0381161561129f5761127581611041565b6001600160a01b038216600090815260cf60205260409020600581019190915560de546004909101555b600260655414156112c25760405162461bcd60e51b81526004016108d990613c9b565b60026065556112cf611c54565b60d25433600090815260cf602052604090206001015442916112f091613c2d565b111561130e5760405162461bcd60e51b81526004016108d990613cd2565b611316611719565b33600090815260cf602052604081205460d0805491928392611339908490613bd5565b909155505060d954611355906001600160a01b03163383611e22565b33600081815260cf60205260408082208281556007810183905560060191909155517f7084f5476618d8e60b11ef0d7d3f06914655adb8793e28ff7f018d4c76d505d5906113a69084815260200190565b60405180910390a25050600160655550565b600060d45442106113ca575060d45490565b504290565b6113d7612208565b60d9546001600160a01b038381169116141561143f5760405162461bcd60e51b815260206004820152602160248201527f43616e6e6f7420776974686472617720746865207374616b696e6720746f6b656044820152603760f91b60648201526084016108d9565b61145b61144a611498565b6001600160a01b0384169083611e22565b7f8c1256b8896378cd5044f80c202f9772b9d77dc85c8a6eb51967210b09bfaa28828260405161148c929190613d05565b60405180910390a15050565b6033546001600160a01b031690565b6114b08161091e565b610fbc610ebb565b600260655414156114db5760405162461bcd60e51b81526004016108d990613c9b565b60026065556114e8611c54565b336114f1611920565b60d8556114fc6113b8565b60d7556001600160a01b038116156115415761151781610810565b6001600160a01b038216600090815260cf60205260409020600381019190915560d8546002909101555b3361154a611186565b60de5561155561186b565b60dd556001600160a01b0381161561159a5761157081611041565b6001600160a01b038216600090815260cf60205260409020600581019190915560de546004909101555b600083116115db5760405162461bcd60e51b815260206004820152600e60248201526d043616e6e6f74207374616b6520360941b60448201526064016108d9565b33600090815260cf6020526040812080548592906115fa908490613c2d565b909155505033600090815260cf602052604081204260019091015560d08054859290611627908490613c2d565b909155505060d954611644906001600160a01b0316333086611e78565b60405183815233907f9e71bc8eea02a63969f509818f2dafb9254532904319f9dbda79b67bd34a5f3d906020016113a6565b60c9546001600160a01b03163314806116a75750611692611498565b6001600160a01b0316336001600160a01b0316145b6116c35760405162461bcd60e51b81526004016108d990613c45565b60da5442116116e45760405162461bcd60e51b81526004016108d990613ddd565b60dc8190556040518181527f6705e591c0abd6b7368d547f726cae5eeba031ff42bb14ced689b0829f0cd29c90602001610913565b33611722611920565b60d85561172d6113b8565b60d7556001600160a01b038116156117725761174881610810565b6001600160a01b038216600090815260cf60205260409020600381019190915560d8546002909101555b3361177b611186565b60de5561178661186b565b60dd556001600160a01b038116156117cb576117a181611041565b6001600160a01b038216600090815260cf60205260409020600581019190915560de546004909101555b6117d3611c54565b33600090815260cf602052604090206005015480156118665733600090815260cf60205260408120600581018290558054839290611812908490613c2d565b925050819055508060d0600082825461182b9190613c2d565b909155505060405181815233907f748699c4f2c3d8abc1051941dc2337a504bf44992d01ebeafa4669f05fe6e2c39060200160405180910390a25b505050565b600060da5442106113ca575060da5490565b60c9546001600160a01b03163314806118ae5750611899611498565b6001600160a01b0316336001600160a01b0316145b6118ca5760405162461bcd60e51b81526004016108d990613c45565b60d45442116118eb5760405162461bcd60e51b81526004016108d990613ddd565b60d68190556040518181527ffb46ca5a5e06d4540d6387b930a7c978bce0db5f449ec6b3f5d07c6e1d44f2d390602001610913565b600060d05460001415611934575060d85490565b60d05460d55460d7546119456113b8565b61194f9190613bd5565b6119599190613bec565b61196b90670de0b6b3a7640000613bec565b6119759190613c0b565b60d8546111e89190613c2d565b61198a6111ed565b611163610ebb565b61199a612208565b6001600160a01b0381166119ff5760405162461bcd60e51b815260206004820152602660248201527f4f776e61626c653a206e6577206f776e657220697320746865207a65726f206160448201526564647265737360d01b60648201526084016108d9565b610fbc81612267565b600054610100900460ff1615808015611a285750600054600160ff909116105b80611a425750303b158015611a42575060005460ff166001145b611aa55760405162461bcd60e51b815260206004820152602e60248201527f496e697469616c697a61626c653a20636f6e747261637420697320616c72656160448201526d191e481a5b9a5d1a585b1a5e995960921b60648201526084016108d9565b6000805460ff191660011790558015611ac8576000805461ff0019166101001790555b611ad061246a565b611ad8612499565b611ae06124c8565b60d380546001600160a01b038581166001600160a01b03199283161790925560cb8054888416908316811790915560ca805483168217905560cd80549388169383168417905560cc8054909216831790915560405163e6a4390560e01b81526004810191909152602481019190915273ca143ce32fe78f1f7019d7d551a6402fc5350c739063e6a439059060440160206040518083038186803b158015611b8657600080fd5b505afa158015611b9a573d6000803e3d6000fd5b505050506040513d601f19601f82011682018060405250810190611bbe9190613d40565b60ce80546001600160a01b039283166001600160a01b0319918216811790925560d98054821690921790915560c980549285169290911691909117905562278d0060dc81905560d6558015611c4d576000805461ff0019169055604051600181527f7f26b83ff96e1f2b6a682f133852f6798a09c465da95921460cefb38474024989060200160405180910390a15b5050505050565b60975460ff16156111635760405162461bcd60e51b815260206004820152601060248201526f14185d5cd8589b194e881c185d5cd95960821b60448201526064016108d9565b6000808084611ca98989613bec565b611cb39190613c0b565b9050600085611cc28a89613bec565b611ccc9190613c0b565b60ca5460ce5460408051630dfe168160e01b8152905193945060009384936001600160a01b03908116931691630dfe1681916004808301926020929190829003018186803b158015611d1d57600080fd5b505afa158015611d31573d6000803e3d6000fd5b505050506040513d601f19601f82011682018060405250810190611d559190613d40565b6001600160a01b03161415611dc55760ca5460cc54611dbb916001600160a01b0390811691168d670de0b6b3a7640000611d8f8c8a613bec565b611d999190613c0b565b670de0b6b3a7640000611dac8d8a613bec565b611db69190613c0b565b6124f7565b9092509050611e12565b60cc5460ca54611e0d916001600160a01b0390811691168d670de0b6b3a7640000611df08c89613bec565b611dfa9190613c0b565b670de0b6b3a7640000611dac8d8b613bec565b925090505b909a909950975050505050505050565b6118668363a9059cbb60e01b8484604051602401611e41929190613d05565b60408051601f198184030181529190526020810180516001600160e01b03166001600160e01b0319909316929092179091526125d2565b6040516001600160a01b0380851660248301528316604482015260648101829052611eb09085906323b872dd60e01b90608401611e41565b50505050565b6000611ec0611186565b60de55611ecb61186b565b60dd556001600160a01b03811615611f1057611ee681611041565b6001600160a01b038216600090815260cf60205260409020600581019190915560de546004909101555b60da544210611f2e5760dc54611f269083613c0b565b60db55611f70565b60004260da54611f3e9190613bd5565b9050600060db5482611f509190613bec565b60dc54909150611f608286613c2d565b611f6a9190613c0b565b60db5550505b60d9546040516370a0823160e01b81526000916001600160a01b0316906370a0823190611fa19030906004016138a0565b60206040518083038186803b158015611fb957600080fd5b505afa158015611fcd573d6000803e3d6000fd5b505050506040513d601f19601f82011682018060405250810190611ff19190613dc4565b905060dc54816120019190613c0b565b60db5411156120225760405162461bcd60e51b81526004016108d990613e5b565b4260dd81905560dc5461203491613c2d565b60da556040518381527f8123abeaa60b131ff611695ed07c6ee2a88f9f4970de4429001a17dba775e529906020015b60405180910390a1505050565b608081015160ca546000918291612096916001600160a01b039091169033903090611e78565b60a083015160cc546120b7916001600160a01b039091169033903090611e78565b6120cf8361010001518460a001518560e001516126a4565b60a08401819052608084015160009182916120e99161283f565b91509150600080600061210185858a60c00151612b53565b92509250925060d1548160d0546121189190613c2d565b11156121625760405162461bcd60e51b815260206004820152601960248201527813585e081d1bdd185b081cdd5c1c1b1e48195e18d959591959603a1b60448201526064016108d9565b8060d060008282546121749190613c2d565b925050819055506121a233848a6080015161218f9190613bd5565b60ca546001600160a01b03169190611e22565b6121c933838a60a001516121b69190613bd5565b60cc546001600160a01b03169190611e22565b6121e288602001518960000151858b6080015185612d7a565b6121fb88606001518960400151848b60a0015185612e2e565b5090969095509350505050565b33612211611498565b6001600160a01b0316146111635760405162461bcd60e51b815260206004820181905260248201527f4f776e61626c653a2063616c6c6572206973206e6f7420746865206f776e657260448201526064016108d9565b603380546001600160a01b038381166001600160a01b0319831681179093556040519116919082907f8be0079c531659141344cd1fd0a4f28419497f9722a3daafe3b4186f6b6457e090600090a35050565b60006122c3611920565b60d8556122ce6113b8565b60d7556001600160a01b03811615612313576122e981610810565b6001600160a01b038216600090815260cf60205260409020600381019190915560d8546002909101555b60d45442106123315760d6546123299083613c0b565b60d555612373565b60004260d4546123419190613bd5565b9050600060d554826123539190613bec565b60d6549091506123638286613c2d565b61236d9190613c0b565b60d55550505b60d3546040516370a0823160e01b81526000916001600160a01b0316906370a08231906123a49030906004016138a0565b60206040518083038186803b1580156123bc57600080fd5b505afa1580156123d0573d6000803e3d6000fd5b505050506040513d601f19601f820116820180604052508101906123f49190613dc4565b905060d654816124049190613c0b565b60d55411156124255760405162461bcd60e51b81526004016108d990613e5b565b4260d781905560d65461243791613c2d565b60d4556040518381527fde88a922e0d3b88b24e9623efeb464919c6bf9f66857a65e2bfcf2ce87a9433d90602001612063565b600054610100900460ff166124915760405162461bcd60e51b81526004016108d990613e8d565b611163612eda565b600054610100900460ff166124c05760405162461bcd60e51b81526004016108d990613e8d565b611163612f0a565b600054610100900460ff166124ef5760405162461bcd60e51b81526004016108d990613e8d565b611163612f3d565b6000806000805160206140f683398151915263baa2abde88888888883061251f42600a613c2d565b60405160e089901b6001600160e01b03191681526001600160a01b039788166004820152958716602487015260448601949094526064850192909252608484015290921660a482015260c481019190915260e4016040805180830381600087803b15801561258c57600080fd5b505af11580156125a0573d6000803e3d6000fd5b505050506040513d601f19601f820116820180604052508101906125c49190613ed8565b915091509550959350505050565b6000612627826040518060400160405280602081526020017f5361666545524332303a206c6f772d6c6576656c2063616c6c206661696c6564815250856001600160a01b0316612f6b9092919063ffffffff16565b80519091501561186657808060200190518101906126459190613d1e565b6118665760405162461bcd60e51b815260206004820152602a60248201527f5361666545524332303a204552433230206f7065726174696f6e20646964206e6044820152691bdd081cdd58d8d9595960b21b60648201526084016108d9565b6000806702c68af0bb140000856001600160a01b031631101561282a5760006126df6001600160a01b038716316702c68af0bb140000613bd5565b60cc549091506001600160a01b031673bb4cdb9cbd36b01bd1cbaebf2de08d9173bc095c146127285760cc546127219087906001600160a01b03168387612f82565b91506127ca565b604051632e1a7d4d60e01b815260048101829052909150819073bb4cdb9cbd36b01bd1cbaebf2de08d9173bc095c90632e1a7d4d90602401600060405180830381600087803b15801561277a57600080fd5b505af115801561278e573d6000803e3d6000fd5b50506040516001600160a01b038916925083156108fc02915083906000818181858888f193505050501580156127c8573d6000803e3d6000fd5b505b8185116128285760405162461bcd60e51b815260206004820152602660248201527f5472616e73616374696f6e20636f737473206d6f7265207468616e20676173206044820152651b995959195960d21b60648201526084016108d9565b505b6128348185613bd5565b9150505b9392505050565b60ca5460ce5460408051630dfe168160e01b815290516000938493849384936001600160a01b039384169390921691630dfe168191600480820192602092909190829003018186803b15801561289457600080fd5b505afa1580156128a8573d6000803e3d6000fd5b505050506040513d601f19601f820116820180604052508101906128cc9190613d40565b6001600160a01b031614156129775760ce60009054906101000a90046001600160a01b03166001600160a01b0316630902f1ac6040518163ffffffff1660e01b815260040160606040518083038186803b15801561292957600080fd5b505afa15801561293d573d6000803e3d6000fd5b505050506040513d601f19601f820116820180604052508101906129619190613d74565b506001600160701b039182169350169050612a0f565b60ce60009054906101000a90046001600160a01b03166001600160a01b0316630902f1ac6040518163ffffffff1660e01b815260040160606040518083038186803b1580156129c557600080fd5b505afa1580156129d9573d6000803e3d6000fd5b505050506040513d601f19601f820116820180604052508101906129fd9190613d74565b506001600160701b0390811693501690505b604051632b58577b60e21b81526004810187905260248101839052604481018290526000906000805160206140f68339815191529063ad615dec9060640160206040518083038186803b158015612a6557600080fd5b505afa158015612a79573d6000803e3d6000fd5b505050506040513d601f19601f82011682018060405250810190612a9d9190613dc4565b905085811115612b3f57604051632b58577b60e21b81526004810187905260248101839052604481018490526000805160206140f68339815191529063ad615dec9060640160206040518083038186803b158015612afa57600080fd5b505afa158015612b0e573d6000803e3d6000fd5b505050506040513d601f19601f82011682018060405250810190612b329190613dc4565b8694509450505050612b4c565b8694509250612b4c915050565b9250929050565b60ca5460405163095ea7b360e01b8152600091829182916001600160a01b03169063095ea7b390612b98906000805160206140f6833981519152908a90600401613d05565b602060405180830381600087803b158015612bb257600080fd5b505af1158015612bc6573d6000803e3d6000fd5b505050506040513d601f19601f82011682018060405250810190612bea9190613d1e565b5060cc5460405163095ea7b360e01b81526001600160a01b039091169063095ea7b390612c2b906000805160206140f6833981519152908990600401613d05565b602060405180830381600087803b158015612c4557600080fd5b505af1158015612c59573d6000803e3d6000fd5b505050506040513d601f19601f82011682018060405250810190612c7d9190613d1e565b5060ca5460ce5460408051630dfe168160e01b81529051600093849384936001600160a01b03928316939190921691630dfe1681916004808301926020929190829003018186803b158015612cd157600080fd5b505afa158015612ce5573d6000803e3d6000fd5b505050506040513d601f19601f82011682018060405250810190612d099190613d40565b6001600160a01b03161415612d435760ca5460cc54612d37916001600160a01b0390811691168b8b8b613340565b91945092509050612d6b565b60cc5460ca54612d62916001600160a01b0390811691168a8c8b613340565b90945090925090505b91989097509095509350505050565b60005b8551811015612e2657612e14868281518110612d9b57612d9b613efc565b602002602001015184878481518110612db657612db6613efc565b602002602001015187612dc99190613bec565b612dd39190613c0b565b85888581518110612de657612de6613efc565b6020026020010151600287612dfb9190613c0b565b612e059190613bec565b612e0f9190613c0b565b613462565b80612e1e81613f12565b915050612d7d565b505050505050565b60005b8551811015612e2657612ec8868281518110612e4f57612e4f613efc565b602002602001015184878481518110612e6a57612e6a613efc565b602002602001015187612e7d9190613bec565b612e879190613c0b565b85888581518110612e9a57612e9a613efc565b6020026020010151600287612eaf9190613c0b565b612eb99190613bec565b612ec39190613c0b565b6135d1565b80612ed281613f12565b915050612e31565b600054610100900460ff16612f015760405162461bcd60e51b81526004016108d990613e8d565b61116333612267565b600054610100900460ff16612f315760405162461bcd60e51b81526004016108d990613e8d565b6097805460ff19169055565b600054610100900460ff16612f645760405162461bcd60e51b81526004016108d990613e8d565b6001606555565b6060612f7a84846000856136db565b949350505050565b60006001600160a01b03841673bb4cdb9cbd36b01bd1cbaebf2de08d9173bc095c1415612fb0575081612f7a565b82612fbd57506000612f7a565b60408051808201909152600b81526a050414e43414b45535741560ac1b6020918201528251908301207f2338e06a6f2052926ba2b40934d20450046ca43794244d31f79c7f8fae9653ab14156132ec57604080516002808252606082018352600092602083019080368337019050509050848160008151811061304257613042613efc565b60200260200101906001600160a01b031690816001600160a01b03168152505073bb4cdb9cbd36b01bd1cbaebf2de08d9173bc095c8160018151811061308a5761308a613efc565b6001600160a01b03909216602092830291909101909101526040516307c0329d60e21b81526000906000805160206140f683398151915290631f00ca74906130d89088908690600401613f71565b60006040518083038186803b1580156130f057600080fd5b505afa158015613104573d6000803e3d6000fd5b505050506040513d6000823e601f3d908101601f1916820160405261312c9190810190613f8a565b90506000670de0b6b3a764000061314a6611c37937e0800082613c2d565b83600185516131599190613bd5565b8151811061316957613169613efc565b602002602001015161317b9190613bec565b6131859190613c0b565b60405163095ea7b360e01b81529091506001600160a01b0388169063095ea7b3906131c4906000805160206140f6833981519152908590600401613d05565b602060405180830381600087803b1580156131de57600080fd5b505af11580156131f2573d6000803e3d6000fd5b505050506040513d601f19601f820116820180604052508101906132169190613d1e565b5060006000805160206140f6833981519152634a25d94a8884878d61323c42600a613c2d565b6040518663ffffffff1660e01b815260040161325c959493929190614010565b600060405180830381600087803b15801561327657600080fd5b505af115801561328a573d6000803e3d6000fd5b505050506040513d6000823e601f3d908101601f191682016040526132b29190810190613f8a565b9050600081600283516132c59190613bd5565b815181106132d5576132d5613efc565b602002602001015190508095505050505050612f7a565b60405162461bcd60e51b815260206004820152602360248201527f4d61726b65744d616b6572526f757465723a2045786368616e676520556e6b6e60448201526237bbb760e91b60648201526084016108d9565b600080806000805160206140f683398151915263e8e3370089898989670de0b6b3a764000061336f8b84613bec565b6133799190613c0b565b670de0b6b3a764000061338c8c8e613bec565b6133969190613c0b565b306133a242600a613c2d565b60405160e08a901b6001600160e01b03191681526001600160a01b039889166004820152968816602488015260448701959095526064860193909352608485019190915260a484015290921660c482015260e481019190915261010401606060405180830381600087803b15801561341957600080fd5b505af115801561342d573d6000803e3d6000fd5b505050506040513d601f19601f82011682018060405250810190613451919061404c565b925092509250955095509592505050565b8261346b611920565b60d8556134766113b8565b60d7556001600160a01b038116156134bb5761349181610810565b6001600160a01b038216600090815260cf60205260409020600381019190915560d8546002909101555b836134c4611186565b60de556134cf61186b565b60dd556001600160a01b03811615613514576134ea81611041565b6001600160a01b038216600090815260cf60205260409020600581019190915560de546004909101555b6001600160a01b038516600090815260cf60205260408120805485929061353c908490613c2d565b90915550506001600160a01b038516600090815260cf60205260408120600601805486929061356c908490613c2d565b90915550506001600160a01b038516600081815260cf60205260409081902042600190910155517f9e71bc8eea02a63969f509818f2dafb9254532904319f9dbda79b67bd34a5f3d906135c29086815260200190565b60405180910390a25050505050565b826135da611920565b60d8556135e56113b8565b60d7556001600160a01b0381161561362a5761360081610810565b6001600160a01b038216600090815260cf60205260409020600381019190915560d8546002909101555b83613633611186565b60de5561363e61186b565b60dd556001600160a01b038116156136835761365981611041565b6001600160a01b038216600090815260cf60205260409020600581019190915560de546004909101555b6001600160a01b038516600090815260cf6020526040812080548592906136ab908490613c2d565b90915550506001600160a01b038516600090815260cf60205260408120600701805486929061356c908490613c2d565b60608247101561373c5760405162461bcd60e51b815260206004820152602660248201527f416464726573733a20696e73756666696369656e742062616c616e636520666f6044820152651c8818d85b1b60d21b60648201526084016108d9565b6001600160a01b0385163b6137935760405162461bcd60e51b815260206004820152601d60248201527f416464726573733a2063616c6c20746f206e6f6e2d636f6e747261637400000060448201526064016108d9565b600080866001600160a01b031685876040516137af91906140a6565b60006040518083038185875af1925050503d80600081146137ec576040519150601f19603f3d011682016040523d82523d6000602084013e6137f1565b606091505b509150915061380182828661380c565b979650505050505050565b6060831561381b575081612838565b82511561382b5782518084602001fd5b8160405162461bcd60e51b81526004016108d991906140c2565b6001600160a01b0381168114610fbc57600080fd5b803561386581613845565b919050565b60006020828403121561387c57600080fd5b813561283881613845565b60006020828403121561389957600080fd5b5035919050565b6001600160a01b0391909116815260200190565b634e487b7160e01b600052604160045260246000fd5b604051601f8201601f1916810167ffffffffffffffff811182821017156138f3576138f36138b4565b604052919050565b600067ffffffffffffffff821115613915576139156138b4565b5060051b60200190565b600082601f83011261393057600080fd5b81356020613945613940836138fb565b6138ca565b82815260059290921b8401810191818101908684111561396457600080fd5b8286015b8481101561397f5780358352918301918301613968565b509695505050505050565b600082601f83011261399b57600080fd5b813560206139ab613940836138fb565b82815260059290921b840181019181810190868411156139ca57600080fd5b8286015b8481101561397f5780356139e181613845565b83529183019183016139ce565b60008083601f840112613a0057600080fd5b50813567ffffffffffffffff811115613a1857600080fd5b602083019150836020828501011115612b4c57600080fd5b6000806000806000806000806000806101208b8d031215613a5057600080fd5b8a3567ffffffffffffffff80821115613a6857600080fd5b613a748e838f0161391f565b9b5060208d0135915080821115613a8a57600080fd5b613a968e838f0161398a565b9a5060408d0135915080821115613aac57600080fd5b613ab88e838f0161391f565b995060608d0135915080821115613ace57600080fd5b613ada8e838f0161398a565b985060808d0135975060a08d0135965060c08d0135955060e08d0135915080821115613b0557600080fd5b50613b128d828e016139ee565b9094509250613b2690506101008c0161385a565b90509295989b9194979a5092959850565b60008060408385031215613b4a57600080fd5b8235613b5581613845565b946020939093013593505050565b60008060008060808587031215613b7957600080fd5b8435613b8481613845565b93506020850135613b9481613845565b92506040850135613ba481613845565b91506060850135613bb481613845565b939692955090935050565b634e487b7160e01b600052601160045260246000fd5b600082821015613be757613be7613bbf565b500390565b6000816000190483118215151615613c0657613c06613bbf565b500290565b600082613c2857634e487b7160e01b600052601260045260246000fd5b500490565b60008219821115613c4057613c40613bbf565b500190565b60208082526036908201527f6f6e6c7950726f6a6563744d6f64657261746f724f724f776e65723a2063616c6040820152753632b91034b9903737ba10309036b7b232b930ba37b960511b606082015260800190565b6020808252601f908201527f5265656e7472616e637947756172643a207265656e7472616e742063616c6c00604082015260600190565b602080825260199082015278131a5c5d5a591a5d1e481a5cc81cdd1a5b1b081b1bd8dad959603a1b604082015260600190565b6001600160a01b03929092168252602082015260400190565b600060208284031215613d3057600080fd5b8151801515811461283857600080fd5b600060208284031215613d5257600080fd5b815161283881613845565b80516001600160701b038116811461386557600080fd5b600080600060608486031215613d8957600080fd5b613d9284613d5d565b9250613da060208501613d5d565b9150604084015163ffffffff81168114613db957600080fd5b809150509250925092565b600060208284031215613dd657600080fd5b5051919050565b60208082526058908201527f50726576696f7573207265776172647320706572696f64206d7573742062652060408201527f636f6d706c657465206265666f7265206368616e67696e672074686520647572606082015277185d1a5bdb88199bdc881d1a19481b995dc81c195c9a5bd960421b608082015260a00190565b6020808252601890820152770a0e4deecd2c8cac840e4caeec2e4c840e8dede40d0d2ced60431b604082015260600190565b6020808252602b908201527f496e697469616c697a61626c653a20636f6e7472616374206973206e6f74206960408201526a6e697469616c697a696e6760a81b606082015260800190565b60008060408385031215613eeb57600080fd5b505080516020909101519092909150565b634e487b7160e01b600052603260045260246000fd5b6000600019821415613f2657613f26613bbf565b5060010190565b600081518084526020808501945080840160005b83811015613f665781516001600160a01b031687529582019590820190600101613f41565b509495945050505050565b828152604060208201526000612f7a6040830184613f2d565b60006020808385031215613f9d57600080fd5b825167ffffffffffffffff811115613fb457600080fd5b8301601f81018513613fc557600080fd5b8051613fd3613940826138fb565b81815260059190911b82018301908381019087831115613ff257600080fd5b928401925b8284101561380157835182529284019290840190613ff7565b85815284602082015260a06040820152600061402f60a0830186613f2d565b6001600160a01b0394909416606083015250608001529392505050565b60008060006060848603121561406157600080fd5b8351925060208401519150604084015190509250925092565b60005b8381101561409557818101518382015260200161407d565b83811115611eb05750506000910152565b600082516140b881846020870161407a565b9190910192915050565b60208152600082518060208401526140e181604085016020870161407a565b601f01601f1916919091016040019291505056fe00000000000000000000000010ed43c718714eb63d5aa57b78b54704e256024ea26469706673582212203f52655d81af417c10d862023f317597043c2cc957a7ffb5a2c02a8560a1cd7c64736f6c63430008090033",
  "linkReferences": {},
  "deployedLinkReferences": {}
}