{
  "_format": "hh-sol-artifact-1",
  "contractName": "LiquidityMaker",
  "sourceName": "contracts/LiquidityMaker.sol",
  "abi": [
    {
      "anonymous": false,
      "inputs": [
        {
          "indexed": false,
          "internalType": "uint8",
          "name": "version",
          "type": "uint8"
        }
      ],
      "name": "Initialized",
      "type": "event"
    },
    {
      "anonymous": false,
      "inputs": [
        {
          "indexed": false,
          "internalType": "uint256",
          "name": "reward",
          "type": "uint256"
        }
      ],
      "name": "LiquidityRewardAdded",
      "type": "event"
    },
    {
      "anonymous": false,
      "inputs": [
        {
          "indexed": true,
          "internalType": "address",
          "name": "user",
          "type": "address"
        },
        {
          "indexed": false,
          "internalType": "uint256",
          "name": "reward",
          "type": "uint256"
        }
      ],
      "name": "LiquidityRewardPaid",
      "type": "event"
    },
    {
      "anonymous": false,
      "inputs": [
        {
          "indexed": false,
          "internalType": "uint256",
          "name": "lockingPeriod",
          "type": "uint256"
        }
      ],
      "name": "LockingPeriodUpdated",
      "type": "event"
    },
    {
      "anonymous": false,
      "inputs": [
        {
          "indexed": false,
          "internalType": "uint256",
          "name": "maxTotalSupply",
          "type": "uint256"
        }
      ],
      "name": "MaxTotalSupplyUpdated",
      "type": "event"
    },
    {
      "anonymous": false,
      "inputs": [
        {
          "indexed": true,
          "internalType": "address",
          "name": "previousOwner",
          "type": "address"
        },
        {
          "indexed": true,
          "internalType": "address",
          "name": "newOwner",
          "type": "address"
        }
      ],
      "name": "OwnershipTransferred",
      "type": "event"
    },
    {
      "anonymous": false,
      "inputs": [
        {
          "indexed": false,
          "internalType": "address",
          "name": "account",
          "type": "address"
        }
      ],
      "name": "Paused",
      "type": "event"
    },
    {
      "anonymous": false,
      "inputs": [
        {
          "indexed": false,
          "internalType": "address",
          "name": "token",
          "type": "address"
        },
        {
          "indexed": false,
          "internalType": "uint256",
          "name": "amount",
          "type": "uint256"
        }
      ],
      "name": "Recovered",
      "type": "event"
    },
    {
      "anonymous": false,
      "inputs": [
        {
          "indexed": false,
          "internalType": "uint256",
          "name": "reward",
          "type": "uint256"
        }
      ],
      "name": "RewardAdded",
      "type": "event"
    },
    {
      "anonymous": false,
      "inputs": [
        {
          "indexed": true,
          "internalType": "address",
          "name": "user",
          "type": "address"
        },
        {
          "indexed": false,
          "internalType": "uint256",
          "name": "reward",
          "type": "uint256"
        }
      ],
      "name": "RewardPaid",
      "type": "event"
    },
    {
      "anonymous": false,
      "inputs": [
        {
          "indexed": false,
          "internalType": "uint256",
          "name": "newDuration",
          "type": "uint256"
        }
      ],
      "name": "RewardsDurationUpdated",
      "type": "event"
    },
    {
      "anonymous": false,
      "inputs": [
        {
          "indexed": true,
          "internalType": "address",
          "name": "user",
          "type": "address"
        },
        {
          "indexed": false,
          "internalType": "uint256",
          "name": "amount",
          "type": "uint256"
        }
      ],
      "name": "Staked",
      "type": "event"
    },
    {
      "anonymous": false,
      "inputs": [
        {
          "indexed": false,
          "internalType": "address",
          "name": "account",
          "type": "address"
        }
      ],
      "name": "Unpaused",
      "type": "event"
    },
    {
      "anonymous": false,
      "inputs": [
        {
          "indexed": true,
          "internalType": "address",
          "name": "user",
          "type": "address"
        },
        {
          "indexed": false,
          "internalType": "uint256",
          "name": "amount",
          "type": "uint256"
        }
      ],
      "name": "Withdrawn",
      "type": "event"
    },
    {
      "anonymous": false,
      "inputs": [
        {
          "indexed": false,
          "internalType": "uint256",
          "name": "newDuration",
          "type": "uint256"
        }
      ],
      "name": "liquidityRewardsDurationUpdated",
      "type": "event"
    },
    {
      "inputs": [
        {
          "internalType": "uint256[]",
          "name": "_amountsBaseTokenIn",
          "type": "uint256[]"
        },
        {
          "internalType": "address[]",
          "name": "_beneficiaryBaseArray",
          "type": "address[]"
        },
        {
          "internalType": "uint256[]",
          "name": "_amountsPairedTokenIn",
          "type": "uint256[]"
        },
        {
          "internalType": "address[]",
          "name": "_beneficiaryPairedArray",
          "type": "address[]"
        },
        {
          "internalType": "uint256",
          "name": "baseSum",
          "type": "uint256"
        },
        {
          "internalType": "uint256",
          "name": "pairedSum",
          "type": "uint256"
        },
        {
          "internalType": "uint256",
          "name": "_slippage",
          "type": "uint256"
        },
        {
          "internalType": "string",
          "name": "_exchange",
          "type": "string"
        },
        {
          "internalType": "address",
          "name": "controller",
          "type": "address"
        }
      ],
      "name": "StakeInLiquidityMaker",
      "outputs": [
        {
          "internalType": "uint256",
          "name": "",
          "type": "uint256"
        },
        {
          "internalType": "uint256",
          "name": "",
          "type": "uint256"
        }
      ],
      "stateMutability": "nonpayable",
      "type": "function"
    },
    {
      "inputs": [
        {
          "internalType": "uint256",
          "name": "reward",
          "type": "uint256"
        }
      ],
      "name": "addLiquidityReward",
      "outputs": [],
      "stateMutability": "nonpayable",
      "type": "function"
    },
    {
      "inputs": [
        {
          "internalType": "uint256",
          "name": "reward",
          "type": "uint256"
        }
      ],
      "name": "addReward",
      "outputs": [],
      "stateMutability": "nonpayable",
      "type": "function"
    },
    {
      "inputs": [],
      "name": "baseTokenAddress",
      "outputs": [
        {
          "internalType": "address",
          "name": "",
          "type": "address"
        }
      ],
      "stateMutability": "view",
      "type": "function"
    },
    {
      "inputs": [
        {
          "internalType": "uint256",
          "name": "_slippage",
          "type": "uint256"
        }
      ],
      "name": "exit",
      "outputs": [],
      "stateMutability": "nonpayable",
      "type": "function"
    },
    {
      "inputs": [],
      "name": "exitInLP",
      "outputs": [],
      "stateMutability": "nonpayable",
      "type": "function"
    },
    {
      "inputs": [],
      "name": "getLiquidityReward",
      "outputs": [],
      "stateMutability": "nonpayable",
      "type": "function"
    },
    {
      "inputs": [],
      "name": "getLiquidityRewardForDuration",
      "outputs": [
        {
          "internalType": "uint256",
          "name": "",
          "type": "uint256"
        }
      ],
      "stateMutability": "view",
      "type": "function"
    },
    {
      "inputs": [],
      "name": "getReward",
      "outputs": [],
      "stateMutability": "nonpayable",
      "type": "function"
    },
    {
      "inputs": [],
      "name": "getRewardForDuration",
      "outputs": [
        {
          "internalType": "uint256",
          "name": "",
          "type": "uint256"
        }
      ],
      "stateMutability": "view",
      "type": "function"
    },
    {
      "inputs": [
        {
          "internalType": "address",
          "name": "",
          "type": "address"
        }
      ],
      "name": "holdersMapping",
      "outputs": [
        {
          "internalType": "uint256",
          "name": "liquidityBalance",
          "type": "uint256"
        },
        {
          "internalType": "uint256",
          "name": "lastLiquidityProvidingTime",
          "type": "uint256"
        },
        {
          "internalType": "uint256",
          "name": "userRewardPerTokenPaid",
          "type": "uint256"
        },
        {
          "internalType": "uint256",
          "name": "rewards",
          "type": "uint256"
        },
        {
          "internalType": "uint256",
          "name": "userLiquidityRewardPerTokenPaid",
          "type": "uint256"
        },
        {
          "internalType": "uint256",
          "name": "liquidityRewards",
          "type": "uint256"
        },
        {
          "internalType": "uint256",
          "name": "stakedInBaseToken",
          "type": "uint256"
        },
        {
          "internalType": "uint256",
          "name": "stakedInPairedToken",
          "type": "uint256"
        }
      ],
      "stateMutability": "view",
      "type": "function"
    },
    {
      "inputs": [
        {
          "internalType": "address",
          "name": "_baseToken",
          "type": "address"
        },
        {
          "internalType": "address",
          "name": "_pairedToken",
          "type": "address"
        },
        {
          "internalType": "address",
          "name": "_rewardToken",
          "type": "address"
        },
        {
          "internalType": "address",
          "name": "_projectModerator",
          "type": "address"
        }
      ],
      "name": "initialize",
      "outputs": [],
      "stateMutability": "nonpayable",
      "type": "function"
    },
    {
      "inputs": [],
      "name": "lastLiquidityRewardUpdateTime",
      "outputs": [
        {
          "internalType": "uint256",
          "name": "",
          "type": "uint256"
        }
      ],
      "stateMutability": "view",
      "type": "function"
    },
    {
      "inputs": [],
      "name": "lastRewardUpdateTime",
      "outputs": [
        {
          "internalType": "uint256",
          "name": "",
          "type": "uint256"
        }
      ],
      "stateMutability": "view",
      "type": "function"
    },
    {
      "inputs": [],
      "name": "lastTimeLiquidityRewardApplicable",
      "outputs": [
        {
          "internalType": "uint256",
          "name": "",
          "type": "uint256"
        }
      ],
      "stateMutability": "view",
      "type": "function"
    },
    {
      "inputs": [],
      "name": "lastTimeRewardApplicable",
      "outputs": [
        {
          "internalType": "uint256",
          "name": "",
          "type": "uint256"
        }
      ],
      "stateMutability": "view",
      "type": "function"
    },
    {
      "inputs": [
        {
          "internalType": "address",
          "name": "account",
          "type": "address"
        }
      ],
      "name": "liquidityRewardEarned",
      "outputs": [
        {
          "internalType": "uint256",
          "name": "",
          "type": "uint256"
        }
      ],
      "stateMutability": "view",
      "type": "function"
    },
    {
      "inputs": [],
      "name": "liquidityRewardPerToken",
      "outputs": [
        {
          "internalType": "uint256",
          "name": "",
          "type": "uint256"
        }
      ],
      "stateMutability": "view",
      "type": "function"
    },
    {
      "inputs": [],
      "name": "liquidityRewardPerTokenStored",
      "outputs": [
        {
          "internalType": "uint256",
          "name": "",
          "type": "uint256"
        }
      ],
      "stateMutability": "view",
      "type": "function"
    },
    {
      "inputs": [],
      "name": "liquidityRewardPeriodFinish",
      "outputs": [
        {
          "internalType": "uint256",
          "name": "",
          "type": "uint256"
        }
      ],
      "stateMutability": "view",
      "type": "function"
    },
    {
      "inputs": [],
      "name": "liquidityRewardRate",
      "outputs": [
        {
          "internalType": "uint256",
          "name": "",
          "type": "uint256"
        }
      ],
      "stateMutability": "view",
      "type": "function"
    },
    {
      "inputs": [],
      "name": "liquidityRewardsDuration",
      "outputs": [
        {
          "internalType": "uint256",
          "name": "",
          "type": "uint256"
        }
      ],
      "stateMutability": "view",
      "type": "function"
    },
    {
      "inputs": [],
      "name": "liquidityToken",
      "outputs": [
        {
          "internalType": "contract IERC20Upgradeable",
          "name": "",
          "type": "address"
        }
      ],
      "stateMutability": "view",
      "type": "function"
    },
    {
      "inputs": [],
      "name": "lockingPeriod",
      "outputs": [
        {
          "internalType": "uint256",
          "name": "",
          "type": "uint256"
        }
      ],
      "stateMutability": "view",
      "type": "function"
    },
    {
      "inputs": [],
      "name": "maxTotalSupply",
      "outputs": [
        {
          "internalType": "uint256",
          "name": "",
          "type": "uint256"
        }
      ],
      "stateMutability": "view",
      "type": "function"
    },
    {
      "inputs": [
        {
          "internalType": "uint256",
          "name": "reward",
          "type": "uint256"
        }
      ],
      "name": "notifyLiquidityRewardAmount",
      "outputs": [],
      "stateMutability": "nonpayable",
      "type": "function"
    },
    {
      "inputs": [
        {
          "internalType": "uint256",
          "name": "reward",
          "type": "uint256"
        }
      ],
      "name": "notifyRewardAmount",
      "outputs": [],
      "stateMutability": "nonpayable",
      "type": "function"
    },
    {
      "inputs": [],
      "name": "owner",
      "outputs": [
        {
          "internalType": "address",
          "name": "",
          "type": "address"
        }
      ],
      "stateMutability": "view",
      "type": "function"
    },
    {
      "inputs": [],
      "name": "pair",
      "outputs": [
        {
          "internalType": "contract IUniswapV2Pair",
          "name": "",
          "type": "address"
        }
      ],
      "stateMutability": "view",
      "type": "function"
    },
    {
      "inputs": [],
      "name": "pairedTokenAddress",
      "outputs": [
        {
          "internalType": "address",
          "name": "",
          "type": "address"
        }
      ],
      "stateMutability": "view",
      "type": "function"
    },
    {
      "inputs": [],
      "name": "paused",
      "outputs": [
        {
          "internalType": "bool",
          "name": "",
          "type": "bool"
        }
      ],
      "stateMutability": "view",
      "type": "function"
    },
    {
      "inputs": [],
      "name": "projectModerator",
      "outputs": [
        {
          "internalType": "address",
          "name": "",
          "type": "address"
        }
      ],
      "stateMutability": "view",
      "type": "function"
    },
    {
      "inputs": [
        {
          "internalType": "address",
          "name": "tokenAddress",
          "type": "address"
        },
        {
          "internalType": "uint256",
          "name": "tokenAmount",
          "type": "uint256"
        }
      ],
      "name": "recoverERC20",
      "outputs": [],
      "stateMutability": "nonpayable",
      "type": "function"
    },
    {
      "inputs": [],
      "name": "renounceOwnership",
      "outputs": [],
      "stateMutability": "nonpayable",
      "type": "function"
    },
    {
      "inputs": [
        {
          "internalType": "address",
          "name": "account",
          "type": "address"
        }
      ],
      "name": "rewardEarned",
      "outputs": [
        {
          "internalType": "uint256",
          "name": "",
          "type": "uint256"
        }
      ],
      "stateMutability": "view",
      "type": "function"
    },
    {
      "inputs": [],
      "name": "rewardPerToken",
      "outputs": [
        {
          "internalType": "uint256",
          "name": "",
          "type": "uint256"
        }
      ],
      "stateMutability": "view",
      "type": "function"
    },
    {
      "inputs": [],
      "name": "rewardPerTokenStored",
      "outputs": [
        {
          "internalType": "uint256",
          "name": "",
          "type": "uint256"
        }
      ],
      "stateMutability": "view",
      "type": "function"
    },
    {
      "inputs": [],
      "name": "rewardPeriodFinish",
      "outputs": [
        {
          "internalType": "uint256",
          "name": "",
          "type": "uint256"
        }
      ],
      "stateMutability": "view",
      "type": "function"
    },
    {
      "inputs": [],
      "name": "rewardRate",
      "outputs": [
        {
          "internalType": "uint256",
          "name": "",
          "type": "uint256"
        }
      ],
      "stateMutability": "view",
      "type": "function"
    },
    {
      "inputs": [],
      "name": "rewardsDuration",
      "outputs": [
        {
          "internalType": "uint256",
          "name": "",
          "type": "uint256"
        }
      ],
      "stateMutability": "view",
      "type": "function"
    },
    {
      "inputs": [],
      "name": "rewardsToken",
      "outputs": [
        {
          "internalType": "contract IERC20Upgradeable",
          "name": "",
          "type": "address"
        }
      ],
      "stateMutability": "view",
      "type": "function"
    },
    {
      "inputs": [
        {
          "internalType": "uint256",
          "name": "_rewardsDuration",
          "type": "uint256"
        }
      ],
      "name": "setLiquidityRewardsDuration",
      "outputs": [],
      "stateMutability": "nonpayable",
      "type": "function"
    },
    {
      "inputs": [
        {
          "internalType": "uint256",
          "name": "_lockingPeriod",
          "type": "uint256"
        }
      ],
      "name": "setLockingPeriod",
      "outputs": [],
      "stateMutability": "nonpayable",
      "type": "function"
    },
    {
      "inputs": [
        {
          "internalType": "uint256",
          "name": "_maxTotalSupply",
          "type": "uint256"
        }
      ],
      "name": "setMaxTotalSupply",
      "outputs": [],
      "stateMutability": "nonpayable",
      "type": "function"
    },
    {
      "inputs": [
        {
          "internalType": "uint256",
          "name": "_rewardsDuration",
          "type": "uint256"
        }
      ],
      "name": "setRewardsDuration",
      "outputs": [],
      "stateMutability": "nonpayable",
      "type": "function"
    },
    {
      "inputs": [
        {
          "internalType": "uint256",
          "name": "amount",
          "type": "uint256"
        }
      ],
      "name": "stake",
      "outputs": [],
      "stateMutability": "nonpayable",
      "type": "function"
    },
    {
      "inputs": [],
      "name": "totalSupply",
      "outputs": [
        {
          "internalType": "uint256",
          "name": "",
          "type": "uint256"
        }
      ],
      "stateMutability": "view",
      "type": "function"
    },
    {
      "inputs": [
        {
          "internalType": "address",
          "name": "newOwner",
          "type": "address"
        }
      ],
      "name": "transferOwnership",
      "outputs": [],
      "stateMutability": "nonpayable",
      "type": "function"
    },
    {
      "inputs": [],
      "name": "withdrawLP",
      "outputs": [],
      "stateMutability": "nonpayable",
      "type": "function"
    },
    {
      "inputs": [
        {
          "internalType": "uint256",
          "name": "_slippage",
          "type": "uint256"
        }
      ],
      "name": "withdrawTokens",
      "outputs": [],
      "stateMutability": "nonpayable",
      "type": "function"
    },
    {
      "stateMutability": "payable",
      "type": "receive"
    }
  ],
  "bytecode": "0x608060405234801561001057600080fd5b50614209806100206000396000f3fe6080604052600436106102ad5760003560e01c806377de1b9611610165578063bf6278ea116100cc578063d92048c911610085578063d92048c9146107cf578063d98b5ee914610804578063dabf2dac1461081a578063df136d6514610830578063f2fde38b14610846578063f5a0823814610866578063f8c8765e1461088657600080fd5b8063bf6278ea14610730578063c88a128c14610745578063c98e20c71461075a578063cc1a378f1461077a578063cd3daf9d1461079a578063d1af0c7d146107af57600080fd5b80638da5cb5b1161011e5780638da5cb5b14610691578063a1a64a1e146106a6578063a694fc3a146106bb578063a8aa1b31146106db578063acbca21e146106fb578063aff9fff51461071b57600080fd5b806377de1b96146105f15780637b0a47ee146106065780637cb374bd1461061c5780637f8661a11461063c57806380faa57d1461065c5780638980f11f1461067157600080fd5b80633ee28b65116102145780635c795aa2116101cd5780635c795aa2146105375780635c975abb1461054d57806361fd49e2146105705780636927810d14610586578063715018a6146105a65780637415cfe4146105bb57806374de4ec4146105d157600080fd5b80633ee28b65146103fb5780633f3e4c111461041b57806343cd8f7e1461043b57806347fd27f01461046857806350fc832714610501578063550066d51461052157600080fd5b80632ab4d052116102665780632ab4d052146103645780632bd1755a1461037a578063315a095d14610390578063386a9525146103b05780633c6b16ab146103c65780633d18b912146103e657600080fd5b806304d55ef2146102b957806316ba6bf3146102e157806318160ddd146103015780631c1f78eb1461031757806326b321d11461032c578063279084a61461034e57600080fd5b366102b457005b600080fd5b3480156102c557600080fd5b506102ce6108a6565b6040519081526020015b60405180910390f35b3480156102ed57600080fd5b506102ce6102fc366004613928565b6108bd565b34801561030d57600080fd5b506102ce60cf5481565b34801561032357600080fd5b506102ce610939565b34801561033857600080fd5b5061034c610347366004613945565b61094b565b005b34801561035a57600080fd5b506102ce60d45481565b34801561037057600080fd5b506102ce60d05481565b34801561038657600080fd5b506102ce60d75481565b34801561039c57600080fd5b5061034c6103ab366004613945565b6109dd565b3480156103bc57600080fd5b506102ce60d65481565b3480156103d257600080fd5b5061034c6103e1366004613945565b610f7a565b3480156103f257600080fd5b5061034c610f8e565b34801561040757600080fd5b5061034c610416366004613945565b61106e565b34801561042757600080fd5b5061034c610436366004613945565b61108f565b34801561044757600080fd5b5060d95461045b906001600160a01b031681565b6040516102d8919061395e565b34801561047457600080fd5b506104c6610483366004613928565b60d2602052600090815260409020805460018201546002830154600384015460048501546005860154600687015460079097015495969495939492939192909188565b604080519889526020890197909752958701949094526060860192909252608085015260a084015260c083015260e0820152610100016102d8565b34801561050d57600080fd5b506102ce61051c366004613928565b611111565b34801561052d57600080fd5b506102ce60d15481565b34801561054357600080fd5b506102ce60dc5481565b34801561055957600080fd5b5060975460ff1660405190151581526020016102d8565b34801561057c57600080fd5b506102ce60db5481565b34801561059257600080fd5b5060cc5461045b906001600160a01b031681565b3480156105b257600080fd5b5061034c611146565b3480156105c757600080fd5b506102ce60da5481565b3480156105dd57600080fd5b5061034c6105ec366004613945565b61115a565b3480156105fd57600080fd5b506102ce611172565b34801561061257600080fd5b506102ce60d55481565b34801561062857600080fd5b5060ca5461045b906001600160a01b031681565b34801561064857600080fd5b5061034c610657366004613945565b6111d4565b34801561066857600080fd5b506102ce6111e5565b34801561067d57600080fd5b5061034c61068c366004613972565b6111fc565b34801561069d57600080fd5b5061045b6112c5565b3480156106b257600080fd5b5061034c6112d4565b3480156106c757600080fd5b5061034c6106d6366004613945565b61149f565b3480156106e757600080fd5b5060ce5461045b906001600160a01b031681565b34801561070757600080fd5b5061034c610716366004613945565b61165d565b34801561072757600080fd5b5061034c611700565b34801561073c57600080fd5b506102ce611852565b34801561075157600080fd5b5061034c611864565b34801561076657600080fd5b5061034c610775366004613945565b611874565b34801561078657600080fd5b5061034c610795366004613945565b61187c565b3480156107a657600080fd5b506102ce61191f565b3480156107bb57600080fd5b5060d35461045b906001600160a01b031681565b3480156107db57600080fd5b506107ef6107ea366004613b1a565b611981565b604080519283526020830191909152016102d8565b34801561081057600080fd5b506102ce60de5481565b34801561082657600080fd5b506102ce60dd5481565b34801561083c57600080fd5b506102ce60d85481565b34801561085257600080fd5b5061034c610861366004613928565b611a5c565b34801561087257600080fd5b5060c95461045b906001600160a01b031681565b34801561089257600080fd5b5061034c6108a1366004613c21565b611ad2565b600060dc5460db546108b89190613c93565b905090565b6001600160a01b038116600090815260d2602052604081206003810154600290910154670de0b6b3a7640000906108f261191f565b6108fc9190613cb2565b6001600160a01b038516600090815260d2602052604090205461091f9190613c93565b6109299190613cc9565b6109339190613ceb565b92915050565b600060d65460d5546108b89190613c93565b60c9546001600160a01b031633148061097c57506109676112c5565b6001600160a01b0316336001600160a01b0316145b6109a15760405162461bcd60e51b815260040161099890613d03565b60405180910390fd5b60d18190556040518181527f10e4464ec1508bc74373bc20969bfc3c86fb9f7b2fce089585495bf47bfce4bc906020015b60405180910390a150565b336109e661191f565b60d8556109f16111e5565b60d7556001600160a01b03811615610a3657610a0c816108bd565b6001600160a01b038216600090815260d260205260409020600381019190915560d8546002909101555b33610a3f611172565b60de55610a4a611852565b60dd556001600160a01b03811615610a8f57610a6581611111565b6001600160a01b038216600090815260d260205260409020600581019190915560de546004909101555b60026065541415610ab25760405162461bcd60e51b815260040161099890613d59565b6002606555610abf611d12565b60d15433600090815260d260205260409020600101544291610ae091613ceb565b1115610afe5760405162461bcd60e51b815260040161099890613d90565b610b06611700565b33600090815260d26020526040908190205460ce54915163095ea7b360e01b815290916001600160a01b03169063095ea7b390610b57906000805160206141b4833981519152908590600401613dc3565b602060405180830381600087803b158015610b7157600080fd5b505af1158015610b85573d6000803e3d6000fd5b505050506040513d601f19601f82011682018060405250810190610ba99190613ddc565b5060ca5460ce5460408051630dfe168160e01b8152905160009384936001600160a01b0391821693911691630dfe168191600480820192602092909190829003018186803b158015610bfa57600080fd5b505afa158015610c0e573d6000803e3d6000fd5b505050506040513d601f19601f82011682018060405250810190610c329190613dfe565b6001600160a01b03161415610cdd5760ce60009054906101000a90046001600160a01b03166001600160a01b0316630902f1ac6040518163ffffffff1660e01b815260040160606040518083038186803b158015610c8f57600080fd5b505afa158015610ca3573d6000803e3d6000fd5b505050506040513d601f19601f82011682018060405250810190610cc79190613e32565b506001600160701b039182169350169050610d75565b60ce60009054906101000a90046001600160a01b03166001600160a01b0316630902f1ac6040518163ffffffff1660e01b815260040160606040518083038186803b158015610d2b57600080fd5b505afa158015610d3f573d6000803e3d6000fd5b505050506040513d601f19601f82011682018060405250810190610d639190613e32565b506001600160701b0390811693501690505b600080610e0a85858560ce60009054906101000a90046001600160a01b03166001600160a01b03166318160ddd6040518163ffffffff1660e01b815260040160206040518083038186803b158015610dcc57600080fd5b505afa158015610de0573d6000803e3d6000fd5b505050506040513d601f19601f82011682018060405250810190610e049190613e82565b8c611d58565b915091508460cf6000828254610e209190613cb2565b909155505060ca54610e3c906001600160a01b03163384611ee0565b60cc546001600160a01b031673bb4cdb9cbd36b01bd1cbaebf2de08d9173bc095c1415610efb57604051632e1a7d4d60e01b81526004810182905273bb4cdb9cbd36b01bd1cbaebf2de08d9173bc095c90632e1a7d4d90602401600060405180830381600087803b158015610eb057600080fd5b505af1158015610ec4573d6000803e3d6000fd5b505060405133925083156108fc02915083906000818181858888f19350505050158015610ef5573d6000803e3d6000fd5b50610f12565b60cc54610f12906001600160a01b03163383611ee0565b33600081815260d260205260408082208281556007810183905560060191909155517f7084f5476618d8e60b11ef0d7d3f06914655adb8793e28ff7f018d4c76d505d590610f639088815260200190565b60405180910390a250506001606555505050505050565b610f82611f36565b610f8b81611f95565b50565b33610f9761191f565b60d855610fa26111e5565b60d7556001600160a01b03811615610fe757610fbd816108bd565b6001600160a01b038216600090815260d260205260409020600381019190915560d8546002909101555b610fef611d12565b33600090815260d26020526040902060030154801561106a5733600081815260d2602052604081206003015560d354611034916001600160a01b039091169083611ee0565b60405181815233907fe2403640ba68fed3a2f88b7557551d1993f84b99bb10ff833f0cf8db0c5e04869060200160405180910390a25b5050565b60d954611086906001600160a01b031633308461214f565b610f8b8161218d565b60c9546001600160a01b03163314806110c057506110ab6112c5565b6001600160a01b0316336001600160a01b0316145b6110dc5760405162461bcd60e51b815260040161099890613d03565b60d08190556040518181527ff2672935fc79f5237559e2e2999dbe743bf65430894ac2b37666890e7c69e1af906020016109d2565b6001600160a01b038116600090815260d2602052604081206005810154600490910154670de0b6b3a7640000906108f2611172565b61114e611f36565b611158600061233e565b565b60d354610f82906001600160a01b031633308461214f565b600060cf5460001415611186575060de5490565b60cf5460db5460dd54611197611852565b6111a19190613cb2565b6111ab9190613c93565b6111bd90670de0b6b3a7640000613c93565b6111c79190613cc9565b60de546108b89190613ceb565b6111dd816109dd565b610f8b610f8e565b600060d45442106111f7575060d45490565b504290565b611204611f36565b60d9546001600160a01b038381169116141561126c5760405162461bcd60e51b815260206004820152602160248201527f43616e6e6f7420776974686472617720746865207374616b696e6720746f6b656044820152603760f91b6064820152608401610998565b6112886112776112c5565b6001600160a01b0384169083611ee0565b7f8c1256b8896378cd5044f80c202f9772b9d77dc85c8a6eb51967210b09bfaa2882826040516112b9929190613dc3565b60405180910390a15050565b6033546001600160a01b031690565b336112dd61191f565b60d8556112e86111e5565b60d7556001600160a01b0381161561132d57611303816108bd565b6001600160a01b038216600090815260d260205260409020600381019190915560d8546002909101555b33611336611172565b60de55611341611852565b60dd556001600160a01b038116156113865761135c81611111565b6001600160a01b038216600090815260d260205260409020600581019190915560de546004909101555b600260655414156113a95760405162461bcd60e51b815260040161099890613d59565b60026065556113b6611d12565b60d15433600090815260d2602052604090206001015442916113d791613ceb565b11156113f55760405162461bcd60e51b815260040161099890613d90565b6113fd611700565b33600090815260d2602052604081205460cf805491928392611420908490613cb2565b909155505060d95461143c906001600160a01b03163383611ee0565b33600081815260d260205260408082208281556007810183905560060191909155517f7084f5476618d8e60b11ef0d7d3f06914655adb8793e28ff7f018d4c76d505d59061148d9084815260200190565b60405180910390a25050600160655550565b600260655414156114c25760405162461bcd60e51b815260040161099890613d59565b60026065556114cf611d12565b336114d861191f565b60d8556114e36111e5565b60d7556001600160a01b03811615611528576114fe816108bd565b6001600160a01b038216600090815260d260205260409020600381019190915560d8546002909101555b33611531611172565b60de5561153c611852565b60dd556001600160a01b038116156115815761155781611111565b6001600160a01b038216600090815260d260205260409020600581019190915560de546004909101555b600083116115c25760405162461bcd60e51b815260206004820152600e60248201526d043616e6e6f74207374616b6520360941b6044820152606401610998565b33600090815260d26020526040812080548592906115e1908490613ceb565b909155505033600090815260d2602052604081204260019091015560cf805485929061160e908490613ceb565b909155505060d95461162b906001600160a01b031633308661214f565b60405183815233907f9e71bc8eea02a63969f509818f2dafb9254532904319f9dbda79b67bd34a5f3d9060200161148d565b60c9546001600160a01b031633148061168e57506116796112c5565b6001600160a01b0316336001600160a01b0316145b6116aa5760405162461bcd60e51b815260040161099890613d03565b60da5442116116cb5760405162461bcd60e51b815260040161099890613e9b565b60dc8190556040518181527f6705e591c0abd6b7368d547f726cae5eeba031ff42bb14ced689b0829f0cd29c906020016109d2565b3361170961191f565b60d8556117146111e5565b60d7556001600160a01b038116156117595761172f816108bd565b6001600160a01b038216600090815260d260205260409020600381019190915560d8546002909101555b33611762611172565b60de5561176d611852565b60dd556001600160a01b038116156117b25761178881611111565b6001600160a01b038216600090815260d260205260409020600581019190915560de546004909101555b6117ba611d12565b33600090815260d26020526040902060050154801561184d5733600090815260d2602052604081206005810182905580548392906117f9908490613ceb565b925050819055508060cf60008282546118129190613ceb565b909155505060405181815233907f748699c4f2c3d8abc1051941dc2337a504bf44992d01ebeafa4669f05fe6e2c39060200160405180910390a25b505050565b600060da5442106111f7575060da5490565b61186c6112d4565b611158610f8e565b611086611f36565b60c9546001600160a01b03163314806118ad57506118986112c5565b6001600160a01b0316336001600160a01b0316145b6118c95760405162461bcd60e51b815260040161099890613d03565b60d45442116118ea5760405162461bcd60e51b815260040161099890613e9b565b60d68190556040518181527ffb46ca5a5e06d4540d6387b930a7c978bce0db5f449ec6b3f5d07c6e1d44f2d3906020016109d2565b600060cf5460001415611933575060d85490565b60cf5460d55460d7546119446111e5565b61194e9190613cb2565b6119589190613c93565b61196a90670de0b6b3a7640000613c93565b6119749190613cc9565b60d8546108b89190613ceb565b60008061198c611d12565b600260655414156119af5760405162461bcd60e51b815260040161099890613d59565b600260658190555060006040518061012001604052808e81526020018d81526020018c81526020018b81526020018a815260200189815260200188815260200187878080601f0160208091040260200160405190810160405280939291908181526020018383808284376000920191909152505050908252506001600160a01b0386166020909101529050611a4381612390565b6001606555909e909d509b505050505050505050505050565b611a64611f36565b6001600160a01b038116611ac95760405162461bcd60e51b815260206004820152602660248201527f4f776e61626c653a206e6577206f776e657220697320746865207a65726f206160448201526564647265737360d01b6064820152608401610998565b610f8b8161233e565b600054610100900460ff1615808015611af25750600054600160ff909116105b80611b0c5750303b158015611b0c575060005460ff166001145b611b6f5760405162461bcd60e51b815260206004820152602e60248201527f496e697469616c697a61626c653a20636f6e747261637420697320616c72656160448201526d191e481a5b9a5d1a585b1a5e995960921b6064820152608401610998565b6000805460ff191660011790558015611b92576000805461ff0019166101001790555b611b9a612528565b611ba2612557565b611baa612586565b60d380546001600160a01b038581166001600160a01b03199283161790925560cb8054888416908316811790915560ca805483168217905560cd80549388169383168417905560cc8054909216831790915560405163e6a4390560e01b81526004810191909152602481019190915273ca143ce32fe78f1f7019d7d551a6402fc5350c739063e6a439059060440160206040518083038186803b158015611c5057600080fd5b505afa158015611c64573d6000803e3d6000fd5b505050506040513d601f19601f82011682018060405250810190611c889190613dfe565b60ce80546001600160a01b039283166001600160a01b0319918216811790925560d98054821690921790915560c98054928516929091169190911790558015611d0b576000805461ff0019169055604051600181527f7f26b83ff96e1f2b6a682f133852f6798a09c465da95921460cefb38474024989060200160405180910390a15b5050505050565b60975460ff16156111585760405162461bcd60e51b815260206004820152601060248201526f14185d5cd8589b194e881c185d5cd95960821b6044820152606401610998565b6000808084611d678989613c93565b611d719190613cc9565b9050600085611d808a89613c93565b611d8a9190613cc9565b60ca5460ce5460408051630dfe168160e01b8152905193945060009384936001600160a01b03908116931691630dfe1681916004808301926020929190829003018186803b158015611ddb57600080fd5b505afa158015611def573d6000803e3d6000fd5b505050506040513d601f19601f82011682018060405250810190611e139190613dfe565b6001600160a01b03161415611e835760ca5460cc54611e79916001600160a01b0390811691168d670de0b6b3a7640000611e4d8c8a613c93565b611e579190613cc9565b670de0b6b3a7640000611e6a8d8a613c93565b611e749190613cc9565b6125b5565b9092509050611ed0565b60cc5460ca54611ecb916001600160a01b0390811691168d670de0b6b3a7640000611eae8c89613c93565b611eb89190613cc9565b670de0b6b3a7640000611e6a8d8b613c93565b925090505b909a909950975050505050505050565b61184d8363a9059cbb60e01b8484604051602401611eff929190613dc3565b60408051601f198184030181529190526020810180516001600160e01b03166001600160e01b031990931692909217909152612690565b33611f3f6112c5565b6001600160a01b0316146111585760405162461bcd60e51b815260206004820181905260248201527f4f776e61626c653a2063616c6c6572206973206e6f7420746865206f776e65726044820152606401610998565b6000611f9f61191f565b60d855611faa6111e5565b60d7556001600160a01b03811615611fef57611fc5816108bd565b6001600160a01b038216600090815260d260205260409020600381019190915560d8546002909101555b60d454421061200d5760d6546120059083613cc9565b60d55561204f565b60004260d45461201d9190613cb2565b9050600060d5548261202f9190613c93565b60d65490915061203f8286613ceb565b6120499190613cc9565b60d55550505b60d3546040516370a0823160e01b81526000916001600160a01b0316906370a082319061208090309060040161395e565b60206040518083038186803b15801561209857600080fd5b505afa1580156120ac573d6000803e3d6000fd5b505050506040513d601f19601f820116820180604052508101906120d09190613e82565b905060d654816120e09190613cc9565b60d55411156121015760405162461bcd60e51b815260040161099890613f19565b4260d781905560d65461211391613ceb565b60d4556040518381527fde88a922e0d3b88b24e9623efeb464919c6bf9f66857a65e2bfcf2ce87a9433d906020015b60405180910390a1505050565b6040516001600160a01b03808516602483015283166044820152606481018290526121879085906323b872dd60e01b90608401611eff565b50505050565b6000612197611172565b60de556121a2611852565b60dd556001600160a01b038116156121e7576121bd81611111565b6001600160a01b038216600090815260d260205260409020600581019190915560de546004909101555b60da5442106122055760dc546121fd9083613cc9565b60db55612247565b60004260da546122159190613cb2565b9050600060db54826122279190613c93565b60dc549091506122378286613ceb565b6122419190613cc9565b60db5550505b60d9546040516370a0823160e01b81526000916001600160a01b0316906370a082319061227890309060040161395e565b60206040518083038186803b15801561229057600080fd5b505afa1580156122a4573d6000803e3d6000fd5b505050506040513d601f19601f820116820180604052508101906122c89190613e82565b905060dc54816122d89190613cc9565b60db5411156122f95760405162461bcd60e51b815260040161099890613f19565b4260dd81905560dc5461230b91613ceb565b60da556040518381527f8123abeaa60b131ff611695ed07c6ee2a88f9f4970de4429001a17dba775e52990602001612142565b603380546001600160a01b038381166001600160a01b0319831681179093556040519116919082907f8be0079c531659141344cd1fd0a4f28419497f9722a3daafe3b4186f6b6457e090600090a35050565b608081015160ca5460009182916123b6916001600160a01b03909116903390309061214f565b60a083015160cc546123d7916001600160a01b03909116903390309061214f565b6123ef8361010001518460a001518560e00151612762565b60a0840181905260808401516000918291612409916128fd565b91509150600080600061242185858a60c00151612c11565b92509250925060d0548160cf546124389190613ceb565b11156124825760405162461bcd60e51b815260206004820152601960248201527813585e081d1bdd185b081cdd5c1c1b1e48195e18d959591959603a1b6044820152606401610998565b8060cf60008282546124949190613ceb565b925050819055506124c233848a608001516124af9190613cb2565b60ca546001600160a01b03169190611ee0565b6124e933838a60a001516124d69190613cb2565b60cc546001600160a01b03169190611ee0565b61250288602001518960000151858b6080015185612e38565b61251b88606001518960400151848b60a0015185612eec565b5090969095509350505050565b600054610100900460ff1661254f5760405162461bcd60e51b815260040161099890613f4b565b611158612f98565b600054610100900460ff1661257e5760405162461bcd60e51b815260040161099890613f4b565b611158612fc8565b600054610100900460ff166125ad5760405162461bcd60e51b815260040161099890613f4b565b611158612ffb565b6000806000805160206141b483398151915263baa2abde8888888888306125dd42600a613ceb565b60405160e089901b6001600160e01b03191681526001600160a01b039788166004820152958716602487015260448601949094526064850192909252608484015290921660a482015260c481019190915260e4016040805180830381600087803b15801561264a57600080fd5b505af115801561265e573d6000803e3d6000fd5b505050506040513d601f19601f820116820180604052508101906126829190613f96565b915091509550959350505050565b60006126e5826040518060400160405280602081526020017f5361666545524332303a206c6f772d6c6576656c2063616c6c206661696c6564815250856001600160a01b03166130299092919063ffffffff16565b80519091501561184d57808060200190518101906127039190613ddc565b61184d5760405162461bcd60e51b815260206004820152602a60248201527f5361666545524332303a204552433230206f7065726174696f6e20646964206e6044820152691bdd081cdd58d8d9595960b21b6064820152608401610998565b6000806702c68af0bb140000856001600160a01b03163110156128e857600061279d6001600160a01b038716316702c68af0bb140000613cb2565b60cc549091506001600160a01b031673bb4cdb9cbd36b01bd1cbaebf2de08d9173bc095c146127e65760cc546127df9087906001600160a01b03168387613040565b9150612888565b604051632e1a7d4d60e01b815260048101829052909150819073bb4cdb9cbd36b01bd1cbaebf2de08d9173bc095c90632e1a7d4d90602401600060405180830381600087803b15801561283857600080fd5b505af115801561284c573d6000803e3d6000fd5b50506040516001600160a01b038916925083156108fc02915083906000818181858888f19350505050158015612886573d6000803e3d6000fd5b505b8185116128e65760405162461bcd60e51b815260206004820152602660248201527f5472616e73616374696f6e20636f737473206d6f7265207468616e20676173206044820152651b995959195960d21b6064820152608401610998565b505b6128f28185613cb2565b9150505b9392505050565b60ca5460ce5460408051630dfe168160e01b815290516000938493849384936001600160a01b039384169390921691630dfe168191600480820192602092909190829003018186803b15801561295257600080fd5b505afa158015612966573d6000803e3d6000fd5b505050506040513d601f19601f8201168201806040525081019061298a9190613dfe565b6001600160a01b03161415612a355760ce60009054906101000a90046001600160a01b03166001600160a01b0316630902f1ac6040518163ffffffff1660e01b815260040160606040518083038186803b1580156129e757600080fd5b505afa1580156129fb573d6000803e3d6000fd5b505050506040513d601f19601f82011682018060405250810190612a1f9190613e32565b506001600160701b039182169350169050612acd565b60ce60009054906101000a90046001600160a01b03166001600160a01b0316630902f1ac6040518163ffffffff1660e01b815260040160606040518083038186803b158015612a8357600080fd5b505afa158015612a97573d6000803e3d6000fd5b505050506040513d601f19601f82011682018060405250810190612abb9190613e32565b506001600160701b0390811693501690505b604051632b58577b60e21b81526004810187905260248101839052604481018290526000906000805160206141b48339815191529063ad615dec9060640160206040518083038186803b158015612b2357600080fd5b505afa158015612b37573d6000803e3d6000fd5b505050506040513d601f19601f82011682018060405250810190612b5b9190613e82565b905085811115612bfd57604051632b58577b60e21b81526004810187905260248101839052604481018490526000805160206141b48339815191529063ad615dec9060640160206040518083038186803b158015612bb857600080fd5b505afa158015612bcc573d6000803e3d6000fd5b505050506040513d601f19601f82011682018060405250810190612bf09190613e82565b8694509450505050612c0a565b8694509250612c0a915050565b9250929050565b60ca5460405163095ea7b360e01b8152600091829182916001600160a01b03169063095ea7b390612c56906000805160206141b4833981519152908a90600401613dc3565b602060405180830381600087803b158015612c7057600080fd5b505af1158015612c84573d6000803e3d6000fd5b505050506040513d601f19601f82011682018060405250810190612ca89190613ddc565b5060cc5460405163095ea7b360e01b81526001600160a01b039091169063095ea7b390612ce9906000805160206141b4833981519152908990600401613dc3565b602060405180830381600087803b158015612d0357600080fd5b505af1158015612d17573d6000803e3d6000fd5b505050506040513d601f19601f82011682018060405250810190612d3b9190613ddc565b5060ca5460ce5460408051630dfe168160e01b81529051600093849384936001600160a01b03928316939190921691630dfe1681916004808301926020929190829003018186803b158015612d8f57600080fd5b505afa158015612da3573d6000803e3d6000fd5b505050506040513d601f19601f82011682018060405250810190612dc79190613dfe565b6001600160a01b03161415612e015760ca5460cc54612df5916001600160a01b0390811691168b8b8b6133fe565b91945092509050612e29565b60cc5460ca54612e20916001600160a01b0390811691168a8c8b6133fe565b90945090925090505b91989097509095509350505050565b60005b8551811015612ee457612ed2868281518110612e5957612e59613fba565b602002602001015184878481518110612e7457612e74613fba565b602002602001015187612e879190613c93565b612e919190613cc9565b85888581518110612ea457612ea4613fba565b6020026020010151600287612eb99190613cc9565b612ec39190613c93565b612ecd9190613cc9565b613520565b80612edc81613fd0565b915050612e3b565b505050505050565b60005b8551811015612ee457612f86868281518110612f0d57612f0d613fba565b602002602001015184878481518110612f2857612f28613fba565b602002602001015187612f3b9190613c93565b612f459190613cc9565b85888581518110612f5857612f58613fba565b6020026020010151600287612f6d9190613cc9565b612f779190613c93565b612f819190613cc9565b61368f565b80612f9081613fd0565b915050612eef565b600054610100900460ff16612fbf5760405162461bcd60e51b815260040161099890613f4b565b6111583361233e565b600054610100900460ff16612fef5760405162461bcd60e51b815260040161099890613f4b565b6097805460ff19169055565b600054610100900460ff166130225760405162461bcd60e51b815260040161099890613f4b565b6001606555565b60606130388484600085613799565b949350505050565b60006001600160a01b03841673bb4cdb9cbd36b01bd1cbaebf2de08d9173bc095c141561306e575081613038565b8261307b57506000613038565b60408051808201909152600b81526a050414e43414b45535741560ac1b6020918201528251908301207f2338e06a6f2052926ba2b40934d20450046ca43794244d31f79c7f8fae9653ab14156133aa57604080516002808252606082018352600092602083019080368337019050509050848160008151811061310057613100613fba565b60200260200101906001600160a01b031690816001600160a01b03168152505073bb4cdb9cbd36b01bd1cbaebf2de08d9173bc095c8160018151811061314857613148613fba565b6001600160a01b03909216602092830291909101909101526040516307c0329d60e21b81526000906000805160206141b483398151915290631f00ca7490613196908890869060040161402f565b60006040518083038186803b1580156131ae57600080fd5b505afa1580156131c2573d6000803e3d6000fd5b505050506040513d6000823e601f3d908101601f191682016040526131ea9190810190614048565b90506000670de0b6b3a76400006132086611c37937e0800082613ceb565b83600185516132179190613cb2565b8151811061322757613227613fba565b60200260200101516132399190613c93565b6132439190613cc9565b60405163095ea7b360e01b81529091506001600160a01b0388169063095ea7b390613282906000805160206141b4833981519152908590600401613dc3565b602060405180830381600087803b15801561329c57600080fd5b505af11580156132b0573d6000803e3d6000fd5b505050506040513d601f19601f820116820180604052508101906132d49190613ddc565b5060006000805160206141b4833981519152634a25d94a8884878d6132fa42600a613ceb565b6040518663ffffffff1660e01b815260040161331a9594939291906140ce565b600060405180830381600087803b15801561333457600080fd5b505af1158015613348573d6000803e3d6000fd5b505050506040513d6000823e601f3d908101601f191682016040526133709190810190614048565b9050600081600283516133839190613cb2565b8151811061339357613393613fba565b602002602001015190508095505050505050613038565b60405162461bcd60e51b815260206004820152602360248201527f4d61726b65744d616b6572526f757465723a2045786368616e676520556e6b6e60448201526237bbb760e91b6064820152608401610998565b600080806000805160206141b483398151915263e8e3370089898989670de0b6b3a764000061342d8b84613c93565b6134379190613cc9565b670de0b6b3a764000061344a8c8e613c93565b6134549190613cc9565b3061346042600a613ceb565b60405160e08a901b6001600160e01b03191681526001600160a01b039889166004820152968816602488015260448701959095526064860193909352608485019190915260a484015290921660c482015260e481019190915261010401606060405180830381600087803b1580156134d757600080fd5b505af11580156134eb573d6000803e3d6000fd5b505050506040513d601f19601f8201168201806040525081019061350f919061410a565b925092509250955095509592505050565b8261352961191f565b60d8556135346111e5565b60d7556001600160a01b038116156135795761354f816108bd565b6001600160a01b038216600090815260d260205260409020600381019190915560d8546002909101555b83613582611172565b60de5561358d611852565b60dd556001600160a01b038116156135d2576135a881611111565b6001600160a01b038216600090815260d260205260409020600581019190915560de546004909101555b6001600160a01b038516600090815260d26020526040812080548592906135fa908490613ceb565b90915550506001600160a01b038516600090815260d260205260408120600601805486929061362a908490613ceb565b90915550506001600160a01b038516600081815260d260205260409081902042600190910155517f9e71bc8eea02a63969f509818f2dafb9254532904319f9dbda79b67bd34a5f3d906136809086815260200190565b60405180910390a25050505050565b8261369861191f565b60d8556136a36111e5565b60d7556001600160a01b038116156136e8576136be816108bd565b6001600160a01b038216600090815260d260205260409020600381019190915560d8546002909101555b836136f1611172565b60de556136fc611852565b60dd556001600160a01b038116156137415761371781611111565b6001600160a01b038216600090815260d260205260409020600581019190915560de546004909101555b6001600160a01b038516600090815260d2602052604081208054859290613769908490613ceb565b90915550506001600160a01b038516600090815260d260205260408120600701805486929061362a908490613ceb565b6060824710156137fa5760405162461bcd60e51b815260206004820152602660248201527f416464726573733a20696e73756666696369656e742062616c616e636520666f6044820152651c8818d85b1b60d21b6064820152608401610998565b6001600160a01b0385163b6138515760405162461bcd60e51b815260206004820152601d60248201527f416464726573733a2063616c6c20746f206e6f6e2d636f6e74726163740000006044820152606401610998565b600080866001600160a01b0316858760405161386d9190614164565b60006040518083038185875af1925050503d80600081146138aa576040519150601f19603f3d011682016040523d82523d6000602084013e6138af565b606091505b50915091506138bf8282866138ca565b979650505050505050565b606083156138d95750816128f6565b8251156138e95782518084602001fd5b8160405162461bcd60e51b81526004016109989190614180565b6001600160a01b0381168114610f8b57600080fd5b803561392381613903565b919050565b60006020828403121561393a57600080fd5b81356128f681613903565b60006020828403121561395757600080fd5b5035919050565b6001600160a01b0391909116815260200190565b6000806040838503121561398557600080fd5b823561399081613903565b946020939093013593505050565b634e487b7160e01b600052604160045260246000fd5b604051601f8201601f1916810167ffffffffffffffff811182821017156139dd576139dd61399e565b604052919050565b600067ffffffffffffffff8211156139ff576139ff61399e565b5060051b60200190565b600082601f830112613a1a57600080fd5b81356020613a2f613a2a836139e5565b6139b4565b82815260059290921b84018101918181019086841115613a4e57600080fd5b8286015b84811015613a695780358352918301918301613a52565b509695505050505050565b600082601f830112613a8557600080fd5b81356020613a95613a2a836139e5565b82815260059290921b84018101918181019086841115613ab457600080fd5b8286015b84811015613a69578035613acb81613903565b8352918301918301613ab8565b60008083601f840112613aea57600080fd5b50813567ffffffffffffffff811115613b0257600080fd5b602083019150836020828501011115612c0a57600080fd5b6000806000806000806000806000806101208b8d031215613b3a57600080fd5b8a3567ffffffffffffffff80821115613b5257600080fd5b613b5e8e838f01613a09565b9b5060208d0135915080821115613b7457600080fd5b613b808e838f01613a74565b9a5060408d0135915080821115613b9657600080fd5b613ba28e838f01613a09565b995060608d0135915080821115613bb857600080fd5b613bc48e838f01613a74565b985060808d0135975060a08d0135965060c08d0135955060e08d0135915080821115613bef57600080fd5b50613bfc8d828e01613ad8565b9094509250613c1090506101008c01613918565b90509295989b9194979a5092959850565b60008060008060808587031215613c3757600080fd5b8435613c4281613903565b93506020850135613c5281613903565b92506040850135613c6281613903565b91506060850135613c7281613903565b939692955090935050565b634e487b7160e01b600052601160045260246000fd5b6000816000190483118215151615613cad57613cad613c7d565b500290565b600082821015613cc457613cc4613c7d565b500390565b600082613ce657634e487b7160e01b600052601260045260246000fd5b500490565b60008219821115613cfe57613cfe613c7d565b500190565b60208082526036908201527f6f6e6c7950726f6a6563744d6f64657261746f724f724f776e65723a2063616c6040820152753632b91034b9903737ba10309036b7b232b930ba37b960511b606082015260800190565b6020808252601f908201527f5265656e7472616e637947756172643a207265656e7472616e742063616c6c00604082015260600190565b602080825260199082015278131a5c5d5a591a5d1e481a5cc81cdd1a5b1b081b1bd8dad959603a1b604082015260600190565b6001600160a01b03929092168252602082015260400190565b600060208284031215613dee57600080fd5b815180151581146128f657600080fd5b600060208284031215613e1057600080fd5b81516128f681613903565b80516001600160701b038116811461392357600080fd5b600080600060608486031215613e4757600080fd5b613e5084613e1b565b9250613e5e60208501613e1b565b9150604084015163ffffffff81168114613e7757600080fd5b809150509250925092565b600060208284031215613e9457600080fd5b5051919050565b60208082526058908201527f50726576696f7573207265776172647320706572696f64206d7573742062652060408201527f636f6d706c657465206265666f7265206368616e67696e672074686520647572606082015277185d1a5bdb88199bdc881d1a19481b995dc81c195c9a5bd960421b608082015260a00190565b6020808252601890820152770a0e4deecd2c8cac840e4caeec2e4c840e8dede40d0d2ced60431b604082015260600190565b6020808252602b908201527f496e697469616c697a61626c653a20636f6e7472616374206973206e6f74206960408201526a6e697469616c697a696e6760a81b606082015260800190565b60008060408385031215613fa957600080fd5b505080516020909101519092909150565b634e487b7160e01b600052603260045260246000fd5b6000600019821415613fe457613fe4613c7d565b5060010190565b600081518084526020808501945080840160005b838110156140245781516001600160a01b031687529582019590820190600101613fff565b509495945050505050565b8281526040602082015260006130386040830184613feb565b6000602080838503121561405b57600080fd5b825167ffffffffffffffff81111561407257600080fd5b8301601f8101851361408357600080fd5b8051614091613a2a826139e5565b81815260059190911b820183019083810190878311156140b057600080fd5b928401925b828410156138bf578351825292840192908401906140b5565b85815284602082015260a0604082015260006140ed60a0830186613feb565b6001600160a01b0394909416606083015250608001529392505050565b60008060006060848603121561411f57600080fd5b8351925060208401519150604084015190509250925092565b60005b8381101561415357818101518382015260200161413b565b838111156121875750506000910152565b60008251614176818460208701614138565b9190910192915050565b602081526000825180602084015261419f816040850160208701614138565b601f01601f1916919091016040019291505056fe00000000000000000000000010ed43c718714eb63d5aa57b78b54704e256024ea2646970667358221220b246eaf4cccec8688a2a15a195bee99ab7f6e725052d8f6aa9210d33b78447e264736f6c63430008090033",
  "linkReferences": {},
  "deployedLinkReferences": {}
}