{
  "_format": "hh-sol-artifact-1",
  "contractName": "MarketMaker",
  "sourceName": "contracts/MarketMaker.sol",
  "abi": [
    {
      "inputs": [
        {
          "internalType": "address",
          "name": "_baseToken",
          "type": "address"
        },
        {
          "internalType": "address",
          "name": "_pairedToken",
          "type": "address"
        },
        {
          "internalType": "address",
          "name": "_owner",
          "type": "address"
        },
        {
          "internalType": "address",
          "name": "_moderator",
          "type": "address"
        },
        {
          "internalType": "address payable",
          "name": "_controller",
          "type": "address"
        },
        {
          "internalType": "bool",
          "name": "_revocableContract",
          "type": "bool"
        },
        {
          "internalType": "bool",
          "name": "_paused",
          "type": "bool"
        },
        {
          "internalType": "address",
          "name": "_marketMakerLibraryAddress",
          "type": "address"
        },
        {
          "internalType": "address",
          "name": "_masterContractAddress",
          "type": "address"
        }
      ],
      "stateMutability": "nonpayable",
      "type": "constructor"
    },
    {
      "anonymous": false,
      "inputs": [
        {
          "indexed": true,
          "internalType": "address",
          "name": "_user",
          "type": "address"
        },
        {
          "indexed": false,
          "internalType": "uint256",
          "name": "_amount",
          "type": "uint256"
        }
      ],
      "name": "AmountReleased",
      "type": "event"
    },
    {
      "anonymous": false,
      "inputs": [
        {
          "indexed": false,
          "internalType": "address",
          "name": "_OldmarketMakerLibraryAddress",
          "type": "address"
        },
        {
          "indexed": false,
          "internalType": "address",
          "name": "_NewmarketMakerLibraryAddress",
          "type": "address"
        }
      ],
      "name": "ChangeMarketMakerLibraryAddress",
      "type": "event"
    },
    {
      "anonymous": false,
      "inputs": [
        {
          "indexed": true,
          "internalType": "address",
          "name": "_beneficiary",
          "type": "address"
        },
        {
          "indexed": false,
          "internalType": "uint256",
          "name": "_amount",
          "type": "uint256"
        }
      ],
      "name": "CreatedVestingSchedule",
      "type": "event"
    },
    {
      "anonymous": false,
      "inputs": [
        {
          "indexed": false,
          "internalType": "uint256",
          "name": "claimedBaseFee",
          "type": "uint256"
        },
        {
          "indexed": false,
          "internalType": "uint256",
          "name": "claimedPairedFee",
          "type": "uint256"
        }
      ],
      "name": "FeesClaimed",
      "type": "event"
    },
    {
      "anonymous": false,
      "inputs": [
        {
          "indexed": true,
          "internalType": "address",
          "name": "previousOwner",
          "type": "address"
        },
        {
          "indexed": true,
          "internalType": "address",
          "name": "newOwner",
          "type": "address"
        }
      ],
      "name": "OwnershipTransferred",
      "type": "event"
    },
    {
      "anonymous": false,
      "inputs": [
        {
          "indexed": false,
          "internalType": "address",
          "name": "account",
          "type": "address"
        }
      ],
      "name": "Paused",
      "type": "event"
    },
    {
      "anonymous": false,
      "inputs": [
        {
          "indexed": true,
          "internalType": "address",
          "name": "_user",
          "type": "address"
        }
      ],
      "name": "ProjectOwnerRemoved",
      "type": "event"
    },
    {
      "anonymous": false,
      "inputs": [
        {
          "indexed": true,
          "internalType": "address",
          "name": "_user",
          "type": "address"
        }
      ],
      "name": "ProjectOwnerSet",
      "type": "event"
    },
    {
      "anonymous": false,
      "inputs": [
        {
          "indexed": false,
          "internalType": "bool",
          "name": "_allowReleasing",
          "type": "bool"
        }
      ],
      "name": "SetAllowReleasing",
      "type": "event"
    },
    {
      "anonymous": false,
      "inputs": [
        {
          "indexed": false,
          "internalType": "bool",
          "name": "_allowSelling",
          "type": "bool"
        }
      ],
      "name": "SetAllowSelling",
      "type": "event"
    },
    {
      "anonymous": false,
      "inputs": [
        {
          "indexed": false,
          "internalType": "uint8",
          "name": "_ratio",
          "type": "uint8"
        }
      ],
      "name": "SetMaxBaseStakingRatio",
      "type": "event"
    },
    {
      "anonymous": false,
      "inputs": [
        {
          "indexed": false,
          "internalType": "uint8",
          "name": "_ratio",
          "type": "uint8"
        }
      ],
      "name": "SetMaxPairedStakingRatio",
      "type": "event"
    },
    {
      "anonymous": false,
      "inputs": [
        {
          "indexed": true,
          "internalType": "address",
          "name": "_user",
          "type": "address"
        },
        {
          "indexed": false,
          "internalType": "uint256",
          "name": "_amount",
          "type": "uint256"
        }
      ],
      "name": "Staked",
      "type": "event"
    },
    {
      "anonymous": false,
      "inputs": [
        {
          "indexed": true,
          "internalType": "address",
          "name": "_user",
          "type": "address"
        },
        {
          "indexed": false,
          "internalType": "uint256",
          "name": "_amount",
          "type": "uint256"
        }
      ],
      "name": "StakedInPairedToken",
      "type": "event"
    },
    {
      "anonymous": false,
      "inputs": [
        {
          "indexed": false,
          "internalType": "address",
          "name": "account",
          "type": "address"
        }
      ],
      "name": "Unpaused",
      "type": "event"
    },
    {
      "anonymous": false,
      "inputs": [
        {
          "indexed": true,
          "internalType": "address",
          "name": "_user",
          "type": "address"
        },
        {
          "indexed": false,
          "internalType": "uint256",
          "name": "_amount",
          "type": "uint256"
        }
      ],
      "name": "VestingRevoked",
      "type": "event"
    },
    {
      "anonymous": false,
      "inputs": [
        {
          "indexed": true,
          "internalType": "address",
          "name": "_user",
          "type": "address"
        },
        {
          "indexed": false,
          "internalType": "uint256",
          "name": "_amount",
          "type": "uint256"
        }
      ],
      "name": "WithdrawnBaseToken",
      "type": "event"
    },
    {
      "anonymous": false,
      "inputs": [
        {
          "indexed": true,
          "internalType": "address",
          "name": "_user",
          "type": "address"
        },
        {
          "indexed": false,
          "internalType": "uint256",
          "name": "_amount",
          "type": "uint256"
        }
      ],
      "name": "WithdrawnPairedToken",
      "type": "event"
    },
    {
      "inputs": [
        {
          "internalType": "address",
          "name": "_beneficiary",
          "type": "address"
        }
      ],
      "name": "amountLocked",
      "outputs": [
        {
          "internalType": "uint256",
          "name": "",
          "type": "uint256"
        }
      ],
      "stateMutability": "view",
      "type": "function"
    },
    {
      "inputs": [
        {
          "internalType": "address",
          "name": "_beneficiary",
          "type": "address"
        }
      ],
      "name": "amountVested",
      "outputs": [
        {
          "internalType": "uint256",
          "name": "",
          "type": "uint256"
        }
      ],
      "stateMutability": "view",
      "type": "function"
    },
    {
      "inputs": [
        {
          "internalType": "address",
          "name": "_beneficiary",
          "type": "address"
        }
      ],
      "name": "available",
      "outputs": [
        {
          "internalType": "uint256",
          "name": "",
          "type": "uint256"
        }
      ],
      "stateMutability": "view",
      "type": "function"
    },
    {
      "inputs": [
        {
          "internalType": "address",
          "name": "_beneficiary",
          "type": "address"
        }
      ],
      "name": "balanceInPairedToken",
      "outputs": [
        {
          "internalType": "uint256",
          "name": "",
          "type": "uint256"
        }
      ],
      "stateMutability": "view",
      "type": "function"
    },
    {
      "inputs": [],
      "name": "baseTokenAddress",
      "outputs": [
        {
          "internalType": "address",
          "name": "",
          "type": "address"
        }
      ],
      "stateMutability": "view",
      "type": "function"
    },
    {
      "inputs": [
        {
          "internalType": "uint256[]",
          "name": "_amountsIn",
          "type": "uint256[]"
        },
        {
          "internalType": "address[]",
          "name": "_beneficiaryArray",
          "type": "address[]"
        },
        {
          "internalType": "uint256",
          "name": "_slippage",
          "type": "uint256"
        },
        {
          "internalType": "string",
          "name": "_exchange",
          "type": "string"
        }
      ],
      "name": "buy",
      "outputs": [],
      "stateMutability": "nonpayable",
      "type": "function"
    },
    {
      "inputs": [],
      "name": "claimFees",
      "outputs": [],
      "stateMutability": "nonpayable",
      "type": "function"
    },
    {
      "inputs": [
        {
          "internalType": "address",
          "name": "_beneficiary",
          "type": "address"
        }
      ],
      "name": "computeReleasableAmount",
      "outputs": [
        {
          "internalType": "uint256",
          "name": "",
          "type": "uint256"
        }
      ],
      "stateMutability": "view",
      "type": "function"
    },
    {
      "inputs": [],
      "name": "controller",
      "outputs": [
        {
          "internalType": "address payable",
          "name": "",
          "type": "address"
        }
      ],
      "stateMutability": "view",
      "type": "function"
    },
    {
      "inputs": [
        {
          "internalType": "address[]",
          "name": "_beneficiaryArray",
          "type": "address[]"
        },
        {
          "internalType": "uint32",
          "name": "_start",
          "type": "uint32"
        },
        {
          "internalType": "uint32",
          "name": "_cliff",
          "type": "uint32"
        },
        {
          "internalType": "uint32",
          "name": "_duration",
          "type": "uint32"
        },
        {
          "internalType": "uint32",
          "name": "_slicePeriodSeconds",
          "type": "uint32"
        },
        {
          "internalType": "bool",
          "name": "_revocable",
          "type": "bool"
        },
        {
          "internalType": "uint256[]",
          "name": "_amounts",
          "type": "uint256[]"
        }
      ],
      "name": "createVestingSchedule",
      "outputs": [],
      "stateMutability": "nonpayable",
      "type": "function"
    },
    {
      "inputs": [
        {
          "internalType": "address",
          "name": "_beneficiary",
          "type": "address"
        }
      ],
      "name": "getWithdrawablePairedTokens",
      "outputs": [
        {
          "internalType": "uint256",
          "name": "total",
          "type": "uint256"
        }
      ],
      "stateMutability": "view",
      "type": "function"
    },
    {
      "inputs": [
        {
          "internalType": "address",
          "name": "",
          "type": "address"
        }
      ],
      "name": "holdersMapping",
      "outputs": [
        {
          "internalType": "uint256",
          "name": "balanceInPairedToken",
          "type": "uint256"
        },
        {
          "internalType": "uint256",
          "name": "available",
          "type": "uint256"
        },
        {
          "internalType": "uint256",
          "name": "stakedInBaseToken",
          "type": "uint256"
        },
        {
          "internalType": "uint256",
          "name": "stakedInPairedToken",
          "type": "uint256"
        },
        {
          "internalType": "uint128",
          "name": "baseAmountBought",
          "type": "uint128"
        },
        {
          "internalType": "uint128",
          "name": "pairedAmountBought",
          "type": "uint128"
        },
        {
          "internalType": "uint128",
          "name": "baseAmountSold",
          "type": "uint128"
        },
        {
          "internalType": "uint128",
          "name": "pairedAmountSold",
          "type": "uint128"
        },
        {
          "internalType": "bool",
          "name": "projectOwner",
          "type": "bool"
        },
        {
          "internalType": "bool",
          "name": "allowSelling",
          "type": "bool"
        },
        {
          "internalType": "bool",
          "name": "allowReleasing",
          "type": "bool"
        },
        {
          "internalType": "uint8",
          "name": "maxBaseStakingRatio",
          "type": "uint8"
        },
        {
          "internalType": "uint8",
          "name": "maxPairedStakingRatio",
          "type": "uint8"
        }
      ],
      "stateMutability": "view",
      "type": "function"
    },
    {
      "inputs": [
        {
          "internalType": "address",
          "name": "",
          "type": "address"
        }
      ],
      "name": "holdersVestingMapping",
      "outputs": [
        {
          "internalType": "uint256",
          "name": "amountVested",
          "type": "uint256"
        },
        {
          "internalType": "uint256",
          "name": "released",
          "type": "uint256"
        },
        {
          "internalType": "uint32",
          "name": "cliff",
          "type": "uint32"
        },
        {
          "internalType": "uint32",
          "name": "start",
          "type": "uint32"
        },
        {
          "internalType": "uint32",
          "name": "duration",
          "type": "uint32"
        },
        {
          "internalType": "uint32",
          "name": "slicePeriodSeconds",
          "type": "uint32"
        },
        {
          "internalType": "bool",
          "name": "revocable",
          "type": "bool"
        }
      ],
      "stateMutability": "view",
      "type": "function"
    },
    {
      "inputs": [],
      "name": "liquidityMaker",
      "outputs": [
        {
          "internalType": "contract ILiquidityMaker",
          "name": "",
          "type": "address"
        }
      ],
      "stateMutability": "view",
      "type": "function"
    },
    {
      "inputs": [],
      "name": "marketMakerLibraryAddress",
      "outputs": [
        {
          "internalType": "address",
          "name": "",
          "type": "address"
        }
      ],
      "stateMutability": "view",
      "type": "function"
    },
    {
      "inputs": [],
      "name": "masterContract",
      "outputs": [
        {
          "internalType": "contract IMasterContract",
          "name": "",
          "type": "address"
        }
      ],
      "stateMutability": "view",
      "type": "function"
    },
    {
      "inputs": [],
      "name": "moderator",
      "outputs": [
        {
          "internalType": "address",
          "name": "",
          "type": "address"
        }
      ],
      "stateMutability": "view",
      "type": "function"
    },
    {
      "inputs": [],
      "name": "owner",
      "outputs": [
        {
          "internalType": "address",
          "name": "",
          "type": "address"
        }
      ],
      "stateMutability": "view",
      "type": "function"
    },
    {
      "inputs": [],
      "name": "pairedTokenAddress",
      "outputs": [
        {
          "internalType": "address",
          "name": "",
          "type": "address"
        }
      ],
      "stateMutability": "view",
      "type": "function"
    },
    {
      "inputs": [],
      "name": "pause",
      "outputs": [],
      "stateMutability": "nonpayable",
      "type": "function"
    },
    {
      "inputs": [],
      "name": "paused",
      "outputs": [
        {
          "internalType": "bool",
          "name": "",
          "type": "bool"
        }
      ],
      "stateMutability": "view",
      "type": "function"
    },
    {
      "inputs": [],
      "name": "release",
      "outputs": [],
      "stateMutability": "nonpayable",
      "type": "function"
    },
    {
      "inputs": [
        {
          "internalType": "address[]",
          "name": "_beneficiaryArray",
          "type": "address[]"
        }
      ],
      "name": "releaseFor",
      "outputs": [],
      "stateMutability": "nonpayable",
      "type": "function"
    },
    {
      "inputs": [
        {
          "internalType": "address",
          "name": "_beneficiary",
          "type": "address"
        }
      ],
      "name": "released",
      "outputs": [
        {
          "internalType": "uint256",
          "name": "",
          "type": "uint256"
        }
      ],
      "stateMutability": "view",
      "type": "function"
    },
    {
      "inputs": [
        {
          "internalType": "address[]",
          "name": "_beneficiaryArray",
          "type": "address[]"
        }
      ],
      "name": "removeProjectOwner",
      "outputs": [],
      "stateMutability": "nonpayable",
      "type": "function"
    },
    {
      "inputs": [],
      "name": "renounceOwnership",
      "outputs": [],
      "stateMutability": "nonpayable",
      "type": "function"
    },
    {
      "inputs": [],
      "name": "revocableContract",
      "outputs": [
        {
          "internalType": "bool",
          "name": "",
          "type": "bool"
        }
      ],
      "stateMutability": "view",
      "type": "function"
    },
    {
      "inputs": [
        {
          "internalType": "address",
          "name": "_beneficiary",
          "type": "address"
        }
      ],
      "name": "revoke",
      "outputs": [],
      "stateMutability": "nonpayable",
      "type": "function"
    },
    {
      "inputs": [
        {
          "internalType": "uint256[]",
          "name": "_amountsIn",
          "type": "uint256[]"
        },
        {
          "internalType": "address[]",
          "name": "_beneficiaryArray",
          "type": "address[]"
        },
        {
          "internalType": "uint256",
          "name": "_slippage",
          "type": "uint256"
        },
        {
          "internalType": "string",
          "name": "_exchange",
          "type": "string"
        }
      ],
      "name": "sell",
      "outputs": [],
      "stateMutability": "nonpayable",
      "type": "function"
    },
    {
      "inputs": [
        {
          "internalType": "bool",
          "name": "_allowReleasing",
          "type": "bool"
        }
      ],
      "name": "setAllowReleasing",
      "outputs": [],
      "stateMutability": "nonpayable",
      "type": "function"
    },
    {
      "inputs": [
        {
          "internalType": "bool",
          "name": "_allowSelling",
          "type": "bool"
        }
      ],
      "name": "setAllowSelling",
      "outputs": [],
      "stateMutability": "nonpayable",
      "type": "function"
    },
    {
      "inputs": [
        {
          "internalType": "address",
          "name": "liquidityMakerAddress",
          "type": "address"
        }
      ],
      "name": "setLiquidityMaker",
      "outputs": [],
      "stateMutability": "nonpayable",
      "type": "function"
    },
    {
      "inputs": [
        {
          "internalType": "address",
          "name": "_marketMakerLibraryAddress",
          "type": "address"
        }
      ],
      "name": "setMarketMakerLibraryAddress",
      "outputs": [],
      "stateMutability": "nonpayable",
      "type": "function"
    },
    {
      "inputs": [
        {
          "internalType": "uint8",
          "name": "ratio",
          "type": "uint8"
        }
      ],
      "name": "setMaxBaseStakingRatio",
      "outputs": [],
      "stateMutability": "nonpayable",
      "type": "function"
    },
    {
      "inputs": [
        {
          "internalType": "uint8",
          "name": "ratio",
          "type": "uint8"
        }
      ],
      "name": "setMaxPairedStakingRatio",
      "outputs": [],
      "stateMutability": "nonpayable",
      "type": "function"
    },
    {
      "inputs": [
        {
          "internalType": "address[]",
          "name": "_beneficiaryArray",
          "type": "address[]"
        }
      ],
      "name": "setProjectOwner",
      "outputs": [],
      "stateMutability": "nonpayable",
      "type": "function"
    },
    {
      "inputs": [
        {
          "internalType": "uint256",
          "name": "_amount",
          "type": "uint256"
        },
        {
          "internalType": "uint8",
          "name": "_maxBaseStakingRatio",
          "type": "uint8"
        }
      ],
      "name": "stake",
      "outputs": [],
      "stateMutability": "nonpayable",
      "type": "function"
    },
    {
      "inputs": [
        {
          "internalType": "uint256[]",
          "name": "_amounts",
          "type": "uint256[]"
        },
        {
          "internalType": "address[]",
          "name": "_beneficiaryArray",
          "type": "address[]"
        }
      ],
      "name": "stakeBatch",
      "outputs": [],
      "stateMutability": "nonpayable",
      "type": "function"
    },
    {
      "inputs": [
        {
          "internalType": "uint256[]",
          "name": "_amountsBaseTokenIn",
          "type": "uint256[]"
        },
        {
          "internalType": "address[]",
          "name": "_beneficiaryBaseArray",
          "type": "address[]"
        },
        {
          "internalType": "uint256[]",
          "name": "_amountsPairedTokenIn",
          "type": "uint256[]"
        },
        {
          "internalType": "address[]",
          "name": "_beneficiaryPairedArray",
          "type": "address[]"
        },
        {
          "internalType": "uint256",
          "name": "_slippage",
          "type": "uint256"
        },
        {
          "internalType": "string",
          "name": "_exchange",
          "type": "string"
        }
      ],
      "name": "stakeBatchInLP",
      "outputs": [],
      "stateMutability": "nonpayable",
      "type": "function"
    },
    {
      "inputs": [
        {
          "internalType": "uint256",
          "name": "_amount",
          "type": "uint256"
        },
        {
          "internalType": "uint8",
          "name": "_maxPairedStakingRatio",
          "type": "uint8"
        }
      ],
      "name": "stakePairedToken",
      "outputs": [],
      "stateMutability": "nonpayable",
      "type": "function"
    },
    {
      "inputs": [
        {
          "internalType": "uint8",
          "name": "_maxPairedStakingRatio",
          "type": "uint8"
        }
      ],
      "name": "stakePairedTokenInETH",
      "outputs": [],
      "stateMutability": "payable",
      "type": "function"
    },
    {
      "inputs": [],
      "name": "totalVested",
      "outputs": [
        {
          "internalType": "uint256",
          "name": "",
          "type": "uint256"
        }
      ],
      "stateMutability": "view",
      "type": "function"
    },
    {
      "inputs": [
        {
          "internalType": "address",
          "name": "newOwner",
          "type": "address"
        }
      ],
      "name": "transferOwnership",
      "outputs": [],
      "stateMutability": "nonpayable",
      "type": "function"
    },
    {
      "inputs": [],
      "name": "unpause",
      "outputs": [],
      "stateMutability": "nonpayable",
      "type": "function"
    },
    {
      "inputs": [
        {
          "internalType": "uint256",
          "name": "_amount",
          "type": "uint256"
        }
      ],
      "name": "withdrawBaseToken",
      "outputs": [],
      "stateMutability": "nonpayable",
      "type": "function"
    },
    {
      "inputs": [
        {
          "internalType": "uint256",
          "name": "_amount",
          "type": "uint256"
        }
      ],
      "name": "withdrawPairedToken",
      "outputs": [],
      "stateMutability": "nonpayable",
      "type": "function"
    },
    {
      "stateMutability": "payable",
      "type": "receive"
    }
  ],
  "bytecode": "0x6101606040523480156200001257600080fd5b50604051620054aa380380620054aa833981016040819052620000359162000457565b620000403362000112565b600180556002805460ff191690556001600160a01b0389811660e081905260c0528881166101208190526101005285811660805286811660a05284151561014052600380546001600160a01b031916918316919091179055620000a38262000162565b620000ae87620002a9565b600160056000620000c76000546001600160a01b031690565b6001600160a01b031681526020810191909152604001600020600601805460ff1916911515919091179055821562000103576200010362000328565b5050505050505050506200054c565b600080546001600160a01b038381166001600160a01b0319831681178455604051919092169283917f8be0079c531659141344cd1fd0a4f28419497f9722a3daafe3b4186f6b6457e09190a35050565b600254604080516001600160a01b036101009093048316815291831660208301527fa8f5d6a26420dbca563af82edda993be302bfa0d82b1540ed55eac3326eb85f2910160405180910390a1600354604051630b90f5dd60e41b81526001600160a01b0383811660048301529091169063b90f5dd09060240160206040518083038186803b158015620001f457600080fd5b505afa15801562000209573d6000803e3d6000fd5b505050506040513d601f19601f820116820180604052508101906200022f919062000527565b620002815760405162461bcd60e51b815260206004820152601e60248201527f4d61726b65744d616b65724c696272617279206e6f7420616c6c6f776564000060448201526064015b60405180910390fd5b600280546001600160a01b0390921661010002610100600160a81b0319909216919091179055565b620002b362000385565b6001600160a01b0381166200031a5760405162461bcd60e51b815260206004820152602660248201527f4f776e61626c653a206e6577206f776e657220697320746865207a65726f206160448201526564647265737360d01b606482015260840162000278565b620003258162000112565b50565b62000332620003e3565b6002805460ff191660011790557f62e78cea01bee320cd4e420270b5ea74000d11b0c9f74754ebdbfc544b05a258620003683390565b6040516001600160a01b03909116815260200160405180910390a1565b6000546001600160a01b03163314620003e15760405162461bcd60e51b815260206004820181905260248201527f4f776e61626c653a2063616c6c6572206973206e6f7420746865206f776e6572604482015260640162000278565b565b60025460ff1615620003e15760405162461bcd60e51b815260206004820152601060248201526f14185d5cd8589b194e881c185d5cd95960821b604482015260640162000278565b6001600160a01b03811681146200032557600080fd5b805180151581146200045257600080fd5b919050565b60008060008060008060008060006101208a8c0312156200047757600080fd5b895162000484816200042b565b60208b015190995062000497816200042b565b60408b0151909850620004aa816200042b565b60608b0151909750620004bd816200042b565b60808b0151909650620004d0816200042b565b9450620004e060a08b0162000441565b9350620004f060c08b0162000441565b925060e08a015162000502816200042b565b6101008b015190925062000516816200042b565b809150509295985092959850929598565b6000602082840312156200053a57600080fd5b620005458262000441565b9392505050565b60805160a05160c05160e051610100516101205161014051614e0e6200069c600039600081816107d1015261163e015260008181610ee701528181611f57015281816123810152612a3c01526000818161060001528181610d220152818161139f015281816119150152818161229901528181612e8b01528181612ee501528181613b99015261401a015260008181610ab601528181610e4f01528181610fd10152818161187601528181611e9a01528181611f90015261299701526000818161069c01528181610d0101526113c00152600081816103f5015281816110f70152818161117c0152818161152101528181611a1e01528181611bec0152611f09015260008181610a3601528181610b29015281816111290152818161126201528181611a5001528181611b100152818161249001528181613b2801528181613b660152613cbf0152614e0e6000f3fe6080604052600436106102815760003560e01c80638456cb591161014f578063afbd7ac1116100c1578063e5bf6a7f1161007a578063e5bf6a7f1461098e578063f2fde38b146109ae578063f47c733f146109ce578063f6c788b214610a04578063f77c479114610a24578063f82d49cf14610a5857600080fd5b8063afbd7ac114610849578063baf2a11614610869578063cd446e2214610889578063d294f093146108a9578063dd1fdb62146108be578063e0d47694146108de57600080fd5b80639852595c116101135780639852595c14610746578063a1a092e31461077f578063a4c379591461079f578063a92a8875146107bf578063aa40c0e0146107f3578063ac6787351461081357600080fd5b80638456cb59146106be57806386d1a69f146106d35780638da5cb5b146106e85780639129d8b1146107065780639270704a1461072657600080fd5b806346ab8ab0116101f35780636927810d116101ac5780636927810d146105ee578063715018a61461062257806372db12cb1461063757806374a8f103146106575780637ad53480146106775780637cb374bd1461068a57600080fd5b806346ab8ab01461042c57806347fd27f01461044c5780635427dc001461056a5780635c975abb1461058a5780635d2cd2dc146105ae5780636397d80f146105ce57600080fd5b80632fd33ddb116102455780632fd33ddb1461036357806332af0f3e146103835780633423ee60146103a357806337e3a19e146103c357806338743904146103e35780633f4ba83a1461041757600080fd5b806310087fb11461028d57806310098ad5146102af5780631742541a146102fb578063199cbc541461032d5780631de53d941461034357600080fd5b3661028857005b600080fd5b34801561029957600080fd5b506102ad6102a836600461437b565b610a78565b005b3480156102bb57600080fd5b506102e86102ca3660046143bc565b6001600160a01b031660009081526005602052604090206001015490565b6040519081526020015b60405180910390f35b34801561030757600080fd5b506002546103209061010090046001600160a01b031681565b6040516102f291906143d9565b34801561033957600080fd5b506102e860075481565b34801561034f57600080fd5b506102ad61035e36600461456d565b610b1e565b34801561036f57600080fd5b506102ad61037e366004614605565b610dcb565b34801561038f57600080fd5b506102ad61039e36600461437b565b610eb2565b3480156103af57600080fd5b506102ad6103be36600461461e565b610f19565b3480156103cf57600080fd5b506102e86103de3660046143bc565b611002565b3480156103ef57600080fd5b506103207f000000000000000000000000000000000000000000000000000000000000000081565b34801561042357600080fd5b506102ad6110ec565b34801561043857600080fd5b506102ad6104473660046143bc565b611171565b34801561045857600080fd5b506104f06104673660046143bc565b6005602081905260009182526040909120805460018201546002830154600384015460048501549585015460069095015493959294919390926001600160801b0380821693600160801b92839004821693818316939091049091169060ff80821691610100810482169162010000820481169163010000008104821691600160201b909104168d565b604080519d8e5260208e019c909c529a8c019990995260608b01979097526001600160801b0395861660808b015293851660a08a015291841660c089015290921660e08701529015156101008601521515610120850152151561014084015260ff908116610160840152166101808201526101a0016102f2565b34801561057657600080fd5b506102ad610585366004614681565b6111f1565b34801561059657600080fd5b5060025460ff165b60405190151581526020016102f2565b3480156105ba57600080fd5b506102ad6105c936600461456d565b611257565b3480156105da57600080fd5b506102ad6105e93660046146aa565b611474565b3480156105fa57600080fd5b506103207f000000000000000000000000000000000000000000000000000000000000000081565b34801561062e57600080fd5b506102ad611504565b34801561064357600080fd5b506102ad6106523660046146c7565b611516565b34801561066357600080fd5b506102ad6106723660046143bc565b611634565b6102ad610685366004614681565b6118eb565b34801561069657600080fd5b506103207f000000000000000000000000000000000000000000000000000000000000000081565b3480156106ca57600080fd5b506102ad611a13565b3480156106df57600080fd5b506102ad611a96565b3480156106f457600080fd5b506000546001600160a01b0316610320565b34801561071257600080fd5b506102ad61072136600461473b565b611ad5565b34801561073257600080fd5b506102ad6107413660046146c7565b611be1565b34801561075257600080fd5b506102e86107613660046143bc565b6001600160a01b031660009081526006602052604090206001015490565b34801561078b57600080fd5b506102ad61079a366004614681565b611cfa565b3480156107ab57600080fd5b50600454610320906001600160a01b031681565b3480156107cb57600080fd5b5061059e7f000000000000000000000000000000000000000000000000000000000000000081565b3480156107ff57600080fd5b506102ad61080e3660046146aa565b611d5a565b34801561081f57600080fd5b506102e861082e3660046143bc565b6001600160a01b031660009081526006602052604090205490565b34801561085557600080fd5b506102ad610864366004614783565b611ddd565b34801561087557600080fd5b506102ad6108843660046143bc565b611ec2565b34801561089557600080fd5b50600354610320906001600160a01b031681565b3480156108b557600080fd5b506102ad611ed6565b3480156108ca57600080fd5b506102e86108d93660046143bc565b612040565b3480156108ea57600080fd5b5061094c6108f93660046143bc565b60066020526000908152604090208054600182015460029092015490919063ffffffff80821691600160201b8104821691600160401b8204811691600160601b810490911690600160801b900460ff1687565b60408051978852602088019690965263ffffffff948516958701959095529183166060860152821660808501521660a0830152151560c082015260e0016102f2565b34801561099a57600080fd5b506102ad6109a9366004614605565b6120d1565b3480156109ba57600080fd5b506102ad6109c93660046143bc565b6123e6565b3480156109da57600080fd5b506102e86109e93660046143bc565b6001600160a01b031660009081526005602052604090205490565b348015610a1057600080fd5b506102e8610a1f3660046143bc565b61245c565b348015610a3057600080fd5b506103207f000000000000000000000000000000000000000000000000000000000000000081565b348015610a6457600080fd5b506102ad610a7336600461483d565b612485565b60026001541415610aa45760405162461bcd60e51b8152600401610a9b9061491e565b60405180910390fd5b6002600155610ade6001600160a01b037f000000000000000000000000000000000000000000000000000000000000000016333085612bd0565b336000818152600560205260409020600601805460ff841663010000000263ff00ff001990911617610100179055610b169083612c41565b505060018055565b336001600160a01b037f00000000000000000000000000000000000000000000000000000000000000001614610b665760405162461bcd60e51b8152600401610a9b90614955565b60026001541415610b895760405162461bcd60e51b8152600401610a9b9061491e565b6002600155610b96612cb4565b6000805b8551811015610cf95760056000878381518110610bb957610bb96149a1565b60200260200101516001600160a01b03166001600160a01b0316815260200190815260200160002060060160019054906101000a900460ff16610c1b576000878281518110610c0a57610c0a6149a1565b602002602001018181525050610cc0565b610ca1868281518110610c3057610c306149a1565b6020026020010151610c9c898481518110610c4d57610c4d6149a1565b6020026020010151600560008b8781518110610c6b57610c6b6149a1565b60200260200101516001600160a01b03166001600160a01b0316815260200190815260200160002060010154612cfa565b612d11565b878281518110610cb357610cb36149a1565b6020026020010181815250505b868181518110610cd257610cd26149a1565b602002602001015182610ce591906149cd565b915080610cf1816149e5565b915050610b9a565b506000610d4a7f00000000000000000000000000000000000000000000000000000000000000007f000000000000000000000000000000000000000000000000000000000000000084888888612e87565b905060005b8651811015610dbd57610daa878281518110610d6d57610d6d6149a1565b6020026020010151848a8481518110610d8857610d886149a1565b602002602001015185610d9b9190614a00565b610da59190614a1f565b612f36565b5080610db5816149e5565b915050610d4f565b505060018055505050505050565b60026001541415610dee5760405162461bcd60e51b8152600401610a9b9061491e565b6002600155610dfb612cb4565b33600090815260056020526040902060010154811115610e1a57600080fd5b3360009081526005602052604081206001018054839290610e3c908490614a41565b90915550610e7690506001600160a01b037f00000000000000000000000000000000000000000000000000000000000000001633836130b5565b60405181815233907fb2475cc0963391d593f1a890df550d0c0551e1317e08cba0cdece5014f0555f69060200160405180910390a25060018055565b60026001541415610ed55760405162461bcd60e51b8152600401610a9b9061491e565b6002600155610f0f6001600160a01b037f000000000000000000000000000000000000000000000000000000000000000016333085612bd0565b610b1682826130d4565b60026001541415610f3c5760405162461bcd60e51b8152600401610a9b9061491e565b60026001556000805b8251811015610fc357838181518110610f6057610f606149a1565b602002602001015182610f7391906149cd565b9150610fb1838281518110610f8a57610f8a6149a1565b6020026020010151858381518110610fa457610fa46149a1565b6020026020010151612c41565b80610fbb816149e5565b915050610f45565b50610ff96001600160a01b037f000000000000000000000000000000000000000000000000000000000000000016333084612bd0565b50506001805550565b6001600160a01b03811660009081526005602052604081205490670de0b6b3a764000061102d613152565b6001600160a01b0385811660009081526005602052604090819020600601549051631820cc6160e11b8152929091169163304198c29161107591889160ff1690600401614a58565b60206040518083038186803b15801561108d57600080fd5b505afa1580156110a1573d6000803e3d6000fd5b505050506040513d601f19601f820116820180604052508101906110c59190614a73565b6110cf9084614a00565b6110d99190614a1f565b90506110e58183614a41565b9392505050565b336001600160a01b037f000000000000000000000000000000000000000000000000000000000000000016148061114b5750336001600160a01b037f000000000000000000000000000000000000000000000000000000000000000016145b6111675760405162461bcd60e51b8152600401610a9b90614a8c565b61116f6131d4565b565b336001600160a01b037f000000000000000000000000000000000000000000000000000000000000000016146111b95760405162461bcd60e51b8152600401610a9b90614ae5565b6004546001600160a01b0316156111cf57600080fd5b600480546001600160a01b0319166001600160a01b0392909216919091179055565b33600090815260056020908152604091829020600601805463ff0000001916630100000060ff86169081029190911790915591519182527f77ed550e4ce6a6e207491469db8a26599d2759712b30e5d4138272a3614f62d591015b60405180910390a150565b336001600160a01b037f0000000000000000000000000000000000000000000000000000000000000000161461129f5760405162461bcd60e51b8152600401610a9b90614955565b600260015414156112c25760405162461bcd60e51b8152600401610a9b9061491e565b60026001556112cf612cb4565b6000805b8551811015611397576113408782815181106112f1576112f16149a1565b60200260200101516005600089858151811061130f5761130f6149a1565b60200260200101516001600160a01b03166001600160a01b0316815260200190815260200160002060000154612cfa565b878281518110611352576113526149a1565b602002602001018181525050868181518110611370576113706149a1565b60200260200101518261138391906149cd565b91508061138f816149e5565b9150506112d3565b5060006113e87f00000000000000000000000000000000000000000000000000000000000000007f000000000000000000000000000000000000000000000000000000000000000084888888612e87565b905060005b8651811015610dbd5761146287828151811061140b5761140b6149a1565b6020026020010151898381518110611425576114256149a1565b6020026020010151858b8581518110611440576114406149a1565b6020026020010151866114539190614a00565b61145d9190614a1f565b613220565b8061146c816149e5565b9150506113ed565b600260015414156114975760405162461bcd60e51b8152600401610a9b9061491e565b6002600155336000908152600560205260409081902060060180548315156101000261ff0019909116179055517fd72547ad77e9806d3502cb62f025f39b0f91fc8d748a41c6ac147ecc19c8d683906114f590831515815260200190565b60405180910390a15060018055565b61150c61334c565b61116f60006133a6565b336001600160a01b037f0000000000000000000000000000000000000000000000000000000000000000161461155e5760405162461bcd60e51b8152600401610a9b90614ae5565b60005b8181101561162f57600060056000858585818110611581576115816149a1565b905060200201602081019061159691906143bc565b6001600160a01b031681526020810191909152604001600020600601805460ff19169115159190911790558282828181106115d3576115d36149a1565b90506020020160208101906115e891906143bc565b6001600160a01b03167fa3bfdef3d8149bacf15b7b64199fca8228c0fd4f8fcdd11cc7871829baf319c360405160405180910390a280611627816149e5565b915050611561565b505050565b61163c61334c565b7f00000000000000000000000000000000000000000000000000000000000000006116b85760405162461bcd60e51b815260206004820152602660248201527f5468697320636f6e747261637420646f6573206e6f7420616c6c6f7720746f206044820152657265766f6b6560d01b6064820152608401610a9b565b6001600160a01b03811660009081526006602052604090206002810154600160801b900460ff1661173a5760405162461bcd60e51b815260206004820152602660248201527f546f6b656e56657374696e673a2076657374696e67206973206e6f74207265766044820152656f6361626c6560d01b6064820152608401610a9b565b6001810154815461174b9190614a41565b6007600082825461175c9190614a41565b90915550506040805160e0810182528254815260018301546020820152600283015463ffffffff80821693830193909352600160201b810483166060830152600160401b810483166080830152600160601b810490921660a0820152600160801b90910460ff16151560c08201526000906117d6906133f6565b6001600160a01b0384166000908152600560205260408120600101805492935083929091906118069084906149cd565b90915550506040518181526001600160a01b038416907f94fd705dafc89ff1f03c1207631245602407f0e8ee47e1878a4e2ae954cd76749060200160405180910390a2600081836001015461185b91906149cd565b83546118679190614a41565b905061189d6001600160a01b037f00000000000000000000000000000000000000000000000000000000000000001633836130b5565b600080845560018401556040518181526001600160a01b038516907f57c76f5e278bfbd4eeb5207d287aa5a1a9e1113c65f7eefa540e379a2774d13b9060200160405180910390a250505050565b6002600154141561190e5760405162461bcd60e51b8152600401610a9b9061491e565b60026001557f00000000000000000000000000000000000000000000000000000000000000006001600160a01b031673bb4cdb9cbd36b01bd1cbaebf2de08d9173bc095c1461199a5760405162461bcd60e51b81526020600482015260186024820152770a0c2d2e4cac840e8ded6cadc40d2e640dcdee840ae8aa8960431b6044820152606401610a9b565b73bb4cdb9cbd36b01bd1cbaebf2de08d9173bc095c6001600160a01b031663d0e30db0346040518263ffffffff1660e01b81526004016000604051808303818588803b1580156119e957600080fd5b505af11580156119fd573d6000803e3d6000fd5b5050505050611a0c34826130d4565b5060018055565b336001600160a01b037f0000000000000000000000000000000000000000000000000000000000000000161480611a725750336001600160a01b037f000000000000000000000000000000000000000000000000000000000000000016145b611a8e5760405162461bcd60e51b8152600401610a9b90614a8c565b61116f6134ce565b60026001541415611ab95760405162461bcd60e51b8152600401610a9b9061491e565b6002600155611ac6612cb4565b611acf3361350b565b60018055565b60026001541415611af85760405162461bcd60e51b8152600401610a9b9061491e565b6002600155611b05612cb4565b336001600160a01b037f00000000000000000000000000000000000000000000000000000000000000001614611b4d5760405162461bcd60e51b8152600401610a9b90614955565b60005b8151811015610b165760056000838381518110611b6f57611b6f6149a1565b60200260200101516001600160a01b03166001600160a01b0316815260200190815260200160002060060160029054906101000a900460ff1615611bcf57611bcf828281518110611bc257611bc26149a1565b602002602001015161350b565b80611bd9816149e5565b915050611b50565b336001600160a01b037f00000000000000000000000000000000000000000000000000000000000000001614611c295760405162461bcd60e51b8152600401610a9b90614ae5565b60005b8181101561162f57600160056000858585818110611c4c57611c4c6149a1565b9050602002016020810190611c6191906143bc565b6001600160a01b031681526020810191909152604001600020600601805460ff1916911515919091179055828282818110611c9e57611c9e6149a1565b9050602002016020810190611cb391906143bc565b6001600160a01b03167fb72139c440b4fd552bd1ef2077ce2ef7de385e96860222e8ad491235caf5af6660405160405180910390a280611cf2816149e5565b915050611c2c565b33600090815260056020908152604091829020600601805464ff000000001916600160201b60ff86169081029190911790915591519182527f904afa43f77d88a905d8c6cc3b533b4a95bac10d941b471f4f885a16ccf028db910161124c565b60026001541415611d7d5760405162461bcd60e51b8152600401610a9b9061491e565b600260015533600090815260056020526040908190206006018054831515620100000262ff000019909116179055517f77772e1d36f25423d87182db3c5ed774dbdb85378da5f7f88f53e6007f0e3756906114f590831515815260200190565b60026001541415611e005760405162461bcd60e51b8152600401610a9b9061491e565b60026001556000805b8851811015611e8c57828181518110611e2457611e246149a1565b602002602001015182611e3791906149cd565b9150611e7a898281518110611e4e57611e4e6149a1565b60200260200101518989898989898881518110611e6d57611e6d6149a1565b602002602001015161364a565b80611e84816149e5565b915050611e09565b50610dbd6001600160a01b037f000000000000000000000000000000000000000000000000000000000000000016333084612bd0565b611eca61334c565b611ed3816139da565b50565b60026001541415611ef95760405162461bcd60e51b8152600401610a9b9061491e565b6002600155336001600160a01b037f00000000000000000000000000000000000000000000000000000000000000001614611f465760405162461bcd60e51b8152600401610a9b90614ae5565b600b54611f7f906001600160a01b037f0000000000000000000000000000000000000000000000000000000000000000169033906130b5565b600c54611fb8906001600160a01b037f0000000000000000000000000000000000000000000000000000000000000000169033906130b5565b600b5460096000828254611fcc91906149cd565b9091555050600c54600a8054600090611fe69084906149cd565b9091555050600c54600b546040517fa1f87f32d0f17fab0242ca800d736293de8988c14b27747e218cf13d5c249f539261202892908252602082015260400190565b60405180910390a16000600b819055600c5560018055565b6001600160a01b0381166000908152600660209081526040808320815160e081018352815481526001820154938101939093526002015463ffffffff80821692840192909252600160201b810482166060840152600160401b810482166080840152600160601b810490911660a0830152600160801b900460ff16151560c08201526120cb906133f6565b92915050565b600260015414156120f45760405162461bcd60e51b8152600401610a9b9061491e565b6002600155612101612cb4565b8061210b33611002565b10156121595760405162461bcd60e51b815260206004820152601d60248201527f4e6f7420656e6f75676820746f6b656e7320746f2077697468647261770000006044820152606401610a9b565b6000612163613152565b3360008181526005602052604090819020600601549051631820cc6160e11b81526001600160a01b03939093169263304198c2926121ab92909160ff90911690600401614a58565b60206040518083038186803b1580156121c357600080fd5b505afa1580156121d7573d6000803e3d6000fd5b505050506040513d601f19601f820116820180604052508101906121fb9190614a73565b9050600061221182670de0b6b3a7640000614a41565b61221b8385614a00565b6122259190614a1f565b3360009081526005602052604090205490915061224e908490612249908490614a41565b612cfa565b925061225a81846149cd565b3360009081526005602052604081208054909190612279908490614a41565b9250508190555080600b600082825461229291906149cd565b90915550507f00000000000000000000000000000000000000000000000000000000000000006001600160a01b031673bb4cdb9cbd36b01bd1cbaebf2de08d9173bc095c141561237457604051632e1a7d4d60e01b81526004810184905273bb4cdb9cbd36b01bd1cbaebf2de08d9173bc095c90632e1a7d4d90602401600060405180830381600087803b15801561232957600080fd5b505af115801561233d573d6000803e3d6000fd5b505060405133925085156108fc02915085906000818181858888f1935050505015801561236e573d6000803e3d6000fd5b506123a8565b6123a86001600160a01b037f00000000000000000000000000000000000000000000000000000000000000001633856130b5565b60405183815233907f5135ea2f98d3f162e3ddba39690cb01c8efe7e45ca7d4a15cf43be3d2981bc799060200160405180910390a250506001805550565b6123ee61334c565b6001600160a01b0381166124535760405162461bcd60e51b815260206004820152602660248201527f4f776e61626c653a206e6577206f776e657220697320746865207a65726f206160448201526564647265737360d01b6064820152608401610a9b565b611ed3816133a6565b6001600160a01b0381166000908152600660205260408120600181015490546120cb9190614a41565b336001600160a01b037f000000000000000000000000000000000000000000000000000000000000000016146124cd5760405162461bcd60e51b8152600401610a9b90614955565b600260015414156124f05760405162461bcd60e51b8152600401610a9b9061491e565b60026001556124fd612cb4565b6000604051806101000160405280898152602001888152602001878152602001868152602001600081526020016000815260200185815260200184848080601f016020809104026020016040519081016040528093929190818152602001838380828437600092018290525093909452509293509150505b816020015151811015612774576000600560008460200151848151811061259e5761259e6149a1565b6020908102919091018101516001600160a01b0316825281810192909252604090810160002081516101a08101835281548152600182015493810184905260028201549281018390526003820154606082015260048201546001600160801b038082166080840152600160801b91829004811660a0840152600584015480821660c0850152919091041660e082015260069091015460ff808216151561010080850191909152820481161515610120840152620100008204811615156101408401526301000000820481166101608401819052600160201b909204166101808301529093509091606491906126949084906149cd565b61269e9190614a00565b6126a89190614a1f565b111561276157612711836000015183815181106126c7576126c76149a1565b60200260200101518260400151606484610160015160ff16856040015186602001516126f391906149cd565b6126fd9190614a00565b6127079190614a1f565b6122499190614a41565b8351805184908110612725576127256149a1565b60209081029190910101528251805183908110612744576127446149a1565b60200260200101518360800181815161275d91906149cd565b9052505b508061276c816149e5565b915050612575565b5060005b81606001515181101561296257600060056000846060015184815181106127a1576127a16149a1565b6020908102919091018101516001600160a01b0316825281810192909252604090810160002081516101a081018352815480825260018301549482019490945260028201549281019290925260038101546060830181905260048201546001600160801b038082166080860152600160801b91829004811660a0860152600584015480821660c0870152919091041660e084015260069091015460ff80821615156101008086019190915282048116151561012085015262010000820481161515610140850152630100000082048116610160850152600160201b909104166101808301819052919350916064919061289b9084906149cd565b6128a59190614a00565b6128af9190614a1f565b111561294f576128fa836040015183815181106128ce576128ce6149a1565b60200260200101518260600151606484610180015160ff16856060015186600001516126f391906149cd565b83604001518381518110612910576129106149a1565b60200260200101818152505082604001518281518110612932576129326149a1565b60200260200101518360a00181815161294b91906149cd565b9052505b508061295a816149e5565b915050612778565b5060006129748260a001518585613b1a565b60048054608085015160405163095ea7b360e01b81529394506001600160a01b037f000000000000000000000000000000000000000000000000000000000000000081169463095ea7b3946129ce94909216929101614b2f565b602060405180830381600087803b1580156129e857600080fd5b505af11580156129fc573d6000803e3d6000fd5b505050506040513d601f19601f82011682018060405250810190612a209190614b48565b506004805460405163095ea7b360e01b81526001600160a01b037f000000000000000000000000000000000000000000000000000000000000000081169363095ea7b393612a7393921691869101614b2f565b602060405180830381600087803b158015612a8d57600080fd5b505af1158015612aa1573d6000803e3d6000fd5b505050506040513d601f19601f82011682018060405250810190612ac59190614b48565b5060048054835160208501516040808701516060880151608089015160c08a01519351632928d8b360e11b815260009889986001600160a01b031697635251b16697612b1e97919690959094909390928d929101614bd9565b6040805180830381600087803b158015612b3757600080fd5b505af1158015612b4b573d6000803e3d6000fd5b505050506040513d601f19601f82011682018060405250810190612b6f9190614c46565b91509150828460a00151612b839190614a41565b612b8d90826149cd565b9050612ba784602001518560000151848760800151613d31565b612bbf84606001518560400151838760a00151613da8565b505060018055505050505050505050565b6040516001600160a01b0380851660248301528316604482015260648101829052612c3b9085906323b872dd60e01b906084015b60408051601f198184030181529190526020810180516001600160e01b03166001600160e01b031990931692909217909152613e18565b50505050565b6001600160a01b03821660009081526005602052604081206001018054839290612c6c9084906149cd565b90915550506040518181526001600160a01b038316907f9e71bc8eea02a63969f509818f2dafb9254532904319f9dbda79b67bd34a5f3d906020015b60405180910390a25050565b60025460ff161561116f5760405162461bcd60e51b815260206004820152601060248201526f14185d5cd8589b194e881c185d5cd95960821b6044820152606401610a9b565b600081831115612d0a57816110e5565b5090919050565b6001600160a01b038216600090815260056020526040812060010180548391908390612d3e908490614a41565b90915550506001600160a01b03831660009081526005602081905260408220018054849290612d779084906001600160801b0316614c6a565b92506101000a8154816001600160801b0302191690836001600160801b031602179055506000670de0b6b3a7640000612dae613152565b6001600160a01b0386811660009081526005602052604090819020600601549051631907bfab60e01b81529290911691631907bfab91612df691899160ff1690600401614a58565b60206040518083038186803b158015612e0e57600080fd5b505afa158015612e22573d6000803e3d6000fd5b505050506040513d601f19601f82011682018060405250810190612e469190614a73565b612e509085614a00565b612e5a9190614a1f565b9050612e668184614a41565b925080600c6000828254612e7a91906149cd565b9091555092949350505050565b60007f00000000000000000000000000000000000000000000000000000000000000006001600160a01b0316876001600160a01b03161415612ed157612ece858484613b1a565b94505b6000612ee1888888888888613eea565b90507f00000000000000000000000000000000000000000000000000000000000000006001600160a01b0316876001600160a01b03161415612f2b57612f28818585613b1a565b90505b979650505050505050565b600080670de0b6b3a7640000612f4a613152565b6001600160a01b038681166000908152600560205260409081902060060154905163d9906e7d60e01b8152929091169163d9906e7d91612f9291899160ff1690600401614a58565b60206040518083038186803b158015612faa57600080fd5b505afa158015612fbe573d6000803e3d6000fd5b505050506040513d601f19601f82011682018060405250810190612fe29190614a73565b612fec9085614a00565b612ff69190614a1f565b90506130028184614a41565b925080600b600082825461301691906149cd565b90915550506001600160a01b038416600090815260056020526040812080548592906130439084906149cd565b90915550506001600160a01b0384166000908152600560208190526040909120018054849190601090613087908490600160801b90046001600160801b0316614c6a565b92506101000a8154816001600160801b0302191690836001600160801b031602179055508291505092915050565b61162f8363a9059cbb60e01b8484604051602401612c04929190614b2f565b33600090815260056020526040812080548492906130f39084906149cd565b909155505033600081815260056020908152604091829020600601805464ff000000001916600160201b60ff87160217905590518481527f8109037fc5b3b3f0368806e9cd981c30daa1a3d0c26be8307576c4f5f2125d5e9101612ca8565b600354604080516312209d2f60e31b815290516000926001600160a01b031691639104e978916004808301926020929190829003018186803b15801561319757600080fd5b505afa1580156131ab573d6000803e3d6000fd5b505050506040513d601f19601f820116820180604052508101906131cf9190614c95565b905090565b6131dc613faf565b6002805460ff191690557f5db9ee0a495bf2e6ff9c91a7834c1ba4fdd244a5e8aa4e537bd38aeae4b073aa335b60405161321691906143d9565b60405180910390a1565b6001600160a01b0383166000908152600560205260408120600101805483929061324b9084906149cd565b90915550506001600160a01b038316600090815260056020526040812060040180548392906132849084906001600160801b0316614c6a565b92506101000a8154816001600160801b0302191690836001600160801b031602179055508160056000856001600160a01b03166001600160a01b0316815260200190815260200160002060000160008282546132e09190614a41565b90915550506001600160a01b03831660009081526005602052604090206004018054839190601090613323908490600160801b90046001600160801b0316614c6a565b92506101000a8154816001600160801b0302191690836001600160801b03160217905550505050565b6000546001600160a01b0316331461116f5760405162461bcd60e51b815260206004820181905260248201527f4f776e61626c653a2063616c6c6572206973206e6f7420746865206f776e65726044820152606401610a9b565b600080546001600160a01b038381166001600160a01b0319831681178455604051919092169283917f8be0079c531659141344cd1fd0a4f28419497f9722a3daafe3b4186f6b6457e09190a35050565b6040810151600090429063ffffffff168110156134165750600092915050565b8260800151836060015161342a9190614cb2565b63ffffffff16811061344757602083015183516110e59190614a41565b6000836060015163ffffffff168261345f9190614a41565b60a085015190915063ffffffff1660006134798284614a1f565b905060006134878383614a00565b90506000876080015163ffffffff168289600001516134a69190614a00565b6134b09190614a1f565b90508760200151816134c29190614a41565b98975050505050505050565b6134d6612cb4565b6002805460ff191660011790557f62e78cea01bee320cd4e420270b5ea74000d11b0c9f74754ebdbfc544b05a2586132093390565b6001600160a01b0381166000908152600660205260409020805461352e57600080fd5b6040805160e0810182528254815260018301546020820152600283015463ffffffff80821693830193909352600160201b810483166060830152600160401b810483166080830152600160601b810490921660a0820152600160801b90910460ff16151560c08201526000906135a3906133f6565b9050808260010160008282546135b991906149cd565b9250508190555080600760008282546135d29190614a41565b90915550506001600160a01b038316600090815260056020526040812060010180548392906136029084906149cd565b90915550506040518181526001600160a01b038416907f94fd705dafc89ff1f03c1207631245602407f0e8ee47e1878a4e2ae954cd76749060200160405180910390a2505050565b60008463ffffffff16116136ab5760405162461bcd60e51b815260206004820152602260248201527f546f6b656e56657374696e673a206475726174696f6e206d757374206265203e604482015261020360f41b6064820152608401610a9b565b600081116136fb5760405162461bcd60e51b815260206004820181905260248201527f546f6b656e56657374696e673a20616d6f756e74206d757374206265203e20306044820152606401610a9b565b60018363ffffffff1610156137685760405162461bcd60e51b815260206004820152602d60248201527f546f6b656e56657374696e673a20736c696365506572696f645365636f6e647360448201526c206d757374206265203e3d203160981b6064820152608401610a9b565b6001600160a01b038716600090815260066020526040902054156137e45760405162461bcd60e51b815260206004820152602d60248201527f546f6b656e56657374696e673a2056657374696e67207363686564756c65206160448201526c6c72656164792065786973747360981b6064820152608401610a9b565b60006137f08688614cb2565b905080600660008a6001600160a01b03166001600160a01b0316815260200190815260200160002060020160006101000a81548163ffffffff021916908363ffffffff16021790555086600660008a6001600160a01b03166001600160a01b0316815260200190815260200160002060020160046101000a81548163ffffffff021916908363ffffffff16021790555084600660008a6001600160a01b03166001600160a01b0316815260200190815260200160002060020160086101000a81548163ffffffff021916908363ffffffff16021790555083600660008a6001600160a01b03166001600160a01b03168152602001908152602001600020600201600c6101000a81548163ffffffff021916908363ffffffff16021790555082600660008a6001600160a01b03166001600160a01b0316815260200190815260200160002060020160106101000a81548160ff02191690831515021790555081600660008a6001600160a01b03166001600160a01b0316815260200190815260200160002060000181905550816007600082825461398d91906149cd565b90915550506040518281526001600160a01b038916907f82a09c12487d9950c96682e398533045828bd33d830b54dddd5684ac79bf27bd9060200160405180910390a25050505050505050565b600254604080516001600160a01b036101009093048316815291831660208301527fa8f5d6a26420dbca563af82edda993be302bfa0d82b1540ed55eac3326eb85f2910160405180910390a1600354604051630b90f5dd60e41b81526001600160a01b039091169063b90f5dd090613a569084906004016143d9565b60206040518083038186803b158015613a6e57600080fd5b505afa158015613a82573d6000803e3d6000fd5b505050506040513d601f19601f82011682018060405250810190613aa69190614b48565b613af25760405162461bcd60e51b815260206004820152601e60248201527f4d61726b65744d616b65724c696272617279206e6f7420616c6c6f77656400006044820152606401610a9b565b600280546001600160a01b0390921661010002610100600160a81b0319909216919091179055565b60008067016345785d8a00007f00000000000000000000000000000000000000000000000000000000000000006001600160a01b0316311015613d1e576000613b956001600160a01b037f0000000000000000000000000000000000000000000000000000000000000000163167016345785d8a0000614a41565b90507f00000000000000000000000000000000000000000000000000000000000000006001600160a01b031673bb4cdb9cbd36b01bd1cbaebf2de08d9173bc095c14613bed57613be6818686613ff8565b9150613bf1565b8091505b818611613c4f5760405162461bcd60e51b815260206004820152602660248201527f5472616e73616374696f6e20636f737473206d6f7265207468616e20676173206044820152651b995959195960d21b6064820152608401610a9b565b604051632e1a7d4d60e01b81526004810182905273bb4cdb9cbd36b01bd1cbaebf2de08d9173bc095c90632e1a7d4d90602401600060405180830381600087803b158015613c9c57600080fd5b505af1158015613cb0573d6000803e3d6000fd5b50506040516001600160a01b037f000000000000000000000000000000000000000000000000000000000000000016925083156108fc02915083906000818181858888f19350505050158015613d0a573d6000803e3d6000fd5b5081600854613d1991906149cd565b600855505b613d288186614a41565b95945050505050565b60005b8451811015613da157613d8f858281518110613d5257613d526149a1565b602002602001015183868481518110613d6d57613d6d6149a1565b602002602001015186613d809190614a00565b613d8a9190614a1f565b6140d6565b80613d99816149e5565b915050613d34565b5050505050565b60005b8451811015613da157613e06858281518110613dc957613dc96149a1565b602002602001015183868481518110613de457613de46149a1565b602002602001015186613df79190614a00565b613e019190614a1f565b61413a565b80613e10816149e5565b915050613dab565b6000613e6d826040518060400160405280602081526020017f5361666545524332303a206c6f772d6c6576656c2063616c6c206661696c6564815250856001600160a01b03166141929092919063ffffffff16565b80519091501561162f5780806020019051810190613e8b9190614b48565b61162f5760405162461bcd60e51b815260206004820152602a60248201527f5361666545524332303a204552433230206f7065726174696f6e20646964206e6044820152691bdd081cdd58d8d9595960b21b6064820152608401610a9b565b6002546040516000918291829161010090046001600160a01b031690613f1e908b908b908b908b908b908b90602401614cfa565b60408051601f198184030181529181526020820180516001600160e01b0316632d607d0b60e21b17905251613f539190614d61565b600060405180830381855af49150503d8060008114613f8e576040519150601f19603f3d011682016040523d82523d6000602084013e613f93565b606091505b5091509150613fa282826141a9565b9998505050505050505050565b60025460ff1661116f5760405162461bcd60e51b815260206004820152601460248201527314185d5cd8589b194e881b9bdd081c185d5cd95960621b6044820152606401610a9b565b6002546040516000918291829161010090046001600160a01b031690614048907f000000000000000000000000000000000000000000000000000000000000000090899089908990602401614d7d565b60408051601f198184030181529181526020820180516001600160e01b031663fc7d1c8d60e01b1790525161407d9190614d61565b600060405180830381855af49150503d80600081146140b8576040519150601f19603f3d011682016040523d82523d6000602084013e6140bd565b606091505b50915091506140cc82826141a9565b9695505050505050565b6001600160a01b038216600090815260056020526040812060020180548392906141019084906149cd565b90915550506001600160a01b03821660009081526005602052604081206001018054839290614131908490614a41565b90915550505050565b6001600160a01b038216600090815260056020526040812060030180548392906141659084906149cd565b90915550506001600160a01b03821660009081526005602052604081208054839290614131908490614a41565b60606141a1848460008561420b565b949350505050565b600082614201578151156141c05781518083602001fd5b60405162461bcd60e51b815260206004820152601660248201527511195b1959d85d194818d85b1b081c995d995c9d195960521b6044820152606401610a9b565b5060200151919050565b60608247101561426c5760405162461bcd60e51b815260206004820152602660248201527f416464726573733a20696e73756666696369656e742062616c616e636520666f6044820152651c8818d85b1b60d21b6064820152608401610a9b565b6001600160a01b0385163b6142c35760405162461bcd60e51b815260206004820152601d60248201527f416464726573733a2063616c6c20746f206e6f6e2d636f6e74726163740000006044820152606401610a9b565b600080866001600160a01b031685876040516142df9190614d61565b60006040518083038185875af1925050503d806000811461431c576040519150601f19603f3d011682016040523d82523d6000602084013e614321565b606091505b5091509150612f2b8282866060831561433b5750816110e5565b82511561434b5782518084602001fd5b8160405162461bcd60e51b8152600401610a9b9190614da5565b803560ff8116811461437657600080fd5b919050565b6000806040838503121561438e57600080fd5b8235915061439e60208401614365565b90509250929050565b6001600160a01b0381168114611ed357600080fd5b6000602082840312156143ce57600080fd5b81356110e5816143a7565b6001600160a01b0391909116815260200190565b634e487b7160e01b600052604160045260246000fd5b604051601f8201601f191681016001600160401b038111828210171561442b5761442b6143ed565b604052919050565b60006001600160401b0382111561444c5761444c6143ed565b5060051b60200190565b600082601f83011261446757600080fd5b8135602061447c61447783614433565b614403565b82815260059290921b8401810191818101908684111561449b57600080fd5b8286015b848110156144b6578035835291830191830161449f565b509695505050505050565b600082601f8301126144d257600080fd5b813560206144e261447783614433565b82815260059290921b8401810191818101908684111561450157600080fd5b8286015b848110156144b6578035614518816143a7565b8352918301918301614505565b60008083601f84011261453757600080fd5b5081356001600160401b0381111561454e57600080fd5b60208301915083602082850101111561456657600080fd5b9250929050565b60008060008060006080868803121561458557600080fd5b85356001600160401b038082111561459c57600080fd5b6145a889838a01614456565b965060208801359150808211156145be57600080fd5b6145ca89838a016144c1565b95506040880135945060608801359150808211156145e757600080fd5b506145f488828901614525565b969995985093965092949392505050565b60006020828403121561461757600080fd5b5035919050565b6000806040838503121561463157600080fd5b82356001600160401b038082111561464857600080fd5b61465486838701614456565b9350602085013591508082111561466a57600080fd5b50614677858286016144c1565b9150509250929050565b60006020828403121561469357600080fd5b6110e582614365565b8015158114611ed357600080fd5b6000602082840312156146bc57600080fd5b81356110e58161469c565b600080602083850312156146da57600080fd5b82356001600160401b03808211156146f157600080fd5b818501915085601f83011261470557600080fd5b81358181111561471457600080fd5b8660208260051b850101111561472957600080fd5b60209290920196919550909350505050565b60006020828403121561474d57600080fd5b81356001600160401b0381111561476357600080fd5b6141a1848285016144c1565b803563ffffffff8116811461437657600080fd5b600080600080600080600060e0888a03121561479e57600080fd5b87356001600160401b03808211156147b557600080fd5b6147c18b838c016144c1565b98506147cf60208b0161476f565b97506147dd60408b0161476f565b96506147eb60608b0161476f565b95506147f960808b0161476f565b945060a08a0135915061480b8261469c565b90925060c0890135908082111561482157600080fd5b5061482e8a828b01614456565b91505092959891949750929550565b600080600080600080600060c0888a03121561485857600080fd5b87356001600160401b038082111561486f57600080fd5b61487b8b838c01614456565b985060208a013591508082111561489157600080fd5b61489d8b838c016144c1565b975060408a01359150808211156148b357600080fd5b6148bf8b838c01614456565b965060608a01359150808211156148d557600080fd5b6148e18b838c016144c1565b955060808a0135945060a08a01359150808211156148fe57600080fd5b5061490b8a828b01614525565b989b979a50959850939692959293505050565b6020808252601f908201527f5265656e7472616e637947756172643a207265656e7472616e742063616c6c00604082015260600190565b6020808252602c908201527f6f6e6c79436f6e74726f6c6c65723a2063616c6c6572206973206e6f7420746860408201526b329031b7b73a3937b63632b960a11b606082015260800190565b634e487b7160e01b600052603260045260246000fd5b634e487b7160e01b600052601160045260246000fd5b600082198211156149e0576149e06149b7565b500190565b60006000198214156149f9576149f96149b7565b5060010190565b6000816000190483118215151615614a1a57614a1a6149b7565b500290565b600082614a3c57634e487b7160e01b600052601260045260246000fd5b500490565b600082821015614a5357614a536149b7565b500390565b6001600160a01b039290921682521515602082015260400190565b600060208284031215614a8557600080fd5b5051919050565b60208082526039908201527f6f6e6c794d6f64657261746f723a2063616c6c6572206973206e6f74207468656040820152781031b7b73a3937b63632b9103737b91036b7b232b930ba37b960391b606082015260800190565b6020808252602a908201527f6f6e6c794d6f64657261746f723a2063616c6c6572206973206e6f74207468656040820152691036b7b232b930ba37b960b11b606082015260800190565b6001600160a01b03929092168252602082015260400190565b600060208284031215614b5a57600080fd5b81516110e58161469c565b600081518084526020808501945080840160005b83811015614b9557815187529582019590820190600101614b79565b509495945050505050565b600081518084526020808501945080840160005b83811015614b955781516001600160a01b031687529582019590820190600101614bb4565b60e081526000614bec60e083018a614b65565b8281036020840152614bfe818a614ba0565b90508281036040840152614c128189614b65565b90508281036060840152614c268188614ba0565b6080840196909652505060a081019290925260c090910152949350505050565b60008060408385031215614c5957600080fd5b505080516020909101519092909150565b60006001600160801b03828116848216808303821115614c8c57614c8c6149b7565b01949350505050565b600060208284031215614ca757600080fd5b81516110e5816143a7565b600063ffffffff808316818516808303821115614c8c57614c8c6149b7565b81835281816020850137506000828201602090810191909152601f909101601f19169091010190565b6001600160a01b03878116825286166020820152604081018590526060810184905260a0608082018190526000906134c29083018486614cd1565b60005b83811015614d50578181015183820152602001614d38565b83811115612c3b5750506000910152565b60008251614d73818460208701614d35565b9190910192915050565b60018060a01b03851681528360208201526060604082015260006140cc606083018486614cd1565b6020815260008251806020840152614dc4816040850160208701614d35565b601f01601f1916919091016040019291505056fea2646970667358221220c3eb437b1b7e90b7c32eccbc3c79c8bd9a1290017302cab962c63e90cca34e9a64736f6c63430008090033",
  "linkReferences": {},
  "deployedLinkReferences": {}
}