{
  "_format": "hh-sol-artifact-1",
  "contractName": "MarketMaker",
  "sourceName": "contracts/MarketMaker.sol",
  "abi": [
    {
      "inputs": [
        {
          "internalType": "address",
          "name": "_baseToken",
          "type": "address"
        },
        {
          "internalType": "address",
          "name": "_pairedToken",
          "type": "address"
        },
        {
          "internalType": "address",
          "name": "_owner",
          "type": "address"
        },
        {
          "internalType": "address",
          "name": "_moderator",
          "type": "address"
        },
        {
          "internalType": "address payable",
          "name": "_controller",
          "type": "address"
        },
        {
          "internalType": "bool",
          "name": "_revocableContract",
          "type": "bool"
        },
        {
          "internalType": "bool",
          "name": "_paused",
          "type": "bool"
        },
        {
          "internalType": "address",
          "name": "_marketMakerLibrary",
          "type": "address"
        },
        {
          "internalType": "address",
          "name": "_masterContractAddress",
          "type": "address"
        }
      ],
      "stateMutability": "nonpayable",
      "type": "constructor"
    },
    {
      "anonymous": false,
      "inputs": [
        {
          "indexed": true,
          "internalType": "address",
          "name": "_user",
          "type": "address"
        },
        {
          "indexed": false,
          "internalType": "uint256",
          "name": "_amount",
          "type": "uint256"
        }
      ],
      "name": "AmountReleased",
      "type": "event"
    },
    {
      "anonymous": false,
      "inputs": [
        {
          "indexed": true,
          "internalType": "address",
          "name": "_user",
          "type": "address"
        },
        {
          "indexed": false,
          "internalType": "uint256",
          "name": "_amount",
          "type": "uint256"
        }
      ],
      "name": "BaseTokenStakeInLiquidity",
      "type": "event"
    },
    {
      "anonymous": false,
      "inputs": [
        {
          "indexed": false,
          "internalType": "address",
          "name": "_OldMarketMakerLibrary",
          "type": "address"
        },
        {
          "indexed": false,
          "internalType": "address",
          "name": "_NewMarketMakerLibrary",
          "type": "address"
        }
      ],
      "name": "ChangeMarketMakerLibrary",
      "type": "event"
    },
    {
      "anonymous": false,
      "inputs": [
        {
          "indexed": true,
          "internalType": "address",
          "name": "_beneficiary",
          "type": "address"
        },
        {
          "indexed": false,
          "internalType": "uint256",
          "name": "_amount",
          "type": "uint256"
        }
      ],
      "name": "CreatedVestingSchedule",
      "type": "event"
    },
    {
      "anonymous": false,
      "inputs": [
        {
          "indexed": false,
          "internalType": "uint256",
          "name": "_claimedBaseFee",
          "type": "uint256"
        },
        {
          "indexed": false,
          "internalType": "uint256",
          "name": "_claimedPairedFee",
          "type": "uint256"
        }
      ],
      "name": "FeesClaimed",
      "type": "event"
    },
    {
      "anonymous": false,
      "inputs": [
        {
          "indexed": true,
          "internalType": "address",
          "name": "previousOwner",
          "type": "address"
        },
        {
          "indexed": true,
          "internalType": "address",
          "name": "newOwner",
          "type": "address"
        }
      ],
      "name": "OwnershipTransferred",
      "type": "event"
    },
    {
      "anonymous": false,
      "inputs": [
        {
          "indexed": true,
          "internalType": "address",
          "name": "_user",
          "type": "address"
        },
        {
          "indexed": false,
          "internalType": "uint256",
          "name": "_amount",
          "type": "uint256"
        }
      ],
      "name": "PairedTokenStakeInLiquidity",
      "type": "event"
    },
    {
      "anonymous": false,
      "inputs": [
        {
          "indexed": false,
          "internalType": "address",
          "name": "account",
          "type": "address"
        }
      ],
      "name": "Paused",
      "type": "event"
    },
    {
      "anonymous": false,
      "inputs": [
        {
          "indexed": true,
          "internalType": "address",
          "name": "_user",
          "type": "address"
        }
      ],
      "name": "ProjectOwnerRemoved",
      "type": "event"
    },
    {
      "anonymous": false,
      "inputs": [
        {
          "indexed": true,
          "internalType": "address",
          "name": "_user",
          "type": "address"
        }
      ],
      "name": "ProjectOwnerSet",
      "type": "event"
    },
    {
      "anonymous": false,
      "inputs": [
        {
          "indexed": false,
          "internalType": "bool",
          "name": "_allowReleasing",
          "type": "bool"
        }
      ],
      "name": "SetAllowReleasing",
      "type": "event"
    },
    {
      "anonymous": false,
      "inputs": [
        {
          "indexed": false,
          "internalType": "bool",
          "name": "_allowSelling",
          "type": "bool"
        }
      ],
      "name": "SetAllowSelling",
      "type": "event"
    },
    {
      "anonymous": false,
      "inputs": [
        {
          "indexed": false,
          "internalType": "uint8",
          "name": "_ratio",
          "type": "uint8"
        }
      ],
      "name": "SetMaxBaseLiquidityRatio",
      "type": "event"
    },
    {
      "anonymous": false,
      "inputs": [
        {
          "indexed": false,
          "internalType": "uint8",
          "name": "_ratio",
          "type": "uint8"
        }
      ],
      "name": "SetMaxPairedLiquidityRatio",
      "type": "event"
    },
    {
      "anonymous": false,
      "inputs": [
        {
          "indexed": true,
          "internalType": "address",
          "name": "_user",
          "type": "address"
        },
        {
          "indexed": false,
          "internalType": "uint256",
          "name": "_amount",
          "type": "uint256"
        }
      ],
      "name": "Staked",
      "type": "event"
    },
    {
      "anonymous": false,
      "inputs": [
        {
          "indexed": true,
          "internalType": "address",
          "name": "_user",
          "type": "address"
        },
        {
          "indexed": false,
          "internalType": "uint256",
          "name": "_amount",
          "type": "uint256"
        }
      ],
      "name": "StakedInPairedToken",
      "type": "event"
    },
    {
      "anonymous": false,
      "inputs": [
        {
          "indexed": false,
          "internalType": "address",
          "name": "account",
          "type": "address"
        }
      ],
      "name": "Unpaused",
      "type": "event"
    },
    {
      "anonymous": false,
      "inputs": [
        {
          "indexed": true,
          "internalType": "address",
          "name": "_user",
          "type": "address"
        },
        {
          "indexed": false,
          "internalType": "uint256",
          "name": "_amount",
          "type": "uint256"
        }
      ],
      "name": "VestingRevoked",
      "type": "event"
    },
    {
      "anonymous": false,
      "inputs": [
        {
          "indexed": true,
          "internalType": "address",
          "name": "_user",
          "type": "address"
        },
        {
          "indexed": false,
          "internalType": "uint256",
          "name": "_amount",
          "type": "uint256"
        }
      ],
      "name": "WithdrawnBaseToken",
      "type": "event"
    },
    {
      "anonymous": false,
      "inputs": [
        {
          "indexed": true,
          "internalType": "address",
          "name": "_user",
          "type": "address"
        },
        {
          "indexed": false,
          "internalType": "uint256",
          "name": "_amount",
          "type": "uint256"
        }
      ],
      "name": "WithdrawnPairedToken",
      "type": "event"
    },
    {
      "inputs": [
        {
          "internalType": "uint256[]",
          "name": "_amountsBaseTokenIn",
          "type": "uint256[]"
        },
        {
          "internalType": "address[]",
          "name": "_beneficiaryBaseArray",
          "type": "address[]"
        },
        {
          "internalType": "uint256[]",
          "name": "_amountsPairedTokenIn",
          "type": "uint256[]"
        },
        {
          "internalType": "address[]",
          "name": "_beneficiaryPairedArray",
          "type": "address[]"
        },
        {
          "internalType": "uint256",
          "name": "_slippage",
          "type": "uint256"
        },
        {
          "internalType": "string",
          "name": "_exchange",
          "type": "string"
        }
      ],
      "name": "StakeInLiquidityMaker",
      "outputs": [],
      "stateMutability": "nonpayable",
      "type": "function"
    },
    {
      "inputs": [],
      "name": "availableBaseFee",
      "outputs": [
        {
          "internalType": "uint256",
          "name": "",
          "type": "uint256"
        }
      ],
      "stateMutability": "view",
      "type": "function"
    },
    {
      "inputs": [],
      "name": "availablePairedFee",
      "outputs": [
        {
          "internalType": "uint256",
          "name": "",
          "type": "uint256"
        }
      ],
      "stateMutability": "view",
      "type": "function"
    },
    {
      "inputs": [],
      "name": "baseTokenAddress",
      "outputs": [
        {
          "internalType": "address",
          "name": "",
          "type": "address"
        }
      ],
      "stateMutability": "view",
      "type": "function"
    },
    {
      "inputs": [
        {
          "internalType": "uint256[]",
          "name": "_amountsIn",
          "type": "uint256[]"
        },
        {
          "internalType": "address[]",
          "name": "_beneficiaryArray",
          "type": "address[]"
        },
        {
          "internalType": "uint256",
          "name": "_slippage",
          "type": "uint256"
        },
        {
          "internalType": "string",
          "name": "_exchange",
          "type": "string"
        }
      ],
      "name": "buy",
      "outputs": [],
      "stateMutability": "nonpayable",
      "type": "function"
    },
    {
      "inputs": [],
      "name": "claimFees",
      "outputs": [],
      "stateMutability": "nonpayable",
      "type": "function"
    },
    {
      "inputs": [],
      "name": "claimedBaseFee",
      "outputs": [
        {
          "internalType": "uint256",
          "name": "",
          "type": "uint256"
        }
      ],
      "stateMutability": "view",
      "type": "function"
    },
    {
      "inputs": [],
      "name": "claimedPairedFee",
      "outputs": [
        {
          "internalType": "uint256",
          "name": "",
          "type": "uint256"
        }
      ],
      "stateMutability": "view",
      "type": "function"
    },
    {
      "inputs": [
        {
          "internalType": "address",
          "name": "_beneficiary",
          "type": "address"
        }
      ],
      "name": "computeReleasableAmount",
      "outputs": [
        {
          "internalType": "uint256",
          "name": "",
          "type": "uint256"
        }
      ],
      "stateMutability": "view",
      "type": "function"
    },
    {
      "inputs": [],
      "name": "controller",
      "outputs": [
        {
          "internalType": "address payable",
          "name": "",
          "type": "address"
        }
      ],
      "stateMutability": "view",
      "type": "function"
    },
    {
      "inputs": [
        {
          "internalType": "address[]",
          "name": "_beneficiaryArray",
          "type": "address[]"
        },
        {
          "internalType": "uint32",
          "name": "_start",
          "type": "uint32"
        },
        {
          "internalType": "uint32",
          "name": "_cliff",
          "type": "uint32"
        },
        {
          "internalType": "uint32",
          "name": "_duration",
          "type": "uint32"
        },
        {
          "internalType": "uint32",
          "name": "_slicePeriodSeconds",
          "type": "uint32"
        },
        {
          "internalType": "bool",
          "name": "_revocable",
          "type": "bool"
        },
        {
          "internalType": "uint256[]",
          "name": "_amounts",
          "type": "uint256[]"
        }
      ],
      "name": "createVestingSchedule",
      "outputs": [],
      "stateMutability": "nonpayable",
      "type": "function"
    },
    {
      "inputs": [
        {
          "internalType": "address",
          "name": "_beneficiary",
          "type": "address"
        }
      ],
      "name": "getWithdrawablePairedTokens",
      "outputs": [
        {
          "internalType": "uint256",
          "name": "total",
          "type": "uint256"
        }
      ],
      "stateMutability": "view",
      "type": "function"
    },
    {
      "inputs": [
        {
          "internalType": "address",
          "name": "",
          "type": "address"
        }
      ],
      "name": "holdersMapping",
      "outputs": [
        {
          "internalType": "uint256",
          "name": "balanceInBaseToken",
          "type": "uint256"
        },
        {
          "internalType": "uint256",
          "name": "balanceInPairedToken",
          "type": "uint256"
        },
        {
          "internalType": "uint256",
          "name": "baseTokenStakedInLiquidity",
          "type": "uint256"
        },
        {
          "internalType": "uint256",
          "name": "pairedTokenStakedInLiquidity",
          "type": "uint256"
        },
        {
          "internalType": "uint120",
          "name": "baseAmountBought",
          "type": "uint120"
        },
        {
          "internalType": "uint120",
          "name": "pairedAmountBought",
          "type": "uint120"
        },
        {
          "internalType": "bool",
          "name": "allowSelling",
          "type": "bool"
        },
        {
          "internalType": "bool",
          "name": "projectOwner",
          "type": "bool"
        },
        {
          "internalType": "uint120",
          "name": "baseAmountSold",
          "type": "uint120"
        },
        {
          "internalType": "uint120",
          "name": "pairedAmountSold",
          "type": "uint120"
        },
        {
          "internalType": "uint8",
          "name": "maxBaseLiquidityRatio",
          "type": "uint8"
        },
        {
          "internalType": "uint8",
          "name": "maxPairedLiquidityRatio",
          "type": "uint8"
        }
      ],
      "stateMutability": "view",
      "type": "function"
    },
    {
      "inputs": [
        {
          "internalType": "address",
          "name": "",
          "type": "address"
        }
      ],
      "name": "holdersVestingMapping",
      "outputs": [
        {
          "internalType": "uint256",
          "name": "amountVested",
          "type": "uint256"
        },
        {
          "internalType": "uint256",
          "name": "released",
          "type": "uint256"
        },
        {
          "internalType": "uint32",
          "name": "cliff",
          "type": "uint32"
        },
        {
          "internalType": "uint32",
          "name": "start",
          "type": "uint32"
        },
        {
          "internalType": "uint32",
          "name": "duration",
          "type": "uint32"
        },
        {
          "internalType": "uint32",
          "name": "slicePeriodSeconds",
          "type": "uint32"
        },
        {
          "internalType": "bool",
          "name": "revocable",
          "type": "bool"
        },
        {
          "internalType": "bool",
          "name": "allowReleasing",
          "type": "bool"
        }
      ],
      "stateMutability": "view",
      "type": "function"
    },
    {
      "inputs": [],
      "name": "liquidityMaker",
      "outputs": [
        {
          "internalType": "contract ILiquidityMaker",
          "name": "",
          "type": "address"
        }
      ],
      "stateMutability": "view",
      "type": "function"
    },
    {
      "inputs": [],
      "name": "marketMakerLibrary",
      "outputs": [
        {
          "internalType": "contract IMarketMakerLibrary",
          "name": "",
          "type": "address"
        }
      ],
      "stateMutability": "view",
      "type": "function"
    },
    {
      "inputs": [],
      "name": "masterContract",
      "outputs": [
        {
          "internalType": "contract IMasterContract",
          "name": "",
          "type": "address"
        }
      ],
      "stateMutability": "view",
      "type": "function"
    },
    {
      "inputs": [],
      "name": "moderator",
      "outputs": [
        {
          "internalType": "address",
          "name": "",
          "type": "address"
        }
      ],
      "stateMutability": "view",
      "type": "function"
    },
    {
      "inputs": [],
      "name": "owner",
      "outputs": [
        {
          "internalType": "address",
          "name": "",
          "type": "address"
        }
      ],
      "stateMutability": "view",
      "type": "function"
    },
    {
      "inputs": [],
      "name": "pairedTokenAddress",
      "outputs": [
        {
          "internalType": "address",
          "name": "",
          "type": "address"
        }
      ],
      "stateMutability": "view",
      "type": "function"
    },
    {
      "inputs": [],
      "name": "pause",
      "outputs": [],
      "stateMutability": "nonpayable",
      "type": "function"
    },
    {
      "inputs": [],
      "name": "paused",
      "outputs": [
        {
          "internalType": "bool",
          "name": "",
          "type": "bool"
        }
      ],
      "stateMutability": "view",
      "type": "function"
    },
    {
      "inputs": [],
      "name": "release",
      "outputs": [],
      "stateMutability": "nonpayable",
      "type": "function"
    },
    {
      "inputs": [
        {
          "internalType": "address[]",
          "name": "_beneficiaryArray",
          "type": "address[]"
        }
      ],
      "name": "releaseFor",
      "outputs": [],
      "stateMutability": "nonpayable",
      "type": "function"
    },
    {
      "inputs": [
        {
          "internalType": "address[]",
          "name": "_beneficiaryArray",
          "type": "address[]"
        }
      ],
      "name": "removeProjectOwner",
      "outputs": [],
      "stateMutability": "nonpayable",
      "type": "function"
    },
    {
      "inputs": [],
      "name": "renounceOwnership",
      "outputs": [],
      "stateMutability": "nonpayable",
      "type": "function"
    },
    {
      "inputs": [],
      "name": "revocableContract",
      "outputs": [
        {
          "internalType": "bool",
          "name": "",
          "type": "bool"
        }
      ],
      "stateMutability": "view",
      "type": "function"
    },
    {
      "inputs": [
        {
          "internalType": "address",
          "name": "_beneficiary",
          "type": "address"
        }
      ],
      "name": "revoke",
      "outputs": [],
      "stateMutability": "nonpayable",
      "type": "function"
    },
    {
      "inputs": [
        {
          "internalType": "uint256[]",
          "name": "_amountsIn",
          "type": "uint256[]"
        },
        {
          "internalType": "address[]",
          "name": "_beneficiaryArray",
          "type": "address[]"
        },
        {
          "internalType": "uint256",
          "name": "_slippage",
          "type": "uint256"
        },
        {
          "internalType": "string",
          "name": "_exchange",
          "type": "string"
        }
      ],
      "name": "sell",
      "outputs": [],
      "stateMutability": "nonpayable",
      "type": "function"
    },
    {
      "inputs": [
        {
          "internalType": "bool",
          "name": "_allowReleasing",
          "type": "bool"
        }
      ],
      "name": "setAllowReleasing",
      "outputs": [],
      "stateMutability": "nonpayable",
      "type": "function"
    },
    {
      "inputs": [
        {
          "internalType": "bool",
          "name": "_allowSelling",
          "type": "bool"
        }
      ],
      "name": "setAllowSelling",
      "outputs": [],
      "stateMutability": "nonpayable",
      "type": "function"
    },
    {
      "inputs": [
        {
          "internalType": "address",
          "name": "liquidityMakerAddress",
          "type": "address"
        }
      ],
      "name": "setLiquidityMaker",
      "outputs": [],
      "stateMutability": "nonpayable",
      "type": "function"
    },
    {
      "inputs": [
        {
          "internalType": "address",
          "name": "_marketMakerLibrary",
          "type": "address"
        }
      ],
      "name": "setMarketMakerLibrary",
      "outputs": [],
      "stateMutability": "nonpayable",
      "type": "function"
    },
    {
      "inputs": [
        {
          "internalType": "uint8",
          "name": "_ratio",
          "type": "uint8"
        }
      ],
      "name": "setMaxBaseLiquidityRatio",
      "outputs": [],
      "stateMutability": "nonpayable",
      "type": "function"
    },
    {
      "inputs": [
        {
          "internalType": "uint8",
          "name": "_ratio",
          "type": "uint8"
        }
      ],
      "name": "setMaxPairedLiquidityRatio",
      "outputs": [],
      "stateMutability": "nonpayable",
      "type": "function"
    },
    {
      "inputs": [
        {
          "internalType": "address[]",
          "name": "_beneficiaryArray",
          "type": "address[]"
        }
      ],
      "name": "setProjectOwner",
      "outputs": [],
      "stateMutability": "nonpayable",
      "type": "function"
    },
    {
      "inputs": [
        {
          "internalType": "uint256",
          "name": "_amount",
          "type": "uint256"
        }
      ],
      "name": "stake",
      "outputs": [],
      "stateMutability": "nonpayable",
      "type": "function"
    },
    {
      "inputs": [
        {
          "internalType": "uint256[]",
          "name": "_amounts",
          "type": "uint256[]"
        },
        {
          "internalType": "address[]",
          "name": "_beneficiaryArray",
          "type": "address[]"
        }
      ],
      "name": "stakeBatch",
      "outputs": [],
      "stateMutability": "nonpayable",
      "type": "function"
    },
    {
      "inputs": [
        {
          "internalType": "uint256",
          "name": "_amount",
          "type": "uint256"
        }
      ],
      "name": "stakePairedToken",
      "outputs": [],
      "stateMutability": "nonpayable",
      "type": "function"
    },
    {
      "inputs": [],
      "name": "stakePairedTokenInETH",
      "outputs": [],
      "stateMutability": "payable",
      "type": "function"
    },
    {
      "inputs": [],
      "name": "stakePairedTokenInETHInLiquidity",
      "outputs": [],
      "stateMutability": "payable",
      "type": "function"
    },
    {
      "inputs": [
        {
          "internalType": "uint256",
          "name": "_amount",
          "type": "uint256"
        }
      ],
      "name": "stakePairedTokenInLiquidity",
      "outputs": [],
      "stateMutability": "nonpayable",
      "type": "function"
    },
    {
      "inputs": [],
      "name": "totalVested",
      "outputs": [
        {
          "internalType": "uint256",
          "name": "",
          "type": "uint256"
        }
      ],
      "stateMutability": "view",
      "type": "function"
    },
    {
      "inputs": [
        {
          "internalType": "address",
          "name": "newOwner",
          "type": "address"
        }
      ],
      "name": "transferOwnership",
      "outputs": [],
      "stateMutability": "nonpayable",
      "type": "function"
    },
    {
      "inputs": [],
      "name": "unpause",
      "outputs": [],
      "stateMutability": "nonpayable",
      "type": "function"
    },
    {
      "inputs": [
        {
          "internalType": "uint256",
          "name": "_amount",
          "type": "uint256"
        }
      ],
      "name": "withdrawBaseToken",
      "outputs": [],
      "stateMutability": "nonpayable",
      "type": "function"
    },
    {
      "inputs": [
        {
          "internalType": "uint256",
          "name": "_amount",
          "type": "uint256"
        }
      ],
      "name": "withdrawPairedToken",
      "outputs": [],
      "stateMutability": "nonpayable",
      "type": "function"
    },
    {
      "stateMutability": "payable",
      "type": "receive"
    }
  ],
  "bytecode": "0x6101606040523480156200001257600080fd5b506040516200542e3803806200542e833981016040819052620000359162000464565b62000040336200011f565b600180556002805460ff191690556001600160a01b0389811660e081905260c0528881166101208190526101005285811660805286811660a05284151561014052600380546001600160a01b031916918316919091179055620000a3826200016f565b620000ae87620002b6565b6001600a6000620000c76000546001600160a01b031690565b6001600160a01b0316815260208101919091526040016000206004018054911515600160f81b026001600160f81b03909216919091179055821562000110576200011062000335565b50505050505050505062000559565b600080546001600160a01b038381166001600160a01b0319831681178455604051919092169283917f8be0079c531659141344cd1fd0a4f28419497f9722a3daafe3b4186f6b6457e09190a35050565b600254604080516001600160a01b036101009093048316815291831660208301527fef5332dfa1eeaee85840275ed3866c3fb7b499da1fa3ca60347dd5ee32c94d2e910160405180910390a1600354604051630b90f5dd60e41b81526001600160a01b0383811660048301529091169063b90f5dd09060240160206040518083038186803b1580156200020157600080fd5b505afa15801562000216573d6000803e3d6000fd5b505050506040513d601f19601f820116820180604052508101906200023c919062000534565b6200028e5760405162461bcd60e51b815260206004820152601e60248201527f4d61726b65744d616b65724c696272617279206e6f7420616c6c6f776564000060448201526064015b60405180910390fd5b600280546001600160a01b0390921661010002610100600160a81b0319909216919091179055565b620002c062000392565b6001600160a01b038116620003275760405162461bcd60e51b815260206004820152602660248201527f4f776e61626c653a206e6577206f776e657220697320746865207a65726f206160448201526564647265737360d01b606482015260840162000285565b62000332816200011f565b50565b6200033f620003f0565b6002805460ff191660011790557f62e78cea01bee320cd4e420270b5ea74000d11b0c9f74754ebdbfc544b05a258620003753390565b6040516001600160a01b03909116815260200160405180910390a1565b6000546001600160a01b03163314620003ee5760405162461bcd60e51b815260206004820181905260248201527f4f776e61626c653a2063616c6c6572206973206e6f7420746865206f776e6572604482015260640162000285565b565b60025460ff1615620003ee5760405162461bcd60e51b815260206004820152601060248201526f14185d5cd8589b194e881c185d5cd95960821b604482015260640162000285565b6001600160a01b03811681146200033257600080fd5b805180151581146200045f57600080fd5b919050565b60008060008060008060008060006101208a8c0312156200048457600080fd5b8951620004918162000438565b60208b0151909950620004a48162000438565b60408b0151909850620004b78162000438565b60608b0151909750620004ca8162000438565b60808b0151909650620004dd8162000438565b9450620004ed60a08b016200044e565b9350620004fd60c08b016200044e565b925060e08a01516200050f8162000438565b6101008b0151909250620005238162000438565b809150509295985092959850929598565b6000602082840312156200054757600080fd5b62000552826200044e565b9392505050565b60805160a05160c05160e051610100516101205161014051614da16200068d600039600081816107d301526117180152600081816122d601528181612839015281816129570152612ce901526000818161061801528181610d4601528181611468015281816126b001528181612c010152613078015260008181610ef00152818161100b015281816119600152818161222e015281816124940152818161265e01526128720152600081816106b701528181610d2501526114890152600081816103e10152818161113c015281816111c1015281816115ee015281816119e001528181611bb601526127eb0152600081816109d101528181610aa90152818161116e0152818161125201528181611a1201528181611ad201528181611cdc01528181611dc501526130560152614da16000f3fe60806040526004361061028c5760003560e01c806372db12cb1161015a578063aa40c0e0116100c1578063d82f19671161007a578063d82f19671461087a578063dd1fdb621461089a578063e0d47694146108ba578063e5bf6a7f1461097f578063f2fde38b1461099f578063f77c4791146109bf57600080fd5b8063aa40c0e0146107f5578063afbd7ac114610815578063b2822c3114610835578063cb4f7c901461083d578063cd446e2214610845578063d294f0931461086557600080fd5b80639129d8b1116101135780639129d8b1146107215780639270704a146107415780639ba4e13d14610761578063a4c3795914610781578063a694fc3a146107a1578063a92a8875146107c157600080fd5b806372db12cb1461066557806374a8f103146106855780637cb374bd146106a55780638456cb59146106d957806386d1a69f146106ee5780638da5cb5b1461070357600080fd5b80633d218f28116101fe5780635d2cd2dc116101b75780635d2cd2dc146105b05780635d4240eb146105d05780636397d80f146105e65780636927810d146106065780636a071a4a1461063a578063715018a61461065057600080fd5b80633d218f28146104105780633f4ba83a1461043557806346ab8ab01461044a57806347fd27f01461046a57806353340aaa1461056c5780635c975abb1461058c57600080fd5b80631e8b5064116102505780631e8b506414610339578063274aab131461034f5780632fd33ddb1461036f5780633423ee601461038f57806337e3a19e146103af57806338743904146103cf57600080fd5b80630caced84146102985780631499a8c9146102c1578063199cbc54146102e35780631d0afa36146102f95780631de53d941461031957600080fd5b3661029357005b600080fd5b3480156102a457600080fd5b506102ae60085481565b6040519081526020015b60405180910390f35b3480156102cd57600080fd5b506102e16102dc3660046142bc565b6109f3565b005b3480156102ef57600080fd5b506102ae60055481565b34801561030557600080fd5b506102e16103143660046142d5565b610a09565b34801561032557600080fd5b506102e161033436600461448d565b610a9e565b34801561034557600080fd5b506102ae60095481565b34801561035b57600080fd5b506102e161036a3660046142d5565b610def565b34801561037b57600080fd5b506102e161038a3660046142bc565b610e72565b34801561039b57600080fd5b506102e16103aa366004614525565b610f53565b3480156103bb57600080fd5b506102ae6103ca366004614588565b61103c565b3480156103db57600080fd5b506104037f000000000000000000000000000000000000000000000000000000000000000081565b6040516102b891906145a5565b34801561041c57600080fd5b506002546104039061010090046001600160a01b031681565b34801561044157600080fd5b506102e1611131565b34801561045657600080fd5b506102e1610465366004614588565b6111b6565b34801561047657600080fd5b506104fd610485366004614588565b600a6020526000908152604090208054600182015460028301546003840154600485015460059095015493949293919290916001600160781b0380831692600160781b80820483169360ff600160f01b808504821695600160f81b95869004831695848216958504909116939182048316929104168c565b604080519c8d5260208d019b909b52998b019890985260608a01969096526001600160781b0394851660808a015292841660a089015290151560c0880152151560e087015281166101008601521661012084015260ff90811661014084015216610160820152610180016102b8565b34801561057857600080fd5b506102e1610587366004614588565b611236565b34801561059857600080fd5b5060025460ff165b60405190151581526020016102b8565b3480156105bc57600080fd5b506102e16105cb36600461448d565b611247565b3480156105dc57600080fd5b506102ae60065481565b3480156105f257600080fd5b506102e16106013660046145c7565b61153d565b34801561061257600080fd5b506104037f000000000000000000000000000000000000000000000000000000000000000081565b34801561064657600080fd5b506102ae60075481565b34801561065c57600080fd5b506102e16115d1565b34801561067157600080fd5b506102e16106803660046145e4565b6115e3565b34801561069157600080fd5b506102e16106a0366004614588565b61170e565b3480156106b157600080fd5b506104037f000000000000000000000000000000000000000000000000000000000000000081565b3480156106e557600080fd5b506102e16119d5565b3480156106fa57600080fd5b506102e1611a58565b34801561070f57600080fd5b506000546001600160a01b0316610403565b34801561072d57600080fd5b506102e161073c366004614658565b611a97565b34801561074d57600080fd5b506102e161075c3660046145e4565b611bab565b34801561076d57600080fd5b506102e161077c36600461468c565b611cd1565b34801561078d57600080fd5b50600454610403906001600160a01b031681565b3480156107ad57600080fd5b506102e16107bc3660046142bc565b61245f565b3480156107cd57600080fd5b506105a07f000000000000000000000000000000000000000000000000000000000000000081565b34801561080157600080fd5b506102e16108103660046145c7565b61251a565b34801561082157600080fd5b506102e1610830366004614786565b6125a1565b6102e1612686565b6102e16127a6565b34801561085157600080fd5b50600354610403906001600160a01b031681565b34801561087157600080fd5b506102e16127b8565b34801561088657600080fd5b506102e16108953660046142bc565b612922565b3480156108a657600080fd5b506102ae6108b5366004614588565b61298f565b3480156108c657600080fd5b506109326108d5366004614588565b600b6020526000908152604090208054600182015460029092015490919063ffffffff80821691600160201b8104821691600160401b8204811691600160601b81049091169060ff600160801b8204811691600160881b90041688565b60408051988952602089019790975263ffffffff958616968801969096529284166060870152908316608086015290911660a0840152151560c0830152151560e0820152610100016102b8565b34801561098b57600080fd5b506102e161099a3660046142bc565b612a32565b3480156109ab57600080fd5b506102e16109ba366004614588565b612d4e565b3480156109cb57600080fd5b506104037f000000000000000000000000000000000000000000000000000000000000000081565b6109fc81612922565b610a066064610a09565b50565b60648160ff161115610a365760405162461bcd60e51b8152600401610a2d90614840565b60405180910390fd5b336000908152600a602090815260409182902060050180546001600160f81b0316600160f81b60ff86169081029190911790915591519182527f4e25c5c642bf30c84233b0cce40eb469a69366b2caec0af9427f9a9e0003952d91015b60405180910390a150565b336001600160a01b037f00000000000000000000000000000000000000000000000000000000000000001614610ae65760405162461bcd60e51b8152600401610a2d90614877565b60026001541415610b095760405162461bcd60e51b8152600401610a2d906148c3565b6002600155610b16612dc4565b6000805b8551811015610d1d576000600a6000888481518110610b3b57610b3b6148fa565b6020908102919091018101516001600160a01b03168252818101929092526040908101600020815161018081018352815481526001820154938101939093526002810154918301919091526003810154606083015260048101546001600160781b038082166080850152600160781b808304821660a086015260ff600160f01b8085048216151560c08801819052600160f81b958690048316151560e089015260059096015480851661010089015292830490931661012087015291810482166101408601529190910416610160830152909150610c38576000888381518110610c2757610c276148fa565b602002602001018181525050610ce2565b610cc3878381518110610c4d57610c4d6148fa565b6020026020010151610cbe8a8581518110610c6a57610c6a6148fa565b6020026020010151610cb9856000015160648761014001516064610c8e9190614926565b60ff1688604001518960000151610ca59190614949565b610caf9190614961565b610cb99190614980565b612e0a565b612e21565b888381518110610cd557610cd56148fa565b6020026020010181815250505b878281518110610cf457610cf46148fa565b602002602001015183610d079190614949565b9250508080610d15906149a2565b915050610b1a565b506000610d6e7f00000000000000000000000000000000000000000000000000000000000000007f000000000000000000000000000000000000000000000000000000000000000084888888612f9c565b905060005b8651811015610de157610dce878281518110610d9157610d916148fa565b6020026020010151848a8481518110610dac57610dac6148fa565b602002602001015185610dbf9190614961565b610dc99190614980565b613109565b5080610dd9816149a2565b915050610d73565b505060018055505050505050565b60648160ff161115610e135760405162461bcd60e51b8152600401610a2d90614840565b336000908152600a6020908152604091829020600501805460ff60f01b1916600160f01b60ff86169081029190911790915591519182527f5c7edb3ae4e2d04e956ff1dbb6046ab86423eab9ed26efc21552902640cead4b9101610a93565b60026001541415610e955760405162461bcd60e51b8152600401610a2d906148c3565b6002600155610ea2612dc4565b336000908152600a6020526040902054811115610ebe57600080fd5b336000908152600a602052604081208054839290610edd9084906149bd565b90915550610f1790506001600160a01b037f0000000000000000000000000000000000000000000000000000000000000000163383613292565b60405181815233907fb2475cc0963391d593f1a890df550d0c0551e1317e08cba0cdece5014f0555f69060200160405180910390a25060018055565b60026001541415610f765760405162461bcd60e51b8152600401610a2d906148c3565b60026001556000805b8251811015610ffd57838181518110610f9a57610f9a6148fa565b602002602001015182610fad9190614949565b9150610feb838281518110610fc457610fc46148fa565b6020026020010151858381518110610fde57610fde6148fa565b60200260200101516132e8565b80610ff5816149a2565b915050610f7f565b506110336001600160a01b037f000000000000000000000000000000000000000000000000000000000000000016333084613357565b50506001805550565b6001600160a01b0381166000908152600a602052604081206001015490670de0b6b3a764000061106a613395565b6001600160a01b038581166000908152600a6020526040908190206004908101549151631820cc6160e11b8152939092169263304198c2926110ba928992600160f81b90910460ff1691016149d4565b60206040518083038186803b1580156110d257600080fd5b505afa1580156110e6573d6000803e3d6000fd5b505050506040513d601f19601f8201168201806040525081019061110a91906149ef565b6111149084614961565b61111e9190614980565b905061112a81836149bd565b9392505050565b336001600160a01b037f00000000000000000000000000000000000000000000000000000000000000001614806111905750336001600160a01b037f000000000000000000000000000000000000000000000000000000000000000016145b6111ac5760405162461bcd60e51b8152600401610a2d90614a08565b6111b4613417565b565b336001600160a01b037f000000000000000000000000000000000000000000000000000000000000000016146111fe5760405162461bcd60e51b8152600401610a2d90614a61565b6004546001600160a01b03161561121457600080fd5b600480546001600160a01b0319166001600160a01b0392909216919091179055565b61123e613463565b610a06816134bd565b336001600160a01b037f0000000000000000000000000000000000000000000000000000000000000000161461128f5760405162461bcd60e51b8152600401610a2d90614877565b600260015414156112b25760405162461bcd60e51b8152600401610a2d906148c3565b60026001556112bf612dc4565b6000805b8551811015611460576000600a60008884815181106112e4576112e46148fa565b6020908102919091018101516001600160a01b03168252818101929092526040908101600020815161018081018352815481526001820154938101939093526002810154918301919091526003810154606083015260048101546001600160781b038082166080850152600160781b808304821660a086015260ff600160f01b8085048216151560c0880152600160f81b948590048216151560e088015260059095015480841661010088015291820490921661012086015292830481166101408501529104166101608201528851909150611407908990849081106113cc576113cc6148fa565b6020026020010151610cb98360200151606485610160015160646113f09190614926565b60ff1686606001518760200151610ca59190614949565b888381518110611419576114196148fa565b602002602001018181525050878281518110611437576114376148fa565b60200260200101518361144a9190614949565b9250508080611458906149a2565b9150506112c3565b5060006114b17f00000000000000000000000000000000000000000000000000000000000000007f000000000000000000000000000000000000000000000000000000000000000084888888612f9c565b905060005b8651811015610de15761152b8782815181106114d4576114d46148fa565b60200260200101518983815181106114ee576114ee6148fa565b6020026020010151858b8581518110611509576115096148fa565b60200260200101518661151c9190614961565b6115269190614980565b6135fd565b80611535816149a2565b9150506114b6565b600260015414156115605760405162461bcd60e51b8152600401610a2d906148c3565b6002600155336000908152600a6020526040908190206004018054831515600160f01b0260ff60f01b19909116179055517fd72547ad77e9806d3502cb62f025f39b0f91fc8d748a41c6ac147ecc19c8d683906115c290831515815260200190565b60405180910390a15060018055565b6115d9613463565b6111b46000613726565b336001600160a01b037f0000000000000000000000000000000000000000000000000000000000000000161461162b5760405162461bcd60e51b8152600401610a2d90614a61565b60005b81811015611709576000600a600085858581811061164e5761164e6148fa565b90506020020160208101906116639190614588565b6001600160a01b0316815260208101919091526040016000206004018054911515600160f81b026001600160f81b039092169190911790558282828181106116ad576116ad6148fa565b90506020020160208101906116c29190614588565b6001600160a01b03167fa3bfdef3d8149bacf15b7b64199fca8228c0fd4f8fcdd11cc7871829baf319c360405160405180910390a280611701816149a2565b91505061162e565b505050565b611716613463565b7f00000000000000000000000000000000000000000000000000000000000000006117925760405162461bcd60e51b815260206004820152602660248201527f5468697320636f6e747261637420646f6573206e6f7420616c6c6f7720746f206044820152657265766f6b6560d01b6064820152608401610a2d565b6001600160a01b0381166000908152600b602052604090206002810154600160801b900460ff166118145760405162461bcd60e51b815260206004820152602660248201527f546f6b656e56657374696e673a2076657374696e67206973206e6f74207265766044820152656f6361626c6560d01b6064820152608401610a2d565b6001810154815461182591906149bd565b6005600082825461183691906149bd565b909155505060408051610100810182528254815260018301546020820152600283015463ffffffff80821693830193909352600160201b810483166060830152600160401b810483166080830152600160601b810490921660a082015260ff600160801b83048116151560c0830152600160881b909204909116151560e08201526000906118c390613776565b6001600160a01b0384166000908152600a60205260408120805492935083929091906118f0908490614949565b90915550506040518181526001600160a01b038416907f94fd705dafc89ff1f03c1207631245602407f0e8ee47e1878a4e2ae954cd76749060200160405180910390a260008183600101546119459190614949565b835461195191906149bd565b90506119876001600160a01b037f0000000000000000000000000000000000000000000000000000000000000000163383613292565b600080845560018401556040518181526001600160a01b038516907f57c76f5e278bfbd4eeb5207d287aa5a1a9e1113c65f7eefa540e379a2774d13b9060200160405180910390a250505050565b336001600160a01b037f0000000000000000000000000000000000000000000000000000000000000000161480611a345750336001600160a01b037f000000000000000000000000000000000000000000000000000000000000000016145b611a505760405162461bcd60e51b8152600401610a2d90614a08565b6111b461384e565b60026001541415611a7b5760405162461bcd60e51b8152600401610a2d906148c3565b6002600155611a88612dc4565b611a913361388b565b60018055565b60026001541415611aba5760405162461bcd60e51b8152600401610a2d906148c3565b6002600155611ac7612dc4565b336001600160a01b037f00000000000000000000000000000000000000000000000000000000000000001614611b0f5760405162461bcd60e51b8152600401610a2d90614877565b60005b8151811015611ba357600b6000838381518110611b3157611b316148fa565b60200260200101516001600160a01b03166001600160a01b0316815260200190815260200160002060020160119054906101000a900460ff1615611b9157611b91828281518110611b8457611b846148fa565b602002602001015161388b565b80611b9b816149a2565b915050611b12565b505060018055565b336001600160a01b037f00000000000000000000000000000000000000000000000000000000000000001614611bf35760405162461bcd60e51b8152600401610a2d90614a61565b60005b81811015611709576001600a6000858585818110611c1657611c166148fa565b9050602002016020810190611c2b9190614588565b6001600160a01b0316815260208101919091526040016000206004018054911515600160f81b026001600160f81b03909216919091179055828282818110611c7557611c756148fa565b9050602002016020810190611c8a9190614588565b6001600160a01b03167fb72139c440b4fd552bd1ef2077ce2ef7de385e96860222e8ad491235caf5af6660405160405180910390a280611cc9816149a2565b915050611bf6565b336001600160a01b037f00000000000000000000000000000000000000000000000000000000000000001614611d195760405162461bcd60e51b8152600401610a2d90614877565b60026001541415611d3c5760405162461bcd60e51b8152600401610a2d906148c3565b6002600155611d49612dc4565b6000604051806101200160405280898152602001888152602001878152602001868152602001600081526020016000815260200185815260200184848080601f01602080910402602001604051908101604052809392919081815260200183838082843760009201829052509385525050506001600160a01b037f00000000000000000000000000000000000000000000000000000000000000001660209283015260408051610180810182528281529283018290528201819052606082018190526080820181905260a0820181905260c0820181905260e0820181905261010082018190526101208201819052610140820181905261016082015290915060005b82602001515181101561203757600a600084602001518381518110611e7257611e726148fa565b6020908102919091018101516001600160a01b03168252818101929092526040908101600020815161018081018352815480825260018301549482019490945260028201549281018390526003820154606082015260048201546001600160781b038082166080840152600160781b808304821660a085015260ff600160f01b8085048216151560c0870152600160f81b948590048216151560e087015260059096015480841661010087015291820490921661012085015293840481166101408401819052919093049092166101608201529450909160649190611f58908490614949565b611f629190614961565b611f6c9190614980565b111561202557611fd583600001518281518110611f8b57611f8b6148fa565b60200260200101518360400151606485610140015160ff1686604001518760000151611fb79190614949565b611fc19190614961565b611fcb9190614980565b610cb991906149bd565b8351805183908110611fe957611fe96148fa565b60209081029190910101528251805182908110612008576120086148fa565b6020026020010151836080018181516120219190614949565b9052505b8061202f816149a2565b915050611e4b565b5060005b82606001515181101561220d57600a600084606001518381518110612062576120626148fa565b6020908102919091018101516001600160a01b0316825281810192909252604090810160002081516101808101835281548152600182015493810184905260028201549281019290925260038101546060830181905260048201546001600160781b038082166080860152600160781b808304821660a087015260ff600160f01b8085048216151560c0890152600160f81b948590048216151560e08901526005909601548084166101008901529182049092166101208701529384048116610140860152920490911661016083018190529194509160649190612147908490614949565b6121519190614961565b61215b9190614980565b11156121fb576121a68360400151828151811061217a5761217a6148fa565b60200260200101518360600151606485610160015160ff1686606001518760200151611fb79190614949565b836040015182815181106121bc576121bc6148fa565b602002602001018181525050826040015181815181106121de576121de6148fa565b60200260200101518360a0018181516121f79190614949565b9052505b80612205816149a2565b91505061203b565b5060048054608084015160405163095ea7b360e01b81526001600160a01b037f000000000000000000000000000000000000000000000000000000000000000081169463095ea7b3946122639492169201614aab565b602060405180830381600087803b15801561227d57600080fd5b505af1158015612291573d6000803e3d6000fd5b505050506040513d601f19601f820116820180604052508101906122b59190614ac4565b506004805460a084015160405163095ea7b360e01b81526001600160a01b037f000000000000000000000000000000000000000000000000000000000000000081169463095ea7b39461230b9492169201614aab565b602060405180830381600087803b15801561232557600080fd5b505af1158015612339573d6000803e3d6000fd5b505050506040513d601f19601f8201168201806040525081019061235d9190614ac4565b5060048054835160208501516040808701516060880151608089015160a08a015160c08b015160e08c01516101008d0151965163d92048c960e01b815260009b8c9b6001600160a01b03169a63d92048c99a6123c99a9199909890979096909590949093909201614bad565b6040805180830381600087803b1580156123e257600080fd5b505af11580156123f6573d6000803e3d6000fd5b505050506040513d601f19601f8201168201806040525081019061241a9190614c43565b91509150612436846020015185600001518487608001516139da565b61244e84606001518560400151838760a00151613ab3565b505060018055505050505050505050565b600260015414156124825760405162461bcd60e51b8152600401610a2d906148c3565b60026001556124bc6001600160a01b037f000000000000000000000000000000000000000000000000000000000000000016333084613357565b336000818152600a60205260409020600401805460ff60f01b1916600160f01b1790556124e990826132e8565b604051600181527fd72547ad77e9806d3502cb62f025f39b0f91fc8d748a41c6ac147ecc19c8d683906020016115c2565b6002600154141561253d5760405162461bcd60e51b8152600401610a2d906148c3565b60026001819055336000908152600b6020526040908190209091018054831515600160881b0260ff60881b19909116179055517f77772e1d36f25423d87182db3c5ed774dbdb85378da5f7f88f53e6007f0e3756906115c290831515815260200190565b600260015414156125c45760405162461bcd60e51b8152600401610a2d906148c3565b60026001556000805b8851811015612650578281815181106125e8576125e86148fa565b6020026020010151826125fb9190614949565b915061263e898281518110612612576126126148fa565b60200260200101518989898989898881518110612631576126316148fa565b6020026020010151613b85565b80612648816149a2565b9150506125cd565b50610de16001600160a01b037f000000000000000000000000000000000000000000000000000000000000000016333084613357565b600260015414156126a95760405162461bcd60e51b8152600401610a2d906148c3565b60026001557f00000000000000000000000000000000000000000000000000000000000000006001600160a01b031673bb4cdb9cbd36b01bd1cbaebf2de08d9173bc095c146127355760405162461bcd60e51b81526020600482015260186024820152770a0c2d2e4cac840e8ded6cadc40d2e640dcdee840ae8aa8960431b6044820152606401610a2d565b73bb4cdb9cbd36b01bd1cbaebf2de08d9173bc095c6001600160a01b031663d0e30db0346040518263ffffffff1660e01b81526004016000604051808303818588803b15801561278457600080fd5b505af1158015612798573d6000803e3d6000fd5b5050505050611a9134613f15565b6127ae612686565b6111b46064610a09565b600260015414156127db5760405162461bcd60e51b8152600401610a2d906148c3565b6002600155336001600160a01b037f000000000000000000000000000000000000000000000000000000000000000016146128285760405162461bcd60e51b8152600401610a2d90614a61565b600954612861906001600160a01b037f000000000000000000000000000000000000000000000000000000000000000016903390613292565b60085461289a906001600160a01b037f000000000000000000000000000000000000000000000000000000000000000016903390613292565b600954600760008282546128ae9190614949565b9091555050600854600680546000906128c8908490614949565b90915550506008546009546040517fa1f87f32d0f17fab0242ca800d736293de8988c14b27747e218cf13d5c249f539261290a92908252602082015260400190565b60405180910390a16000600981905560085560018055565b600260015414156129455760405162461bcd60e51b8152600401610a2d906148c3565b600260015561297f6001600160a01b037f000000000000000000000000000000000000000000000000000000000000000016333084613357565b61298881613f15565b5060018055565b6001600160a01b0381166000908152600b60209081526040808320815161010081018352815481526001820154938101939093526002015463ffffffff80821692840192909252600160201b810482166060840152600160401b810482166080840152600160601b810490911660a083015260ff600160801b82048116151560c0840152600160881b90910416151560e0820152612a2c90613776565b92915050565b60026001541415612a555760405162461bcd60e51b8152600401610a2d906148c3565b6002600155612a62612dc4565b80612a6c3361103c565b1015612aba5760405162461bcd60e51b815260206004820152601d60248201527f4e6f7420656e6f75676820746f6b656e7320746f2077697468647261770000006044820152606401610a2d565b6000612ac4613395565b336000818152600a6020526040908190206004908101549151631820cc6160e11b81526001600160a01b03949094169363304198c293612b12939092600160f81b90910460ff1691016149d4565b60206040518083038186803b158015612b2a57600080fd5b505afa158015612b3e573d6000803e3d6000fd5b505050506040513d601f19601f82011682018060405250810190612b6291906149ef565b90506000612b7882670de0b6b3a76400006149bd565b612b828385614961565b612b8c9190614980565b336000908152600a6020526040902060010154909150612bb3908490610cb99084906149bd565b9250612bbf8184614949565b336000908152600a602052604081206001018054909190612be19084906149bd565b925050819055508060096000828254612bfa9190614949565b90915550507f00000000000000000000000000000000000000000000000000000000000000006001600160a01b031673bb4cdb9cbd36b01bd1cbaebf2de08d9173bc095c1415612cdc57604051632e1a7d4d60e01b81526004810184905273bb4cdb9cbd36b01bd1cbaebf2de08d9173bc095c90632e1a7d4d90602401600060405180830381600087803b158015612c9157600080fd5b505af1158015612ca5573d6000803e3d6000fd5b505060405133925085156108fc02915085906000818181858888f19350505050158015612cd6573d6000803e3d6000fd5b50612d10565b612d106001600160a01b037f0000000000000000000000000000000000000000000000000000000000000000163385613292565b60405183815233907f5135ea2f98d3f162e3ddba39690cb01c8efe7e45ca7d4a15cf43be3d2981bc799060200160405180910390a250506001805550565b612d56613463565b6001600160a01b038116612dbb5760405162461bcd60e51b815260206004820152602660248201527f4f776e61626c653a206e6577206f776e657220697320746865207a65726f206160448201526564647265737360d01b6064820152608401610a2d565b610a0681613726565b60025460ff16156111b45760405162461bcd60e51b815260206004820152601060248201526f14185d5cd8589b194e881c185d5cd95960821b6044820152606401610a2d565b600081831115612e1a578161112a565b5090919050565b6001600160a01b0382166000908152600a6020526040812080548391908390612e4b9084906149bd565b90915550506001600160a01b0383166000908152600a602052604081206005018054849290612e849084906001600160781b0316614c67565b92506101000a8154816001600160781b0302191690836001600160781b031602179055506000670de0b6b3a7640000612ebb613395565b6001600160a01b038681166000908152600a6020526040908190206004908101549151631907bfab60e01b81529390921692631907bfab92612f0b928a92600160f81b90910460ff1691016149d4565b60206040518083038186803b158015612f2357600080fd5b505afa158015612f37573d6000803e3d6000fd5b505050506040513d601f19601f82011682018060405250810190612f5b91906149ef565b612f659085614961565b612f6f9190614980565b9050612f7b81846149bd565b92508060086000828254612f8f9190614949565b9091555092949350505050565b60025460405163095ea7b360e01b81526000916001600160a01b03808a169263095ea7b392612fd79261010090910416908990600401614aab565b602060405180830381600087803b158015612ff157600080fd5b505af1158015613005573d6000803e3d6000fd5b505050506040513d601f19601f820116820180604052508101906130299190614ac4565b50600254604051631da8939960e01b81526101009091046001600160a01b031690631da89399906130ac907f0000000000000000000000000000000000000000000000000000000000000000907f0000000000000000000000000000000000000000000000000000000000000000908c908c908c908c908c908c90600401614c92565b602060405180830381600087803b1580156130c657600080fd5b505af11580156130da573d6000803e3d6000fd5b505050506040513d601f19601f820116820180604052508101906130fe91906149ef565b979650505050505050565b600080670de0b6b3a764000061311d613395565b6001600160a01b038681166000908152600a602052604090819020600490810154915163d9906e7d60e01b8152939092169263d9906e7d9261316d928a92600160f81b90910460ff1691016149d4565b60206040518083038186803b15801561318557600080fd5b505afa158015613199573d6000803e3d6000fd5b505050506040513d601f19601f820116820180604052508101906131bd91906149ef565b6131c79085614961565b6131d19190614980565b90506131dd81846149bd565b925080600960008282546131f19190614949565b90915550506001600160a01b0384166000908152600a602052604081206001018054859290613221908490614949565b90915550506001600160a01b0384166000908152600a602052604090206005018054849190600f90613264908490600160781b90046001600160781b0316614c67565b92506101000a8154816001600160781b0302191690836001600160781b031602179055508291505092915050565b6117098363a9059cbb60e01b84846040516024016132b1929190614aab565b60408051601f198184030181529190526020810180516001600160e01b03166001600160e01b031990931692909217909152613f74565b6001600160a01b0382166000908152600a602052604081208054839290613310908490614949565b90915550506040518181526001600160a01b038316907f9e71bc8eea02a63969f509818f2dafb9254532904319f9dbda79b67bd34a5f3d9060200160405180910390a25050565b6040516001600160a01b038085166024830152831660448201526064810182905261338f9085906323b872dd60e01b906084016132b1565b50505050565b600354604080516312209d2f60e31b815290516000926001600160a01b031691639104e978916004808301926020929190829003018186803b1580156133da57600080fd5b505afa1580156133ee573d6000803e3d6000fd5b505050506040513d601f19601f820116820180604052508101906134129190614d00565b905090565b61341f614046565b6002805460ff191690557f5db9ee0a495bf2e6ff9c91a7834c1ba4fdd244a5e8aa4e537bd38aeae4b073aa335b60405161345991906145a5565b60405180910390a1565b6000546001600160a01b031633146111b45760405162461bcd60e51b815260206004820181905260248201527f4f776e61626c653a2063616c6c6572206973206e6f7420746865206f776e65726044820152606401610a2d565b600254604080516001600160a01b036101009093048316815291831660208301527fef5332dfa1eeaee85840275ed3866c3fb7b499da1fa3ca60347dd5ee32c94d2e910160405180910390a1600354604051630b90f5dd60e41b81526001600160a01b039091169063b90f5dd0906135399084906004016145a5565b60206040518083038186803b15801561355157600080fd5b505afa158015613565573d6000803e3d6000fd5b505050506040513d601f19601f820116820180604052508101906135899190614ac4565b6135d55760405162461bcd60e51b815260206004820152601e60248201527f4d61726b65744d616b65724c696272617279206e6f7420616c6c6f77656400006044820152606401610a2d565b600280546001600160a01b0390921661010002610100600160a81b0319909216919091179055565b6001600160a01b0383166000908152600a602052604081208054839290613625908490614949565b90915550506001600160a01b0383166000908152600a60205260408120600401805483929061365e9084906001600160781b0316614c67565b92506101000a8154816001600160781b0302191690836001600160781b0316021790555081600a6000856001600160a01b03166001600160a01b0316815260200190815260200160002060010160008282546136ba91906149bd565b90915550506001600160a01b0383166000908152600a602052604090206004018054839190600f906136fd908490600160781b90046001600160781b0316614c67565b92506101000a8154816001600160781b0302191690836001600160781b03160217905550505050565b600080546001600160a01b038381166001600160a01b0319831681178455604051919092169283917f8be0079c531659141344cd1fd0a4f28419497f9722a3daafe3b4186f6b6457e09190a35050565b6040810151600090429063ffffffff168110156137965750600092915050565b826080015183606001516137aa9190614d1d565b63ffffffff1681106137c7576020830151835161112a91906149bd565b6000836060015163ffffffff16826137df91906149bd565b60a085015190915063ffffffff1660006137f98284614980565b905060006138078383614961565b90506000876080015163ffffffff168289600001516138269190614961565b6138309190614980565b905087602001518161384291906149bd565b98975050505050505050565b613856612dc4565b6002805460ff191660011790557f62e78cea01bee320cd4e420270b5ea74000d11b0c9f74754ebdbfc544b05a25861344c3390565b6001600160a01b0381166000908152600b6020526040902080546138ae57600080fd5b60408051610100810182528254815260018301546020820152600283015463ffffffff80821693830193909352600160201b810483166060830152600160401b810483166080830152600160601b810490921660a082015260ff600160801b83048116151560c0830152600160881b909204909116151560e082015260009061393690613776565b90508082600101600082825461394c9190614949565b92505081905550806005600082825461396591906149bd565b90915550506001600160a01b0383166000908152600a602052604081208054839290613992908490614949565b90915550506040518181526001600160a01b038416907f94fd705dafc89ff1f03c1207631245602407f0e8ee47e1878a4e2ae954cd76749060200160405180910390a2505050565b60005b8451811015613aac576000828583815181106139fb576139fb6148fa565b602002602001015185613a0e9190614961565b613a189190614980565b9050613a3d868381518110613a2f57613a2f6148fa565b60200260200101518261408f565b858281518110613a4f57613a4f6148fa565b60200260200101516001600160a01b03167fc79bf59d951451418a58384c161415b1c2a7b2bf78f598e34f475cb6d2f00a5a82604051613a9191815260200190565b60405180910390a25080613aa4816149a2565b9150506139dd565b5050505050565b60005b8451811015613aac57600082858381518110613ad457613ad46148fa565b602002602001015185613ae79190614961565b613af19190614980565b9050613b16868381518110613b0857613b086148fa565b6020026020010151826140f0565b858281518110613b2857613b286148fa565b60200260200101516001600160a01b03167f07a3768b162f666fe006ed31122c328961b288cfccc1ed6e0adebae2737d12cf82604051613b6a91815260200190565b60405180910390a25080613b7d816149a2565b915050613ab6565b60008463ffffffff1611613be65760405162461bcd60e51b815260206004820152602260248201527f546f6b656e56657374696e673a206475726174696f6e206d757374206265203e604482015261020360f41b6064820152608401610a2d565b60008111613c365760405162461bcd60e51b815260206004820181905260248201527f546f6b656e56657374696e673a20616d6f756e74206d757374206265203e20306044820152606401610a2d565b60018363ffffffff161015613ca35760405162461bcd60e51b815260206004820152602d60248201527f546f6b656e56657374696e673a20736c696365506572696f645365636f6e647360448201526c206d757374206265203e3d203160981b6064820152608401610a2d565b6001600160a01b0387166000908152600b602052604090205415613d1f5760405162461bcd60e51b815260206004820152602d60248201527f546f6b656e56657374696e673a2056657374696e67207363686564756c65206160448201526c6c72656164792065786973747360981b6064820152608401610a2d565b6000613d2b8688614d1d565b905080600b60008a6001600160a01b03166001600160a01b0316815260200190815260200160002060020160006101000a81548163ffffffff021916908363ffffffff16021790555086600b60008a6001600160a01b03166001600160a01b0316815260200190815260200160002060020160046101000a81548163ffffffff021916908363ffffffff16021790555084600b60008a6001600160a01b03166001600160a01b0316815260200190815260200160002060020160086101000a81548163ffffffff021916908363ffffffff16021790555083600b60008a6001600160a01b03166001600160a01b03168152602001908152602001600020600201600c6101000a81548163ffffffff021916908363ffffffff16021790555082600b60008a6001600160a01b03166001600160a01b0316815260200190815260200160002060020160106101000a81548160ff02191690831515021790555081600b60008a6001600160a01b03166001600160a01b03168152602001908152602001600020600001819055508160056000828254613ec89190614949565b90915550506040518281526001600160a01b038916907f82a09c12487d9950c96682e398533045828bd33d830b54dddd5684ac79bf27bd9060200160405180910390a25050505050505050565b336000908152600a602052604081206001018054839290613f37908490614949565b909155505060405181815233907f8109037fc5b3b3f0368806e9cd981c30daa1a3d0c26be8307576c4f5f2125d5e9060200160405180910390a250565b6000613fc9826040518060400160405280602081526020017f5361666545524332303a206c6f772d6c6576656c2063616c6c206661696c6564815250856001600160a01b031661414b9092919063ffffffff16565b8051909150156117095780806020019051810190613fe79190614ac4565b6117095760405162461bcd60e51b815260206004820152602a60248201527f5361666545524332303a204552433230206f7065726174696f6e20646964206e6044820152691bdd081cdd58d8d9595960b21b6064820152608401610a2d565b60025460ff166111b45760405162461bcd60e51b815260206004820152601460248201527314185d5cd8589b194e881b9bdd081c185d5cd95960621b6044820152606401610a2d565b6001600160a01b0382166000908152600a6020526040812060020180548392906140ba908490614949565b90915550506001600160a01b0382166000908152600a6020526040812080548392906140e79084906149bd565b90915550505050565b6001600160a01b0382166000908152600a60205260408120600301805483929061411b908490614949565b90915550506001600160a01b0382166000908152600a6020526040812060010180548392906140e79084906149bd565b606061415a8484600085614162565b949350505050565b6060824710156141c35760405162461bcd60e51b815260206004820152602660248201527f416464726573733a20696e73756666696369656e742062616c616e636520666f6044820152651c8818d85b1b60d21b6064820152608401610a2d565b6001600160a01b0385163b61421a5760405162461bcd60e51b815260206004820152601d60248201527f416464726573733a2063616c6c20746f206e6f6e2d636f6e74726163740000006044820152606401610a2d565b600080866001600160a01b031685876040516142369190614d3c565b60006040518083038185875af1925050503d8060008114614273576040519150601f19603f3d011682016040523d82523d6000602084013e614278565b606091505b50915091506130fe8282866060831561429257508161112a565b8251156142a25782518084602001fd5b8160405162461bcd60e51b8152600401610a2d9190614d58565b6000602082840312156142ce57600080fd5b5035919050565b6000602082840312156142e757600080fd5b813560ff8116811461112a57600080fd5b634e487b7160e01b600052604160045260246000fd5b604051601f8201601f191681016001600160401b0381118282101715614336576143366142f8565b604052919050565b60006001600160401b03821115614357576143576142f8565b5060051b60200190565b600082601f83011261437257600080fd5b813560206143876143828361433e565b61430e565b82815260059290921b840181019181810190868411156143a657600080fd5b8286015b848110156143c157803583529183019183016143aa565b509695505050505050565b6001600160a01b0381168114610a0657600080fd5b600082601f8301126143f257600080fd5b813560206144026143828361433e565b82815260059290921b8401810191818101908684111561442157600080fd5b8286015b848110156143c1578035614438816143cc565b8352918301918301614425565b60008083601f84011261445757600080fd5b5081356001600160401b0381111561446e57600080fd5b60208301915083602082850101111561448657600080fd5b9250929050565b6000806000806000608086880312156144a557600080fd5b85356001600160401b03808211156144bc57600080fd5b6144c889838a01614361565b965060208801359150808211156144de57600080fd5b6144ea89838a016143e1565b955060408801359450606088013591508082111561450757600080fd5b5061451488828901614445565b969995985093965092949392505050565b6000806040838503121561453857600080fd5b82356001600160401b038082111561454f57600080fd5b61455b86838701614361565b9350602085013591508082111561457157600080fd5b5061457e858286016143e1565b9150509250929050565b60006020828403121561459a57600080fd5b813561112a816143cc565b6001600160a01b0391909116815260200190565b8015158114610a0657600080fd5b6000602082840312156145d957600080fd5b813561112a816145b9565b600080602083850312156145f757600080fd5b82356001600160401b038082111561460e57600080fd5b818501915085601f83011261462257600080fd5b81358181111561463157600080fd5b8660208260051b850101111561464657600080fd5b60209290920196919550909350505050565b60006020828403121561466a57600080fd5b81356001600160401b0381111561468057600080fd5b61415a848285016143e1565b600080600080600080600060c0888a0312156146a757600080fd5b87356001600160401b03808211156146be57600080fd5b6146ca8b838c01614361565b985060208a01359150808211156146e057600080fd5b6146ec8b838c016143e1565b975060408a013591508082111561470257600080fd5b61470e8b838c01614361565b965060608a013591508082111561472457600080fd5b6147308b838c016143e1565b955060808a0135945060a08a013591508082111561474d57600080fd5b5061475a8a828b01614445565b989b979a50959850939692959293505050565b803563ffffffff8116811461478157600080fd5b919050565b600080600080600080600060e0888a0312156147a157600080fd5b87356001600160401b03808211156147b857600080fd5b6147c48b838c016143e1565b98506147d260208b0161476d565b97506147e060408b0161476d565b96506147ee60608b0161476d565b95506147fc60808b0161476d565b945060a08a0135915061480e826145b9565b90925060c0890135908082111561482457600080fd5b506148318a828b01614361565b91505092959891949750929550565b6020808252601f908201527f526174696f206d757374206265206265747765656e203020616e642031303000604082015260600190565b6020808252602c908201527f6f6e6c79436f6e74726f6c6c65723a2063616c6c6572206973206e6f7420746860408201526b329031b7b73a3937b63632b960a11b606082015260800190565b6020808252601f908201527f5265656e7472616e637947756172643a207265656e7472616e742063616c6c00604082015260600190565b634e487b7160e01b600052603260045260246000fd5b634e487b7160e01b600052601160045260246000fd5b600060ff821660ff84168082101561494057614940614910565b90039392505050565b6000821982111561495c5761495c614910565b500190565b600081600019048311821515161561497b5761497b614910565b500290565b60008261499d57634e487b7160e01b600052601260045260246000fd5b500490565b60006000198214156149b6576149b6614910565b5060010190565b6000828210156149cf576149cf614910565b500390565b6001600160a01b039290921682521515602082015260400190565b600060208284031215614a0157600080fd5b5051919050565b60208082526039908201527f6f6e6c794d6f64657261746f723a2063616c6c6572206973206e6f74207468656040820152781031b7b73a3937b63632b9103737b91036b7b232b930ba37b960391b606082015260800190565b6020808252602a908201527f6f6e6c794d6f64657261746f723a2063616c6c6572206973206e6f74207468656040820152691036b7b232b930ba37b960b11b606082015260800190565b6001600160a01b03929092168252602082015260400190565b600060208284031215614ad657600080fd5b815161112a816145b9565b600081518084526020808501945080840160005b83811015614b1157815187529582019590820190600101614af5565b509495945050505050565b600081518084526020808501945080840160005b83811015614b115781516001600160a01b031687529582019590820190600101614b30565b60005b83811015614b70578181015183820152602001614b58565b8381111561338f5750506000910152565b60008151808452614b99816020860160208601614b55565b601f01601f19169290920160200192915050565b6000610120808352614bc18184018d614ae1565b90508281036020840152614bd5818c614b1c565b90508281036040840152614be9818b614ae1565b90508281036060840152614bfd818a614b1c565b90508760808401528660a08401528560c084015282810360e0840152614c238186614b81565b91505060018060a01b0383166101008301529a9950505050505050505050565b60008060408385031215614c5657600080fd5b505080516020909101519092909150565b60006001600160781b03828116848216808303821115614c8957614c89614910565b01949350505050565b6001600160a01b03898116825288811660208301528781166040830152861660608201526080810185905260a0810184905260e060c08201819052810182905260006101008385828501376000838501820152601f909301601f191690910190910198975050505050505050565b600060208284031215614d1257600080fd5b815161112a816143cc565b600063ffffffff808316818516808303821115614c8957614c89614910565b60008251614d4e818460208701614b55565b9190910192915050565b60208152600061112a6020830184614b8156fea2646970667358221220e3f4a2946f1d2238b5ecf2e917766149a6dc0b4a7eddf2878d4a61b9c8efb5c364736f6c63430008090033",
  "linkReferences": {},
  "deployedLinkReferences": {}
}