{
  "_format": "hh-sol-artifact-1",
  "contractName": "MarketMaker",
  "sourceName": "contracts/MarketMaker.sol",
  "abi": [
    {
      "inputs": [
        {
          "internalType": "address",
          "name": "_baseToken",
          "type": "address"
        },
        {
          "internalType": "address",
          "name": "_pairedToken",
          "type": "address"
        },
        {
          "internalType": "address payable",
          "name": "_controller",
          "type": "address"
        },
        {
          "internalType": "address payable",
          "name": "_moderator",
          "type": "address"
        },
        {
          "internalType": "bool",
          "name": "_revocableContract",
          "type": "bool"
        },
        {
          "internalType": "address",
          "name": "_marketMakerLibraryAddress",
          "type": "address"
        },
        {
          "internalType": "address",
          "name": "_masterContractAddress",
          "type": "address"
        }
      ],
      "stateMutability": "nonpayable",
      "type": "constructor"
    },
    {
      "anonymous": false,
      "inputs": [
        {
          "indexed": true,
          "internalType": "address",
          "name": "_user",
          "type": "address"
        },
        {
          "indexed": false,
          "internalType": "uint256",
          "name": "_amount",
          "type": "uint256"
        }
      ],
      "name": "AmountReleased",
      "type": "event"
    },
    {
      "anonymous": false,
      "inputs": [
        {
          "indexed": false,
          "internalType": "address",
          "name": "_OldmarketMakerLibraryAddress",
          "type": "address"
        },
        {
          "indexed": false,
          "internalType": "address",
          "name": "_NewmarketMakerLibraryAddress",
          "type": "address"
        }
      ],
      "name": "ChangeMarketMakerLibraryAddress",
      "type": "event"
    },
    {
      "anonymous": false,
      "inputs": [
        {
          "indexed": true,
          "internalType": "address",
          "name": "_beneficiary",
          "type": "address"
        },
        {
          "indexed": false,
          "internalType": "uint256",
          "name": "_amount",
          "type": "uint256"
        }
      ],
      "name": "CreatedVestingSchedule",
      "type": "event"
    },
    {
      "anonymous": false,
      "inputs": [
        {
          "indexed": false,
          "internalType": "uint256",
          "name": "claimedBaseFee",
          "type": "uint256"
        },
        {
          "indexed": false,
          "internalType": "uint256",
          "name": "claimedPairedFee",
          "type": "uint256"
        }
      ],
      "name": "FeesClaimed",
      "type": "event"
    },
    {
      "anonymous": false,
      "inputs": [
        {
          "indexed": true,
          "internalType": "address",
          "name": "oldOwner",
          "type": "address"
        },
        {
          "indexed": true,
          "internalType": "address",
          "name": "newOwner",
          "type": "address"
        }
      ],
      "name": "OwnershipTransferred",
      "type": "event"
    },
    {
      "anonymous": false,
      "inputs": [
        {
          "indexed": false,
          "internalType": "address",
          "name": "account",
          "type": "address"
        }
      ],
      "name": "Paused",
      "type": "event"
    },
    {
      "anonymous": false,
      "inputs": [
        {
          "indexed": true,
          "internalType": "address",
          "name": "_user",
          "type": "address"
        }
      ],
      "name": "ProjectOwnerRemoved",
      "type": "event"
    },
    {
      "anonymous": false,
      "inputs": [
        {
          "indexed": true,
          "internalType": "address",
          "name": "_user",
          "type": "address"
        }
      ],
      "name": "ProjectOwnerSet",
      "type": "event"
    },
    {
      "anonymous": false,
      "inputs": [
        {
          "indexed": true,
          "internalType": "address",
          "name": "_user",
          "type": "address"
        },
        {
          "indexed": false,
          "internalType": "uint256",
          "name": "_amount",
          "type": "uint256"
        }
      ],
      "name": "Staked",
      "type": "event"
    },
    {
      "anonymous": false,
      "inputs": [
        {
          "indexed": true,
          "internalType": "address",
          "name": "_user",
          "type": "address"
        },
        {
          "indexed": false,
          "internalType": "uint256",
          "name": "_amount",
          "type": "uint256"
        }
      ],
      "name": "StakedInPairedToken",
      "type": "event"
    },
    {
      "anonymous": false,
      "inputs": [
        {
          "indexed": false,
          "internalType": "address",
          "name": "account",
          "type": "address"
        }
      ],
      "name": "Unpaused",
      "type": "event"
    },
    {
      "anonymous": false,
      "inputs": [
        {
          "indexed": true,
          "internalType": "address",
          "name": "_user",
          "type": "address"
        }
      ],
      "name": "VestingRevoked",
      "type": "event"
    },
    {
      "anonymous": false,
      "inputs": [
        {
          "indexed": true,
          "internalType": "address",
          "name": "_user",
          "type": "address"
        },
        {
          "indexed": false,
          "internalType": "uint256",
          "name": "_amount",
          "type": "uint256"
        }
      ],
      "name": "WithdrawnBaseToken",
      "type": "event"
    },
    {
      "anonymous": false,
      "inputs": [
        {
          "indexed": true,
          "internalType": "address",
          "name": "_user",
          "type": "address"
        },
        {
          "indexed": false,
          "internalType": "uint256",
          "name": "_amount",
          "type": "uint256"
        }
      ],
      "name": "WithdrawnPairedToken",
      "type": "event"
    },
    {
      "inputs": [
        {
          "internalType": "address",
          "name": "_beneficiary",
          "type": "address"
        }
      ],
      "name": "amountVested",
      "outputs": [
        {
          "internalType": "uint256",
          "name": "",
          "type": "uint256"
        }
      ],
      "stateMutability": "view",
      "type": "function"
    },
    {
      "inputs": [
        {
          "internalType": "address",
          "name": "_beneficiary",
          "type": "address"
        }
      ],
      "name": "available",
      "outputs": [
        {
          "internalType": "uint256",
          "name": "",
          "type": "uint256"
        }
      ],
      "stateMutability": "view",
      "type": "function"
    },
    {
      "inputs": [
        {
          "internalType": "address",
          "name": "_beneficiary",
          "type": "address"
        }
      ],
      "name": "balanceInPairedToken",
      "outputs": [
        {
          "internalType": "uint256",
          "name": "",
          "type": "uint256"
        }
      ],
      "stateMutability": "view",
      "type": "function"
    },
    {
      "inputs": [],
      "name": "baseTokenAddress",
      "outputs": [
        {
          "internalType": "address",
          "name": "",
          "type": "address"
        }
      ],
      "stateMutability": "view",
      "type": "function"
    },
    {
      "inputs": [
        {
          "internalType": "uint256[]",
          "name": "_amountsIn",
          "type": "uint256[]"
        },
        {
          "internalType": "address[]",
          "name": "_beneficiaryArray",
          "type": "address[]"
        },
        {
          "internalType": "uint256",
          "name": "_slippage",
          "type": "uint256"
        },
        {
          "internalType": "string",
          "name": "_exchange",
          "type": "string"
        }
      ],
      "name": "buy",
      "outputs": [],
      "stateMutability": "nonpayable",
      "type": "function"
    },
    {
      "inputs": [],
      "name": "claimFees",
      "outputs": [],
      "stateMutability": "nonpayable",
      "type": "function"
    },
    {
      "inputs": [
        {
          "internalType": "address",
          "name": "_beneficiary",
          "type": "address"
        }
      ],
      "name": "computeReleasableAmount",
      "outputs": [
        {
          "internalType": "uint256",
          "name": "",
          "type": "uint256"
        }
      ],
      "stateMutability": "view",
      "type": "function"
    },
    {
      "inputs": [],
      "name": "controller",
      "outputs": [
        {
          "internalType": "address payable",
          "name": "",
          "type": "address"
        }
      ],
      "stateMutability": "view",
      "type": "function"
    },
    {
      "inputs": [
        {
          "internalType": "address[]",
          "name": "_beneficiaryArray",
          "type": "address[]"
        },
        {
          "internalType": "uint256[]",
          "name": "_startArray",
          "type": "uint256[]"
        },
        {
          "internalType": "uint256[]",
          "name": "_cliffArray",
          "type": "uint256[]"
        },
        {
          "internalType": "uint256[]",
          "name": "_durationArray",
          "type": "uint256[]"
        },
        {
          "internalType": "uint256[]",
          "name": "_slicePeriodSecondsArray",
          "type": "uint256[]"
        },
        {
          "internalType": "bool[]",
          "name": "_revocableArray",
          "type": "bool[]"
        },
        {
          "internalType": "uint256[]",
          "name": "_amounts",
          "type": "uint256[]"
        }
      ],
      "name": "createVestingSchedule",
      "outputs": [],
      "stateMutability": "nonpayable",
      "type": "function"
    },
    {
      "inputs": [
        {
          "internalType": "address",
          "name": "_beneficiary",
          "type": "address"
        }
      ],
      "name": "getWithdrawablePairedTokens",
      "outputs": [
        {
          "internalType": "uint256",
          "name": "total",
          "type": "uint256"
        }
      ],
      "stateMutability": "view",
      "type": "function"
    },
    {
      "inputs": [],
      "name": "marketMakerLibraryAddress",
      "outputs": [
        {
          "internalType": "address",
          "name": "",
          "type": "address"
        }
      ],
      "stateMutability": "view",
      "type": "function"
    },
    {
      "inputs": [],
      "name": "masterContract",
      "outputs": [
        {
          "internalType": "contract IMasterContract",
          "name": "",
          "type": "address"
        }
      ],
      "stateMutability": "view",
      "type": "function"
    },
    {
      "inputs": [],
      "name": "moderator",
      "outputs": [
        {
          "internalType": "address payable",
          "name": "",
          "type": "address"
        }
      ],
      "stateMutability": "view",
      "type": "function"
    },
    {
      "inputs": [],
      "name": "owner",
      "outputs": [
        {
          "internalType": "address",
          "name": "",
          "type": "address"
        }
      ],
      "stateMutability": "view",
      "type": "function"
    },
    {
      "inputs": [],
      "name": "pairedTokenAddress",
      "outputs": [
        {
          "internalType": "address",
          "name": "",
          "type": "address"
        }
      ],
      "stateMutability": "view",
      "type": "function"
    },
    {
      "inputs": [],
      "name": "pause",
      "outputs": [],
      "stateMutability": "nonpayable",
      "type": "function"
    },
    {
      "inputs": [],
      "name": "paused",
      "outputs": [
        {
          "internalType": "bool",
          "name": "",
          "type": "bool"
        }
      ],
      "stateMutability": "view",
      "type": "function"
    },
    {
      "inputs": [
        {
          "internalType": "uint256",
          "name": "_amount",
          "type": "uint256"
        }
      ],
      "name": "release",
      "outputs": [],
      "stateMutability": "nonpayable",
      "type": "function"
    },
    {
      "inputs": [
        {
          "internalType": "address",
          "name": "_beneficiary",
          "type": "address"
        }
      ],
      "name": "released",
      "outputs": [
        {
          "internalType": "uint256",
          "name": "",
          "type": "uint256"
        }
      ],
      "stateMutability": "view",
      "type": "function"
    },
    {
      "inputs": [
        {
          "internalType": "address[]",
          "name": "_beneficiaryArray",
          "type": "address[]"
        }
      ],
      "name": "removeProjectOwner",
      "outputs": [],
      "stateMutability": "nonpayable",
      "type": "function"
    },
    {
      "inputs": [],
      "name": "revocableContract",
      "outputs": [
        {
          "internalType": "bool",
          "name": "",
          "type": "bool"
        }
      ],
      "stateMutability": "view",
      "type": "function"
    },
    {
      "inputs": [
        {
          "internalType": "address",
          "name": "_beneficiary",
          "type": "address"
        }
      ],
      "name": "revoke",
      "outputs": [],
      "stateMutability": "nonpayable",
      "type": "function"
    },
    {
      "inputs": [
        {
          "internalType": "uint256[]",
          "name": "_amountsIn",
          "type": "uint256[]"
        },
        {
          "internalType": "address[]",
          "name": "_beneficiaryArray",
          "type": "address[]"
        },
        {
          "internalType": "uint256",
          "name": "_slippage",
          "type": "uint256"
        },
        {
          "internalType": "string",
          "name": "_exchange",
          "type": "string"
        }
      ],
      "name": "sell",
      "outputs": [],
      "stateMutability": "nonpayable",
      "type": "function"
    },
    {
      "inputs": [
        {
          "internalType": "address",
          "name": "_marketMakerLibraryAddress",
          "type": "address"
        }
      ],
      "name": "setMarketMakerLibraryAddress",
      "outputs": [],
      "stateMutability": "nonpayable",
      "type": "function"
    },
    {
      "inputs": [
        {
          "internalType": "address[]",
          "name": "_beneficiaryArray",
          "type": "address[]"
        }
      ],
      "name": "setProjectOwner",
      "outputs": [],
      "stateMutability": "nonpayable",
      "type": "function"
    },
    {
      "inputs": [
        {
          "internalType": "uint256",
          "name": "_amount",
          "type": "uint256"
        }
      ],
      "name": "stake",
      "outputs": [],
      "stateMutability": "nonpayable",
      "type": "function"
    },
    {
      "inputs": [
        {
          "internalType": "uint256[]",
          "name": "_amounts",
          "type": "uint256[]"
        },
        {
          "internalType": "address[]",
          "name": "_beneficiaryArray",
          "type": "address[]"
        }
      ],
      "name": "stakeBatch",
      "outputs": [],
      "stateMutability": "nonpayable",
      "type": "function"
    },
    {
      "inputs": [
        {
          "internalType": "uint256",
          "name": "_amount",
          "type": "uint256"
        }
      ],
      "name": "stakePairedToken",
      "outputs": [],
      "stateMutability": "nonpayable",
      "type": "function"
    },
    {
      "inputs": [],
      "name": "stakePairedTokenInETH",
      "outputs": [],
      "stateMutability": "payable",
      "type": "function"
    },
    {
      "inputs": [],
      "name": "totalVested",
      "outputs": [
        {
          "internalType": "uint256",
          "name": "",
          "type": "uint256"
        }
      ],
      "stateMutability": "view",
      "type": "function"
    },
    {
      "inputs": [
        {
          "internalType": "address",
          "name": "newOwner",
          "type": "address"
        }
      ],
      "name": "transferOwnership",
      "outputs": [],
      "stateMutability": "nonpayable",
      "type": "function"
    },
    {
      "inputs": [],
      "name": "unpause",
      "outputs": [],
      "stateMutability": "nonpayable",
      "type": "function"
    },
    {
      "inputs": [
        {
          "internalType": "uint256",
          "name": "_amount",
          "type": "uint256"
        }
      ],
      "name": "withdrawBaseToken",
      "outputs": [],
      "stateMutability": "nonpayable",
      "type": "function"
    },
    {
      "inputs": [
        {
          "internalType": "uint256",
          "name": "_amount",
          "type": "uint256"
        }
      ],
      "name": "withdrawPairedToken",
      "outputs": [],
      "stateMutability": "nonpayable",
      "type": "function"
    },
    {
      "stateMutability": "payable",
      "type": "receive"
    }
  ],
  "bytecode": "0x6101406040523480156200001257600080fd5b50604051620040023803806200400283398101604081905262000035916200026a565b600080546001600160a01b03191633178082556040516001600160a01b039190911691907f8be0079c531659141344cd1fd0a4f28419497f9722a3daafe3b4186f6b6457e0908290a3600180556002805460ff19908116909155606088811b6001600160601b031990811660e081905260c05288821b81166101208190526101005287821b81166080529086901b1660a052600b8054909116841515179055600380546001600160a01b0319166001600160a01b038316179055620000fa826200012e565b5050600080546001600160a01b03168152600460205260409020600a01805460ff1916600117905550620003b29350505050565b7fa8f5d6a26420dbca563af82edda993be302bfa0d82b1540ed55eac3326eb85f2600260019054906101000a90046001600160a01b0316826040516200017692919062000348565b60405180910390a1600354604051630b90f5dd60e41b81526001600160a01b039091169063b90f5dd090620001b090849060040162000334565b60206040518083038186803b158015620001c957600080fd5b505afa158015620001de573d6000803e3d6000fd5b505050506040513d601f19601f8201168201806040525081019062000204919062000310565b6200022c5760405162461bcd60e51b8152600401620002239062000362565b60405180910390fd5b600280546001600160a01b0390921661010002610100600160a81b0319909216919091179055565b805180151581146200026557600080fd5b919050565b600080600080600080600060e0888a03121562000285578283fd5b8751620002928162000399565b6020890151909750620002a58162000399565b6040890151909650620002b88162000399565b6060890151909550620002cb8162000399565b9350620002db6080890162000254565b925060a0880151620002ed8162000399565b60c0890151909250620003008162000399565b8091505092959891949750929550565b60006020828403121562000322578081fd5b6200032d8262000254565b9392505050565b6001600160a01b0391909116815260200190565b6001600160a01b0392831681529116602082015260400190565b6020808252601e908201527f4d61726b65744d616b65724c696272617279206e6f7420616c6c6f7765640000604082015260600190565b6001600160a01b0381168114620003af57600080fd5b50565b60805160601c60a05160601c60c05160601c60e05160601c6101005160601c6101205160601c613b31620004d1600039600081816119c801528181611adf0152611e7f01526000818161081d01528181610f11015281816110200152818161183101528181611d93015281816120c80152818161212201528181612ab90152612d9a01526000818161098301528181610ad40152818161135001528181611574015281816117a70152611a010152600081816107fc01528181610f32015261159e015260008181610da301528181610dd00152818161104d015281816115cb0152818161162a015261197a0152600081816105db01528181610e2b01528181611f8101528181612a4801528181612a860152612ba40152613b316000f3fe6080604052600436106101bd5760003560e01c80638456cb59116100ed578063baf2a11611610090578063baf2a11614610495578063cd446e22146104b5578063d294f093146104ca578063d82f1967146104df578063dd1fdb62146104ff578063e5bf6a7f1461051f578063f2fde38b1461053f578063f47c733f1461055f578063f77c47911461057f576101c4565b80638456cb59146103ce5780638da5cb5b146103e35780639270704a146103f85780639852595c14610418578063a694fc3a14610438578063a92a887514610458578063ac6787351461046d578063b2822c311461048d576101c4565b8063387439041161016057806338743904146102d85780633f4ba83a146102ed5780635c975abb146103025780635d2cd2dc146103245780636927810d1461034457806372db12cb1461035957806374a8f103146103795780637bfd225c146103995780637cb374bd146103b9576101c4565b806310098ad5146101c95780631742541a146101ff578063199cbc54146102215780631de53d94146102365780632fd33ddb146102585780633423ee601461027857806337bdc99b1461029857806337e3a19e146102b8576101c4565b366101c457005b600080fd5b3480156101d557600080fd5b506101e96101e4366004612fb7565b610594565b6040516101f69190613990565b60405180910390f35b34801561020b57600080fd5b506102146105b6565b6040516101f691906133ab565b34801561022d57600080fd5b506101e96105ca565b34801561024257600080fd5b506102566102513660046131cf565b6105d0565b005b34801561026457600080fd5b50610256610273366004613335565b6108e2565b34801561028457600080fd5b5061025661029336600461316f565b6109f2565b3480156102a457600080fd5b506102566102b3366004613335565b610b05565b3480156102c457600080fd5b506101e96102d3366004612fb7565b610cb5565b3480156102e457600080fd5b50610214610da1565b3480156102f957600080fd5b50610256610dc5565b34801561030e57600080fd5b50610317610e17565b6040516101f691906134aa565b34801561033057600080fd5b5061025661033f3660046131cf565b610e20565b34801561035057600080fd5b5061021461101e565b34801561036557600080fd5b50610256610374366004612fef565b611042565b34801561038557600080fd5b50610256610394366004612fb7565b61117c565b3480156103a557600080fd5b506102566103b436600461305d565b6113ca565b3480156103c557600080fd5b5061021461159c565b3480156103da57600080fd5b506102566115c0565b3480156103ef57600080fd5b50610214611610565b34801561040457600080fd5b50610256610413366004612fef565b61161f565b34801561042457600080fd5b506101e9610433366004612fb7565b611754565b34801561044457600080fd5b50610256610453366004613335565b611772565b34801561046457600080fd5b506103176117e0565b34801561047957600080fd5b506101e9610488366004612fb7565b6117e9565b610256611807565b3480156104a157600080fd5b506102566104b0366004612fb7565b611902565b3480156104c157600080fd5b50610214611938565b3480156104d657600080fd5b50610256611947565b3480156104eb57600080fd5b506102566104fa366004613335565b611aaa565b34801561050b57600080fd5b506101e961051a366004612fb7565b611b10565b34801561052b57600080fd5b5061025661053a366004613335565b611bc2565b34801561054b57600080fd5b5061025661055a366004612fb7565b611edf565b34801561056b57600080fd5b506101e961057a366004612fb7565b611f64565b34801561058b57600080fd5b50610214611f7f565b6001600160a01b0381166000908152600460205260409020600101545b919050565b60025461010090046001600160a01b031681565b60055481565b336001600160a01b037f000000000000000000000000000000000000000000000000000000000000000016146106215760405162461bcd60e51b8152600401610618906134e8565b60405180910390fd5b600260015414156106445760405162461bcd60e51b815260040161061890613922565b6002600155610651610e17565b1561066e5760405162461bcd60e51b8152600401610618906136c0565b600080805b86518110156107f4576107a887828151811061069f57634e487b7160e01b600052603260045260246000fd5b6020026020010151600460008a85815181106106cb57634e487b7160e01b600052603260045260246000fd5b60200260200101516001600160a01b03166001600160a01b03168152602001908152602001600020600101548a848151811061071757634e487b7160e01b600052603260045260246000fd5b6020026020010151111561077a57600460008a858151811061074957634e487b7160e01b600052603260045260246000fd5b60200260200101516001600160a01b03166001600160a01b03168152602001908152602001600020600101546107a3565b89838151811061079a57634e487b7160e01b600052603260045260246000fd5b60200260200101515b611fa3565b91506107b482846139f3565b9250818882815181106107d757634e487b7160e01b600052603260045260246000fd5b6020908102919091010152806107ec81613a91565b915050610673565b5060006108457f00000000000000000000000000000000000000000000000000000000000000007f0000000000000000000000000000000000000000000000000000000000000000858989896120c4565b905060005b87518110156108d3576108c188828151811061087657634e487b7160e01b600052603260045260246000fd5b6020026020010151858b848151811061089f57634e487b7160e01b600052603260045260246000fd5b6020026020010151856108b29190613a2b565b6108bc9190613a0b565b612173565b806108cb81613a91565b91505061084a565b50506001805550505050505050565b600260015414156109055760405162461bcd60e51b815260040161061890613922565b6002600155610912610e17565b1561092f5760405162461bcd60e51b8152600401610618906136c0565b3360009081526004602052604090206001015481111561094e57600080fd5b3360009081526004602052604081206001018054839290610970908490613a4a565b909155506109aa90506001600160a01b037f000000000000000000000000000000000000000000000000000000000000000016338361228b565b336001600160a01b03167fb2475cc0963391d593f1a890df550d0c0551e1317e08cba0cdece5014f0555f6826040516109e39190613990565b60405180910390a25060018055565b60026001541415610a155760405162461bcd60e51b815260040161061890613922565b60026001556000805b8251811015610ac657838181518110610a4757634e487b7160e01b600052603260045260246000fd5b602002602001015182610a5a91906139f3565b9150610ab4838281518110610a7f57634e487b7160e01b600052603260045260246000fd5b6020026020010151858381518110610aa757634e487b7160e01b600052603260045260246000fd5b602002602001015161238a565b80610abe81613a91565b915050610a1e565b50610afc6001600160a01b037f000000000000000000000000000000000000000000000000000000000000000016333084612401565b50506001805550565b60026001541415610b285760405162461bcd60e51b815260040161061890613922565b6002600155610b35610e17565b15610b525760405162461bcd60e51b8152600401610618906136c0565b3360009081526004602052604090206008810154610b6f57600080fd5b60408051610160810182528254815260018301546020820152600283015460ff9081161515928201929092526003830154606082015260048301546080820152600583015460a0820152600683015460c082015260078301548216151560e082015260088301546101008201526009830154610120820152600a8301549091161515610140820152600090610c03906124ea565b905082811015610c255760405162461bcd60e51b81526004016106189061361d565b82826009016000828254610c3991906139f3565b925050819055508260056000828254610c529190613a4a565b9250508190555082826001016000828254610c6d91906139f3565b909155505060405133907f94fd705dafc89ff1f03c1207631245602407f0e8ee47e1878a4e2ae954cd767490610ca4908690613990565b60405180910390a250506001805550565b6001600160a01b03811660009081526004602052604081205490670de0b6b3a7640000610ce06125b6565b6001600160a01b03858116600090815260046020819052604091829020600a01549151631820cc6160e11b8152939092169263304198c292610d2a92899260ff9091169101613444565b60206040518083038186803b158015610d4257600080fd5b505afa158015610d56573d6000803e3d6000fd5b505050506040513d601f19601f82011682018060405250810190610d7a919061334d565b610d849084613a2b565b610d8e9190613a0b565b9050610d9a8183613a4a565b9392505050565b7f000000000000000000000000000000000000000000000000000000000000000081565b336001600160a01b037f00000000000000000000000000000000000000000000000000000000000000001614610e0d5760405162461bcd60e51b815260040161061890613754565b610e15612638565b565b60025460ff1690565b336001600160a01b037f00000000000000000000000000000000000000000000000000000000000000001614610e685760405162461bcd60e51b8152600401610618906134e8565b60026001541415610e8b5760405162461bcd60e51b815260040161061890613922565b6002600155610e98610e17565b15610eb55760405162461bcd60e51b8152600401610618906136c0565b6000805b8551811015610f0957868181518110610ee257634e487b7160e01b600052603260045260246000fd5b602002602001015182610ef591906139f3565b915080610f0181613a91565b915050610eb9565b506000610f5a7f00000000000000000000000000000000000000000000000000000000000000007f0000000000000000000000000000000000000000000000000000000000000000848888886120c4565b905060005b865181101561101057610ffe878281518110610f8b57634e487b7160e01b600052603260045260246000fd5b6020026020010151898381518110610fb357634e487b7160e01b600052603260045260246000fd5b6020026020010151858b8581518110610fdc57634e487b7160e01b600052603260045260246000fd5b602002602001015186610fef9190613a2b565b610ff99190613a0b565b6126a6565b8061100881613a91565b915050610f5f565b505060018055505050505050565b7f000000000000000000000000000000000000000000000000000000000000000081565b336001600160a01b037f0000000000000000000000000000000000000000000000000000000000000000161461108a5760405162461bcd60e51b815260040161061890613754565b60005b81811015611177576000600460008585858181106110bb57634e487b7160e01b600052603260045260246000fd5b90506020020160208101906110d09190612fb7565b6001600160a01b031681526020810191909152604001600020600a01805460ff191691151591909117905582828281811061111b57634e487b7160e01b600052603260045260246000fd5b90506020020160208101906111309190612fb7565b6001600160a01b03167fa3bfdef3d8149bacf15b7b64199fca8228c0fd4f8fcdd11cc7871829baf319c360405160405180910390a28061116f81613a91565b91505061108d565b505050565b6000546001600160a01b031633146111a65760405162461bcd60e51b8152600401610618906136ea565b600b5460ff166111c85760405162461bcd60e51b8152600401610618906137e0565b6001600160a01b0381166000908152600460205260409020600781015460ff166112045760405162461bcd60e51b81526004016106189061367a565b806009015481600801546112189190613a4a565b600560008282546112299190613a4a565b909155505060408051610160810182528254815260018301546020820152600283015460ff9081161515928201929092526003830154606082015260048301546080820152600583015460a0820152600683015460c082015260078301548216151560e082015260088301546101008201526009830154610120820152600a83015490911615156101408201526000906112c2906124ea565b9050808260010160008282546112d891906139f3565b92505081905550826001600160a01b03167f94fd705dafc89ff1f03c1207631245602407f0e8ee47e1878a4e2ae954cd7674826040516113189190613990565b60405180910390a2600081836009015461133291906139f3565b83600801546113419190613a4a565b90506113776001600160a01b037f000000000000000000000000000000000000000000000000000000000000000016338361228b565b6000600884018190556009840181905560028401805460ff191690556040516001600160a01b038616917f68d870ac0aff3819234e8a1fc8f357b40d75212f2dc8594b97690fa205b3bab291a250505050565b600260015414156113ed5760405162461bcd60e51b815260040161061890613922565b60026001556000805b88518110156115665782818151811061141f57634e487b7160e01b600052603260045260246000fd5b60200260200101518261143291906139f3565b915061155489828151811061145757634e487b7160e01b600052603260045260246000fd5b602002602001015189838151811061147f57634e487b7160e01b600052603260045260246000fd5b60200260200101518984815181106114a757634e487b7160e01b600052603260045260246000fd5b60200260200101518985815181106114cf57634e487b7160e01b600052603260045260246000fd5b60200260200101518986815181106114f757634e487b7160e01b600052603260045260246000fd5b602002602001015189878151811061151f57634e487b7160e01b600052603260045260246000fd5b602002602001015189888151811061154757634e487b7160e01b600052603260045260246000fd5b60200260200101516126fe565b8061155e81613a91565b9150506113f6565b506110106001600160a01b037f000000000000000000000000000000000000000000000000000000000000000016333084612401565b7f000000000000000000000000000000000000000000000000000000000000000081565b336001600160a01b037f000000000000000000000000000000000000000000000000000000000000000016146116085760405162461bcd60e51b815260040161061890613754565b610e1561286c565b6000546001600160a01b031681565b336001600160a01b037f000000000000000000000000000000000000000000000000000000000000000016146116675760405162461bcd60e51b815260040161061890613754565b60005b818110156111775760016004600085858581811061169857634e487b7160e01b600052603260045260246000fd5b90506020020160208101906116ad9190612fb7565b6001600160a01b031681526020810191909152604001600020600a01805460ff19169115159190911790558282828181106116f857634e487b7160e01b600052603260045260246000fd5b905060200201602081019061170d9190612fb7565b6001600160a01b03167fb72139c440b4fd552bd1ef2077ce2ef7de385e96860222e8ad491235caf5af6660405160405180910390a28061174c81613a91565b91505061166a565b6001600160a01b031660009081526004602052604090206009015490565b600260015414156117955760405162461bcd60e51b815260040161061890613922565b60026001556117cf6001600160a01b037f000000000000000000000000000000000000000000000000000000000000000016333084612401565b6117d9338261238a565b5060018055565b600b5460ff1681565b6001600160a01b031660009081526004602052604090206008015490565b6002600154141561182a5760405162461bcd60e51b815260040161061890613922565b60026001557f00000000000000000000000000000000000000000000000000000000000000006001600160a01b031673bb4cdb9cbd36b01bd1cbaebf2de08d9173bc095c1461188b5760405162461bcd60e51b8152600401610618906138b9565b73bb4cdb9cbd36b01bd1cbaebf2de08d9173bc095c6001600160a01b031663d0e30db0346040518263ffffffff1660e01b81526004016000604051808303818588803b1580156118da57600080fd5b505af11580156118ee573d6000803e3d6000fd5b50505050506118fc346128c7565b60018055565b6000546001600160a01b0316331461192c5760405162461bcd60e51b8152600401610618906136ea565b61193581612928565b50565b6003546001600160a01b031681565b6002600154141561196a5760405162461bcd60e51b815260040161061890613922565b6002600155336001600160a01b037f000000000000000000000000000000000000000000000000000000000000000016146119b75760405162461bcd60e51b815260040161061890613754565b6009546119f0906001600160a01b037f00000000000000000000000000000000000000000000000000000000000000001690339061228b565b600a54611a29906001600160a01b037f00000000000000000000000000000000000000000000000000000000000000001690339061228b565b60095460076000828254611a3d91906139f3565b9091555050600a5460088054600090611a579084906139f3565b9091555050600a546009546040517fa1f87f32d0f17fab0242ca800d736293de8988c14b27747e218cf13d5c249f5392611a92929091613999565b60405180910390a160006009819055600a5560018055565b60026001541415611acd5760405162461bcd60e51b815260040161061890613922565b6002600155611b076001600160a01b037f000000000000000000000000000000000000000000000000000000000000000016333084612401565b6117d9816128c7565b6001600160a01b038116600090815260046020818152604080842081516101608101835281548152600182015493810193909352600281015460ff90811615159284019290925260038101546060840152928301546080830152600583015460a0830152600683015460c083015260078301548116151560e083015260088301546101008301526009830154610120830152600a909201549091161515610140820152611bbc906124ea565b92915050565b60026001541415611be55760405162461bcd60e51b815260040161061890613922565b6002600155611bf2610e17565b15611c0f5760405162461bcd60e51b8152600401610618906136c0565b80611c1933610cb5565b1015611c375760405162461bcd60e51b8152600401610618906135e6565b6000611c416125b6565b33600081815260046020819052604091829020600a01549151631820cc6160e11b81526001600160a01b03949094169363304198c293611c8993909260ff9091169101613444565b60206040518083038186803b158015611ca157600080fd5b505afa158015611cb5573d6000803e3d6000fd5b505050506040513d601f19601f82011682018060405250810190611cd9919061334d565b90506000611cef82670de0b6b3a7640000613a4a565b611cf98385613a2b565b611d039190613a0b565b33600090815260046020526040902054909150611d2082856139f3565b1115611d465733600090815260046020526040902054611d41908290613a4a565b611d48565b825b9250611d5481846139f3565b3360009081526004602052604081208054909190611d73908490613a4a565b925050819055508060096000828254611d8c91906139f3565b90915550507f00000000000000000000000000000000000000000000000000000000000000006001600160a01b031673bb4cdb9cbd36b01bd1cbaebf2de08d9173bc095c1415611e7257604051632e1a7d4d60e01b815273bb4cdb9cbd36b01bd1cbaebf2de08d9173bc095c90632e1a7d4d90611e0d908690600401613990565b600060405180830381600087803b158015611e2757600080fd5b505af1158015611e3b573d6000803e3d6000fd5b505060405133925085156108fc02915085906000818181858888f19350505050158015611e6c573d6000803e3d6000fd5b50611ea6565b611ea66001600160a01b037f000000000000000000000000000000000000000000000000000000000000000016338561228b565b336001600160a01b03167f5135ea2f98d3f162e3ddba39690cb01c8efe7e45ca7d4a15cf43be3d2981bc7984604051610ca49190613990565b6000546001600160a01b03163314611f095760405162461bcd60e51b8152600401610618906136ea565b600080546040516001600160a01b03808516939216917f8be0079c531659141344cd1fd0a4f28419497f9722a3daafe3b4186f6b6457e091a3600080546001600160a01b0319166001600160a01b0392909216919091179055565b6001600160a01b031660009081526004602052604090205490565b7f000000000000000000000000000000000000000000000000000000000000000081565b6001600160a01b038216600090815260046020526040812060010180548391908390611fd0908490613a4a565b9091555060009050670de0b6b3a7640000611fe96125b6565b6001600160a01b03868116600090815260046020819052604091829020600a01549151631907bfab60e01b81529390921692631907bfab92612033928a9260ff9091169101613444565b60206040518083038186803b15801561204b57600080fd5b505afa15801561205f573d6000803e3d6000fd5b505050506040513d601f19601f82011682018060405250810190612083919061334d565b61208d9085613a2b565b6120979190613a0b565b90506120a38184613a4a565b925080600a60008282546120b791906139f3565b9091555092949350505050565b60007f00000000000000000000000000000000000000000000000000000000000000006001600160a01b0316876001600160a01b0316141561210e5761210b858484612a3a565b94505b600061211e888888888888612c16565b90507f00000000000000000000000000000000000000000000000000000000000000006001600160a01b0316876001600160a01b0316141561216857612165818585612a3a565b90505b979650505050505050565b6000670de0b6b3a76400006121866125b6565b6001600160a01b03858116600090815260046020819052604091829020600a0154915163d9906e7d60e01b8152939092169263d9906e7d926121d092899260ff9091169101613444565b60206040518083038186803b1580156121e857600080fd5b505afa1580156121fc573d6000803e3d6000fd5b505050506040513d601f19601f82011682018060405250810190612220919061334d565b61222a9084613a2b565b6122349190613a0b565b90506122408183613a4a565b9150806009600082825461225491906139f3565b90915550506001600160a01b038316600090815260046020526040812080548492906122819084906139f3565b9091555050505050565b600080846001600160a01b031663a9059cbb60e01b85856040516024016122b392919061345f565b60408051601f198184030181529181526020820180516001600160e01b03166001600160e01b03199094169390931790925290516122f1919061338f565b6000604051808303816000865af19150503d806000811461232e576040519150601f19603f3d011682016040523d82523d6000602084013e612333565b606091505b509150915081801561235d57508051158061235d57508080602001905181019061235d919061328a565b6123835761236a81612d0f565b60405162461bcd60e51b815260040161061891906134b5565b5050505050565b6001600160a01b038216600090815260046020526040812060010180548392906123b59084906139f3565b92505081905550816001600160a01b03167f9e71bc8eea02a63969f509818f2dafb9254532904319f9dbda79b67bd34a5f3d826040516123f59190613990565b60405180910390a25050565b600080856001600160a01b03166323b872dd60e01b86868660405160240161242b939291906133d9565b60408051601f198184030181529181526020820180516001600160e01b03166001600160e01b0319909416939093179092529051612469919061338f565b6000604051808303816000865af19150503d80600081146124a6576040519150601f19603f3d011682016040523d82523d6000602084013e6124ab565b606091505b50915091508180156124d55750805115806124d55750808060200190518101906124d5919061328a565b6124e25761236a81612d0f565b505050505050565b606081015160009042908110156125055760009150506105b1565b8260a00151836080015161251991906139f3565b811061253d578261012001518361010001516125359190613a4a565b9150506105b1565b600083608001518261254f9190613a4a565b60c085015190915060006125638284613a0b565b905060006125718383613a2b565b905060008760a001518289610100015161258b9190613a2b565b6125959190613a0b565b9050876101200151816125a89190613a4a565b96506105b195505050505050565b60035460408051636804ccff60e11b815290516000926001600160a01b03169163d00999fe916004808301926020929190829003018186803b1580156125fb57600080fd5b505afa15801561260f573d6000803e3d6000fd5b505050506040513d601f19601f820116820180604052508101906126339190612fd3565b905090565b612640610e17565b61265c5760405162461bcd60e51b815260040161061890613534565b6002805460ff191690557f5db9ee0a495bf2e6ff9c91a7834c1ba4fdd244a5e8aa4e537bd38aeae4b073aa61268f612d6f565b60405161269c91906133ab565b60405180910390a1565b6001600160a01b038316600090815260046020526040812060010180548392906126d19084906139f3565b90915550506001600160a01b03831660009081526004602052604081208054849290612281908490613a4a565b6000841161271e5760405162461bcd60e51b81526004016106189061379e565b6000811161273e5760405162461bcd60e51b81526004016106189061371f565b600183101561275f5760405162461bcd60e51b815260040161061890613562565b6001600160a01b03871660009081526004602052604090206002015460ff161561279b5760405162461bcd60e51b81526004016106189061386c565b60006127a786886139f3565b6001600160a01b03891660009081526004602081905260408220600281018054600160ff1991821617909155600382018590559181018b905560058082018a905560068201899055600782018054909316881515179092556008018590558054929350849290919061281a9084906139f3565b92505081905550876001600160a01b03167f82a09c12487d9950c96682e398533045828bd33d830b54dddd5684ac79bf27bd8360405161285a9190613990565b60405180910390a25050505050505050565b612874610e17565b156128915760405162461bcd60e51b8152600401610618906136c0565b6002805460ff191660011790557f62e78cea01bee320cd4e420270b5ea74000d11b0c9f74754ebdbfc544b05a25861268f612d6f565b33600090815260046020526040812080548392906128e69084906139f3565b909155505060405133907f8109037fc5b3b3f0368806e9cd981c30daa1a3d0c26be8307576c4f5f2125d5e9061291d908490613990565b60405180910390a250565b7fa8f5d6a26420dbca563af82edda993be302bfa0d82b1540ed55eac3326eb85f2600260019054906101000a90046001600160a01b03168260405161296e9291906133bf565b60405180910390a1600354604051630b90f5dd60e41b81526001600160a01b039091169063b90f5dd0906129a69084906004016133ab565b60206040518083038186803b1580156129be57600080fd5b505afa1580156129d2573d6000803e3d6000fd5b505050506040513d601f19601f820116820180604052508101906129f6919061328a565b612a125760405162461bcd60e51b8152600401610618906138eb565b600280546001600160a01b0390921661010002610100600160a81b0319909216919091179055565b60008067016345785d8a00007f00000000000000000000000000000000000000000000000000000000000000006001600160a01b0316311015612c03576000612ab56001600160a01b037f0000000000000000000000000000000000000000000000000000000000000000163167016345785d8a0000613a4a565b90507f00000000000000000000000000000000000000000000000000000000000000006001600160a01b031673bb4cdb9cbd36b01bd1cbaebf2de08d9173bc095c14612b0d57612b06818686612d73565b9150612b11565b8091505b818611612b305760405162461bcd60e51b815260040161061890613826565b604051632e1a7d4d60e01b815273bb4cdb9cbd36b01bd1cbaebf2de08d9173bc095c90632e1a7d4d90612b67908490600401613990565b600060405180830381600087803b158015612b8157600080fd5b505af1158015612b95573d6000803e3d6000fd5b50506040516001600160a01b037f000000000000000000000000000000000000000000000000000000000000000016925083156108fc02915083906000818181858888f19350505050158015612bef573d6000803e3d6000fd5b5081600654612bfe91906139f3565b600655505b612c0d8186613a4a565b95945050505050565b600080600080600260019054906101000a90046001600160a01b03166001600160a01b03168a8a8a8a8a8a604051602401612c56969594939291906133fd565b60408051601f198184030181529181526020820180516001600160e01b0316631be861b360e11b17905251612c8b919061338f565b600060405180830381855af49150503d8060008114612cc6576040519150601f19603f3d011682016040523d82523d6000602084013e612ccb565b606091505b50909250905081612cfe57805115612ce65780518082602001fd5b60405162461bcd60e51b815260040161061890613959565b602001519998505050505050505050565b6060604482511015612d55575060408051808201909152601d81527f5472616e73616374696f6e2072657665727465642073696c656e746c7900000060208201526105b1565b60048201915081806020019051810190611bbc91906132a6565b3390565b600080600080600260019054906101000a90046001600160a01b03166001600160a01b03167f0000000000000000000000000000000000000000000000000000000000000000888888604051602401612dcf9493929190613478565b60408051601f198184030181529181526020820180516001600160e01b031663fc7d1c8d60e01b17905251612e04919061338f565b600060405180830381855af49150503d8060008114612e3f576040519150601f19603f3d011682016040523d82523d6000602084013e612e44565b606091505b50909250905081612e7757805115612e5f5780518082602001fd5b60405162461bcd60e51b8152600401610618906135af565b602001519695505050505050565b600082601f830112612e95578081fd5b81356020612eaa612ea5836139d0565b6139a7565b8281528181019085830183850287018401881015612ec6578586fd5b855b85811015612eed578135612edb81613ad8565b84529284019290840190600101612ec8565b5090979650505050505050565b600082601f830112612f0a578081fd5b81356020612f1a612ea5836139d0565b8281528181019085830183850287018401881015612f36578586fd5b855b85811015612eed578135612f4b81613aed565b84529284019290840190600101612f38565b600082601f830112612f6d578081fd5b81356020612f7d612ea5836139d0565b8281528181019085830183850287018401881015612f99578586fd5b855b85811015612eed57813584529284019290840190600101612f9b565b600060208284031215612fc8578081fd5b8135610d9a81613ad8565b600060208284031215612fe4578081fd5b8151610d9a81613ad8565b60008060208385031215613001578081fd5b82356001600160401b0380821115613017578283fd5b818501915085601f83011261302a578283fd5b813581811115613038578384fd5b866020808302850101111561304b578384fd5b60209290920196919550909350505050565b600080600080600080600060e0888a031215613077578283fd5b87356001600160401b038082111561308d578485fd5b6130998b838c01612e85565b985060208a01359150808211156130ae578485fd5b6130ba8b838c01612f5d565b975060408a01359150808211156130cf578485fd5b6130db8b838c01612f5d565b965060608a01359150808211156130f0578485fd5b6130fc8b838c01612f5d565b955060808a0135915080821115613111578485fd5b61311d8b838c01612f5d565b945060a08a0135915080821115613132578384fd5b61313e8b838c01612efa565b935060c08a0135915080821115613153578283fd5b506131608a828b01612f5d565b91505092959891949750929550565b60008060408385031215613181578182fd5b82356001600160401b0380821115613197578384fd5b6131a386838701612f5d565b935060208501359150808211156131b8578283fd5b506131c585828601612e85565b9150509250929050565b6000806000806000608086880312156131e6578081fd5b85356001600160401b03808211156131fc578283fd5b61320889838a01612f5d565b9650602088013591508082111561321d578283fd5b61322989838a01612e85565b9550604088013594506060880135915080821115613245578283fd5b818801915088601f830112613258578283fd5b813581811115613266578384fd5b896020828501011115613277578384fd5b9699959850939650602001949392505050565b60006020828403121561329b578081fd5b8151610d9a81613aed565b6000602082840312156132b7578081fd5b81516001600160401b03808211156132cd578283fd5b818401915084601f8301126132e0578283fd5b8151818111156132f2576132f2613ac2565b613305601f8201601f19166020016139a7565b915080825285602082850101111561331b578384fd5b61332c816020840160208601613a61565b50949350505050565b600060208284031215613346578081fd5b5035919050565b60006020828403121561335e578081fd5b5051919050565b60008284528282602086013780602084860101526020601f19601f85011685010190509392505050565b600082516133a1818460208701613a61565b9190910192915050565b6001600160a01b0391909116815260200190565b6001600160a01b0392831681529116602082015260400190565b6001600160a01b039384168152919092166020820152604081019190915260600190565b6001600160a01b03878116825286166020820152604081018590526060810184905260a0608082018190526000906134389083018486613365565b98975050505050505050565b6001600160a01b039290921682521515602082015260400190565b6001600160a01b03929092168252602082015260400190565b600060018060a01b0386168252846020830152606060408301526134a0606083018486613365565b9695505050505050565b901515815260200190565b60006020825282518060208401526134d4816040850160208701613a61565b601f01601f19169190910160400192915050565b6020808252602c908201527f6f6e6c79436f6e74726f6c6c65723a2063616c6c6572206973206e6f7420746860408201526b329031b7b73a3937b63632b960a11b606082015260800190565b60208082526014908201527314185d5cd8589b194e881b9bdd081c185d5cd95960621b604082015260600190565b6020808252602d908201527f546f6b656e56657374696e673a20736c696365506572696f645365636f6e647360408201526c206d757374206265203e3d203160981b606082015260800190565b6020808252601f908201527f47657420574554482064656c65676174652063616c6c20726576657274656400604082015260600190565b6020808252601d908201527f4e6f7420656e6f75676820746f6b656e7320746f207769746864726177000000604082015260600190565b6020808252603d908201527f546f6b656e56657374696e673a2063616e6e6f742072656c6561736520746f6b60408201527f656e732c206e6f7420656e6f7567682076657374656420746f6b656e73000000606082015260800190565b60208082526026908201527f546f6b656e56657374696e673a2076657374696e67206973206e6f74207265766040820152656f6361626c6560d01b606082015260800190565b60208082526010908201526f14185d5cd8589b194e881c185d5cd95960821b604082015260600190565b6020808252818101527f4f776e61626c653a2063616c6c6572206973206e6f7420746865206f776e6572604082015260600190565b6020808252818101527f546f6b656e56657374696e673a20616d6f756e74206d757374206265203e2030604082015260600190565b6020808252602a908201527f6f6e6c794d6f64657261746f723a2063616c6c6572206973206e6f74207468656040820152691026b7b232b930ba37b960b11b606082015260800190565b60208082526022908201527f546f6b656e56657374696e673a206475726174696f6e206d757374206265203e604082015261020360f41b606082015260800190565b60208082526026908201527f5468697320636f6e747261637420646f6573206e6f7420616c6c6f7720746f206040820152657265766f6b6560d01b606082015260800190565b60208082526026908201527f5472616e73616374696f6e20636f737473206d6f7265207468616e20676173206040820152651b995959195960d21b606082015260800190565b6020808252602d908201527f546f6b656e56657374696e673a2056657374696e67207363686564756c65206160408201526c6c72656164792065786973747360981b606082015260800190565b6020808252601890820152770a0c2d2e4cac840e8ded6cadc40d2e640dcdee840ae8aa8960431b604082015260600190565b6020808252601e908201527f4d61726b65744d616b65724c696272617279206e6f7420616c6c6f7765640000604082015260600190565b6020808252601f908201527f5265656e7472616e637947756172643a207265656e7472616e742063616c6c00604082015260600190565b6020808252601b908201527f537761702064656c65676174652063616c6c2072657665727465640000000000604082015260600190565b90815260200190565b918252602082015260400190565b6040518181016001600160401b03811182821017156139c8576139c8613ac2565b604052919050565b60006001600160401b038211156139e9576139e9613ac2565b5060209081020190565b60008219821115613a0657613a06613aac565b500190565b600082613a2657634e487b7160e01b81526012600452602481fd5b500490565b6000816000190483118215151615613a4557613a45613aac565b500290565b600082821015613a5c57613a5c613aac565b500390565b60005b83811015613a7c578181015183820152602001613a64565b83811115613a8b576000848401525b50505050565b6000600019821415613aa557613aa5613aac565b5060010190565b634e487b7160e01b600052601160045260246000fd5b634e487b7160e01b600052604160045260246000fd5b6001600160a01b038116811461193557600080fd5b801515811461193557600080fdfea2646970667358221220d78004e3c16691e2f18551c813133c3697fa492e84407280a0b68251fc2a7cd464736f6c63430008000033",
  "linkReferences": {},
  "deployedLinkReferences": {}
}