{
  "_format": "hh-sol-artifact-1",
  "contractName": "MarketMakerDeployer",
  "sourceName": "contracts/MarketMakerDeployer.sol",
  "abi": [
    {
      "inputs": [
        {
          "internalType": "address",
          "name": "_masterContractAddress",
          "type": "address"
        },
        {
          "internalType": "address",
          "name": "_marketMakerLibraryAddress",
          "type": "address"
        }
      ],
      "stateMutability": "nonpayable",
      "type": "constructor"
    },
    {
      "anonymous": false,
      "inputs": [
        {
          "indexed": true,
          "internalType": "address",
          "name": "_user",
          "type": "address"
        },
        {
          "indexed": false,
          "internalType": "address",
          "name": "_controllerWallet",
          "type": "address"
        },
        {
          "indexed": false,
          "internalType": "address",
          "name": "_marketMaker",
          "type": "address"
        }
      ],
      "name": "CreatedMarketMakingContract",
      "type": "event"
    },
    {
      "anonymous": false,
      "inputs": [
        {
          "indexed": true,
          "internalType": "address",
          "name": "oldOwner",
          "type": "address"
        },
        {
          "indexed": true,
          "internalType": "address",
          "name": "newOwner",
          "type": "address"
        }
      ],
      "name": "OwnershipTransferred",
      "type": "event"
    },
    {
      "inputs": [
        {
          "internalType": "address payable[]",
          "name": "wallets",
          "type": "address[]"
        }
      ],
      "name": "addControllerWalletArray",
      "outputs": [],
      "stateMutability": "nonpayable",
      "type": "function"
    },
    {
      "inputs": [
        {
          "internalType": "uint256",
          "name": "",
          "type": "uint256"
        }
      ],
      "name": "contracts",
      "outputs": [
        {
          "internalType": "address",
          "name": "",
          "type": "address"
        }
      ],
      "stateMutability": "view",
      "type": "function"
    },
    {
      "inputs": [],
      "name": "contractsCreated",
      "outputs": [
        {
          "internalType": "uint256",
          "name": "",
          "type": "uint256"
        }
      ],
      "stateMutability": "view",
      "type": "function"
    },
    {
      "inputs": [
        {
          "internalType": "uint256",
          "name": "",
          "type": "uint256"
        }
      ],
      "name": "controllerWalletArray",
      "outputs": [
        {
          "internalType": "address payable",
          "name": "",
          "type": "address"
        }
      ],
      "stateMutability": "view",
      "type": "function"
    },
    {
      "inputs": [
        {
          "internalType": "address",
          "name": "_baseToken",
          "type": "address"
        },
        {
          "internalType": "address",
          "name": "_pairedToken",
          "type": "address"
        },
        {
          "internalType": "bool",
          "name": "_revocableContract",
          "type": "bool"
        }
      ],
      "name": "createMarketMaker",
      "outputs": [],
      "stateMutability": "payable",
      "type": "function"
    },
    {
      "inputs": [],
      "name": "getLastContract",
      "outputs": [
        {
          "internalType": "address",
          "name": "",
          "type": "address"
        }
      ],
      "stateMutability": "view",
      "type": "function"
    },
    {
      "inputs": [
        {
          "internalType": "address",
          "name": "",
          "type": "address"
        }
      ],
      "name": "isContractCreated",
      "outputs": [
        {
          "internalType": "bool",
          "name": "",
          "type": "bool"
        }
      ],
      "stateMutability": "view",
      "type": "function"
    },
    {
      "inputs": [],
      "name": "marketMakerLibraryAddress",
      "outputs": [
        {
          "internalType": "address",
          "name": "",
          "type": "address"
        }
      ],
      "stateMutability": "view",
      "type": "function"
    },
    {
      "inputs": [],
      "name": "masterContractAddress",
      "outputs": [
        {
          "internalType": "address",
          "name": "",
          "type": "address"
        }
      ],
      "stateMutability": "view",
      "type": "function"
    },
    {
      "inputs": [],
      "name": "moderator",
      "outputs": [
        {
          "internalType": "address payable",
          "name": "",
          "type": "address"
        }
      ],
      "stateMutability": "view",
      "type": "function"
    },
    {
      "inputs": [],
      "name": "owner",
      "outputs": [
        {
          "internalType": "address",
          "name": "",
          "type": "address"
        }
      ],
      "stateMutability": "view",
      "type": "function"
    },
    {
      "inputs": [
        {
          "internalType": "address",
          "name": "",
          "type": "address"
        }
      ],
      "name": "tradingCounter",
      "outputs": [
        {
          "internalType": "uint256",
          "name": "",
          "type": "uint256"
        }
      ],
      "stateMutability": "view",
      "type": "function"
    },
    {
      "inputs": [
        {
          "internalType": "address",
          "name": "newOwner",
          "type": "address"
        }
      ],
      "name": "transferOwnership",
      "outputs": [],
      "stateMutability": "nonpayable",
      "type": "function"
    }
  ],
  "bytecode": "0x60c060405234801561001057600080fd5b5060405161522e38038061522e83398101604081905261002f916100c4565b600080546001600160a01b03191633178082556040516001600160a01b039190911691907f8be0079c531659141344cd1fd0a4f28419497f9722a3daafe3b4186f6b6457e0908290a36001600160601b0319606092831b811660a052911b16608052600680546001600160a01b031916331790556100f6565b80516001600160a01b03811681146100bf57600080fd5b919050565b600080604083850312156100d6578182fd5b6100df836100a8565b91506100ed602084016100a8565b90509250929050565b60805160601c60a05160601c6150ff61012f6000396000818161037c015261051001526000818161028c015261035a01526150ff6000f3fe608060405260043610620000c25760003560e01c80634d5e991911620000795780634d5e9919146200018c5780638556519314620001b15780638bc3df3014620001d65780638da5cb5b14620001fb578063c53833fe1462000213578063cedf3ba2146200022b578063f2fde38b146200025f57620000c2565b806309a59d8a14620000c75780631742541a14620000f757806324f2f327146200011e5780633471728a146200013757806338743904146200014f578063474da79a1462000167575b600080fd5b348015620000d457600080fd5b50620000df62000284565b604051620000ee91906200096f565b60405180910390f35b3480156200010457600080fd5b506200010f6200028a565b604051620000ee91906200085c565b620001356200012f3660046200077b565b620002ae565b005b3480156200014457600080fd5b506200010f6200050e565b3480156200015c57600080fd5b506200010f62000532565b3480156200017457600080fd5b506200010f6200018636600462000843565b62000541565b3480156200019957600080fd5b506200010f620001ab36600462000843565b6200056c565b348015620001be57600080fd5b5062000135620001d0366004620007cf565b6200057d565b348015620001e357600080fd5b50620000df620001f536600462000755565b6200063c565b3480156200020857600080fd5b506200010f6200064e565b3480156200022057600080fd5b506200010f6200065d565b3480156200023857600080fd5b50620002506200024a36600462000755565b620006aa565b604051620000ee9190620008d4565b3480156200026c57600080fd5b50620001356200027e36600462000755565b620006bf565b60055481565b7f000000000000000000000000000000000000000000000000000000000000000081565b60055460025411620002dd5760405162461bcd60e51b8152600401620002d4906200090c565b60405180910390fd5b67016345785d8a00003414620003075760405162461bcd60e51b8152600401620002d490620008df565b60006002600554815481106200032d57634e487b7160e01b600052603260045260246000fd5b60009182526020822001546006546040516001600160a01b039283169450879287923392911690869088907f0000000000000000000000000000000000000000000000000000000000000000907f000000000000000000000000000000000000000000000000000000000000000090620003a79062000747565b620003ba9897969594939291906200088a565b604051809103906000f080158015620003d7573d6000803e3d6000fd5b506001600160a01b03808216600090815260036020526040808220805460ff1916600117905551929350908416913480156108fc0292909190818181858888f193505050501580156200042e573d6000803e3d6000fd5b506002600554815481106200045357634e487b7160e01b600052603260045260246000fd5b6000918252602082200180546001600160a01b03199081169091556001805480820182558184527fb10e2d527612073b26eecdfd717e6a320cf44b4afac2b0732d9fcbe2b7fa0cf60180549092166001600160a01b0385161790915560058054849390620004c390849062000978565b909155505060405133907fba0400238205c1978fe01eb922f8e53640b80006ed2e3b0b35df11f0319ba19a90620004fe908690859062000870565b60405180910390a2505050505050565b7f000000000000000000000000000000000000000000000000000000000000000081565b6006546001600160a01b031681565b600181815481106200055257600080fd5b6000918252602090912001546001600160a01b0316905081565b600281815481106200055257600080fd5b6000546001600160a01b03163314620005aa5760405162461bcd60e51b8152600401620002d4906200093a565b60005b8181101562000637576002838383818110620005d957634e487b7160e01b600052603260045260246000fd5b9050602002016020810190620005f0919062000755565b81546001810183556000928352602090922090910180546001600160a01b0319166001600160a01b03909216919091179055806200062e81620009ad565b915050620005ad565b505050565b60046020526000908152604090205481565b6000546001600160a01b031681565b600060018060055462000671919062000993565b815481106200069057634e487b7160e01b600052603260045260246000fd5b6000918252602090912001546001600160a01b0316905090565b60036020526000908152604090205460ff1681565b6000546001600160a01b03163314620006ec5760405162461bcd60e51b8152600401620002d4906200093a565b600080546040516001600160a01b03808516939216917f8be0079c531659141344cd1fd0a4f28419497f9722a3daafe3b4186f6b6457e091a3600080546001600160a01b0319166001600160a01b0392909216919091179055565b6146cf80620009fb83390190565b60006020828403121562000767578081fd5b81356200077481620009e1565b9392505050565b60008060006060848603121562000790578182fd5b83356200079d81620009e1565b92506020840135620007af81620009e1565b915060408401358015158114620007c4578182fd5b809150509250925092565b60008060208385031215620007e2578182fd5b823567ffffffffffffffff80821115620007fa578384fd5b818501915085601f8301126200080e578384fd5b8135818111156200081d578485fd5b866020808302850101111562000831578485fd5b60209290920196919550909350505050565b60006020828403121562000855578081fd5b5035919050565b6001600160a01b0391909116815260200190565b6001600160a01b0392831681529116602082015260400190565b6001600160a01b0398891681529688166020880152948716604087015292861660608601529085166080850152151560a0840152831660c083015290911660e08201526101000190565b901515815260200190565b60208082526013908201527257726f6e6720616d6f756e74206f662067617360681b604082015260600190565b602080825260149082015273139bc818dbdb9d1c9bdb1b195c881dd85b1b195d60621b604082015260600190565b6020808252818101527f4f776e61626c653a2063616c6c6572206973206e6f7420746865206f776e6572604082015260600190565b90815260200190565b600082198211156200098e576200098e620009cb565b500190565b600082821015620009a857620009a8620009cb565b500390565b6000600019821415620009c457620009c4620009cb565b5060010190565b634e487b7160e01b600052601160045260246000fd5b6001600160a01b0381168114620009f757600080fd5b5056fe6101606040523480156200001257600080fd5b50604051620046cf380380620046cf8339810160408190526200003591620002dd565b600080546001600160a01b03191633178082556040516001600160a01b03919091169190600080516020620046af833981519152908290a3600180556002805460ff191690556001600160601b0319606089811b821660e081905260c05288811b82166101208190526101005285811b821660805286901b1660a05282151560f81b61014052600380546001600160a01b0383166001600160a01b0319909116179055620000e3826200012a565b620000ee8662000250565b5050600080546001600160a01b0316815260046020819052604090912001805460ff60881b1916600160881b1790555062000470945050505050565b7fa8f5d6a26420dbca563af82edda993be302bfa0d82b1540ed55eac3326eb85f2600260019054906101000a90046001600160a01b03168260405162000172929190620003d1565b60405180910390a1600354604051630b90f5dd60e41b81526001600160a01b039091169063b90f5dd090620001ac908490600401620003bd565b60206040518083038186803b158015620001c557600080fd5b505afa158015620001da573d6000803e3d6000fd5b505050506040513d601f19601f8201168201806040525081019062000200919062000399565b620002285760405162461bcd60e51b81526004016200021f9062000420565b60405180910390fd5b600280546001600160a01b0390921661010002610100600160a81b0319909216919091179055565b6000546001600160a01b031633146200027d5760405162461bcd60e51b81526004016200021f90620003eb565b600080546040516001600160a01b0380851693921691600080516020620046af83398151915291a3600080546001600160a01b0319166001600160a01b0392909216919091179055565b80518015158114620002d857600080fd5b919050565b600080600080600080600080610100898b031215620002fa578384fd5b8851620003078162000457565b60208a01519098506200031a8162000457565b60408a01519097506200032d8162000457565b60608a0151909650620003408162000457565b60808a0151909550620003538162000457565b93506200036360a08a01620002c7565b925060c0890151620003758162000457565b60e08a0151909250620003888162000457565b809150509295985092959890939650565b600060208284031215620003ab578081fd5b620003b682620002c7565b9392505050565b6001600160a01b0391909116815260200190565b6001600160a01b0392831681529116602082015260400190565b6020808252818101527f4f776e61626c653a2063616c6c6572206973206e6f7420746865206f776e6572604082015260600190565b6020808252601e908201527f4d61726b65744d616b65724c696272617279206e6f7420616c6c6f7765640000604082015260600190565b6001600160a01b03811681146200046d57600080fd5b50565b60805160601c60a05160601c60c05160601c60e05160601c6101005160601c6101205160601c6101405160f81c6140f6620005b9600039600081816114fc01526119ae015260008181611cbe01528181611dd5015261217501526000818161081d01528181610a9a0152818161128a0152818161136901528181611b2701528181612089015281816124070152818161246101528181612645015261329d015260008181610c9001528181610de1015281816116e00152818161197301528181611ad50152611cf70152600081816107fc01528181610abb015281816112ab015261175f0152600081816110cd015281816110fa015281816113960152818161178c015281816117eb0152611c70015260008181610631015281816108ed01528181611155015281816122a4015281816125d401528181612612015261273001526140f66000f3fe6080604052600436106101d35760003560e01c80638da5cb5b116100f8578063cd446e2211610090578063cd446e22146104eb578063d294f09314610500578063d82f196714610515578063dd1fdb6214610535578063e5bf6a7f14610555578063f2fde38b14610575578063f47c733f14610595578063f6c788b2146105b5578063f77c4791146105d5576101da565b80638da5cb5b146103f95780639270704a1461040e5780639852595c1461042e578063a694fc3a1461044e578063a92a88751461046e578063ac67873514610483578063afbd7ac1146104a3578063b2822c31146104c3578063baf2a116146104cb576101da565b8063387439041161016b578063387439041461030e5780633f4ba83a146103235780635c975abb146103385780635d2cd2dc1461035a5780636927810d1461037a57806372db12cb1461038f57806374a8f103146103af5780637cb374bd146103cf5780638456cb59146103e4576101da565b806310098ad5146101df5780631742541a14610215578063199cbc54146102375780631de53d941461024c5780632f764a831461026e5780632fd33ddb1461028e5780633423ee60146102ae57806337bdc99b146102ce57806337e3a19e146102ee576101da565b366101da57005b600080fd5b3480156101eb57600080fd5b506101ff6101fa36600461351f565b6105ea565b60405161020c9190613f2d565b60405180910390f35b34801561022157600080fd5b5061022a61060c565b60405161020c9190613912565b34801561024357600080fd5b506101ff610620565b34801561025857600080fd5b5061026c61026736600461377b565b610626565b005b34801561027a57600080fd5b5061026c6102893660046136dc565b6108e2565b34801561029a57600080fd5b5061026c6102a936600461389c565b610bef565b3480156102ba57600080fd5b5061026c6102c936600461367c565b610cff565b3480156102da57600080fd5b5061026c6102e936600461389c565b610e12565b3480156102fa57600080fd5b506101ff61030936600461351f565b610fda565b34801561031a57600080fd5b5061022a6110cb565b34801561032f57600080fd5b5061026c6110ef565b34801561034457600080fd5b5061034d611141565b60405161020c9190613a2f565b34801561036657600080fd5b5061026c61037536600461377b565b61114a565b34801561038657600080fd5b5061022a611367565b34801561039b57600080fd5b5061026c6103aa366004613557565b61138b565b3480156103bb57600080fd5b5061026c6103ca36600461351f565b6114d0565b3480156103db57600080fd5b5061022a61175d565b3480156103f057600080fd5b5061026c611781565b34801561040557600080fd5b5061022a6117d1565b34801561041a57600080fd5b5061026c610429366004613557565b6117e0565b34801561043a57600080fd5b506101ff61044936600461351f565b611920565b34801561045a57600080fd5b5061026c61046936600461389c565b61193e565b34801561047a57600080fd5b5061034d6119ac565b34801561048f57600080fd5b506101ff61049e36600461351f565b6119d0565b3480156104af57600080fd5b5061026c6104be3660046135c5565b6119ee565b61026c611afd565b3480156104d757600080fd5b5061026c6104e636600461351f565b611bf8565b3480156104f757600080fd5b5061022a611c2e565b34801561050c57600080fd5b5061026c611c3d565b34801561052157600080fd5b5061026c61053036600461389c565b611da0565b34801561054157600080fd5b506101ff61055036600461351f565b611e06565b34801561056157600080fd5b5061026c61057036600461389c565b611ecf565b34801561058157600080fd5b5061026c61059036600461351f565b6121d5565b3480156105a157600080fd5b506101ff6105b036600461351f565b61225a565b3480156105c157600080fd5b506101ff6105d036600461351f565b612275565b3480156105e157600080fd5b5061022a6122a2565b6001600160a01b0381166000908152600460205260409020600101545b919050565b60025461010090046001600160a01b031681565b60055481565b336001600160a01b037f000000000000000000000000000000000000000000000000000000000000000016146106775760405162461bcd60e51b815260040161066e90613a6d565b60405180910390fd5b6002600154141561069a5760405162461bcd60e51b815260040161066e90613ef6565b60026001556106a7611141565b156106c45760405162461bcd60e51b815260040161066e90613c94565b6000805b85518110156107f4576107818682815181106106f457634e487b7160e01b600052603260045260246000fd5b602002602001015161077c89848151811061071f57634e487b7160e01b600052603260045260246000fd5b6020026020010151600460008b878151811061074b57634e487b7160e01b600052603260045260246000fd5b60200260200101516001600160a01b03166001600160a01b03168152602001908152602001600020600101546122c6565b6122dd565b8782815181106107a157634e487b7160e01b600052603260045260246000fd5b6020026020010181815250508681815181106107cd57634e487b7160e01b600052603260045260246000fd5b6020026020010151826107e09190613f90565b9150806107ec81614056565b9150506106c8565b5060006108457f00000000000000000000000000000000000000000000000000000000000000007f000000000000000000000000000000000000000000000000000000000000000084888888612403565b905060005b86518110156108d4576108c187828151811061087657634e487b7160e01b600052603260045260246000fd5b6020026020010151848a848151811061089f57634e487b7160e01b600052603260045260246000fd5b6020026020010151856108b29190613ff0565b6108bc9190613fd0565b6124b2565b50806108cc81614056565b91505061084a565b505060018055505050505050565b336001600160a01b037f0000000000000000000000000000000000000000000000000000000000000000161461092a5760405162461bcd60e51b815260040161066e90613a6d565b6002600154141561094d5760405162461bcd60e51b815260040161066e90613ef6565b600260015561095a611141565b156109775760405162461bcd60e51b815260040161066e90613c94565b6000805b8551811015610a7757610a048782815181106109a757634e487b7160e01b600052603260045260246000fd5b6020026020010151600460008985815181106109d357634e487b7160e01b600052603260045260246000fd5b60200260200101516001600160a01b03166001600160a01b03168152602001908152602001600020600001546122c6565b878281518110610a2457634e487b7160e01b600052603260045260246000fd5b602002602001018181525050868181518110610a5057634e487b7160e01b600052603260045260246000fd5b602002602001015182610a639190613f90565b915080610a6f81614056565b91505061097b565b506000610a8485836124b2565b9050610a918185856125c6565b90506000610ae27f00000000000000000000000000000000000000000000000000000000000000007f00000000000000000000000000000000000000000000000000000000000000008488886127a2565b6001600160a01b038716600090815260046020526040902060010154909150811115610b205760405162461bcd60e51b815260040161066e90613bf8565b610b2a86826122dd565b905060005b8751811015610be057610bce888281518110610b5b57634e487b7160e01b600052603260045260246000fd5b60200260200101518a8381518110610b8357634e487b7160e01b600052603260045260246000fd5b6020026020010151868c8581518110610bac57634e487b7160e01b600052603260045260246000fd5b602002602001015186610bbf9190613ff0565b610bc99190613fd0565b612864565b80610bd881614056565b915050610b2f565b50506001805550505050505050565b60026001541415610c125760405162461bcd60e51b815260040161066e90613ef6565b6002600155610c1f611141565b15610c3c5760405162461bcd60e51b815260040161066e90613c94565b33600090815260046020526040902060010154811115610c5b57600080fd5b3360009081526004602052604081206001018054839290610c7d90849061400f565b90915550610cb790506001600160a01b037f00000000000000000000000000000000000000000000000000000000000000001633836128c6565b336001600160a01b03167fb2475cc0963391d593f1a890df550d0c0551e1317e08cba0cdece5014f0555f682604051610cf09190613f2d565b60405180910390a25060018055565b60026001541415610d225760405162461bcd60e51b815260040161066e90613ef6565b60026001556000805b8251811015610dd357838181518110610d5457634e487b7160e01b600052603260045260246000fd5b602002602001015182610d679190613f90565b9150610dc1838281518110610d8c57634e487b7160e01b600052603260045260246000fd5b6020026020010151858381518110610db457634e487b7160e01b600052603260045260246000fd5b60200260200101516129c5565b80610dcb81614056565b915050610d2b565b50610e096001600160a01b037f000000000000000000000000000000000000000000000000000000000000000016333084612a3c565b50506001805550565b60026001541415610e355760405162461bcd60e51b815260040161066e90613ef6565b6002600155610e42611141565b15610e5f5760405162461bcd60e51b815260040161066e90613c94565b3360009081526004602052604090206002810154610e7c57600080fd5b6040805161016081018252825481526001830154602082015260028301549181019190915260038201546060820152600482015463ffffffff80821660808401526401000000008204811660a0840152600160401b8204811660c0840152600160601b82041660e083015260ff600160801b820481161515610100840152600160881b820481161515610120840152600160901b909104161515610140820152600090610f2890612b25565b905082811015610f4a5760405162461bcd60e51b815260040161066e90613b9b565b82826003016000828254610f5e9190613f90565b925050819055508260056000828254610f77919061400f565b9250508190555082826001016000828254610f929190613f90565b909155505060405133907f94fd705dafc89ff1f03c1207631245602407f0e8ee47e1878a4e2ae954cd767490610fc9908690613f2d565b60405180910390a250506001805550565b6001600160a01b03811660009081526004602052604081205490670de0b6b3a7640000611005612c0b565b6001600160a01b038581166000908152600460208190526040918290208101549151631820cc6160e11b8152939092169263304198c292611054928992600160881b90910460ff1691016139d3565b60206040518083038186803b15801561106c57600080fd5b505afa158015611080573d6000803e3d6000fd5b505050506040513d601f19601f820116820180604052508101906110a491906138b4565b6110ae9084613ff0565b6110b89190613fd0565b90506110c4818361400f565b9392505050565b7f000000000000000000000000000000000000000000000000000000000000000081565b336001600160a01b037f000000000000000000000000000000000000000000000000000000000000000016146111375760405162461bcd60e51b815260040161066e90613d28565b61113f612c8d565b565b60025460ff1690565b336001600160a01b037f000000000000000000000000000000000000000000000000000000000000000016146111925760405162461bcd60e51b815260040161066e90613a6d565b600260015414156111b55760405162461bcd60e51b815260040161066e90613ef6565b60026001556111c2611141565b156111df5760405162461bcd60e51b815260040161066e90613c94565b6000805b85518110156112825761120f8782815181106109a757634e487b7160e01b600052603260045260246000fd5b87828151811061122f57634e487b7160e01b600052603260045260246000fd5b60200260200101818152505086818151811061125b57634e487b7160e01b600052603260045260246000fd5b60200260200101518261126e9190613f90565b91508061127a81614056565b9150506111e3565b5060006112d37f00000000000000000000000000000000000000000000000000000000000000007f000000000000000000000000000000000000000000000000000000000000000084888888612403565b905060005b86518110156108d45761135587828151811061130457634e487b7160e01b600052603260045260246000fd5b602002602001015189838151811061132c57634e487b7160e01b600052603260045260246000fd5b6020026020010151858b8581518110610bac57634e487b7160e01b600052603260045260246000fd5b8061135f81614056565b9150506112d8565b7f000000000000000000000000000000000000000000000000000000000000000081565b336001600160a01b037f000000000000000000000000000000000000000000000000000000000000000016146113d35760405162461bcd60e51b815260040161066e90613d28565b60005b818110156114cb5760006004600085858581811061140457634e487b7160e01b600052603260045260246000fd5b9050602002016020810190611419919061351f565b6001600160a01b0316815260208101919091526040016000206004018054911515600160881b0260ff60881b1990921691909117905582828281811061146f57634e487b7160e01b600052603260045260246000fd5b9050602002016020810190611484919061351f565b6001600160a01b03167fa3bfdef3d8149bacf15b7b64199fca8228c0fd4f8fcdd11cc7871829baf319c360405160405180910390a2806114c381614056565b9150506113d6565b505050565b6000546001600160a01b031633146114fa5760405162461bcd60e51b815260040161066e90613cbe565b7f00000000000000000000000000000000000000000000000000000000000000006115375760405162461bcd60e51b815260040161066e90613db4565b6001600160a01b038116600090815260046020819052604090912090810154600160901b900460ff1661157c5760405162461bcd60e51b815260040161066e90613c4e565b80600301548160020154611590919061400f565b600560008282546115a1919061400f565b90915550506040805161016081018252825481526001830154602082015260028301549181019190915260038201546060820152600482015463ffffffff80821660808401526401000000008204811660a0840152600160401b8204811660c0840152600160601b82041660e083015260ff600160801b820481161515610100840152600160881b820481161515610120840152600160901b90910416151561014082015260009061165290612b25565b9050808260010160008282546116689190613f90565b92505081905550826001600160a01b03167f94fd705dafc89ff1f03c1207631245602407f0e8ee47e1878a4e2ae954cd7674826040516116a89190613f2d565b60405180910390a260008183600301546116c29190613f90565b83600201546116d1919061400f565b90506117076001600160a01b037f00000000000000000000000000000000000000000000000000000000000000001633836128c6565b6000600284018190556003840181905560048401805460ff60801b191690556040516001600160a01b038616917f68d870ac0aff3819234e8a1fc8f357b40d75212f2dc8594b97690fa205b3bab291a250505050565b7f000000000000000000000000000000000000000000000000000000000000000081565b336001600160a01b037f000000000000000000000000000000000000000000000000000000000000000016146117c95760405162461bcd60e51b815260040161066e90613d28565b61113f612cfb565b6000546001600160a01b031681565b336001600160a01b037f000000000000000000000000000000000000000000000000000000000000000016146118285760405162461bcd60e51b815260040161066e90613d28565b60005b818110156114cb5760016004600085858581811061185957634e487b7160e01b600052603260045260246000fd5b905060200201602081019061186e919061351f565b6001600160a01b0316815260208101919091526040016000206004018054911515600160881b0260ff60881b199092169190911790558282828181106118c457634e487b7160e01b600052603260045260246000fd5b90506020020160208101906118d9919061351f565b6001600160a01b03167fb72139c440b4fd552bd1ef2077ce2ef7de385e96860222e8ad491235caf5af6660405160405180910390a28061191881614056565b91505061182b565b6001600160a01b031660009081526004602052604090206003015490565b600260015414156119615760405162461bcd60e51b815260040161066e90613ef6565b600260015561199b6001600160a01b037f000000000000000000000000000000000000000000000000000000000000000016333084612a3c565b6119a533826129c5565b5060018055565b7f000000000000000000000000000000000000000000000000000000000000000081565b6001600160a01b031660009081526004602052604090206002015490565b60026001541415611a115760405162461bcd60e51b815260040161066e90613ef6565b60026001556000805b8851811015611ac757828181518110611a4357634e487b7160e01b600052603260045260246000fd5b602002602001015182611a569190613f90565b9150611ab5898281518110611a7b57634e487b7160e01b600052603260045260246000fd5b60200260200101518989898989898881518110611aa857634e487b7160e01b600052603260045260246000fd5b6020026020010151612d56565b80611abf81614056565b915050611a1a565b506108d46001600160a01b037f000000000000000000000000000000000000000000000000000000000000000016333084612a3c565b60026001541415611b205760405162461bcd60e51b815260040161066e90613ef6565b60026001557f00000000000000000000000000000000000000000000000000000000000000006001600160a01b031673bb4cdb9cbd36b01bd1cbaebf2de08d9173bc095c14611b815760405162461bcd60e51b815260040161066e90613e8d565b73bb4cdb9cbd36b01bd1cbaebf2de08d9173bc095c6001600160a01b031663d0e30db0346040518263ffffffff1660e01b81526004016000604051808303818588803b158015611bd057600080fd5b505af1158015611be4573d6000803e3d6000fd5b5050505050611bf234613043565b60018055565b6000546001600160a01b03163314611c225760405162461bcd60e51b815260040161066e90613cbe565b611c2b816130a4565b50565b6003546001600160a01b031681565b60026001541415611c605760405162461bcd60e51b815260040161066e90613ef6565b6002600155336001600160a01b037f00000000000000000000000000000000000000000000000000000000000000001614611cad5760405162461bcd60e51b815260040161066e90613d28565b600954611ce6906001600160a01b037f0000000000000000000000000000000000000000000000000000000000000000169033906128c6565b600a54611d1f906001600160a01b037f0000000000000000000000000000000000000000000000000000000000000000169033906128c6565b60095460076000828254611d339190613f90565b9091555050600a5460088054600090611d4d908490613f90565b9091555050600a546009546040517fa1f87f32d0f17fab0242ca800d736293de8988c14b27747e218cf13d5c249f5392611d88929091613f36565b60405180910390a160006009819055600a5560018055565b60026001541415611dc35760405162461bcd60e51b815260040161066e90613ef6565b6002600155611dfd6001600160a01b037f000000000000000000000000000000000000000000000000000000000000000016333084612a3c565b6119a581613043565b6001600160a01b038116600090815260046020818152604080842081516101608101835281548152600182015493810193909352600281015491830191909152600381015460608301529091015463ffffffff80821660808401526401000000008204811660a0840152600160401b8204811660c0840152600160601b82041660e083015260ff600160801b820481161515610100840152600160881b820481161515610120840152600160901b909104161515610140820152611ec990612b25565b92915050565b60026001541415611ef25760405162461bcd60e51b815260040161066e90613ef6565b6002600155611eff611141565b15611f1c5760405162461bcd60e51b815260040161066e90613c94565b80611f2633610fda565b1015611f445760405162461bcd60e51b815260040161066e90613b64565b6000611f4e612c0b565b336000818152600460208190526040918290208101549151631820cc6160e11b81526001600160a01b03949094169363304198c293611f9b939092600160881b90910460ff1691016139d3565b60206040518083038186803b158015611fb357600080fd5b505afa158015611fc7573d6000803e3d6000fd5b505050506040513d601f19601f82011682018060405250810190611feb91906138b4565b9050600061200182670de0b6b3a764000061400f565b61200b8385613ff0565b6120159190613fd0565b3360009081526004602052604090205490915061203e90849061203990849061400f565b6122c6565b925061204a8184613f90565b336000908152600460205260408120805490919061206990849061400f565b9250508190555080600960008282546120829190613f90565b90915550507f00000000000000000000000000000000000000000000000000000000000000006001600160a01b031673bb4cdb9cbd36b01bd1cbaebf2de08d9173bc095c141561216857604051632e1a7d4d60e01b815273bb4cdb9cbd36b01bd1cbaebf2de08d9173bc095c90632e1a7d4d90612103908690600401613f2d565b600060405180830381600087803b15801561211d57600080fd5b505af1158015612131573d6000803e3d6000fd5b505060405133925085156108fc02915085906000818181858888f19350505050158015612162573d6000803e3d6000fd5b5061219c565b61219c6001600160a01b037f00000000000000000000000000000000000000000000000000000000000000001633856128c6565b336001600160a01b03167f5135ea2f98d3f162e3ddba39690cb01c8efe7e45ca7d4a15cf43be3d2981bc7984604051610fc99190613f2d565b6000546001600160a01b031633146121ff5760405162461bcd60e51b815260040161066e90613cbe565b600080546040516001600160a01b03808516939216917f8be0079c531659141344cd1fd0a4f28419497f9722a3daafe3b4186f6b6457e091a3600080546001600160a01b0319166001600160a01b0392909216919091179055565b6001600160a01b031660009081526004602052604090205490565b6001600160a01b03811660009081526004602052604081206003810154600290910154611ec9919061400f565b7f000000000000000000000000000000000000000000000000000000000000000081565b6000818311156122d657816110c4565b5090919050565b6001600160a01b03821660009081526004602052604081206001018054839190839061230a90849061400f565b9091555060009050670de0b6b3a7640000612323612c0b565b6001600160a01b038681166000908152600460208190526040918290208101549151631907bfab60e01b81529390921692631907bfab92612372928a92600160881b90910460ff1691016139d3565b60206040518083038186803b15801561238a57600080fd5b505afa15801561239e573d6000803e3d6000fd5b505050506040513d601f19601f820116820180604052508101906123c291906138b4565b6123cc9085613ff0565b6123d69190613fd0565b90506123e2818461400f565b925080600a60008282546123f69190613f90565b9091555092949350505050565b60007f00000000000000000000000000000000000000000000000000000000000000006001600160a01b0316876001600160a01b0316141561244d5761244a8584846125c6565b94505b600061245d8888888888886131b6565b90507f00000000000000000000000000000000000000000000000000000000000000006001600160a01b0316876001600160a01b031614156124a7576124a48185856125c6565b90505b979650505050505050565b600080670de0b6b3a76400006124c6612c0b565b6001600160a01b03868116600090815260046020819052604091829020810154915163d9906e7d60e01b8152939092169263d9906e7d92612515928a92600160881b90910460ff1691016139d3565b60206040518083038186803b15801561252d57600080fd5b505afa158015612541573d6000803e3d6000fd5b505050506040513d601f19601f8201168201806040525081019061256591906138b4565b61256f9085613ff0565b6125799190613fd0565b9050612585818461400f565b925080600960008282546125999190613f90565b90915550506001600160a01b038416600090815260046020526040812080548592906123f6908490613f90565b60008067016345785d8a00007f00000000000000000000000000000000000000000000000000000000000000006001600160a01b031631101561278f5760006126416001600160a01b037f0000000000000000000000000000000000000000000000000000000000000000163167016345785d8a000061400f565b90507f00000000000000000000000000000000000000000000000000000000000000006001600160a01b031673bb4cdb9cbd36b01bd1cbaebf2de08d9173bc095c146126995761269281868661327b565b915061269d565b8091505b8186116126bc5760405162461bcd60e51b815260040161066e90613dfa565b604051632e1a7d4d60e01b815273bb4cdb9cbd36b01bd1cbaebf2de08d9173bc095c90632e1a7d4d906126f3908490600401613f2d565b600060405180830381600087803b15801561270d57600080fd5b505af1158015612721573d6000803e3d6000fd5b50506040516001600160a01b037f000000000000000000000000000000000000000000000000000000000000000016925083156108fc02915083906000818181858888f1935050505015801561277b573d6000803e3d6000fd5b508160065461278a9190613f90565b600655505b612799818661400f565b95945050505050565b6002546040516000918291829161010090046001600160a01b0316906127d4908a908a908a908a908a90602401613964565b60408051601f198184030181529181526020820180516001600160e01b031663206e6e2960e11b1790525161280991906138f6565b600060405180830381855afa9150503d8060008114612844576040519150601f19603f3d011682016040523d82523d6000602084013e612849565b606091505b50915091506128588282613359565b98975050505050505050565b6001600160a01b0383166000908152600460205260408120600101805483929061288f908490613f90565b90915550506001600160a01b038316600090815260046020526040812080548492906128bc90849061400f565b9091555050505050565b600080846001600160a01b031663a9059cbb60e01b85856040516024016128ee9291906139ee565b60408051601f198184030181529181526020820180516001600160e01b03166001600160e01b031990941693909317909252905161292c91906138f6565b6000604051808303816000865af19150503d8060008114612969576040519150601f19603f3d011682016040523d82523d6000602084013e61296e565b606091505b509150915081801561299857508051158061299857508080602001905181019061299891906137f1565b6129be576129a581613392565b60405162461bcd60e51b815260040161066e9190613a3a565b5050505050565b6001600160a01b038216600090815260046020526040812060010180548392906129f0908490613f90565b92505081905550816001600160a01b03167f9e71bc8eea02a63969f509818f2dafb9254532904319f9dbda79b67bd34a5f3d82604051612a309190613f2d565b60405180910390a25050565b600080856001600160a01b03166323b872dd60e01b868686604051602401612a6693929190613940565b60408051601f198184030181529181526020820180516001600160e01b03166001600160e01b0319909416939093179092529051612aa491906138f6565b6000604051808303816000865af19150503d8060008114612ae1576040519150601f19603f3d011682016040523d82523d6000602084013e612ae6565b606091505b5091509150818015612b10575080511580612b10575080806020019051810190612b1091906137f1565b612b1d576129a581613392565b505050505050565b6080810151600090429063ffffffff16811015612b46576000915050610607565b8260c001518360a00151612b5a9190613fa8565b63ffffffff168110612b825782606001518360400151612b7a919061400f565b915050610607565b60008360a0015163ffffffff1682612b9a919061400f565b60e085015190915063ffffffff166000612bb48284613fd0565b90506000612bc28383613ff0565b905060008760c0015163ffffffff16828960400151612be19190613ff0565b612beb9190613fd0565b9050876060015181612bfd919061400f565b965061060795505050505050565b600354604080516312209d2f60e31b815290516000926001600160a01b031691639104e978916004808301926020929190829003018186803b158015612c5057600080fd5b505afa158015612c64573d6000803e3d6000fd5b505050506040513d601f19601f82011682018060405250810190612c88919061353b565b905090565b612c95611141565b612cb15760405162461bcd60e51b815260040161066e90613ab9565b6002805460ff191690557f5db9ee0a495bf2e6ff9c91a7834c1ba4fdd244a5e8aa4e537bd38aeae4b073aa612ce46133f2565b604051612cf19190613912565b60405180910390a1565b612d03611141565b15612d205760405162461bcd60e51b815260040161066e90613c94565b6002805460ff191660011790557f62e78cea01bee320cd4e420270b5ea74000d11b0c9f74754ebdbfc544b05a258612ce46133f2565b60008463ffffffff1611612d7c5760405162461bcd60e51b815260040161066e90613d72565b60008111612d9c5760405162461bcd60e51b815260040161066e90613cf3565b60018363ffffffff161015612dc35760405162461bcd60e51b815260040161066e90613b17565b6001600160a01b03871660009081526004602081905260409091200154600160801b900460ff1615612e075760405162461bcd60e51b815260040161066e90613e40565b6000612e138688613fa8565b90506001600460008a6001600160a01b03166001600160a01b0316815260200190815260200160002060040160106101000a81548160ff02191690831515021790555080600460008a6001600160a01b03166001600160a01b0316815260200190815260200160002060040160006101000a81548163ffffffff021916908363ffffffff16021790555086600460008a6001600160a01b03166001600160a01b0316815260200190815260200160002060040160046101000a81548163ffffffff021916908363ffffffff16021790555084600460008a6001600160a01b03166001600160a01b0316815260200190815260200160002060040160086101000a81548163ffffffff021916908363ffffffff16021790555083600460008a6001600160a01b03166001600160a01b03168152602001908152602001600020600401600c6101000a81548163ffffffff021916908363ffffffff16021790555082600460008a6001600160a01b03166001600160a01b0316815260200190815260200160002060040160126101000a81548160ff02191690831515021790555081600460008a6001600160a01b03166001600160a01b03168152602001908152602001600020600201819055508160056000828254612ff19190613f90565b92505081905550876001600160a01b03167f82a09c12487d9950c96682e398533045828bd33d830b54dddd5684ac79bf27bd836040516130319190613f2d565b60405180910390a25050505050505050565b3360009081526004602052604081208054839290613062908490613f90565b909155505060405133907f8109037fc5b3b3f0368806e9cd981c30daa1a3d0c26be8307576c4f5f2125d5e90613099908490613f2d565b60405180910390a250565b7fa8f5d6a26420dbca563af82edda993be302bfa0d82b1540ed55eac3326eb85f2600260019054906101000a90046001600160a01b0316826040516130ea929190613926565b60405180910390a1600354604051630b90f5dd60e41b81526001600160a01b039091169063b90f5dd090613122908490600401613912565b60206040518083038186803b15801561313a57600080fd5b505afa15801561314e573d6000803e3d6000fd5b505050506040513d601f19601f8201168201806040525081019061317291906137f1565b61318e5760405162461bcd60e51b815260040161066e90613ebf565b600280546001600160a01b0390921661010002610100600160a81b0319909216919091179055565b6002546040516000918291829161010090046001600160a01b0316906131ea908b908b908b908b908b908b90602401613998565b60408051601f198184030181529181526020820180516001600160e01b0316632d607d0b60e21b1790525161321f91906138f6565b600060405180830381855af49150503d806000811461325a576040519150601f19603f3d011682016040523d82523d6000602084013e61325f565b606091505b509150915061326e8282613359565b9998505050505050505050565b6002546040516000918291829161010090046001600160a01b0316906132cb907f000000000000000000000000000000000000000000000000000000000000000090899089908990602401613a07565b60408051601f198184030181529181526020820180516001600160e01b031663fc7d1c8d60e01b1790525161330091906138f6565b600060405180830381855af49150503d806000811461333b576040519150601f19603f3d011682016040523d82523d6000602084013e613340565b606091505b509150915061334f8282613359565b9695505050505050565b600082613388578151156133705781518083602001fd5b60405162461bcd60e51b815260040161066e90613ae7565b5060200151919050565b60606044825110156133d8575060408051808201909152601d81527f5472616e73616374696f6e2072657665727465642073696c656e746c790000006020820152610607565b60048201915081806020019051810190611ec9919061380d565b3390565b600082601f830112613406578081fd5b8135602061341b61341683613f6d565b613f44565b8281528181019085830183850287018401881015613437578586fd5b855b8581101561345e57813561344c8161409d565b84529284019290840190600101613439565b5090979650505050505050565b600082601f83011261347b578081fd5b8135602061348b61341683613f6d565b82815281810190858301838502870184018810156134a7578586fd5b855b8581101561345e578135845292840192908401906001016134a9565b60008083601f8401126134d6578182fd5b5081356001600160401b038111156134ec578182fd5b60208301915083602082850101111561350457600080fd5b9250929050565b803563ffffffff8116811461060757600080fd5b600060208284031215613530578081fd5b81356110c48161409d565b60006020828403121561354c578081fd5b81516110c48161409d565b60008060208385031215613569578081fd5b82356001600160401b038082111561357f578283fd5b818501915085601f830112613592578283fd5b8135818111156135a0578384fd5b86602080830285010111156135b3578384fd5b60209290920196919550909350505050565b600080600080600080600060e0888a0312156135df578283fd5b87356001600160401b03808211156135f5578485fd5b6136018b838c016133f6565b985061360f60208b0161350b565b975061361d60408b0161350b565b965061362b60608b0161350b565b955061363960808b0161350b565b945060a08a0135915061364b826140b2565b90925060c08901359080821115613660578283fd5b5061366d8a828b0161346b565b91505092959891949750929550565b6000806040838503121561368e578182fd5b82356001600160401b03808211156136a4578384fd5b6136b08683870161346b565b935060208501359150808211156136c5578283fd5b506136d2858286016133f6565b9150509250929050565b6000806000806000608086880312156136f3578081fd5b85356001600160401b0380821115613709578283fd5b61371589838a0161346b565b9650602088013591508082111561372a578283fd5b61373689838a016133f6565b9550604088013591506137488261409d565b9093506060870135908082111561375d578283fd5b5061376a888289016134c5565b969995985093965092949392505050565b600080600080600060808688031215613792578081fd5b85356001600160401b03808211156137a8578283fd5b6137b489838a0161346b565b965060208801359150808211156137c9578283fd5b6137d589838a016133f6565b955060408801359450606088013591508082111561375d578283fd5b600060208284031215613802578081fd5b81516110c4816140b2565b60006020828403121561381e578081fd5b81516001600160401b0380821115613834578283fd5b818401915084601f830112613847578283fd5b81518181111561385957613859614087565b61386c601f8201601f1916602001613f44565b9150808252856020828501011115613882578384fd5b613893816020840160208601614026565b50949350505050565b6000602082840312156138ad578081fd5b5035919050565b6000602082840312156138c5578081fd5b5051919050565b60008284528282602086013780602084860101526020601f19601f85011685010190509392505050565b60008251613908818460208701614026565b9190910192915050565b6001600160a01b0391909116815260200190565b6001600160a01b0392831681529116602082015260400190565b6001600160a01b039384168152919092166020820152604081019190915260600190565b6001600160a01b03868116825285166020820152604081018490526080606082018190526000906124a790830184866138cc565b6001600160a01b03878116825286166020820152604081018590526060810184905260a06080820181905260009061285890830184866138cc565b6001600160a01b039290921682521515602082015260400190565b6001600160a01b03929092168252602082015260400190565b600060018060a01b03861682528460208301526060604083015261334f6060830184866138cc565b901515815260200190565b6000602082528251806020840152613a59816040850160208701614026565b601f01601f19169190910160400192915050565b6020808252602c908201527f6f6e6c79436f6e74726f6c6c65723a2063616c6c6572206973206e6f7420746860408201526b329031b7b73a3937b63632b960a11b606082015260800190565b60208082526014908201527314185d5cd8589b194e881b9bdd081c185d5cd95960621b604082015260600190565b60208082526016908201527511195b1959d85d194818d85b1b081c995d995c9d195960521b604082015260600190565b6020808252602d908201527f546f6b656e56657374696e673a20736c696365506572696f645365636f6e647360408201526c206d757374206265203e3d203160981b606082015260800190565b6020808252601d908201527f4e6f7420656e6f75676820746f6b656e7320746f207769746864726177000000604082015260600190565b6020808252603d908201527f546f6b656e56657374696e673a2063616e6e6f742072656c6561736520746f6b60408201527f656e732c206e6f7420656e6f7567682076657374656420746f6b656e73000000606082015260800190565b60208082526036908201527f53656c6c657220646f6573206e6f74206861766520656e6f75676820746f6b656040820152751b9cc81d1bc81cd95b1b081d1a1a5cc8185b5bdd5b9d60521b606082015260800190565b60208082526026908201527f546f6b656e56657374696e673a2076657374696e67206973206e6f74207265766040820152656f6361626c6560d01b606082015260800190565b60208082526010908201526f14185d5cd8589b194e881c185d5cd95960821b604082015260600190565b6020808252818101527f4f776e61626c653a2063616c6c6572206973206e6f7420746865206f776e6572604082015260600190565b6020808252818101527f546f6b656e56657374696e673a20616d6f756e74206d757374206265203e2030604082015260600190565b6020808252602a908201527f6f6e6c794d6f64657261746f723a2063616c6c6572206973206e6f74207468656040820152691026b7b232b930ba37b960b11b606082015260800190565b60208082526022908201527f546f6b656e56657374696e673a206475726174696f6e206d757374206265203e604082015261020360f41b606082015260800190565b60208082526026908201527f5468697320636f6e747261637420646f6573206e6f7420616c6c6f7720746f206040820152657265766f6b6560d01b606082015260800190565b60208082526026908201527f5472616e73616374696f6e20636f737473206d6f7265207468616e20676173206040820152651b995959195960d21b606082015260800190565b6020808252602d908201527f546f6b656e56657374696e673a2056657374696e67207363686564756c65206160408201526c6c72656164792065786973747360981b606082015260800190565b6020808252601890820152770a0c2d2e4cac840e8ded6cadc40d2e640dcdee840ae8aa8960431b604082015260600190565b6020808252601e908201527f4d61726b65744d616b65724c696272617279206e6f7420616c6c6f7765640000604082015260600190565b6020808252601f908201527f5265656e7472616e637947756172643a207265656e7472616e742063616c6c00604082015260600190565b90815260200190565b918252602082015260400190565b6040518181016001600160401b0381118282101715613f6557613f65614087565b604052919050565b60006001600160401b03821115613f8657613f86614087565b5060209081020190565b60008219821115613fa357613fa3614071565b500190565b600063ffffffff808316818516808303821115613fc757613fc7614071565b01949350505050565b600082613feb57634e487b7160e01b81526012600452602481fd5b500490565b600081600019048311821515161561400a5761400a614071565b500290565b60008282101561402157614021614071565b500390565b60005b83811015614041578181015183820152602001614029565b83811115614050576000848401525b50505050565b600060001982141561406a5761406a614071565b5060010190565b634e487b7160e01b600052601160045260246000fd5b634e487b7160e01b600052604160045260246000fd5b6001600160a01b0381168114611c2b57600080fd5b8015158114611c2b57600080fdfea2646970667358221220f1de6e578152a29ac89e9e5039a32612490a40b0702b9f9c117502d6b92293e864736f6c634300080000338be0079c531659141344cd1fd0a4f28419497f9722a3daafe3b4186f6b6457e0a2646970667358221220a61951547cb420fb1906edaab09bb08f554a53681183c31717546395486cf15664736f6c63430008000033",
  "linkReferences": {},
  "deployedLinkReferences": {}
}