{
  "_format": "hh-sol-artifact-1",
  "contractName": "MarketMaker",
  "sourceName": "contracts/MarketMaker.sol",
  "abi": [
    {
      "inputs": [
        {
          "internalType": "address",
          "name": "_baseToken",
          "type": "address"
        },
        {
          "internalType": "address",
          "name": "_pairedToken",
          "type": "address"
        },
        {
          "internalType": "address",
          "name": "_owner",
          "type": "address"
        },
        {
          "internalType": "address",
          "name": "_moderator",
          "type": "address"
        },
        {
          "internalType": "address payable",
          "name": "_controller",
          "type": "address"
        },
        {
          "internalType": "bool",
          "name": "_revocableContract",
          "type": "bool"
        },
        {
          "internalType": "bool",
          "name": "_paused",
          "type": "bool"
        },
        {
          "internalType": "address",
          "name": "_marketMakerLibraryAddress",
          "type": "address"
        },
        {
          "internalType": "address",
          "name": "_masterContractAddress",
          "type": "address"
        }
      ],
      "stateMutability": "nonpayable",
      "type": "constructor"
    },
    {
      "anonymous": false,
      "inputs": [
        {
          "indexed": true,
          "internalType": "address",
          "name": "_user",
          "type": "address"
        },
        {
          "indexed": false,
          "internalType": "uint256",
          "name": "_amount",
          "type": "uint256"
        }
      ],
      "name": "AmountReleased",
      "type": "event"
    },
    {
      "anonymous": false,
      "inputs": [
        {
          "indexed": false,
          "internalType": "address",
          "name": "_OldmarketMakerLibraryAddress",
          "type": "address"
        },
        {
          "indexed": false,
          "internalType": "address",
          "name": "_NewmarketMakerLibraryAddress",
          "type": "address"
        }
      ],
      "name": "ChangeMarketMakerLibraryAddress",
      "type": "event"
    },
    {
      "anonymous": false,
      "inputs": [
        {
          "indexed": true,
          "internalType": "address",
          "name": "_beneficiary",
          "type": "address"
        },
        {
          "indexed": false,
          "internalType": "uint256",
          "name": "_amount",
          "type": "uint256"
        }
      ],
      "name": "CreatedVestingSchedule",
      "type": "event"
    },
    {
      "anonymous": false,
      "inputs": [
        {
          "indexed": false,
          "internalType": "uint256",
          "name": "claimedBaseFee",
          "type": "uint256"
        },
        {
          "indexed": false,
          "internalType": "uint256",
          "name": "claimedPairedFee",
          "type": "uint256"
        }
      ],
      "name": "FeesClaimed",
      "type": "event"
    },
    {
      "anonymous": false,
      "inputs": [
        {
          "indexed": true,
          "internalType": "address",
          "name": "oldOwner",
          "type": "address"
        },
        {
          "indexed": true,
          "internalType": "address",
          "name": "newOwner",
          "type": "address"
        }
      ],
      "name": "OwnershipTransferred",
      "type": "event"
    },
    {
      "anonymous": false,
      "inputs": [
        {
          "indexed": false,
          "internalType": "address",
          "name": "account",
          "type": "address"
        }
      ],
      "name": "Paused",
      "type": "event"
    },
    {
      "anonymous": false,
      "inputs": [
        {
          "indexed": true,
          "internalType": "address",
          "name": "_user",
          "type": "address"
        }
      ],
      "name": "ProjectOwnerRemoved",
      "type": "event"
    },
    {
      "anonymous": false,
      "inputs": [
        {
          "indexed": true,
          "internalType": "address",
          "name": "_user",
          "type": "address"
        }
      ],
      "name": "ProjectOwnerSet",
      "type": "event"
    },
    {
      "anonymous": false,
      "inputs": [
        {
          "indexed": true,
          "internalType": "address",
          "name": "_user",
          "type": "address"
        },
        {
          "indexed": false,
          "internalType": "uint256",
          "name": "_amount",
          "type": "uint256"
        }
      ],
      "name": "Staked",
      "type": "event"
    },
    {
      "anonymous": false,
      "inputs": [
        {
          "indexed": true,
          "internalType": "address",
          "name": "_user",
          "type": "address"
        },
        {
          "indexed": false,
          "internalType": "uint256",
          "name": "_amount",
          "type": "uint256"
        }
      ],
      "name": "StakedInPairedToken",
      "type": "event"
    },
    {
      "anonymous": false,
      "inputs": [
        {
          "indexed": false,
          "internalType": "address",
          "name": "account",
          "type": "address"
        }
      ],
      "name": "Unpaused",
      "type": "event"
    },
    {
      "anonymous": false,
      "inputs": [
        {
          "indexed": true,
          "internalType": "address",
          "name": "_user",
          "type": "address"
        }
      ],
      "name": "VestingRevoked",
      "type": "event"
    },
    {
      "anonymous": false,
      "inputs": [
        {
          "indexed": true,
          "internalType": "address",
          "name": "_user",
          "type": "address"
        },
        {
          "indexed": false,
          "internalType": "uint256",
          "name": "_amount",
          "type": "uint256"
        }
      ],
      "name": "WithdrawnBaseToken",
      "type": "event"
    },
    {
      "anonymous": false,
      "inputs": [
        {
          "indexed": true,
          "internalType": "address",
          "name": "_user",
          "type": "address"
        },
        {
          "indexed": false,
          "internalType": "uint256",
          "name": "_amount",
          "type": "uint256"
        }
      ],
      "name": "WithdrawnPairedToken",
      "type": "event"
    },
    {
      "inputs": [
        {
          "internalType": "address",
          "name": "_beneficiary",
          "type": "address"
        }
      ],
      "name": "amountLocked",
      "outputs": [
        {
          "internalType": "uint256",
          "name": "",
          "type": "uint256"
        }
      ],
      "stateMutability": "view",
      "type": "function"
    },
    {
      "inputs": [
        {
          "internalType": "address",
          "name": "_beneficiary",
          "type": "address"
        }
      ],
      "name": "amountVested",
      "outputs": [
        {
          "internalType": "uint256",
          "name": "",
          "type": "uint256"
        }
      ],
      "stateMutability": "view",
      "type": "function"
    },
    {
      "inputs": [
        {
          "internalType": "address",
          "name": "_beneficiary",
          "type": "address"
        }
      ],
      "name": "available",
      "outputs": [
        {
          "internalType": "uint256",
          "name": "",
          "type": "uint256"
        }
      ],
      "stateMutability": "view",
      "type": "function"
    },
    {
      "inputs": [
        {
          "internalType": "address",
          "name": "_beneficiary",
          "type": "address"
        }
      ],
      "name": "balanceInPairedToken",
      "outputs": [
        {
          "internalType": "uint256",
          "name": "",
          "type": "uint256"
        }
      ],
      "stateMutability": "view",
      "type": "function"
    },
    {
      "inputs": [],
      "name": "baseTokenAddress",
      "outputs": [
        {
          "internalType": "address",
          "name": "",
          "type": "address"
        }
      ],
      "stateMutability": "view",
      "type": "function"
    },
    {
      "inputs": [
        {
          "internalType": "uint256[]",
          "name": "_amountsIn",
          "type": "uint256[]"
        },
        {
          "internalType": "address[]",
          "name": "_beneficiaryArray",
          "type": "address[]"
        },
        {
          "internalType": "uint256",
          "name": "_slippage",
          "type": "uint256"
        },
        {
          "internalType": "string",
          "name": "_exchange",
          "type": "string"
        }
      ],
      "name": "buy",
      "outputs": [],
      "stateMutability": "nonpayable",
      "type": "function"
    },
    {
      "inputs": [],
      "name": "claimFees",
      "outputs": [],
      "stateMutability": "nonpayable",
      "type": "function"
    },
    {
      "inputs": [
        {
          "internalType": "address",
          "name": "_beneficiary",
          "type": "address"
        }
      ],
      "name": "computeReleasableAmount",
      "outputs": [
        {
          "internalType": "uint256",
          "name": "",
          "type": "uint256"
        }
      ],
      "stateMutability": "view",
      "type": "function"
    },
    {
      "inputs": [],
      "name": "controller",
      "outputs": [
        {
          "internalType": "address payable",
          "name": "",
          "type": "address"
        }
      ],
      "stateMutability": "view",
      "type": "function"
    },
    {
      "inputs": [
        {
          "internalType": "address[]",
          "name": "_beneficiaryArray",
          "type": "address[]"
        },
        {
          "internalType": "uint32",
          "name": "_start",
          "type": "uint32"
        },
        {
          "internalType": "uint32",
          "name": "_cliff",
          "type": "uint32"
        },
        {
          "internalType": "uint32",
          "name": "_duration",
          "type": "uint32"
        },
        {
          "internalType": "uint32",
          "name": "_slicePeriodSeconds",
          "type": "uint32"
        },
        {
          "internalType": "bool",
          "name": "_revocable",
          "type": "bool"
        },
        {
          "internalType": "uint256[]",
          "name": "_amounts",
          "type": "uint256[]"
        }
      ],
      "name": "createVestingSchedule",
      "outputs": [],
      "stateMutability": "nonpayable",
      "type": "function"
    },
    {
      "inputs": [
        {
          "internalType": "address",
          "name": "_beneficiary",
          "type": "address"
        }
      ],
      "name": "getWithdrawablePairedTokens",
      "outputs": [
        {
          "internalType": "uint256",
          "name": "total",
          "type": "uint256"
        }
      ],
      "stateMutability": "view",
      "type": "function"
    },
    {
      "inputs": [
        {
          "internalType": "address",
          "name": "",
          "type": "address"
        }
      ],
      "name": "holdersMapping",
      "outputs": [
        {
          "internalType": "uint256",
          "name": "balanceInPairedToken",
          "type": "uint256"
        },
        {
          "internalType": "uint256",
          "name": "available",
          "type": "uint256"
        },
        {
          "internalType": "uint256",
          "name": "amountVested",
          "type": "uint256"
        },
        {
          "internalType": "uint256",
          "name": "released",
          "type": "uint256"
        },
        {
          "internalType": "uint128",
          "name": "baseAmountBought",
          "type": "uint128"
        },
        {
          "internalType": "uint128",
          "name": "pairedAmountBought",
          "type": "uint128"
        },
        {
          "internalType": "uint128",
          "name": "baseAmountSold",
          "type": "uint128"
        },
        {
          "internalType": "uint128",
          "name": "pairedAmountSold",
          "type": "uint128"
        },
        {
          "internalType": "uint32",
          "name": "cliff",
          "type": "uint32"
        },
        {
          "internalType": "uint32",
          "name": "start",
          "type": "uint32"
        },
        {
          "internalType": "uint32",
          "name": "duration",
          "type": "uint32"
        },
        {
          "internalType": "uint32",
          "name": "slicePeriodSeconds",
          "type": "uint32"
        },
        {
          "internalType": "bool",
          "name": "projectOwner",
          "type": "bool"
        },
        {
          "internalType": "bool",
          "name": "revocable",
          "type": "bool"
        }
      ],
      "stateMutability": "view",
      "type": "function"
    },
    {
      "inputs": [],
      "name": "marketMakerLibraryAddress",
      "outputs": [
        {
          "internalType": "address",
          "name": "",
          "type": "address"
        }
      ],
      "stateMutability": "view",
      "type": "function"
    },
    {
      "inputs": [],
      "name": "masterContract",
      "outputs": [
        {
          "internalType": "contract IMasterContract",
          "name": "",
          "type": "address"
        }
      ],
      "stateMutability": "view",
      "type": "function"
    },
    {
      "inputs": [],
      "name": "moderator",
      "outputs": [
        {
          "internalType": "address",
          "name": "",
          "type": "address"
        }
      ],
      "stateMutability": "view",
      "type": "function"
    },
    {
      "inputs": [],
      "name": "owner",
      "outputs": [
        {
          "internalType": "address",
          "name": "",
          "type": "address"
        }
      ],
      "stateMutability": "view",
      "type": "function"
    },
    {
      "inputs": [],
      "name": "pairedTokenAddress",
      "outputs": [
        {
          "internalType": "address",
          "name": "",
          "type": "address"
        }
      ],
      "stateMutability": "view",
      "type": "function"
    },
    {
      "inputs": [],
      "name": "pause",
      "outputs": [],
      "stateMutability": "nonpayable",
      "type": "function"
    },
    {
      "inputs": [],
      "name": "paused",
      "outputs": [
        {
          "internalType": "bool",
          "name": "",
          "type": "bool"
        }
      ],
      "stateMutability": "view",
      "type": "function"
    },
    {
      "inputs": [
        {
          "internalType": "uint256",
          "name": "_amount",
          "type": "uint256"
        }
      ],
      "name": "release",
      "outputs": [],
      "stateMutability": "nonpayable",
      "type": "function"
    },
    {
      "inputs": [
        {
          "internalType": "address",
          "name": "_beneficiary",
          "type": "address"
        }
      ],
      "name": "released",
      "outputs": [
        {
          "internalType": "uint256",
          "name": "",
          "type": "uint256"
        }
      ],
      "stateMutability": "view",
      "type": "function"
    },
    {
      "inputs": [
        {
          "internalType": "address[]",
          "name": "_beneficiaryArray",
          "type": "address[]"
        }
      ],
      "name": "removeProjectOwner",
      "outputs": [],
      "stateMutability": "nonpayable",
      "type": "function"
    },
    {
      "inputs": [],
      "name": "revocableContract",
      "outputs": [
        {
          "internalType": "bool",
          "name": "",
          "type": "bool"
        }
      ],
      "stateMutability": "view",
      "type": "function"
    },
    {
      "inputs": [
        {
          "internalType": "address",
          "name": "_beneficiary",
          "type": "address"
        }
      ],
      "name": "revoke",
      "outputs": [],
      "stateMutability": "nonpayable",
      "type": "function"
    },
    {
      "inputs": [
        {
          "internalType": "uint256[]",
          "name": "_amountsIn",
          "type": "uint256[]"
        },
        {
          "internalType": "address[]",
          "name": "_beneficiaryArray",
          "type": "address[]"
        },
        {
          "internalType": "uint256",
          "name": "_slippage",
          "type": "uint256"
        },
        {
          "internalType": "string",
          "name": "_exchange",
          "type": "string"
        }
      ],
      "name": "sell",
      "outputs": [],
      "stateMutability": "nonpayable",
      "type": "function"
    },
    {
      "inputs": [
        {
          "internalType": "address",
          "name": "_marketMakerLibraryAddress",
          "type": "address"
        }
      ],
      "name": "setMarketMakerLibraryAddress",
      "outputs": [],
      "stateMutability": "nonpayable",
      "type": "function"
    },
    {
      "inputs": [
        {
          "internalType": "address[]",
          "name": "_beneficiaryArray",
          "type": "address[]"
        }
      ],
      "name": "setProjectOwner",
      "outputs": [],
      "stateMutability": "nonpayable",
      "type": "function"
    },
    {
      "inputs": [
        {
          "internalType": "uint256",
          "name": "_amount",
          "type": "uint256"
        }
      ],
      "name": "stake",
      "outputs": [],
      "stateMutability": "nonpayable",
      "type": "function"
    },
    {
      "inputs": [
        {
          "internalType": "uint256[]",
          "name": "_amounts",
          "type": "uint256[]"
        },
        {
          "internalType": "address[]",
          "name": "_beneficiaryArray",
          "type": "address[]"
        }
      ],
      "name": "stakeBatch",
      "outputs": [],
      "stateMutability": "nonpayable",
      "type": "function"
    },
    {
      "inputs": [
        {
          "internalType": "uint256",
          "name": "_amount",
          "type": "uint256"
        }
      ],
      "name": "stakePairedToken",
      "outputs": [],
      "stateMutability": "nonpayable",
      "type": "function"
    },
    {
      "inputs": [],
      "name": "stakePairedTokenInETH",
      "outputs": [],
      "stateMutability": "payable",
      "type": "function"
    },
    {
      "inputs": [
        {
          "internalType": "uint256[]",
          "name": "_amountsIn",
          "type": "uint256[]"
        },
        {
          "internalType": "address[]",
          "name": "_beneficiaryArray",
          "type": "address[]"
        },
        {
          "internalType": "address",
          "name": "_seller",
          "type": "address"
        },
        {
          "internalType": "string",
          "name": "_exchange",
          "type": "string"
        }
      ],
      "name": "swap",
      "outputs": [],
      "stateMutability": "nonpayable",
      "type": "function"
    },
    {
      "inputs": [],
      "name": "totalVested",
      "outputs": [
        {
          "internalType": "uint256",
          "name": "",
          "type": "uint256"
        }
      ],
      "stateMutability": "view",
      "type": "function"
    },
    {
      "inputs": [
        {
          "internalType": "address",
          "name": "newOwner",
          "type": "address"
        }
      ],
      "name": "transferOwnership",
      "outputs": [],
      "stateMutability": "nonpayable",
      "type": "function"
    },
    {
      "inputs": [],
      "name": "unpause",
      "outputs": [],
      "stateMutability": "nonpayable",
      "type": "function"
    },
    {
      "inputs": [
        {
          "internalType": "uint256",
          "name": "_amount",
          "type": "uint256"
        }
      ],
      "name": "withdrawBaseToken",
      "outputs": [],
      "stateMutability": "nonpayable",
      "type": "function"
    },
    {
      "inputs": [
        {
          "internalType": "uint256",
          "name": "_amount",
          "type": "uint256"
        }
      ],
      "name": "withdrawPairedToken",
      "outputs": [],
      "stateMutability": "nonpayable",
      "type": "function"
    },
    {
      "stateMutability": "payable",
      "type": "receive"
    }
  ],
  "bytecode": "0x6101606040523480156200001257600080fd5b5060405162004c0538038062004c05833981016040819052620000359162000375565b600080546001600160a01b03191633178082556040516001600160a01b0391909116919060008051602062004be5833981519152908290a3600180556002805460ff191690556001600160601b031960608a811b821660e081905260c05289811b82166101208190526101005286811b821660805287901b1660a05283151560f81b61014052600380546001600160a01b0383166001600160a01b0319909116179055620000e3826200013a565b620000ee8762000260565b600080546001600160a01b03168152600460205260409020600601805460ff60801b1916600160801b17905582156200012b576200012b620002d7565b50505050505050505062000545565b7fa8f5d6a26420dbca563af82edda993be302bfa0d82b1540ed55eac3326eb85f2600260019054906101000a90046001600160a01b031682604051620001829291906200047c565b60405180910390a1600354604051630b90f5dd60e41b81526001600160a01b039091169063b90f5dd090620001bc90849060040162000468565b60206040518083038186803b158015620001d557600080fd5b505afa158015620001ea573d6000803e3d6000fd5b505050506040513d601f19601f8201168201806040525081019062000210919062000444565b620002385760405162461bcd60e51b81526004016200022f90620004f5565b60405180910390fd5b600280546001600160a01b0390921661010002610100600160a81b0319909216919091179055565b6000546001600160a01b031633146200028d5760405162461bcd60e51b81526004016200022f90620004c0565b600080546040516001600160a01b038085169392169160008051602062004be583398151915291a3600080546001600160a01b0319166001600160a01b0392909216919091179055565b620002e162000352565b15620003015760405162461bcd60e51b81526004016200022f9062000496565b6002805460ff191660011790557f62e78cea01bee320cd4e420270b5ea74000d11b0c9f74754ebdbfc544b05a258620003396200035b565b60405162000348919062000468565b60405180910390a1565b60025460ff1690565b3390565b805180151581146200037057600080fd5b919050565b60008060008060008060008060006101208a8c03121562000394578485fd5b8951620003a1816200052c565b60208b0151909950620003b4816200052c565b60408b0151909850620003c7816200052c565b60608b0151909750620003da816200052c565b60808b0151909650620003ed816200052c565b9450620003fd60a08b016200035f565b93506200040d60c08b016200035f565b925060e08a01516200041f816200052c565b6101008b015190925062000433816200052c565b809150509295985092959850929598565b60006020828403121562000456578081fd5b62000461826200035f565b9392505050565b6001600160a01b0391909116815260200190565b6001600160a01b0392831681529116602082015260400190565b60208082526010908201526f14185d5cd8589b194e881c185d5cd95960821b604082015260600190565b6020808252818101527f4f776e61626c653a2063616c6c6572206973206e6f7420746865206f776e6572604082015260600190565b6020808252601e908201527f4d61726b65744d616b65724c696272617279206e6f7420616c6c6f7765640000604082015260600190565b6001600160a01b03811681146200054257600080fd5b50565b60805160601c60a05160601c60c05160601c60e05160601c6101005160601c6101205160601c6101405160f81c6145496200069c600039600081816116420152611b3e015260008181611e4e01528181611f65015261233101526000818161087201528181610aef015281816113d0015281816114af01528181611cb7015281816122450152818161261b01528181612675015281816128cb01526135a8015260008181610ce501528181610e360152818161184c01528181611b0301528181611c650152611e8701526000818161085101528181610b10015281816113f101526118bc01526000818161114b01528181611178015281816114dc015281816118e90152818161197b0152611e0001526000818161068601528181610942015281816111aa0152818161129b0152818161191b015281816124600152818161285a0152818161289801526129b601526145496000f3fe6080604052600436106101ee5760003560e01c80638456cb5911610113578063baf2a116116100ab578063e5bf6a7f1161006f578063e5bf6a7f146105aa578063f2fde38b146105ca578063f47c733f146105ea578063f6c788b21461060a578063f77c47911461062a576101f5565b8063baf2a11614610520578063cd446e2214610540578063d294f09314610555578063d82f19671461056a578063dd1fdb621461058a576101f5565b80638456cb59146104395780638da5cb5b1461044e5780639270704a146104635780639852595c14610483578063a694fc3a146104a3578063a92a8875146104c3578063ac678735146104d8578063afbd7ac1146104f8578063b2822c3114610518576101f5565b8063387439041161018657806338743904146103295780633f4ba83a1461033e57806347fd27f0146103535780635c975abb1461038d5780635d2cd2dc146103af5780636927810d146103cf57806372db12cb146103e457806374a8f103146104045780637cb374bd14610424576101f5565b806310098ad5146101fa5780631742541a14610230578063199cbc54146102525780631de53d94146102675780632f764a83146102895780632fd33ddb146102a95780633423ee60146102c957806337bdc99b146102e957806337e3a19e14610309576101f5565b366101f557005b600080fd5b34801561020657600080fd5b5061021a61021536600461382a565b61063f565b60405161022791906142ae565b60405180910390f35b34801561023c57600080fd5b50610245610661565b6040516102279190613c3a565b34801561025e57600080fd5b5061021a610675565b34801561027357600080fd5b50610287610282366004613a86565b61067b565b005b34801561029557600080fd5b506102876102a43660046139e7565b610937565b3480156102b557600080fd5b506102876102c4366004613ba7565b610c44565b3480156102d557600080fd5b506102876102e4366004613987565b610d54565b3480156102f557600080fd5b50610287610304366004613ba7565b610e67565b34801561031557600080fd5b5061021a61032436600461382a565b611057565b34801561033557600080fd5b50610245611149565b34801561034a57600080fd5b5061028761116d565b34801561035f57600080fd5b5061037361036e36600461382a565b6111f2565b6040516102279e9d9c9b9a999897969594939291906142c5565b34801561039957600080fd5b506103a2611287565b6040516102279190613d57565b3480156103bb57600080fd5b506102876103ca366004613a86565b611290565b3480156103db57600080fd5b506102456114ad565b3480156103f057600080fd5b506102876103ff366004613862565b6114d1565b34801561041057600080fd5b5061028761041f36600461382a565b611616565b34801561043057600080fd5b506102456118ba565b34801561044557600080fd5b506102876118de565b34801561045a57600080fd5b50610245611961565b34801561046f57600080fd5b5061028761047e366004613862565b611970565b34801561048f57600080fd5b5061021a61049e36600461382a565b611ab0565b3480156104af57600080fd5b506102876104be366004613ba7565b611ace565b3480156104cf57600080fd5b506103a2611b3c565b3480156104e457600080fd5b5061021a6104f336600461382a565b611b60565b34801561050457600080fd5b506102876105133660046138d0565b611b7e565b610287611c8d565b34801561052c57600080fd5b5061028761053b36600461382a565b611d88565b34801561054c57600080fd5b50610245611dbe565b34801561056157600080fd5b50610287611dcd565b34801561057657600080fd5b50610287610585366004613ba7565b611f30565b34801561059657600080fd5b5061021a6105a536600461382a565b611f96565b3480156105b657600080fd5b506102876105c5366004613ba7565b61208a565b3480156105d657600080fd5b506102876105e536600461382a565b612391565b3480156105f657600080fd5b5061021a61060536600461382a565b612416565b34801561061657600080fd5b5061021a61062536600461382a565b612431565b34801561063657600080fd5b5061024561245e565b6001600160a01b0381166000908152600460205260409020600101545b919050565b60025461010090046001600160a01b031681565b60055481565b336001600160a01b037f000000000000000000000000000000000000000000000000000000000000000016146106cc5760405162461bcd60e51b81526004016106c390613d95565b60405180910390fd5b600260015414156106ef5760405162461bcd60e51b81526004016106c390614277565b60026001556106fc611287565b156107195760405162461bcd60e51b81526004016106c390613fbc565b6000805b8551811015610849576107d686828151811061074957634e487b7160e01b600052603260045260246000fd5b60200260200101516107d189848151811061077457634e487b7160e01b600052603260045260246000fd5b6020026020010151600460008b87815181106107a057634e487b7160e01b600052603260045260246000fd5b60200260200101516001600160a01b03166001600160a01b0316815260200190815260200160002060010154612482565b612499565b8782815181106107f657634e487b7160e01b600052603260045260246000fd5b60200260200101818152505086818151811061082257634e487b7160e01b600052603260045260246000fd5b60200260200101518261083591906143ec565b915080610841816144a9565b91505061071d565b50600061089a7f00000000000000000000000000000000000000000000000000000000000000007f000000000000000000000000000000000000000000000000000000000000000084888888612617565b905060005b8651811015610929576109168782815181106108cb57634e487b7160e01b600052603260045260246000fd5b6020026020010151848a84815181106108f457634e487b7160e01b600052603260045260246000fd5b6020026020010151856109079190614443565b6109119190614423565b6126c6565b5080610921816144a9565b91505061089f565b505060018055505050505050565b336001600160a01b037f0000000000000000000000000000000000000000000000000000000000000000161461097f5760405162461bcd60e51b81526004016106c390613d95565b600260015414156109a25760405162461bcd60e51b81526004016106c390614277565b60026001556109af611287565b156109cc5760405162461bcd60e51b81526004016106c390613fbc565b6000805b8551811015610acc57610a598782815181106109fc57634e487b7160e01b600052603260045260246000fd5b602002602001015160046000898581518110610a2857634e487b7160e01b600052603260045260246000fd5b60200260200101516001600160a01b03166001600160a01b0316815260200190815260200160002060000154612482565b878281518110610a7957634e487b7160e01b600052603260045260246000fd5b602002602001018181525050868181518110610aa557634e487b7160e01b600052603260045260246000fd5b602002602001015182610ab891906143ec565b915080610ac4816144a9565b9150506109d0565b506000610ad985836126c6565b9050610ae681858561284c565b90506000610b377f00000000000000000000000000000000000000000000000000000000000000007f0000000000000000000000000000000000000000000000000000000000000000848888612a28565b6001600160a01b038716600090815260046020526040902060010154909150811115610b755760405162461bcd60e51b81526004016106c390613f20565b610b7f8682612499565b905060005b8751811015610c3557610c23888281518110610bb057634e487b7160e01b600052603260045260246000fd5b60200260200101518a8381518110610bd857634e487b7160e01b600052603260045260246000fd5b6020026020010151868c8581518110610c0157634e487b7160e01b600052603260045260246000fd5b602002602001015186610c149190614443565b610c1e9190614423565b612aea565b80610c2d816144a9565b915050610b84565b50506001805550505050505050565b60026001541415610c675760405162461bcd60e51b81526004016106c390614277565b6002600155610c74611287565b15610c915760405162461bcd60e51b81526004016106c390613fbc565b33600090815260046020526040902060010154811115610cb057600080fd5b3360009081526004602052604081206001018054839290610cd2908490614462565b90915550610d0c90506001600160a01b037f0000000000000000000000000000000000000000000000000000000000000000163383612c17565b336001600160a01b03167fb2475cc0963391d593f1a890df550d0c0551e1317e08cba0cdece5014f0555f682604051610d4591906142ae565b60405180910390a25060018055565b60026001541415610d775760405162461bcd60e51b81526004016106c390614277565b60026001556000805b8251811015610e2857838181518110610da957634e487b7160e01b600052603260045260246000fd5b602002602001015182610dbc91906143ec565b9150610e16838281518110610de157634e487b7160e01b600052603260045260246000fd5b6020026020010151858381518110610e0957634e487b7160e01b600052603260045260246000fd5b6020026020010151612d16565b80610e20816144a9565b915050610d80565b50610e5e6001600160a01b037f000000000000000000000000000000000000000000000000000000000000000016333084612d8d565b50506001805550565b60026001541415610e8a5760405162461bcd60e51b81526004016106c390614277565b6002600155610e97611287565b15610eb45760405162461bcd60e51b81526004016106c390613fbc565b3360009081526004602052604090206002810154610ed157600080fd5b604080516101c08101825282548152600183015460208201526002830154918101919091526003820154606082015260048201546001600160801b038082166080840152600160801b91829004811660a0840152600584015480821660c08501528290041660e0830152600683015463ffffffff808216610100850152600160201b82048116610120850152600160401b82048116610140850152600160601b82041661016084015260ff91810482161515610180840152600160881b90041615156101a0820152600090610fa590612e76565b905082811015610fc75760405162461bcd60e51b81526004016106c390613ec3565b82826003016000828254610fdb91906143ec565b925050819055508260056000828254610ff49190614462565b925050819055508282600101600082825461100f91906143ec565b909155505060405133907f94fd705dafc89ff1f03c1207631245602407f0e8ee47e1878a4e2ae954cd7674906110469086906142ae565b60405180910390a250506001805550565b6001600160a01b03811660009081526004602052604081205490670de0b6b3a7640000611082612f62565b6001600160a01b03858116600090815260046020819052604091829020600601549151631820cc6160e11b8152939092169263304198c2926110d2928992600160801b90910460ff169101613cfb565b60206040518083038186803b1580156110ea57600080fd5b505afa1580156110fe573d6000803e3d6000fd5b505050506040513d601f19601f820116820180604052508101906111229190613bbf565b61112c9084614443565b6111369190614423565b90506111428183614462565b9392505050565b7f000000000000000000000000000000000000000000000000000000000000000081565b336001600160a01b037f00000000000000000000000000000000000000000000000000000000000000001614806111cc5750336001600160a01b037f000000000000000000000000000000000000000000000000000000000000000016145b6111e85760405162461bcd60e51b81526004016106c390613fe6565b6111f0612fe4565b565b600460208190526000918252604090912080546001820154600283015460038401549484015460058501546006909501549395929491936001600160801b0380831693600160801b9384900482169381831693918190049092169163ffffffff80831692600160201b8104821692600160401b8204831692600160601b8304169160ff918104821691600160881b909104168e565b60025460ff1690565b336001600160a01b037f000000000000000000000000000000000000000000000000000000000000000016146112d85760405162461bcd60e51b81526004016106c390613d95565b600260015414156112fb5760405162461bcd60e51b81526004016106c390614277565b6002600155611308611287565b156113255760405162461bcd60e51b81526004016106c390613fbc565b6000805b85518110156113c8576113558782815181106109fc57634e487b7160e01b600052603260045260246000fd5b87828151811061137557634e487b7160e01b600052603260045260246000fd5b6020026020010181815250508681815181106113a157634e487b7160e01b600052603260045260246000fd5b6020026020010151826113b491906143ec565b9150806113c0816144a9565b915050611329565b5060006114197f00000000000000000000000000000000000000000000000000000000000000007f000000000000000000000000000000000000000000000000000000000000000084888888612617565b905060005b86518110156109295761149b87828151811061144a57634e487b7160e01b600052603260045260246000fd5b602002602001015189838151811061147257634e487b7160e01b600052603260045260246000fd5b6020026020010151858b8581518110610c0157634e487b7160e01b600052603260045260246000fd5b806114a5816144a9565b91505061141e565b7f000000000000000000000000000000000000000000000000000000000000000081565b336001600160a01b037f000000000000000000000000000000000000000000000000000000000000000016146115195760405162461bcd60e51b81526004016106c390614131565b60005b818110156116115760006004600085858581811061154a57634e487b7160e01b600052603260045260246000fd5b905060200201602081019061155f919061382a565b6001600160a01b0316815260208101919091526040016000206006018054911515600160801b0260ff60801b199092169190911790558282828181106115b557634e487b7160e01b600052603260045260246000fd5b90506020020160208101906115ca919061382a565b6001600160a01b03167fa3bfdef3d8149bacf15b7b64199fca8228c0fd4f8fcdd11cc7871829baf319c360405160405180910390a280611609816144a9565b91505061151c565b505050565b6000546001600160a01b031633146116405760405162461bcd60e51b81526004016106c39061403f565b7f000000000000000000000000000000000000000000000000000000000000000061167d5760405162461bcd60e51b81526004016106c3906140eb565b6001600160a01b03811660009081526004602052604090206006810154600160881b900460ff166116c05760405162461bcd60e51b81526004016106c390613f76565b806003015481600201546116d49190614462565b600560008282546116e59190614462565b9091555050604080516101c08101825282548152600183015460208201526002830154918101919091526003820154606082015260048201546001600160801b038082166080840152600160801b91829004811660a0840152600584015480821660c08501528290041660e0830152600683015463ffffffff808216610100850152600160201b82048116610120850152600160401b82048116610140850152600160601b82041661016084015260ff91810482161515610180840152600160881b90041615156101a08201526000906117be90612e76565b9050808260010160008282546117d491906143ec565b92505081905550826001600160a01b03167f94fd705dafc89ff1f03c1207631245602407f0e8ee47e1878a4e2ae954cd76748260405161181491906142ae565b60405180910390a2600081836003015461182e91906143ec565b836002015461183d9190614462565b90506118736001600160a01b037f0000000000000000000000000000000000000000000000000000000000000000163383612c17565b600060028401819055600384018190556040516001600160a01b038616917f68d870ac0aff3819234e8a1fc8f357b40d75212f2dc8594b97690fa205b3bab291a250505050565b7f000000000000000000000000000000000000000000000000000000000000000081565b336001600160a01b037f000000000000000000000000000000000000000000000000000000000000000016148061193d5750336001600160a01b037f000000000000000000000000000000000000000000000000000000000000000016145b6119595760405162461bcd60e51b81526004016106c390613fe6565b6111f0613052565b6000546001600160a01b031681565b336001600160a01b037f000000000000000000000000000000000000000000000000000000000000000016146119b85760405162461bcd60e51b81526004016106c390614131565b60005b81811015611611576001600460008585858181106119e957634e487b7160e01b600052603260045260246000fd5b90506020020160208101906119fe919061382a565b6001600160a01b0316815260208101919091526040016000206006018054911515600160801b0260ff60801b19909216919091179055828282818110611a5457634e487b7160e01b600052603260045260246000fd5b9050602002016020810190611a69919061382a565b6001600160a01b03167fb72139c440b4fd552bd1ef2077ce2ef7de385e96860222e8ad491235caf5af6660405160405180910390a280611aa8816144a9565b9150506119bb565b6001600160a01b031660009081526004602052604090206003015490565b60026001541415611af15760405162461bcd60e51b81526004016106c390614277565b6002600155611b2b6001600160a01b037f000000000000000000000000000000000000000000000000000000000000000016333084612d8d565b611b353382612d16565b5060018055565b7f000000000000000000000000000000000000000000000000000000000000000081565b6001600160a01b031660009081526004602052604090206002015490565b60026001541415611ba15760405162461bcd60e51b81526004016106c390614277565b60026001556000805b8851811015611c5757828181518110611bd357634e487b7160e01b600052603260045260246000fd5b602002602001015182611be691906143ec565b9150611c45898281518110611c0b57634e487b7160e01b600052603260045260246000fd5b60200260200101518989898989898881518110611c3857634e487b7160e01b600052603260045260246000fd5b60200260200101516130ad565b80611c4f816144a9565b915050611baa565b506109296001600160a01b037f000000000000000000000000000000000000000000000000000000000000000016333084612d8d565b60026001541415611cb05760405162461bcd60e51b81526004016106c390614277565b60026001557f00000000000000000000000000000000000000000000000000000000000000006001600160a01b031673bb4cdb9cbd36b01bd1cbaebf2de08d9173bc095c14611d115760405162461bcd60e51b81526004016106c39061420e565b73bb4cdb9cbd36b01bd1cbaebf2de08d9173bc095c6001600160a01b031663d0e30db0346040518263ffffffff1660e01b81526004016000604051808303818588803b158015611d6057600080fd5b505af1158015611d74573d6000803e3d6000fd5b5050505050611d823461334e565b60018055565b6000546001600160a01b03163314611db25760405162461bcd60e51b81526004016106c39061403f565b611dbb816133af565b50565b6003546001600160a01b031681565b60026001541415611df05760405162461bcd60e51b81526004016106c390614277565b6002600155336001600160a01b037f00000000000000000000000000000000000000000000000000000000000000001614611e3d5760405162461bcd60e51b81526004016106c390614131565b600954611e76906001600160a01b037f000000000000000000000000000000000000000000000000000000000000000016903390612c17565b600a54611eaf906001600160a01b037f000000000000000000000000000000000000000000000000000000000000000016903390612c17565b60095460076000828254611ec391906143ec565b9091555050600a5460088054600090611edd9084906143ec565b9091555050600a546009546040517fa1f87f32d0f17fab0242ca800d736293de8988c14b27747e218cf13d5c249f5392611f189290916142b7565b60405180910390a160006009819055600a5560018055565b60026001541415611f535760405162461bcd60e51b81526004016106c390614277565b6002600155611f8d6001600160a01b037f000000000000000000000000000000000000000000000000000000000000000016333084612d8d565b611b358161334e565b6001600160a01b038116600090815260046020818152604080842081516101c0810183528154815260018201549381019390935260028101549183019190915260038101546060830152918201546001600160801b038082166080840152600160801b91829004811660a0840152600584015480821660c08501528290041660e083015260069092015463ffffffff808216610100840152600160201b82048116610120840152600160401b82048116610140840152600160601b82041661016083015260ff92810483161515610180830152600160881b900490911615156101a082015261208490612e76565b92915050565b600260015414156120ad5760405162461bcd60e51b81526004016106c390614277565b60026001556120ba611287565b156120d75760405162461bcd60e51b81526004016106c390613fbc565b806120e133611057565b10156120ff5760405162461bcd60e51b81526004016106c390613e8c565b6000612109612f62565b33600081815260046020819052604091829020600601549151631820cc6160e11b81526001600160a01b03949094169363304198c293612157939092600160801b90910460ff169101613cfb565b60206040518083038186803b15801561216f57600080fd5b505afa158015612183573d6000803e3d6000fd5b505050506040513d601f19601f820116820180604052508101906121a79190613bbf565b905060006121bd82670de0b6b3a7640000614462565b6121c78385614443565b6121d19190614423565b336000908152600460205260409020549091506121fa9084906121f5908490614462565b612482565b925061220681846143ec565b3360009081526004602052604081208054909190612225908490614462565b92505081905550806009600082825461223e91906143ec565b90915550507f00000000000000000000000000000000000000000000000000000000000000006001600160a01b031673bb4cdb9cbd36b01bd1cbaebf2de08d9173bc095c141561232457604051632e1a7d4d60e01b815273bb4cdb9cbd36b01bd1cbaebf2de08d9173bc095c90632e1a7d4d906122bf9086906004016142ae565b600060405180830381600087803b1580156122d957600080fd5b505af11580156122ed573d6000803e3d6000fd5b505060405133925085156108fc02915085906000818181858888f1935050505015801561231e573d6000803e3d6000fd5b50612358565b6123586001600160a01b037f0000000000000000000000000000000000000000000000000000000000000000163385612c17565b336001600160a01b03167f5135ea2f98d3f162e3ddba39690cb01c8efe7e45ca7d4a15cf43be3d2981bc798460405161104691906142ae565b6000546001600160a01b031633146123bb5760405162461bcd60e51b81526004016106c39061403f565b600080546040516001600160a01b03808516939216917f8be0079c531659141344cd1fd0a4f28419497f9722a3daafe3b4186f6b6457e091a3600080546001600160a01b0319166001600160a01b0392909216919091179055565b6001600160a01b031660009081526004602052604090205490565b6001600160a01b038116600090815260046020526040812060038101546002909101546120849190614462565b7f000000000000000000000000000000000000000000000000000000000000000081565b6000818311156124925781611142565b5090919050565b6001600160a01b0382166000908152600460205260408120600101805483919083906124c6908490614462565b90915550506001600160a01b038316600090815260046020526040812060050180548492906124ff9084906001600160801b03166143c1565b92506101000a8154816001600160801b0302191690836001600160801b031602179055506000670de0b6b3a7640000612536612f62565b6001600160a01b03868116600090815260046020819052604091829020600601549151631907bfab60e01b81529390921692631907bfab92612586928a92600160801b90910460ff169101613cfb565b60206040518083038186803b15801561259e57600080fd5b505afa1580156125b2573d6000803e3d6000fd5b505050506040513d601f19601f820116820180604052508101906125d69190613bbf565b6125e09085614443565b6125ea9190614423565b90506125f68184614462565b925080600a600082825461260a91906143ec565b9091555092949350505050565b60007f00000000000000000000000000000000000000000000000000000000000000006001600160a01b0316876001600160a01b031614156126615761265e85848461284c565b94505b60006126718888888888886134c1565b90507f00000000000000000000000000000000000000000000000000000000000000006001600160a01b0316876001600160a01b031614156126bb576126b881858561284c565b90505b979650505050505050565b600080670de0b6b3a76400006126da612f62565b6001600160a01b0386811660009081526004602081905260409182902060060154915163d9906e7d60e01b8152939092169263d9906e7d9261272a928a92600160801b90910460ff169101613cfb565b60206040518083038186803b15801561274257600080fd5b505afa158015612756573d6000803e3d6000fd5b505050506040513d601f19601f8201168201806040525081019061277a9190613bbf565b6127849085614443565b61278e9190614423565b905061279a8184614462565b925080600960008282546127ae91906143ec565b90915550506001600160a01b038416600090815260046020526040812080548592906127db9084906143ec565b90915550506001600160a01b0384166000908152600460205260409020600501805484919060109061281e908490600160801b90046001600160801b03166143c1565b92506101000a8154816001600160801b0302191690836001600160801b031602179055508291505092915050565b60008067016345785d8a00007f00000000000000000000000000000000000000000000000000000000000000006001600160a01b0316311015612a155760006128c76001600160a01b037f0000000000000000000000000000000000000000000000000000000000000000163167016345785d8a0000614462565b90507f00000000000000000000000000000000000000000000000000000000000000006001600160a01b031673bb4cdb9cbd36b01bd1cbaebf2de08d9173bc095c1461291f57612918818686613586565b9150612923565b8091505b8186116129425760405162461bcd60e51b81526004016106c39061417b565b604051632e1a7d4d60e01b815273bb4cdb9cbd36b01bd1cbaebf2de08d9173bc095c90632e1a7d4d906129799084906004016142ae565b600060405180830381600087803b15801561299357600080fd5b505af11580156129a7573d6000803e3d6000fd5b50506040516001600160a01b037f000000000000000000000000000000000000000000000000000000000000000016925083156108fc02915083906000818181858888f19350505050158015612a01573d6000803e3d6000fd5b5081600654612a1091906143ec565b600655505b612a1f8186614462565b95945050505050565b6002546040516000918291829161010090046001600160a01b031690612a5a908a908a908a908a908a90602401613c8c565b60408051601f198184030181529181526020820180516001600160e01b031663206e6e2960e11b17905251612a8f9190613c1e565b600060405180830381855afa9150503d8060008114612aca576040519150601f19603f3d011682016040523d82523d6000602084013e612acf565b606091505b5091509150612ade8282613664565b98975050505050505050565b6001600160a01b03831660009081526004602052604081206001018054839290612b159084906143ec565b90915550506001600160a01b03831660009081526004602081905260408220018054839290612b4e9084906001600160801b03166143c1565b92506101000a8154816001600160801b0302191690836001600160801b031602179055508160046000856001600160a01b03166001600160a01b031681526020019081526020016000206000016000828254612baa9190614462565b90915550506001600160a01b0383166000908152600460208190526040909120018054839190601090612bee908490600160801b90046001600160801b03166143c1565b92506101000a8154816001600160801b0302191690836001600160801b03160217905550505050565b600080846001600160a01b031663a9059cbb60e01b8585604051602401612c3f929190613d16565b60408051601f198184030181529181526020820180516001600160e01b03166001600160e01b0319909416939093179092529051612c7d9190613c1e565b6000604051808303816000865af19150503d8060008114612cba576040519150601f19603f3d011682016040523d82523d6000602084013e612cbf565b606091505b5091509150818015612ce9575080511580612ce9575080806020019051810190612ce99190613afc565b612d0f57612cf68161369d565b60405162461bcd60e51b81526004016106c39190613d62565b5050505050565b6001600160a01b03821660009081526004602052604081206001018054839290612d419084906143ec565b92505081905550816001600160a01b03167f9e71bc8eea02a63969f509818f2dafb9254532904319f9dbda79b67bd34a5f3d82604051612d8191906142ae565b60405180910390a25050565b600080856001600160a01b03166323b872dd60e01b868686604051602401612db793929190613c68565b60408051601f198184030181529181526020820180516001600160e01b03166001600160e01b0319909416939093179092529051612df59190613c1e565b6000604051808303816000865af19150503d8060008114612e32576040519150601f19603f3d011682016040523d82523d6000602084013e612e37565b606091505b5091509150818015612e61575080511580612e61575080806020019051810190612e619190613afc565b612e6e57612cf68161369d565b505050505050565b610100810151600090429063ffffffff16811015612e9857600091505061065c565b826101400151836101200151612eae9190614404565b63ffffffff168110612ed65782606001518360400151612ece9190614462565b91505061065c565b600083610120015163ffffffff1682612eef9190614462565b61016085015190915063ffffffff166000612f0a8284614423565b90506000612f188383614443565b9050600087610140015163ffffffff16828960400151612f389190614443565b612f429190614423565b9050876060015181612f549190614462565b965061065c95505050505050565b600354604080516312209d2f60e31b815290516000926001600160a01b031691639104e978916004808301926020929190829003018186803b158015612fa757600080fd5b505afa158015612fbb573d6000803e3d6000fd5b505050506040513d601f19601f82011682018060405250810190612fdf9190613846565b905090565b612fec611287565b6130085760405162461bcd60e51b81526004016106c390613de1565b6002805460ff191690557f5db9ee0a495bf2e6ff9c91a7834c1ba4fdd244a5e8aa4e537bd38aeae4b073aa61303b6136fd565b6040516130489190613c3a565b60405180910390a1565b61305a611287565b156130775760405162461bcd60e51b81526004016106c390613fbc565b6002805460ff191660011790557f62e78cea01bee320cd4e420270b5ea74000d11b0c9f74754ebdbfc544b05a25861303b6136fd565b60008463ffffffff16116130d35760405162461bcd60e51b81526004016106c3906140a9565b600081116130f35760405162461bcd60e51b81526004016106c390614074565b60018363ffffffff16101561311a5760405162461bcd60e51b81526004016106c390613e3f565b6001600160a01b038716600090815260046020526040902060020154156131535760405162461bcd60e51b81526004016106c3906141c1565b600061315f8688614404565b905080600460008a6001600160a01b03166001600160a01b0316815260200190815260200160002060060160006101000a81548163ffffffff021916908363ffffffff16021790555086600460008a6001600160a01b03166001600160a01b0316815260200190815260200160002060060160046101000a81548163ffffffff021916908363ffffffff16021790555084600460008a6001600160a01b03166001600160a01b0316815260200190815260200160002060060160086101000a81548163ffffffff021916908363ffffffff16021790555083600460008a6001600160a01b03166001600160a01b03168152602001908152602001600020600601600c6101000a81548163ffffffff021916908363ffffffff16021790555082600460008a6001600160a01b03166001600160a01b0316815260200190815260200160002060060160116101000a81548160ff02191690831515021790555081600460008a6001600160a01b03166001600160a01b031681526020019081526020016000206002018190555081600560008282546132fc91906143ec565b92505081905550876001600160a01b03167f82a09c12487d9950c96682e398533045828bd33d830b54dddd5684ac79bf27bd8360405161333c91906142ae565b60405180910390a25050505050505050565b336000908152600460205260408120805483929061336d9084906143ec565b909155505060405133907f8109037fc5b3b3f0368806e9cd981c30daa1a3d0c26be8307576c4f5f2125d5e906133a49084906142ae565b60405180910390a250565b7fa8f5d6a26420dbca563af82edda993be302bfa0d82b1540ed55eac3326eb85f2600260019054906101000a90046001600160a01b0316826040516133f5929190613c4e565b60405180910390a1600354604051630b90f5dd60e41b81526001600160a01b039091169063b90f5dd09061342d908490600401613c3a565b60206040518083038186803b15801561344557600080fd5b505afa158015613459573d6000803e3d6000fd5b505050506040513d601f19601f8201168201806040525081019061347d9190613afc565b6134995760405162461bcd60e51b81526004016106c390614240565b600280546001600160a01b0390921661010002610100600160a81b0319909216919091179055565b6002546040516000918291829161010090046001600160a01b0316906134f5908b908b908b908b908b908b90602401613cc0565b60408051601f198184030181529181526020820180516001600160e01b0316632d607d0b60e21b1790525161352a9190613c1e565b600060405180830381855af49150503d8060008114613565576040519150601f19603f3d011682016040523d82523d6000602084013e61356a565b606091505b50915091506135798282613664565b9998505050505050505050565b6002546040516000918291829161010090046001600160a01b0316906135d6907f000000000000000000000000000000000000000000000000000000000000000090899089908990602401613d2f565b60408051601f198184030181529181526020820180516001600160e01b031663fc7d1c8d60e01b1790525161360b9190613c1e565b600060405180830381855af49150503d8060008114613646576040519150601f19603f3d011682016040523d82523d6000602084013e61364b565b606091505b509150915061365a8282613664565b9695505050505050565b6000826136935781511561367b5781518083602001fd5b60405162461bcd60e51b81526004016106c390613e0f565b5060200151919050565b60606044825110156136e3575060408051808201909152601d81527f5472616e73616374696f6e2072657665727465642073696c656e746c79000000602082015261065c565b600482019150818060200190518101906120849190613b18565b3390565b600082601f830112613711578081fd5b813560206137266137218361439e565b614375565b8281528181019085830183850287018401881015613742578586fd5b855b85811015613769578135613757816144f0565b84529284019290840190600101613744565b5090979650505050505050565b600082601f830112613786578081fd5b813560206137966137218361439e565b82815281810190858301838502870184018810156137b2578586fd5b855b85811015613769578135845292840192908401906001016137b4565b60008083601f8401126137e1578182fd5b5081356001600160401b038111156137f7578182fd5b60208301915083602082850101111561380f57600080fd5b9250929050565b803563ffffffff8116811461065c57600080fd5b60006020828403121561383b578081fd5b8135611142816144f0565b600060208284031215613857578081fd5b8151611142816144f0565b60008060208385031215613874578081fd5b82356001600160401b038082111561388a578283fd5b818501915085601f83011261389d578283fd5b8135818111156138ab578384fd5b86602080830285010111156138be578384fd5b60209290920196919550909350505050565b600080600080600080600060e0888a0312156138ea578283fd5b87356001600160401b0380821115613900578485fd5b61390c8b838c01613701565b985061391a60208b01613816565b975061392860408b01613816565b965061393660608b01613816565b955061394460808b01613816565b945060a08a0135915061395682614505565b90925060c0890135908082111561396b578283fd5b506139788a828b01613776565b91505092959891949750929550565b60008060408385031215613999578182fd5b82356001600160401b03808211156139af578384fd5b6139bb86838701613776565b935060208501359150808211156139d0578283fd5b506139dd85828601613701565b9150509250929050565b6000806000806000608086880312156139fe578081fd5b85356001600160401b0380821115613a14578283fd5b613a2089838a01613776565b96506020880135915080821115613a35578283fd5b613a4189838a01613701565b955060408801359150613a53826144f0565b90935060608701359080821115613a68578283fd5b50613a75888289016137d0565b969995985093965092949392505050565b600080600080600060808688031215613a9d578081fd5b85356001600160401b0380821115613ab3578283fd5b613abf89838a01613776565b96506020880135915080821115613ad4578283fd5b613ae089838a01613701565b9550604088013594506060880135915080821115613a68578283fd5b600060208284031215613b0d578081fd5b815161114281614505565b600060208284031215613b29578081fd5b81516001600160401b0380821115613b3f578283fd5b818401915084601f830112613b52578283fd5b815181811115613b6457613b646144da565b613b77601f8201601f1916602001614375565b9150808252856020828501011115613b8d578384fd5b613b9e816020840160208601614479565b50949350505050565b600060208284031215613bb8578081fd5b5035919050565b600060208284031215613bd0578081fd5b5051919050565b15159052565b60008284528282602086013780602084860101526020601f19601f85011685010190509392505050565b6001600160801b03169052565b63ffffffff169052565b60008251613c30818460208701614479565b9190910192915050565b6001600160a01b0391909116815260200190565b6001600160a01b0392831681529116602082015260400190565b6001600160a01b039384168152919092166020820152604081019190915260600190565b6001600160a01b03868116825285166020820152604081018490526080606082018190526000906126bb9083018486613bdd565b6001600160a01b03878116825286166020820152604081018590526060810184905260a060808201819052600090612ade9083018486613bdd565b6001600160a01b039290921682521515602082015260400190565b6001600160a01b03929092168252602082015260400190565b600060018060a01b03861682528460208301526060604083015261365a606083018486613bdd565b901515815260200190565b6000602082528251806020840152613d81816040850160208701614479565b601f01601f19169190910160400192915050565b6020808252602c908201527f6f6e6c79436f6e74726f6c6c65723a2063616c6c6572206973206e6f7420746860408201526b329031b7b73a3937b63632b960a11b606082015260800190565b60208082526014908201527314185d5cd8589b194e881b9bdd081c185d5cd95960621b604082015260600190565b60208082526016908201527511195b1959d85d194818d85b1b081c995d995c9d195960521b604082015260600190565b6020808252602d908201527f546f6b656e56657374696e673a20736c696365506572696f645365636f6e647360408201526c206d757374206265203e3d203160981b606082015260800190565b6020808252601d908201527f4e6f7420656e6f75676820746f6b656e7320746f207769746864726177000000604082015260600190565b6020808252603d908201527f546f6b656e56657374696e673a2063616e6e6f742072656c6561736520746f6b60408201527f656e732c206e6f7420656e6f7567682076657374656420746f6b656e73000000606082015260800190565b60208082526036908201527f53656c6c657220646f6573206e6f74206861766520656e6f75676820746f6b656040820152751b9cc81d1bc81cd95b1b081d1a1a5cc8185b5bdd5b9d60521b606082015260800190565b60208082526026908201527f546f6b656e56657374696e673a2076657374696e67206973206e6f74207265766040820152656f6361626c6560d01b606082015260800190565b60208082526010908201526f14185d5cd8589b194e881c185d5cd95960821b604082015260600190565b60208082526039908201527f6f6e6c794d6f64657261746f723a2063616c6c6572206973206e6f74207468656040820152781031b7b73a3937b63632b9103737b91036b7b232b930ba37b960391b606082015260800190565b6020808252818101527f4f776e61626c653a2063616c6c6572206973206e6f7420746865206f776e6572604082015260600190565b6020808252818101527f546f6b656e56657374696e673a20616d6f756e74206d757374206265203e2030604082015260600190565b60208082526022908201527f546f6b656e56657374696e673a206475726174696f6e206d757374206265203e604082015261020360f41b606082015260800190565b60208082526026908201527f5468697320636f6e747261637420646f6573206e6f7420616c6c6f7720746f206040820152657265766f6b6560d01b606082015260800190565b6020808252602a908201527f6f6e6c794d6f64657261746f723a2063616c6c6572206973206e6f74207468656040820152691036b7b232b930ba37b960b11b606082015260800190565b60208082526026908201527f5472616e73616374696f6e20636f737473206d6f7265207468616e20676173206040820152651b995959195960d21b606082015260800190565b6020808252602d908201527f546f6b656e56657374696e673a2056657374696e67207363686564756c65206160408201526c6c72656164792065786973747360981b606082015260800190565b6020808252601890820152770a0c2d2e4cac840e8ded6cadc40d2e640dcdee840ae8aa8960431b604082015260600190565b6020808252601e908201527f4d61726b65744d616b65724c696272617279206e6f7420616c6c6f7765640000604082015260600190565b6020808252601f908201527f5265656e7472616e637947756172643a207265656e7472616e742063616c6c00604082015260600190565b90815260200190565b918252602082015260400190565b8e8152602081018e9052604081018d9052606081018c90526001600160801b038b811660808301528a811660a0830152891660c08201526101c0810161430e60e083018a613c07565b61431c610100830189613c14565b61432a610120830188613c14565b614338610140830187613c14565b614346610160830186613c14565b614354610180830185613bd7565b6143626101a0830184613bd7565b9f9e505050505050505050505050505050565b6040518181016001600160401b0381118282101715614396576143966144da565b604052919050565b60006001600160401b038211156143b7576143b76144da565b5060209081020190565b60006001600160801b038281168482168083038211156143e3576143e36144c4565b01949350505050565b600082198211156143ff576143ff6144c4565b500190565b600063ffffffff8083168185168083038211156143e3576143e36144c4565b60008261443e57634e487b7160e01b81526012600452602481fd5b500490565b600081600019048311821515161561445d5761445d6144c4565b500290565b600082821015614474576144746144c4565b500390565b60005b8381101561449457818101518382015260200161447c565b838111156144a3576000848401525b50505050565b60006000198214156144bd576144bd6144c4565b5060010190565b634e487b7160e01b600052601160045260246000fd5b634e487b7160e01b600052604160045260246000fd5b6001600160a01b0381168114611dbb57600080fd5b8015158114611dbb57600080fdfea26469706673582212202179c3d9267db3fc0cd2eec67b07e2cc1586d6fcee90f3af8bf67f3d193026a364736f6c634300080000338be0079c531659141344cd1fd0a4f28419497f9722a3daafe3b4186f6b6457e0",
  "linkReferences": {},
  "deployedLinkReferences": {}
}