{
  "_format": "hh-sol-artifact-1",
  "contractName": "MarketMaker",
  "sourceName": "contracts/MarketMaker.sol",
  "abi": [
    {
      "inputs": [
        {
          "internalType": "address",
          "name": "_baseToken",
          "type": "address"
        },
        {
          "internalType": "address",
          "name": "_pairedToken",
          "type": "address"
        },
        {
          "internalType": "address",
          "name": "_owner",
          "type": "address"
        },
        {
          "internalType": "address",
          "name": "_moderator",
          "type": "address"
        },
        {
          "internalType": "address payable",
          "name": "_controller",
          "type": "address"
        },
        {
          "internalType": "bool",
          "name": "_revocableContract",
          "type": "bool"
        },
        {
          "internalType": "bool",
          "name": "_paused",
          "type": "bool"
        },
        {
          "internalType": "address",
          "name": "_marketMakerLibraryAddress",
          "type": "address"
        },
        {
          "internalType": "address",
          "name": "_masterContractAddress",
          "type": "address"
        }
      ],
      "stateMutability": "nonpayable",
      "type": "constructor"
    },
    {
      "anonymous": false,
      "inputs": [
        {
          "indexed": true,
          "internalType": "address",
          "name": "_user",
          "type": "address"
        },
        {
          "indexed": false,
          "internalType": "uint256",
          "name": "_amount",
          "type": "uint256"
        }
      ],
      "name": "AmountReleased",
      "type": "event"
    },
    {
      "anonymous": false,
      "inputs": [
        {
          "indexed": false,
          "internalType": "address",
          "name": "_OldmarketMakerLibraryAddress",
          "type": "address"
        },
        {
          "indexed": false,
          "internalType": "address",
          "name": "_NewmarketMakerLibraryAddress",
          "type": "address"
        }
      ],
      "name": "ChangeMarketMakerLibraryAddress",
      "type": "event"
    },
    {
      "anonymous": false,
      "inputs": [
        {
          "indexed": true,
          "internalType": "address",
          "name": "_beneficiary",
          "type": "address"
        },
        {
          "indexed": false,
          "internalType": "uint256",
          "name": "_amount",
          "type": "uint256"
        }
      ],
      "name": "CreatedVestingSchedule",
      "type": "event"
    },
    {
      "anonymous": false,
      "inputs": [
        {
          "indexed": false,
          "internalType": "uint256",
          "name": "claimedBaseFee",
          "type": "uint256"
        },
        {
          "indexed": false,
          "internalType": "uint256",
          "name": "claimedPairedFee",
          "type": "uint256"
        }
      ],
      "name": "FeesClaimed",
      "type": "event"
    },
    {
      "anonymous": false,
      "inputs": [
        {
          "indexed": true,
          "internalType": "address",
          "name": "previousOwner",
          "type": "address"
        },
        {
          "indexed": true,
          "internalType": "address",
          "name": "newOwner",
          "type": "address"
        }
      ],
      "name": "OwnershipTransferred",
      "type": "event"
    },
    {
      "anonymous": false,
      "inputs": [
        {
          "indexed": false,
          "internalType": "address",
          "name": "account",
          "type": "address"
        }
      ],
      "name": "Paused",
      "type": "event"
    },
    {
      "anonymous": false,
      "inputs": [
        {
          "indexed": true,
          "internalType": "address",
          "name": "_user",
          "type": "address"
        }
      ],
      "name": "ProjectOwnerRemoved",
      "type": "event"
    },
    {
      "anonymous": false,
      "inputs": [
        {
          "indexed": true,
          "internalType": "address",
          "name": "_user",
          "type": "address"
        }
      ],
      "name": "ProjectOwnerSet",
      "type": "event"
    },
    {
      "anonymous": false,
      "inputs": [
        {
          "indexed": false,
          "internalType": "bool",
          "name": "_allowReleasing",
          "type": "bool"
        }
      ],
      "name": "SetAllowReleasing",
      "type": "event"
    },
    {
      "anonymous": false,
      "inputs": [
        {
          "indexed": false,
          "internalType": "bool",
          "name": "_allowSelling",
          "type": "bool"
        }
      ],
      "name": "SetAllowSelling",
      "type": "event"
    },
    {
      "anonymous": false,
      "inputs": [
        {
          "indexed": false,
          "internalType": "uint8",
          "name": "_ratio",
          "type": "uint8"
        }
      ],
      "name": "SetMaxBaseStakingRatio",
      "type": "event"
    },
    {
      "anonymous": false,
      "inputs": [
        {
          "indexed": false,
          "internalType": "uint8",
          "name": "_ratio",
          "type": "uint8"
        }
      ],
      "name": "SetMaxPairedStakingRatio",
      "type": "event"
    },
    {
      "anonymous": false,
      "inputs": [
        {
          "indexed": true,
          "internalType": "address",
          "name": "_user",
          "type": "address"
        },
        {
          "indexed": false,
          "internalType": "uint256",
          "name": "_amount",
          "type": "uint256"
        }
      ],
      "name": "Staked",
      "type": "event"
    },
    {
      "anonymous": false,
      "inputs": [
        {
          "indexed": true,
          "internalType": "address",
          "name": "_user",
          "type": "address"
        },
        {
          "indexed": false,
          "internalType": "uint256",
          "name": "_amount",
          "type": "uint256"
        }
      ],
      "name": "StakedInPairedToken",
      "type": "event"
    },
    {
      "anonymous": false,
      "inputs": [
        {
          "indexed": false,
          "internalType": "address",
          "name": "account",
          "type": "address"
        }
      ],
      "name": "Unpaused",
      "type": "event"
    },
    {
      "anonymous": false,
      "inputs": [
        {
          "indexed": true,
          "internalType": "address",
          "name": "_user",
          "type": "address"
        },
        {
          "indexed": false,
          "internalType": "uint256",
          "name": "_amount",
          "type": "uint256"
        }
      ],
      "name": "VestingRevoked",
      "type": "event"
    },
    {
      "anonymous": false,
      "inputs": [
        {
          "indexed": true,
          "internalType": "address",
          "name": "_user",
          "type": "address"
        },
        {
          "indexed": false,
          "internalType": "uint256",
          "name": "_amount",
          "type": "uint256"
        }
      ],
      "name": "WithdrawnBaseToken",
      "type": "event"
    },
    {
      "anonymous": false,
      "inputs": [
        {
          "indexed": true,
          "internalType": "address",
          "name": "_user",
          "type": "address"
        },
        {
          "indexed": false,
          "internalType": "uint256",
          "name": "_amount",
          "type": "uint256"
        }
      ],
      "name": "WithdrawnPairedToken",
      "type": "event"
    },
    {
      "inputs": [
        {
          "internalType": "address",
          "name": "_beneficiary",
          "type": "address"
        }
      ],
      "name": "amountLocked",
      "outputs": [
        {
          "internalType": "uint256",
          "name": "",
          "type": "uint256"
        }
      ],
      "stateMutability": "view",
      "type": "function"
    },
    {
      "inputs": [],
      "name": "baseTokenAddress",
      "outputs": [
        {
          "internalType": "address",
          "name": "",
          "type": "address"
        }
      ],
      "stateMutability": "view",
      "type": "function"
    },
    {
      "inputs": [
        {
          "internalType": "uint256[]",
          "name": "_amountsIn",
          "type": "uint256[]"
        },
        {
          "internalType": "address[]",
          "name": "_beneficiaryArray",
          "type": "address[]"
        },
        {
          "internalType": "uint256",
          "name": "_slippage",
          "type": "uint256"
        },
        {
          "internalType": "string",
          "name": "_exchange",
          "type": "string"
        }
      ],
      "name": "buy",
      "outputs": [],
      "stateMutability": "nonpayable",
      "type": "function"
    },
    {
      "inputs": [],
      "name": "claimFees",
      "outputs": [],
      "stateMutability": "nonpayable",
      "type": "function"
    },
    {
      "inputs": [
        {
          "internalType": "address",
          "name": "_beneficiary",
          "type": "address"
        }
      ],
      "name": "computeReleasableAmount",
      "outputs": [
        {
          "internalType": "uint256",
          "name": "",
          "type": "uint256"
        }
      ],
      "stateMutability": "view",
      "type": "function"
    },
    {
      "inputs": [],
      "name": "controller",
      "outputs": [
        {
          "internalType": "address payable",
          "name": "",
          "type": "address"
        }
      ],
      "stateMutability": "view",
      "type": "function"
    },
    {
      "inputs": [
        {
          "internalType": "address[]",
          "name": "_beneficiaryArray",
          "type": "address[]"
        },
        {
          "internalType": "uint32",
          "name": "_start",
          "type": "uint32"
        },
        {
          "internalType": "uint32",
          "name": "_cliff",
          "type": "uint32"
        },
        {
          "internalType": "uint32",
          "name": "_duration",
          "type": "uint32"
        },
        {
          "internalType": "uint32",
          "name": "_slicePeriodSeconds",
          "type": "uint32"
        },
        {
          "internalType": "bool",
          "name": "_revocable",
          "type": "bool"
        },
        {
          "internalType": "uint256[]",
          "name": "_amounts",
          "type": "uint256[]"
        }
      ],
      "name": "createVestingSchedule",
      "outputs": [],
      "stateMutability": "nonpayable",
      "type": "function"
    },
    {
      "inputs": [
        {
          "internalType": "address",
          "name": "_beneficiary",
          "type": "address"
        }
      ],
      "name": "getWithdrawablePairedTokens",
      "outputs": [
        {
          "internalType": "uint256",
          "name": "total",
          "type": "uint256"
        }
      ],
      "stateMutability": "view",
      "type": "function"
    },
    {
      "inputs": [
        {
          "internalType": "address",
          "name": "",
          "type": "address"
        }
      ],
      "name": "holdersMapping",
      "outputs": [
        {
          "internalType": "uint256",
          "name": "balanceInPairedToken",
          "type": "uint256"
        },
        {
          "internalType": "uint256",
          "name": "available",
          "type": "uint256"
        },
        {
          "internalType": "uint256",
          "name": "stakedInBaseToken",
          "type": "uint256"
        },
        {
          "internalType": "uint256",
          "name": "stakedInPairedToken",
          "type": "uint256"
        },
        {
          "internalType": "uint120",
          "name": "baseAmountBought",
          "type": "uint120"
        },
        {
          "internalType": "uint120",
          "name": "pairedAmountBought",
          "type": "uint120"
        },
        {
          "internalType": "bool",
          "name": "allowSelling",
          "type": "bool"
        },
        {
          "internalType": "bool",
          "name": "projectOwner",
          "type": "bool"
        },
        {
          "internalType": "uint120",
          "name": "baseAmountSold",
          "type": "uint120"
        },
        {
          "internalType": "uint120",
          "name": "pairedAmountSold",
          "type": "uint120"
        },
        {
          "internalType": "uint8",
          "name": "maxBaseStakingRatio",
          "type": "uint8"
        },
        {
          "internalType": "uint8",
          "name": "maxPairedStakingRatio",
          "type": "uint8"
        }
      ],
      "stateMutability": "view",
      "type": "function"
    },
    {
      "inputs": [
        {
          "internalType": "address",
          "name": "",
          "type": "address"
        }
      ],
      "name": "holdersVestingMapping",
      "outputs": [
        {
          "internalType": "uint256",
          "name": "amountVested",
          "type": "uint256"
        },
        {
          "internalType": "uint256",
          "name": "released",
          "type": "uint256"
        },
        {
          "internalType": "uint32",
          "name": "cliff",
          "type": "uint32"
        },
        {
          "internalType": "uint32",
          "name": "start",
          "type": "uint32"
        },
        {
          "internalType": "uint32",
          "name": "duration",
          "type": "uint32"
        },
        {
          "internalType": "uint32",
          "name": "slicePeriodSeconds",
          "type": "uint32"
        },
        {
          "internalType": "bool",
          "name": "revocable",
          "type": "bool"
        },
        {
          "internalType": "bool",
          "name": "allowReleasing",
          "type": "bool"
        }
      ],
      "stateMutability": "view",
      "type": "function"
    },
    {
      "inputs": [],
      "name": "liquidityMaker",
      "outputs": [
        {
          "internalType": "contract ILiquidityMaker",
          "name": "",
          "type": "address"
        }
      ],
      "stateMutability": "view",
      "type": "function"
    },
    {
      "inputs": [],
      "name": "marketMakerLibraryAddress",
      "outputs": [
        {
          "internalType": "address",
          "name": "",
          "type": "address"
        }
      ],
      "stateMutability": "view",
      "type": "function"
    },
    {
      "inputs": [],
      "name": "masterContract",
      "outputs": [
        {
          "internalType": "contract IMasterContract",
          "name": "",
          "type": "address"
        }
      ],
      "stateMutability": "view",
      "type": "function"
    },
    {
      "inputs": [],
      "name": "moderator",
      "outputs": [
        {
          "internalType": "address",
          "name": "",
          "type": "address"
        }
      ],
      "stateMutability": "view",
      "type": "function"
    },
    {
      "inputs": [],
      "name": "owner",
      "outputs": [
        {
          "internalType": "address",
          "name": "",
          "type": "address"
        }
      ],
      "stateMutability": "view",
      "type": "function"
    },
    {
      "inputs": [],
      "name": "pairedTokenAddress",
      "outputs": [
        {
          "internalType": "address",
          "name": "",
          "type": "address"
        }
      ],
      "stateMutability": "view",
      "type": "function"
    },
    {
      "inputs": [],
      "name": "pause",
      "outputs": [],
      "stateMutability": "nonpayable",
      "type": "function"
    },
    {
      "inputs": [],
      "name": "paused",
      "outputs": [
        {
          "internalType": "bool",
          "name": "",
          "type": "bool"
        }
      ],
      "stateMutability": "view",
      "type": "function"
    },
    {
      "inputs": [],
      "name": "release",
      "outputs": [],
      "stateMutability": "nonpayable",
      "type": "function"
    },
    {
      "inputs": [
        {
          "internalType": "address[]",
          "name": "_beneficiaryArray",
          "type": "address[]"
        }
      ],
      "name": "releaseFor",
      "outputs": [],
      "stateMutability": "nonpayable",
      "type": "function"
    },
    {
      "inputs": [
        {
          "internalType": "address[]",
          "name": "_beneficiaryArray",
          "type": "address[]"
        }
      ],
      "name": "removeProjectOwner",
      "outputs": [],
      "stateMutability": "nonpayable",
      "type": "function"
    },
    {
      "inputs": [],
      "name": "renounceOwnership",
      "outputs": [],
      "stateMutability": "nonpayable",
      "type": "function"
    },
    {
      "inputs": [],
      "name": "revocableContract",
      "outputs": [
        {
          "internalType": "bool",
          "name": "",
          "type": "bool"
        }
      ],
      "stateMutability": "view",
      "type": "function"
    },
    {
      "inputs": [
        {
          "internalType": "address",
          "name": "_beneficiary",
          "type": "address"
        }
      ],
      "name": "revoke",
      "outputs": [],
      "stateMutability": "nonpayable",
      "type": "function"
    },
    {
      "inputs": [
        {
          "internalType": "uint256[]",
          "name": "_amountsIn",
          "type": "uint256[]"
        },
        {
          "internalType": "address[]",
          "name": "_beneficiaryArray",
          "type": "address[]"
        },
        {
          "internalType": "uint256",
          "name": "_slippage",
          "type": "uint256"
        },
        {
          "internalType": "string",
          "name": "_exchange",
          "type": "string"
        }
      ],
      "name": "sell",
      "outputs": [],
      "stateMutability": "nonpayable",
      "type": "function"
    },
    {
      "inputs": [
        {
          "internalType": "bool",
          "name": "_allowReleasing",
          "type": "bool"
        }
      ],
      "name": "setAllowReleasing",
      "outputs": [],
      "stateMutability": "nonpayable",
      "type": "function"
    },
    {
      "inputs": [
        {
          "internalType": "bool",
          "name": "_allowSelling",
          "type": "bool"
        }
      ],
      "name": "setAllowSelling",
      "outputs": [],
      "stateMutability": "nonpayable",
      "type": "function"
    },
    {
      "inputs": [
        {
          "internalType": "address",
          "name": "liquidityMakerAddress",
          "type": "address"
        }
      ],
      "name": "setLiquidityMaker",
      "outputs": [],
      "stateMutability": "nonpayable",
      "type": "function"
    },
    {
      "inputs": [
        {
          "internalType": "address",
          "name": "_marketMakerLibraryAddress",
          "type": "address"
        }
      ],
      "name": "setMarketMakerLibraryAddress",
      "outputs": [],
      "stateMutability": "nonpayable",
      "type": "function"
    },
    {
      "inputs": [
        {
          "internalType": "uint8",
          "name": "ratio",
          "type": "uint8"
        }
      ],
      "name": "setMaxBaseStakingRatio",
      "outputs": [],
      "stateMutability": "nonpayable",
      "type": "function"
    },
    {
      "inputs": [
        {
          "internalType": "uint8",
          "name": "ratio",
          "type": "uint8"
        }
      ],
      "name": "setMaxPairedStakingRatio",
      "outputs": [],
      "stateMutability": "nonpayable",
      "type": "function"
    },
    {
      "inputs": [
        {
          "internalType": "address[]",
          "name": "_beneficiaryArray",
          "type": "address[]"
        }
      ],
      "name": "setProjectOwner",
      "outputs": [],
      "stateMutability": "nonpayable",
      "type": "function"
    },
    {
      "inputs": [
        {
          "internalType": "uint256",
          "name": "_amount",
          "type": "uint256"
        },
        {
          "internalType": "uint8",
          "name": "_maxBaseStakingRatio",
          "type": "uint8"
        }
      ],
      "name": "stake",
      "outputs": [],
      "stateMutability": "nonpayable",
      "type": "function"
    },
    {
      "inputs": [
        {
          "internalType": "uint256[]",
          "name": "_amounts",
          "type": "uint256[]"
        },
        {
          "internalType": "address[]",
          "name": "_beneficiaryArray",
          "type": "address[]"
        }
      ],
      "name": "stakeBatch",
      "outputs": [],
      "stateMutability": "nonpayable",
      "type": "function"
    },
    {
      "inputs": [
        {
          "internalType": "uint256[]",
          "name": "_amountsBaseTokenIn",
          "type": "uint256[]"
        },
        {
          "internalType": "address[]",
          "name": "_beneficiaryBaseArray",
          "type": "address[]"
        },
        {
          "internalType": "uint256[]",
          "name": "_amountsPairedTokenIn",
          "type": "uint256[]"
        },
        {
          "internalType": "address[]",
          "name": "_beneficiaryPairedArray",
          "type": "address[]"
        },
        {
          "internalType": "uint256",
          "name": "_slippage",
          "type": "uint256"
        },
        {
          "internalType": "string",
          "name": "_exchange",
          "type": "string"
        }
      ],
      "name": "stakeBatchInLP",
      "outputs": [],
      "stateMutability": "nonpayable",
      "type": "function"
    },
    {
      "inputs": [
        {
          "internalType": "uint256",
          "name": "_amount",
          "type": "uint256"
        },
        {
          "internalType": "uint8",
          "name": "_maxPairedStakingRatio",
          "type": "uint8"
        }
      ],
      "name": "stakePairedToken",
      "outputs": [],
      "stateMutability": "nonpayable",
      "type": "function"
    },
    {
      "inputs": [
        {
          "internalType": "uint8",
          "name": "_maxPairedStakingRatio",
          "type": "uint8"
        }
      ],
      "name": "stakePairedTokenInETH",
      "outputs": [],
      "stateMutability": "payable",
      "type": "function"
    },
    {
      "inputs": [],
      "name": "totalVested",
      "outputs": [
        {
          "internalType": "uint256",
          "name": "",
          "type": "uint256"
        }
      ],
      "stateMutability": "view",
      "type": "function"
    },
    {
      "inputs": [
        {
          "internalType": "address",
          "name": "newOwner",
          "type": "address"
        }
      ],
      "name": "transferOwnership",
      "outputs": [],
      "stateMutability": "nonpayable",
      "type": "function"
    },
    {
      "inputs": [],
      "name": "unpause",
      "outputs": [],
      "stateMutability": "nonpayable",
      "type": "function"
    },
    {
      "inputs": [
        {
          "internalType": "uint256",
          "name": "_amount",
          "type": "uint256"
        }
      ],
      "name": "withdrawBaseToken",
      "outputs": [],
      "stateMutability": "nonpayable",
      "type": "function"
    },
    {
      "inputs": [
        {
          "internalType": "uint256",
          "name": "_amount",
          "type": "uint256"
        }
      ],
      "name": "withdrawPairedToken",
      "outputs": [],
      "stateMutability": "nonpayable",
      "type": "function"
    },
    {
      "stateMutability": "payable",
      "type": "receive"
    }
  ],
  "bytecode": "0x6101606040523480156200001257600080fd5b50604051620054c0380380620054c0833981016040819052620000359162000464565b62000040336200011f565b600180556002805460ff191690556001600160a01b0389811660e081905260c0528881166101208190526101005285811660805286811660a05284151561014052600380546001600160a01b031916918316919091179055620000a3826200016f565b620000ae87620002b6565b600160056000620000c76000546001600160a01b031690565b6001600160a01b0316815260208101919091526040016000206004018054911515600160f81b026001600160f81b03909216919091179055821562000110576200011062000335565b50505050505050505062000559565b600080546001600160a01b038381166001600160a01b0319831681178455604051919092169283917f8be0079c531659141344cd1fd0a4f28419497f9722a3daafe3b4186f6b6457e09190a35050565b600254604080516001600160a01b036101009093048316815291831660208301527fa8f5d6a26420dbca563af82edda993be302bfa0d82b1540ed55eac3326eb85f2910160405180910390a1600354604051630b90f5dd60e41b81526001600160a01b0383811660048301529091169063b90f5dd09060240160206040518083038186803b1580156200020157600080fd5b505afa15801562000216573d6000803e3d6000fd5b505050506040513d601f19601f820116820180604052508101906200023c919062000534565b6200028e5760405162461bcd60e51b815260206004820152601e60248201527f4d61726b65744d616b65724c696272617279206e6f7420616c6c6f776564000060448201526064015b60405180910390fd5b600280546001600160a01b0390921661010002610100600160a81b0319909216919091179055565b620002c062000392565b6001600160a01b038116620003275760405162461bcd60e51b815260206004820152602660248201527f4f776e61626c653a206e6577206f776e657220697320746865207a65726f206160448201526564647265737360d01b606482015260840162000285565b62000332816200011f565b50565b6200033f620003f0565b6002805460ff191660011790557f62e78cea01bee320cd4e420270b5ea74000d11b0c9f74754ebdbfc544b05a258620003753390565b6040516001600160a01b03909116815260200160405180910390a1565b6000546001600160a01b03163314620003ee5760405162461bcd60e51b815260206004820181905260248201527f4f776e61626c653a2063616c6c6572206973206e6f7420746865206f776e6572604482015260640162000285565b565b60025460ff1615620003ee5760405162461bcd60e51b815260206004820152601060248201526f14185d5cd8589b194e881c185d5cd95960821b604482015260640162000285565b6001600160a01b03811681146200033257600080fd5b805180151581146200045f57600080fd5b919050565b60008060008060008060008060006101208a8c0312156200048457600080fd5b8951620004918162000438565b60208b0151909950620004a48162000438565b60408b0151909850620004b78162000438565b60608b0151909750620004ca8162000438565b60808b0151909650620004dd8162000438565b9450620004ed60a08b016200044e565b9350620004fd60c08b016200044e565b925060e08a01516200050f8162000438565b6101008b0151909250620005238162000438565b809150509295985092959850929598565b6000602082840312156200054757600080fd5b62000552826200044e565b9392505050565b60805160a05160c05160e051610100516101205161014051614e17620006a96000396000818161071b01526115cf015260008181610e5701528181611f0d0152818161234f01526129e501526000818161058301528181610c920152818161131f015281816118b90152818161226701528181612e3b01528181612e9501528181613ba201526140230152600081816109a901528181610dbf01528181610f490152818161181a01528181611e5001528181611f46015261294001526000818161061f01528181610c71015261134001526000818161039401528181611077015281816110fc015281816114a5015281816119c201528181611b900152611ebf01526000818161092901528181610a99015281816110a9015281816111e2015281816119f401528181611ab40152818161245e01528181613b3101528181613b6f0152613cc80152614e176000f3fe6080604052600436106102555760003560e01c80637cb374bd11610139578063afbd7ac1116100b6578063e0d476941161007a578063e0d47694146107f2578063e5bf6a7f146108b7578063f2fde38b146108d7578063f6c788b2146108f7578063f77c479114610917578063f82d49cf1461094b57600080fd5b8063afbd7ac11461075d578063baf2a1161461077d578063cd446e221461079d578063d294f093146107bd578063dd1fdb62146107d257600080fd5b80639270704a116100fd5780639270704a146106a9578063a1a092e3146106c9578063a4c37959146106e9578063a92a887514610709578063aa40c0e01461073d57600080fd5b80637cb374bd1461060d5780638456cb591461064157806386d1a69f146106565780638da5cb5b1461066b5780639129d8b11461068957600080fd5b806346ab8ab0116101d25780636397d80f116101965780636397d80f146105515780636927810d14610571578063715018a6146105a557806372db12cb146105ba57806374a8f103146105da5780637ad53480146105fa57600080fd5b806346ab8ab0146103cb57806347fd27f0146103eb5780635427dc00146104ed5780635c975abb1461050d5780635d2cd2dc1461053157600080fd5b806332af0f3e1161021957806332af0f3e146103225780633423ee601461034257806337e3a19e1461036257806338743904146103825780633f4ba83a146103b657600080fd5b806310087fb1146102615780631742541a14610283578063199cbc54146102be5780631de53d94146102e25780632fd33ddb1461030257600080fd5b3661025c57005b600080fd5b34801561026d57600080fd5b5061028161027c366004614384565b61096b565b005b34801561028f57600080fd5b506002546102a89061010090046001600160a01b031681565b6040516102b591906143b0565b60405180910390f35b3480156102ca57600080fd5b506102d460075481565b6040519081526020016102b5565b3480156102ee57600080fd5b506102816102fd366004614559565b610a8e565b34801561030e57600080fd5b5061028161031d3660046145f1565b610d3b565b34801561032e57600080fd5b5061028161033d366004614384565b610e22565b34801561034e57600080fd5b5061028161035d36600461460a565b610e91565b34801561036e57600080fd5b506102d461037d36600461466d565b610f7a565b34801561038e57600080fd5b506102a87f000000000000000000000000000000000000000000000000000000000000000081565b3480156103c257600080fd5b5061028161106c565b3480156103d757600080fd5b506102816103e636600461466d565b6110f1565b3480156103f757600080fd5b5061047e61040636600461466d565b60056020819052600091825260409091208054600182015460028301546003840154600485015494909501549294919390926001600160781b0380831692600160781b80820483169360ff600160f01b808504821695600160f81b95869004831695848216958504909116939182048316929104168c565b604080519c8d5260208d019b909b52998b019890985260608a01969096526001600160781b0394851660808a015292841660a089015290151560c0880152151560e087015281166101008601521661012084015260ff90811661014084015216610160820152610180016102b5565b3480156104f957600080fd5b5061028161050836600461468a565b611171565b34801561051957600080fd5b5060025460ff165b60405190151581526020016102b5565b34801561053d57600080fd5b5061028161054c366004614559565b6111d7565b34801561055d57600080fd5b5061028161056c3660046146b3565b6113f4565b34801561057d57600080fd5b506102a87f000000000000000000000000000000000000000000000000000000000000000081565b3480156105b157600080fd5b50610281611488565b3480156105c657600080fd5b506102816105d53660046146d0565b61149a565b3480156105e657600080fd5b506102816105f536600461466d565b6115c5565b61028161060836600461468a565b61188f565b34801561061957600080fd5b506102a87f000000000000000000000000000000000000000000000000000000000000000081565b34801561064d57600080fd5b506102816119b7565b34801561066257600080fd5b50610281611a3a565b34801561067757600080fd5b506000546001600160a01b03166102a8565b34801561069557600080fd5b506102816106a4366004614744565b611a79565b3480156106b557600080fd5b506102816106c43660046146d0565b611b85565b3480156106d557600080fd5b506102816106e436600461468a565b611cab565b3480156106f557600080fd5b506004546102a8906001600160a01b031681565b34801561071557600080fd5b506105217f000000000000000000000000000000000000000000000000000000000000000081565b34801561074957600080fd5b506102816107583660046146b3565b611d0c565b34801561076957600080fd5b5061028161077836600461478c565b611d93565b34801561078957600080fd5b5061028161079836600461466d565b611e78565b3480156107a957600080fd5b506003546102a8906001600160a01b031681565b3480156107c957600080fd5b50610281611e8c565b3480156107de57600080fd5b506102d46107ed36600461466d565b611ff6565b3480156107fe57600080fd5b5061086a61080d36600461466d565b60066020526000908152604090208054600182015460029092015490919063ffffffff80821691600160201b8104821691600160401b8204811691600160601b81049091169060ff600160801b8204811691600160881b90041688565b60408051988952602089019790975263ffffffff958616968801969096529284166060870152908316608086015290911660a0840152151560c0830152151560e0820152610100016102b5565b3480156108c357600080fd5b506102816108d23660046145f1565b612099565b3480156108e357600080fd5b506102816108f236600461466d565b6123b4565b34801561090357600080fd5b506102d461091236600461466d565b61242a565b34801561092357600080fd5b506102a87f000000000000000000000000000000000000000000000000000000000000000081565b34801561095757600080fd5b50610281610966366004614846565b612453565b600260015414156109975760405162461bcd60e51b815260040161098e90614927565b60405180910390fd5b60026001556109d16001600160a01b037f000000000000000000000000000000000000000000000000000000000000000016333085612b79565b336000818152600560208190526040909120600481018054600160f01b60ff60f01b19918216811790925591909201805490911660ff8516909202919091179055610a1c9083612bea565b60405160ff821681527f77ed550e4ce6a6e207491469db8a26599d2759712b30e5d4138272a3614f62d59060200160405180910390a1604051600181527fd72547ad77e9806d3502cb62f025f39b0f91fc8d748a41c6ac147ecc19c8d6839060200160405180910390a1505060018055565b336001600160a01b037f00000000000000000000000000000000000000000000000000000000000000001614610ad65760405162461bcd60e51b815260040161098e9061495e565b60026001541415610af95760405162461bcd60e51b815260040161098e90614927565b6002600155610b06612c5c565b6000805b8551811015610c695760056000878381518110610b2957610b296149aa565b60200260200101516001600160a01b03166001600160a01b03168152602001908152602001600020600401601e9054906101000a900460ff16610b8b576000878281518110610b7a57610b7a6149aa565b602002602001018181525050610c30565b610c11868281518110610ba057610ba06149aa565b6020026020010151610c0c898481518110610bbd57610bbd6149aa565b6020026020010151600560008b8781518110610bdb57610bdb6149aa565b60200260200101516001600160a01b03166001600160a01b0316815260200190815260200160002060010154612ca2565b612cb9565b878281518110610c2357610c236149aa565b6020026020010181815250505b868181518110610c4257610c426149aa565b602002602001015182610c5591906149d6565b915080610c61816149ee565b915050610b0a565b506000610cba7f00000000000000000000000000000000000000000000000000000000000000007f000000000000000000000000000000000000000000000000000000000000000084888888612e37565b905060005b8651811015610d2d57610d1a878281518110610cdd57610cdd6149aa565b6020026020010151848a8481518110610cf857610cf86149aa565b602002602001015185610d0b9190614a09565b610d159190614a28565b612ee6565b5080610d25816149ee565b915050610cbf565b505060018055505050505050565b60026001541415610d5e5760405162461bcd60e51b815260040161098e90614927565b6002600155610d6b612c5c565b33600090815260056020526040902060010154811115610d8a57600080fd5b3360009081526005602052604081206001018054839290610dac908490614a4a565b90915550610de690506001600160a01b037f000000000000000000000000000000000000000000000000000000000000000016338361306d565b60405181815233907fb2475cc0963391d593f1a890df550d0c0551e1317e08cba0cdece5014f0555f69060200160405180910390a25060018055565b60026001541415610e455760405162461bcd60e51b815260040161098e90614927565b6002600155610e7f6001600160a01b037f000000000000000000000000000000000000000000000000000000000000000016333085612b79565b610e89828261308c565b505060018055565b60026001541415610eb45760405162461bcd60e51b815260040161098e90614927565b60026001556000805b8251811015610f3b57838181518110610ed857610ed86149aa565b602002602001015182610eeb91906149d6565b9150610f29838281518110610f0257610f026149aa565b6020026020010151858381518110610f1c57610f1c6149aa565b6020026020010151612bea565b80610f33816149ee565b915050610ebd565b50610f716001600160a01b037f000000000000000000000000000000000000000000000000000000000000000016333084612b79565b50506001805550565b6001600160a01b03811660009081526005602052604081205490670de0b6b3a7640000610fa5613148565b6001600160a01b03858116600090815260056020526040908190206004908101549151631820cc6160e11b8152939092169263304198c292610ff5928992600160f81b90910460ff169101614a61565b60206040518083038186803b15801561100d57600080fd5b505afa158015611021573d6000803e3d6000fd5b505050506040513d601f19601f820116820180604052508101906110459190614a7c565b61104f9084614a09565b6110599190614a28565b90506110658183614a4a565b9392505050565b336001600160a01b037f00000000000000000000000000000000000000000000000000000000000000001614806110cb5750336001600160a01b037f000000000000000000000000000000000000000000000000000000000000000016145b6110e75760405162461bcd60e51b815260040161098e90614a95565b6110ef6131ca565b565b336001600160a01b037f000000000000000000000000000000000000000000000000000000000000000016146111395760405162461bcd60e51b815260040161098e90614aee565b6004546001600160a01b03161561114f57600080fd5b600480546001600160a01b0319166001600160a01b0392909216919091179055565b33600090815260056020818152604092839020909101805460ff60f01b1916600160f01b60ff86169081029190911790915591519182527f77ed550e4ce6a6e207491469db8a26599d2759712b30e5d4138272a3614f62d591015b60405180910390a150565b336001600160a01b037f0000000000000000000000000000000000000000000000000000000000000000161461121f5760405162461bcd60e51b815260040161098e9061495e565b600260015414156112425760405162461bcd60e51b815260040161098e90614927565b600260015561124f612c5c565b6000805b8551811015611317576112c0878281518110611271576112716149aa565b60200260200101516005600089858151811061128f5761128f6149aa565b60200260200101516001600160a01b03166001600160a01b0316815260200190815260200160002060000154612ca2565b8782815181106112d2576112d26149aa565b6020026020010181815250508681815181106112f0576112f06149aa565b60200260200101518261130391906149d6565b91508061130f816149ee565b915050611253565b5060006113687f00000000000000000000000000000000000000000000000000000000000000007f000000000000000000000000000000000000000000000000000000000000000084888888612e37565b905060005b8651811015610d2d576113e287828151811061138b5761138b6149aa565b60200260200101518983815181106113a5576113a56149aa565b6020026020010151858b85815181106113c0576113c06149aa565b6020026020010151866113d39190614a09565b6113dd9190614a28565b613216565b806113ec816149ee565b91505061136d565b600260015414156114175760405162461bcd60e51b815260040161098e90614927565b600260015533600090815260056020526040908190206004018054831515600160f01b0260ff60f01b19909116179055517fd72547ad77e9806d3502cb62f025f39b0f91fc8d748a41c6ac147ecc19c8d6839061147990831515815260200190565b60405180910390a15060018055565b611490613342565b6110ef600061339c565b336001600160a01b037f000000000000000000000000000000000000000000000000000000000000000016146114e25760405162461bcd60e51b815260040161098e90614aee565b60005b818110156115c057600060056000858585818110611505576115056149aa565b905060200201602081019061151a919061466d565b6001600160a01b0316815260208101919091526040016000206004018054911515600160f81b026001600160f81b03909216919091179055828282818110611564576115646149aa565b9050602002016020810190611579919061466d565b6001600160a01b03167fa3bfdef3d8149bacf15b7b64199fca8228c0fd4f8fcdd11cc7871829baf319c360405160405180910390a2806115b8816149ee565b9150506114e5565b505050565b6115cd613342565b7f00000000000000000000000000000000000000000000000000000000000000006116495760405162461bcd60e51b815260206004820152602660248201527f5468697320636f6e747261637420646f6573206e6f7420616c6c6f7720746f206044820152657265766f6b6560d01b606482015260840161098e565b6001600160a01b03811660009081526006602052604090206002810154600160801b900460ff166116cb5760405162461bcd60e51b815260206004820152602660248201527f546f6b656e56657374696e673a2076657374696e67206973206e6f74207265766044820152656f6361626c6560d01b606482015260840161098e565b600181015481546116dc9190614a4a565b600760008282546116ed9190614a4a565b909155505060408051610100810182528254815260018301546020820152600283015463ffffffff80821693830193909352600160201b810483166060830152600160401b810483166080830152600160601b810490921660a082015260ff600160801b83048116151560c0830152600160881b909204909116151560e082015260009061177a906133ec565b6001600160a01b0384166000908152600560205260408120600101805492935083929091906117aa9084906149d6565b90915550506040518181526001600160a01b038416907f94fd705dafc89ff1f03c1207631245602407f0e8ee47e1878a4e2ae954cd76749060200160405180910390a260008183600101546117ff91906149d6565b835461180b9190614a4a565b90506118416001600160a01b037f000000000000000000000000000000000000000000000000000000000000000016338361306d565b600080845560018401556040518181526001600160a01b038516907f57c76f5e278bfbd4eeb5207d287aa5a1a9e1113c65f7eefa540e379a2774d13b9060200160405180910390a250505050565b600260015414156118b25760405162461bcd60e51b815260040161098e90614927565b60026001557f00000000000000000000000000000000000000000000000000000000000000006001600160a01b031673c778417e063141139fce010982780140aa0cd5ab1461193e5760405162461bcd60e51b81526020600482015260186024820152770a0c2d2e4cac840e8ded6cadc40d2e640dcdee840ae8aa8960431b604482015260640161098e565b73c778417e063141139fce010982780140aa0cd5ab6001600160a01b031663d0e30db0346040518263ffffffff1660e01b81526004016000604051808303818588803b15801561198d57600080fd5b505af11580156119a1573d6000803e3d6000fd5b50505050506119b0348261308c565b5060018055565b336001600160a01b037f0000000000000000000000000000000000000000000000000000000000000000161480611a165750336001600160a01b037f000000000000000000000000000000000000000000000000000000000000000016145b611a325760405162461bcd60e51b815260040161098e90614a95565b6110ef6134c4565b60026001541415611a5d5760405162461bcd60e51b815260040161098e90614927565b6002600155611a6a612c5c565b611a7333613501565b60018055565b60026001541415611a9c5760405162461bcd60e51b815260040161098e90614927565b6002600155611aa9612c5c565b336001600160a01b037f00000000000000000000000000000000000000000000000000000000000000001614611af15760405162461bcd60e51b815260040161098e9061495e565b60005b8151811015610e895760066000838381518110611b1357611b136149aa565b60200260200101516001600160a01b03166001600160a01b0316815260200190815260200160002060020160119054906101000a900460ff1615611b7357611b73828281518110611b6657611b666149aa565b6020026020010151613501565b80611b7d816149ee565b915050611af4565b336001600160a01b037f00000000000000000000000000000000000000000000000000000000000000001614611bcd5760405162461bcd60e51b815260040161098e90614aee565b60005b818110156115c057600160056000858585818110611bf057611bf06149aa565b9050602002016020810190611c05919061466d565b6001600160a01b0316815260208101919091526040016000206004018054911515600160f81b026001600160f81b03909216919091179055828282818110611c4f57611c4f6149aa565b9050602002016020810190611c64919061466d565b6001600160a01b03167fb72139c440b4fd552bd1ef2077ce2ef7de385e96860222e8ad491235caf5af6660405160405180910390a280611ca3816149ee565b915050611bd0565b3360009081526005602081815260409283902090910180546001600160f81b0316600160f81b60ff86169081029190911790915591519182527f904afa43f77d88a905d8c6cc3b533b4a95bac10d941b471f4f885a16ccf028db91016111cc565b60026001541415611d2f5760405162461bcd60e51b815260040161098e90614927565b6002600181905533600090815260066020526040908190209091018054831515600160881b0260ff60881b19909116179055517f77772e1d36f25423d87182db3c5ed774dbdb85378da5f7f88f53e6007f0e37569061147990831515815260200190565b60026001541415611db65760405162461bcd60e51b815260040161098e90614927565b60026001556000805b8851811015611e4257828181518110611dda57611dda6149aa565b602002602001015182611ded91906149d6565b9150611e30898281518110611e0457611e046149aa565b60200260200101518989898989898881518110611e2357611e236149aa565b6020026020010151613653565b80611e3a816149ee565b915050611dbf565b50610d2d6001600160a01b037f000000000000000000000000000000000000000000000000000000000000000016333084612b79565b611e80613342565b611e89816139e3565b50565b60026001541415611eaf5760405162461bcd60e51b815260040161098e90614927565b6002600155336001600160a01b037f00000000000000000000000000000000000000000000000000000000000000001614611efc5760405162461bcd60e51b815260040161098e90614aee565b600b54611f35906001600160a01b037f00000000000000000000000000000000000000000000000000000000000000001690339061306d565b600c54611f6e906001600160a01b037f00000000000000000000000000000000000000000000000000000000000000001690339061306d565b600b5460096000828254611f8291906149d6565b9091555050600c54600a8054600090611f9c9084906149d6565b9091555050600c54600b546040517fa1f87f32d0f17fab0242ca800d736293de8988c14b27747e218cf13d5c249f5392611fde92908252602082015260400190565b60405180910390a16000600b819055600c5560018055565b6001600160a01b0381166000908152600660209081526040808320815161010081018352815481526001820154938101939093526002015463ffffffff80821692840192909252600160201b810482166060840152600160401b810482166080840152600160601b810490911660a083015260ff600160801b82048116151560c0840152600160881b90910416151560e0820152612093906133ec565b92915050565b600260015414156120bc5760405162461bcd60e51b815260040161098e90614927565b60026001556120c9612c5c565b806120d333610f7a565b10156121215760405162461bcd60e51b815260206004820152601d60248201527f4e6f7420656e6f75676820746f6b656e7320746f207769746864726177000000604482015260640161098e565b600061212b613148565b33600081815260056020526040908190206004908101549151631820cc6160e11b81526001600160a01b03949094169363304198c293612179939092600160f81b90910460ff169101614a61565b60206040518083038186803b15801561219157600080fd5b505afa1580156121a5573d6000803e3d6000fd5b505050506040513d601f19601f820116820180604052508101906121c99190614a7c565b905060006121df82670de0b6b3a7640000614a4a565b6121e98385614a09565b6121f39190614a28565b3360009081526005602052604090205490915061221c908490612217908490614a4a565b612ca2565b925061222881846149d6565b3360009081526005602052604081208054909190612247908490614a4a565b9250508190555080600b600082825461226091906149d6565b90915550507f00000000000000000000000000000000000000000000000000000000000000006001600160a01b031673c778417e063141139fce010982780140aa0cd5ab141561234257604051632e1a7d4d60e01b81526004810184905273c778417e063141139fce010982780140aa0cd5ab90632e1a7d4d90602401600060405180830381600087803b1580156122f757600080fd5b505af115801561230b573d6000803e3d6000fd5b505060405133925085156108fc02915085906000818181858888f1935050505015801561233c573d6000803e3d6000fd5b50612376565b6123766001600160a01b037f000000000000000000000000000000000000000000000000000000000000000016338561306d565b60405183815233907f5135ea2f98d3f162e3ddba39690cb01c8efe7e45ca7d4a15cf43be3d2981bc799060200160405180910390a250506001805550565b6123bc613342565b6001600160a01b0381166124215760405162461bcd60e51b815260206004820152602660248201527f4f776e61626c653a206e6577206f776e657220697320746865207a65726f206160448201526564647265737360d01b606482015260840161098e565b611e898161339c565b6001600160a01b0381166000908152600660205260408120600181015490546120939190614a4a565b336001600160a01b037f0000000000000000000000000000000000000000000000000000000000000000161461249b5760405162461bcd60e51b815260040161098e9061495e565b600260015414156124be5760405162461bcd60e51b815260040161098e90614927565b60026001556124cb612c5c565b6000604051806101000160405280898152602001888152602001878152602001868152602001600081526020016000815260200185815260200184848080601f016020809104026020016040519081016040528093929190818152602001838380828437600092018290525093909452509293509150505b816020015151811015612730576000600560008460200151848151811061256c5761256c6149aa565b6020908102919091018101516001600160a01b0316825281810192909252604090810160002081516101808101835281548152600182015493810184905260028201549281018390526003820154606082015260048201546001600160781b038082166080840152600160781b808304821660a085015260ff600160f01b8085048216151560c0870152600160f81b948590048216151560e0870152600590960154808416610100870152918204909216610120850152938404811661014084018190529190930490921661016082015293509091606491906126509084906149d6565b61265a9190614a09565b6126649190614a28565b111561271d576126cd83600001518381518110612683576126836149aa565b60200260200101518260400151606484610140015160ff16856040015186602001516126af91906149d6565b6126b99190614a09565b6126c39190614a28565b6122179190614a4a565b83518051849081106126e1576126e16149aa565b60209081029190910101528251805183908110612700576127006149aa565b60200260200101518360800181815161271991906149d6565b9052505b5080612728816149ee565b915050612543565b5060005b81606001515181101561290b576000600560008460600151848151811061275d5761275d6149aa565b6020908102919091018101516001600160a01b03168252818101929092526040908101600020815161018081018352815480825260018301549482019490945260028201549281019290925260038101546060830181905260048201546001600160781b038082166080860152600160781b808304821660a087015260ff600160f01b8085048216151560c0890152600160f81b948590048216151560e089015260059096015480841661010089015291820490921661012087015293840481166101408601529204909116610160830181905291935091606491906128449084906149d6565b61284e9190614a09565b6128589190614a28565b11156128f8576128a383604001518381518110612877576128776149aa565b60200260200101518260600151606484610160015160ff16856060015186600001516126af91906149d6565b836040015183815181106128b9576128b96149aa565b602002602001018181525050826040015182815181106128db576128db6149aa565b60200260200101518360a0018181516128f491906149d6565b9052505b5080612903816149ee565b915050612734565b50600061291d8260a001518585613b23565b60048054608085015160405163095ea7b360e01b81529394506001600160a01b037f000000000000000000000000000000000000000000000000000000000000000081169463095ea7b39461297794909216929101614b38565b602060405180830381600087803b15801561299157600080fd5b505af11580156129a5573d6000803e3d6000fd5b505050506040513d601f19601f820116820180604052508101906129c99190614b51565b506004805460405163095ea7b360e01b81526001600160a01b037f000000000000000000000000000000000000000000000000000000000000000081169363095ea7b393612a1c93921691869101614b38565b602060405180830381600087803b158015612a3657600080fd5b505af1158015612a4a573d6000803e3d6000fd5b505050506040513d601f19601f82011682018060405250810190612a6e9190614b51565b5060048054835160208501516040808701516060880151608089015160c08a01519351632928d8b360e11b815260009889986001600160a01b031697635251b16697612ac797919690959094909390928d929101614be2565b6040805180830381600087803b158015612ae057600080fd5b505af1158015612af4573d6000803e3d6000fd5b505050506040513d601f19601f82011682018060405250810190612b189190614c4f565b91509150828460a00151612b2c9190614a4a565b612b3690826149d6565b9050612b5084602001518560000151848760800151613d3a565b612b6884606001518560400151838760a00151613db1565b505060018055505050505050505050565b6040516001600160a01b0380851660248301528316604482015260648101829052612be49085906323b872dd60e01b906084015b60408051601f198184030181529190526020810180516001600160e01b03166001600160e01b031990931692909217909152613e21565b50505050565b6001600160a01b03821660009081526005602052604081206001018054839290612c159084906149d6565b90915550506040518181526001600160a01b038316907f9e71bc8eea02a63969f509818f2dafb9254532904319f9dbda79b67bd34a5f3d9060200160405180910390a25050565b60025460ff16156110ef5760405162461bcd60e51b815260206004820152601060248201526f14185d5cd8589b194e881c185d5cd95960821b604482015260640161098e565b600081831115612cb25781611065565b5090919050565b6001600160a01b038216600090815260056020526040812060010180548391908390612ce6908490614a4a565b90915550506001600160a01b03831660009081526005602081905260408220018054849290612d1f9084906001600160781b0316614c73565b92506101000a8154816001600160781b0302191690836001600160781b031602179055506000670de0b6b3a7640000612d56613148565b6001600160a01b03868116600090815260056020526040908190206004908101549151631907bfab60e01b81529390921692631907bfab92612da6928a92600160f81b90910460ff169101614a61565b60206040518083038186803b158015612dbe57600080fd5b505afa158015612dd2573d6000803e3d6000fd5b505050506040513d601f19601f82011682018060405250810190612df69190614a7c565b612e009085614a09565b612e0a9190614a28565b9050612e168184614a4a565b925080600c6000828254612e2a91906149d6565b9091555092949350505050565b60007f00000000000000000000000000000000000000000000000000000000000000006001600160a01b0316876001600160a01b03161415612e8157612e7e858484613b23565b94505b6000612e91888888888888613ef3565b90507f00000000000000000000000000000000000000000000000000000000000000006001600160a01b0316876001600160a01b03161415612edb57612ed8818585613b23565b90505b979650505050505050565b600080670de0b6b3a7640000612efa613148565b6001600160a01b0386811660009081526005602052604090819020600490810154915163d9906e7d60e01b8152939092169263d9906e7d92612f4a928a92600160f81b90910460ff169101614a61565b60206040518083038186803b158015612f6257600080fd5b505afa158015612f76573d6000803e3d6000fd5b505050506040513d601f19601f82011682018060405250810190612f9a9190614a7c565b612fa49085614a09565b612fae9190614a28565b9050612fba8184614a4a565b925080600b6000828254612fce91906149d6565b90915550506001600160a01b03841660009081526005602052604081208054859290612ffb9084906149d6565b90915550506001600160a01b0384166000908152600560208190526040909120018054849190600f9061303f908490600160781b90046001600160781b0316614c73565b92506101000a8154816001600160781b0302191690836001600160781b031602179055508291505092915050565b6115c08363a9059cbb60e01b8484604051602401612bad929190614b38565b33600090815260056020526040812080548492906130ab9084906149d6565b90915550503360008181526005602081815260409283902090910180546001600160f81b0316600160f81b60ff87160217905590518481527f8109037fc5b3b3f0368806e9cd981c30daa1a3d0c26be8307576c4f5f2125d5e910160405180910390a260405160ff821681527f904afa43f77d88a905d8c6cc3b533b4a95bac10d941b471f4f885a16ccf028db9060200160405180910390a15050565b600354604080516312209d2f60e31b815290516000926001600160a01b031691639104e978916004808301926020929190829003018186803b15801561318d57600080fd5b505afa1580156131a1573d6000803e3d6000fd5b505050506040513d601f19601f820116820180604052508101906131c59190614c9e565b905090565b6131d2613fb8565b6002805460ff191690557f5db9ee0a495bf2e6ff9c91a7834c1ba4fdd244a5e8aa4e537bd38aeae4b073aa335b60405161320c91906143b0565b60405180910390a1565b6001600160a01b038316600090815260056020526040812060010180548392906132419084906149d6565b90915550506001600160a01b0383166000908152600560205260408120600401805483929061327a9084906001600160781b0316614c73565b92506101000a8154816001600160781b0302191690836001600160781b031602179055508160056000856001600160a01b03166001600160a01b0316815260200190815260200160002060000160008282546132d69190614a4a565b90915550506001600160a01b03831660009081526005602052604090206004018054839190600f90613319908490600160781b90046001600160781b0316614c73565b92506101000a8154816001600160781b0302191690836001600160781b03160217905550505050565b6000546001600160a01b031633146110ef5760405162461bcd60e51b815260206004820181905260248201527f4f776e61626c653a2063616c6c6572206973206e6f7420746865206f776e6572604482015260640161098e565b600080546001600160a01b038381166001600160a01b0319831681178455604051919092169283917f8be0079c531659141344cd1fd0a4f28419497f9722a3daafe3b4186f6b6457e09190a35050565b6040810151600090429063ffffffff1681101561340c5750600092915050565b826080015183606001516134209190614cbb565b63ffffffff16811061343d57602083015183516110659190614a4a565b6000836060015163ffffffff16826134559190614a4a565b60a085015190915063ffffffff16600061346f8284614a28565b9050600061347d8383614a09565b90506000876080015163ffffffff1682896000015161349c9190614a09565b6134a69190614a28565b90508760200151816134b89190614a4a565b98975050505050505050565b6134cc612c5c565b6002805460ff191660011790557f62e78cea01bee320cd4e420270b5ea74000d11b0c9f74754ebdbfc544b05a2586131ff3390565b6001600160a01b0381166000908152600660205260409020805461352457600080fd5b60408051610100810182528254815260018301546020820152600283015463ffffffff80821693830193909352600160201b810483166060830152600160401b810483166080830152600160601b810490921660a082015260ff600160801b83048116151560c0830152600160881b909204909116151560e08201526000906135ac906133ec565b9050808260010160008282546135c291906149d6565b9250508190555080600760008282546135db9190614a4a565b90915550506001600160a01b0383166000908152600560205260408120600101805483929061360b9084906149d6565b90915550506040518181526001600160a01b038416907f94fd705dafc89ff1f03c1207631245602407f0e8ee47e1878a4e2ae954cd76749060200160405180910390a2505050565b60008463ffffffff16116136b45760405162461bcd60e51b815260206004820152602260248201527f546f6b656e56657374696e673a206475726174696f6e206d757374206265203e604482015261020360f41b606482015260840161098e565b600081116137045760405162461bcd60e51b815260206004820181905260248201527f546f6b656e56657374696e673a20616d6f756e74206d757374206265203e2030604482015260640161098e565b60018363ffffffff1610156137715760405162461bcd60e51b815260206004820152602d60248201527f546f6b656e56657374696e673a20736c696365506572696f645365636f6e647360448201526c206d757374206265203e3d203160981b606482015260840161098e565b6001600160a01b038716600090815260066020526040902054156137ed5760405162461bcd60e51b815260206004820152602d60248201527f546f6b656e56657374696e673a2056657374696e67207363686564756c65206160448201526c6c72656164792065786973747360981b606482015260840161098e565b60006137f98688614cbb565b905080600660008a6001600160a01b03166001600160a01b0316815260200190815260200160002060020160006101000a81548163ffffffff021916908363ffffffff16021790555086600660008a6001600160a01b03166001600160a01b0316815260200190815260200160002060020160046101000a81548163ffffffff021916908363ffffffff16021790555084600660008a6001600160a01b03166001600160a01b0316815260200190815260200160002060020160086101000a81548163ffffffff021916908363ffffffff16021790555083600660008a6001600160a01b03166001600160a01b03168152602001908152602001600020600201600c6101000a81548163ffffffff021916908363ffffffff16021790555082600660008a6001600160a01b03166001600160a01b0316815260200190815260200160002060020160106101000a81548160ff02191690831515021790555081600660008a6001600160a01b03166001600160a01b0316815260200190815260200160002060000181905550816007600082825461399691906149d6565b90915550506040518281526001600160a01b038916907f82a09c12487d9950c96682e398533045828bd33d830b54dddd5684ac79bf27bd9060200160405180910390a25050505050505050565b600254604080516001600160a01b036101009093048316815291831660208301527fa8f5d6a26420dbca563af82edda993be302bfa0d82b1540ed55eac3326eb85f2910160405180910390a1600354604051630b90f5dd60e41b81526001600160a01b039091169063b90f5dd090613a5f9084906004016143b0565b60206040518083038186803b158015613a7757600080fd5b505afa158015613a8b573d6000803e3d6000fd5b505050506040513d601f19601f82011682018060405250810190613aaf9190614b51565b613afb5760405162461bcd60e51b815260206004820152601e60248201527f4d61726b65744d616b65724c696272617279206e6f7420616c6c6f7765640000604482015260640161098e565b600280546001600160a01b0390921661010002610100600160a81b0319909216919091179055565b60008067016345785d8a00007f00000000000000000000000000000000000000000000000000000000000000006001600160a01b0316311015613d27576000613b9e6001600160a01b037f0000000000000000000000000000000000000000000000000000000000000000163167016345785d8a0000614a4a565b90507f00000000000000000000000000000000000000000000000000000000000000006001600160a01b031673c778417e063141139fce010982780140aa0cd5ab14613bf657613bef818686614001565b9150613bfa565b8091505b818611613c585760405162461bcd60e51b815260206004820152602660248201527f5472616e73616374696f6e20636f737473206d6f7265207468616e20676173206044820152651b995959195960d21b606482015260840161098e565b604051632e1a7d4d60e01b81526004810182905273c778417e063141139fce010982780140aa0cd5ab90632e1a7d4d90602401600060405180830381600087803b158015613ca557600080fd5b505af1158015613cb9573d6000803e3d6000fd5b50506040516001600160a01b037f000000000000000000000000000000000000000000000000000000000000000016925083156108fc02915083906000818181858888f19350505050158015613d13573d6000803e3d6000fd5b5081600854613d2291906149d6565b600855505b613d318186614a4a565b95945050505050565b60005b8451811015613daa57613d98858281518110613d5b57613d5b6149aa565b602002602001015183868481518110613d7657613d766149aa565b602002602001015186613d899190614a09565b613d939190614a28565b6140df565b80613da2816149ee565b915050613d3d565b5050505050565b60005b8451811015613daa57613e0f858281518110613dd257613dd26149aa565b602002602001015183868481518110613ded57613ded6149aa565b602002602001015186613e009190614a09565b613e0a9190614a28565b614143565b80613e19816149ee565b915050613db4565b6000613e76826040518060400160405280602081526020017f5361666545524332303a206c6f772d6c6576656c2063616c6c206661696c6564815250856001600160a01b031661419b9092919063ffffffff16565b8051909150156115c05780806020019051810190613e949190614b51565b6115c05760405162461bcd60e51b815260206004820152602a60248201527f5361666545524332303a204552433230206f7065726174696f6e20646964206e6044820152691bdd081cdd58d8d9595960b21b606482015260840161098e565b6002546040516000918291829161010090046001600160a01b031690613f27908b908b908b908b908b908b90602401614d03565b60408051601f198184030181529181526020820180516001600160e01b0316632d607d0b60e21b17905251613f5c9190614d6a565b600060405180830381855af49150503d8060008114613f97576040519150601f19603f3d011682016040523d82523d6000602084013e613f9c565b606091505b5091509150613fab82826141b2565b9998505050505050505050565b60025460ff166110ef5760405162461bcd60e51b815260206004820152601460248201527314185d5cd8589b194e881b9bdd081c185d5cd95960621b604482015260640161098e565b6002546040516000918291829161010090046001600160a01b031690614051907f000000000000000000000000000000000000000000000000000000000000000090899089908990602401614d86565b60408051601f198184030181529181526020820180516001600160e01b031663fc7d1c8d60e01b179052516140869190614d6a565b600060405180830381855af49150503d80600081146140c1576040519150601f19603f3d011682016040523d82523d6000602084013e6140c6565b606091505b50915091506140d582826141b2565b9695505050505050565b6001600160a01b0382166000908152600560205260408120600201805483929061410a9084906149d6565b90915550506001600160a01b0382166000908152600560205260408120600101805483929061413a908490614a4a565b90915550505050565b6001600160a01b0382166000908152600560205260408120600301805483929061416e9084906149d6565b90915550506001600160a01b0382166000908152600560205260408120805483929061413a908490614a4a565b60606141aa8484600085614214565b949350505050565b60008261420a578151156141c95781518083602001fd5b60405162461bcd60e51b815260206004820152601660248201527511195b1959d85d194818d85b1b081c995d995c9d195960521b604482015260640161098e565b5060200151919050565b6060824710156142755760405162461bcd60e51b815260206004820152602660248201527f416464726573733a20696e73756666696369656e742062616c616e636520666f6044820152651c8818d85b1b60d21b606482015260840161098e565b6001600160a01b0385163b6142cc5760405162461bcd60e51b815260206004820152601d60248201527f416464726573733a2063616c6c20746f206e6f6e2d636f6e7472616374000000604482015260640161098e565b600080866001600160a01b031685876040516142e89190614d6a565b60006040518083038185875af1925050503d8060008114614325576040519150601f19603f3d011682016040523d82523d6000602084013e61432a565b606091505b5091509150612edb82828660608315614344575081611065565b8251156143545782518084602001fd5b8160405162461bcd60e51b815260040161098e9190614dae565b803560ff8116811461437f57600080fd5b919050565b6000806040838503121561439757600080fd5b823591506143a76020840161436e565b90509250929050565b6001600160a01b0391909116815260200190565b634e487b7160e01b600052604160045260246000fd5b604051601f8201601f191681016001600160401b0381118282101715614402576144026143c4565b604052919050565b60006001600160401b03821115614423576144236143c4565b5060051b60200190565b600082601f83011261443e57600080fd5b8135602061445361444e8361440a565b6143da565b82815260059290921b8401810191818101908684111561447257600080fd5b8286015b8481101561448d5780358352918301918301614476565b509695505050505050565b6001600160a01b0381168114611e8957600080fd5b600082601f8301126144be57600080fd5b813560206144ce61444e8361440a565b82815260059290921b840181019181810190868411156144ed57600080fd5b8286015b8481101561448d57803561450481614498565b83529183019183016144f1565b60008083601f84011261452357600080fd5b5081356001600160401b0381111561453a57600080fd5b60208301915083602082850101111561455257600080fd5b9250929050565b60008060008060006080868803121561457157600080fd5b85356001600160401b038082111561458857600080fd5b61459489838a0161442d565b965060208801359150808211156145aa57600080fd5b6145b689838a016144ad565b95506040880135945060608801359150808211156145d357600080fd5b506145e088828901614511565b969995985093965092949392505050565b60006020828403121561460357600080fd5b5035919050565b6000806040838503121561461d57600080fd5b82356001600160401b038082111561463457600080fd5b6146408683870161442d565b9350602085013591508082111561465657600080fd5b50614663858286016144ad565b9150509250929050565b60006020828403121561467f57600080fd5b813561106581614498565b60006020828403121561469c57600080fd5b6110658261436e565b8015158114611e8957600080fd5b6000602082840312156146c557600080fd5b8135611065816146a5565b600080602083850312156146e357600080fd5b82356001600160401b03808211156146fa57600080fd5b818501915085601f83011261470e57600080fd5b81358181111561471d57600080fd5b8660208260051b850101111561473257600080fd5b60209290920196919550909350505050565b60006020828403121561475657600080fd5b81356001600160401b0381111561476c57600080fd5b6141aa848285016144ad565b803563ffffffff8116811461437f57600080fd5b600080600080600080600060e0888a0312156147a757600080fd5b87356001600160401b03808211156147be57600080fd5b6147ca8b838c016144ad565b98506147d860208b01614778565b97506147e660408b01614778565b96506147f460608b01614778565b955061480260808b01614778565b945060a08a01359150614814826146a5565b90925060c0890135908082111561482a57600080fd5b506148378a828b0161442d565b91505092959891949750929550565b600080600080600080600060c0888a03121561486157600080fd5b87356001600160401b038082111561487857600080fd5b6148848b838c0161442d565b985060208a013591508082111561489a57600080fd5b6148a68b838c016144ad565b975060408a01359150808211156148bc57600080fd5b6148c88b838c0161442d565b965060608a01359150808211156148de57600080fd5b6148ea8b838c016144ad565b955060808a0135945060a08a013591508082111561490757600080fd5b506149148a828b01614511565b989b979a50959850939692959293505050565b6020808252601f908201527f5265656e7472616e637947756172643a207265656e7472616e742063616c6c00604082015260600190565b6020808252602c908201527f6f6e6c79436f6e74726f6c6c65723a2063616c6c6572206973206e6f7420746860408201526b329031b7b73a3937b63632b960a11b606082015260800190565b634e487b7160e01b600052603260045260246000fd5b634e487b7160e01b600052601160045260246000fd5b600082198211156149e9576149e96149c0565b500190565b6000600019821415614a0257614a026149c0565b5060010190565b6000816000190483118215151615614a2357614a236149c0565b500290565b600082614a4557634e487b7160e01b600052601260045260246000fd5b500490565b600082821015614a5c57614a5c6149c0565b500390565b6001600160a01b039290921682521515602082015260400190565b600060208284031215614a8e57600080fd5b5051919050565b60208082526039908201527f6f6e6c794d6f64657261746f723a2063616c6c6572206973206e6f74207468656040820152781031b7b73a3937b63632b9103737b91036b7b232b930ba37b960391b606082015260800190565b6020808252602a908201527f6f6e6c794d6f64657261746f723a2063616c6c6572206973206e6f74207468656040820152691036b7b232b930ba37b960b11b606082015260800190565b6001600160a01b03929092168252602082015260400190565b600060208284031215614b6357600080fd5b8151611065816146a5565b600081518084526020808501945080840160005b83811015614b9e57815187529582019590820190600101614b82565b509495945050505050565b600081518084526020808501945080840160005b83811015614b9e5781516001600160a01b031687529582019590820190600101614bbd565b60e081526000614bf560e083018a614b6e565b8281036020840152614c07818a614ba9565b90508281036040840152614c1b8189614b6e565b90508281036060840152614c2f8188614ba9565b6080840196909652505060a081019290925260c090910152949350505050565b60008060408385031215614c6257600080fd5b505080516020909101519092909150565b60006001600160781b03828116848216808303821115614c9557614c956149c0565b01949350505050565b600060208284031215614cb057600080fd5b815161106581614498565b600063ffffffff808316818516808303821115614c9557614c956149c0565b81835281816020850137506000828201602090810191909152601f909101601f19169091010190565b6001600160a01b03878116825286166020820152604081018590526060810184905260a0608082018190526000906134b89083018486614cda565b60005b83811015614d59578181015183820152602001614d41565b83811115612be45750506000910152565b60008251614d7c818460208701614d3e565b9190910192915050565b60018060a01b03851681528360208201526060604082015260006140d5606083018486614cda565b6020815260008251806020840152614dcd816040850160208701614d3e565b601f01601f1916919091016040019291505056fea264697066735822122022a706a652be5f702c225bffeca284287dbbc277271acc2cd4f96bdbcace742e64736f6c63430008090033",
  "linkReferences": {},
  "deployedLinkReferences": {}
}