{
  "_format": "hh-sol-artifact-1",
  "contractName": "MarketMaker",
  "sourceName": "contracts/MarketMaker.sol",
  "abi": [
    {
      "inputs": [
        {
          "internalType": "address",
          "name": "_baseToken",
          "type": "address"
        },
        {
          "internalType": "address",
          "name": "_pairedToken",
          "type": "address"
        },
        {
          "internalType": "address",
          "name": "_owner",
          "type": "address"
        },
        {
          "internalType": "address",
          "name": "_moderator",
          "type": "address"
        },
        {
          "internalType": "address payable",
          "name": "_controller",
          "type": "address"
        },
        {
          "internalType": "bool",
          "name": "_revocableContract",
          "type": "bool"
        },
        {
          "internalType": "bool",
          "name": "_paused",
          "type": "bool"
        },
        {
          "internalType": "address",
          "name": "_marketMakerLibraryAddress",
          "type": "address"
        },
        {
          "internalType": "address",
          "name": "_masterContractAddress",
          "type": "address"
        }
      ],
      "stateMutability": "nonpayable",
      "type": "constructor"
    },
    {
      "anonymous": false,
      "inputs": [
        {
          "indexed": true,
          "internalType": "address",
          "name": "_user",
          "type": "address"
        },
        {
          "indexed": false,
          "internalType": "uint256",
          "name": "_amount",
          "type": "uint256"
        }
      ],
      "name": "AmountReleased",
      "type": "event"
    },
    {
      "anonymous": false,
      "inputs": [
        {
          "indexed": false,
          "internalType": "address",
          "name": "_OldmarketMakerLibraryAddress",
          "type": "address"
        },
        {
          "indexed": false,
          "internalType": "address",
          "name": "_NewmarketMakerLibraryAddress",
          "type": "address"
        }
      ],
      "name": "ChangeMarketMakerLibraryAddress",
      "type": "event"
    },
    {
      "anonymous": false,
      "inputs": [
        {
          "indexed": true,
          "internalType": "address",
          "name": "_beneficiary",
          "type": "address"
        },
        {
          "indexed": false,
          "internalType": "uint256",
          "name": "_amount",
          "type": "uint256"
        }
      ],
      "name": "CreatedVestingSchedule",
      "type": "event"
    },
    {
      "anonymous": false,
      "inputs": [
        {
          "indexed": false,
          "internalType": "uint256",
          "name": "claimedBaseFee",
          "type": "uint256"
        },
        {
          "indexed": false,
          "internalType": "uint256",
          "name": "claimedPairedFee",
          "type": "uint256"
        }
      ],
      "name": "FeesClaimed",
      "type": "event"
    },
    {
      "anonymous": false,
      "inputs": [
        {
          "indexed": true,
          "internalType": "address",
          "name": "oldOwner",
          "type": "address"
        },
        {
          "indexed": true,
          "internalType": "address",
          "name": "newOwner",
          "type": "address"
        }
      ],
      "name": "OwnershipTransferred",
      "type": "event"
    },
    {
      "anonymous": false,
      "inputs": [
        {
          "indexed": false,
          "internalType": "address",
          "name": "account",
          "type": "address"
        }
      ],
      "name": "Paused",
      "type": "event"
    },
    {
      "anonymous": false,
      "inputs": [
        {
          "indexed": true,
          "internalType": "address",
          "name": "_user",
          "type": "address"
        }
      ],
      "name": "ProjectOwnerRemoved",
      "type": "event"
    },
    {
      "anonymous": false,
      "inputs": [
        {
          "indexed": true,
          "internalType": "address",
          "name": "_user",
          "type": "address"
        }
      ],
      "name": "ProjectOwnerSet",
      "type": "event"
    },
    {
      "anonymous": false,
      "inputs": [
        {
          "indexed": true,
          "internalType": "address",
          "name": "_user",
          "type": "address"
        },
        {
          "indexed": false,
          "internalType": "uint256",
          "name": "_amount",
          "type": "uint256"
        }
      ],
      "name": "Staked",
      "type": "event"
    },
    {
      "anonymous": false,
      "inputs": [
        {
          "indexed": true,
          "internalType": "address",
          "name": "_user",
          "type": "address"
        },
        {
          "indexed": false,
          "internalType": "uint256",
          "name": "_amount",
          "type": "uint256"
        }
      ],
      "name": "StakedInPairedToken",
      "type": "event"
    },
    {
      "anonymous": false,
      "inputs": [
        {
          "indexed": false,
          "internalType": "address",
          "name": "account",
          "type": "address"
        }
      ],
      "name": "Unpaused",
      "type": "event"
    },
    {
      "anonymous": false,
      "inputs": [
        {
          "indexed": true,
          "internalType": "address",
          "name": "_user",
          "type": "address"
        },
        {
          "indexed": false,
          "internalType": "uint256",
          "name": "_amount",
          "type": "uint256"
        }
      ],
      "name": "VestingRevoked",
      "type": "event"
    },
    {
      "anonymous": false,
      "inputs": [
        {
          "indexed": true,
          "internalType": "address",
          "name": "_user",
          "type": "address"
        },
        {
          "indexed": false,
          "internalType": "uint256",
          "name": "_amount",
          "type": "uint256"
        }
      ],
      "name": "WithdrawnBaseToken",
      "type": "event"
    },
    {
      "anonymous": false,
      "inputs": [
        {
          "indexed": true,
          "internalType": "address",
          "name": "_user",
          "type": "address"
        },
        {
          "indexed": false,
          "internalType": "uint256",
          "name": "_amount",
          "type": "uint256"
        }
      ],
      "name": "WithdrawnPairedToken",
      "type": "event"
    },
    {
      "inputs": [
        {
          "internalType": "address",
          "name": "_beneficiary",
          "type": "address"
        }
      ],
      "name": "amountLocked",
      "outputs": [
        {
          "internalType": "uint256",
          "name": "",
          "type": "uint256"
        }
      ],
      "stateMutability": "view",
      "type": "function"
    },
    {
      "inputs": [
        {
          "internalType": "address",
          "name": "_beneficiary",
          "type": "address"
        }
      ],
      "name": "amountVested",
      "outputs": [
        {
          "internalType": "uint256",
          "name": "",
          "type": "uint256"
        }
      ],
      "stateMutability": "view",
      "type": "function"
    },
    {
      "inputs": [
        {
          "internalType": "address",
          "name": "_beneficiary",
          "type": "address"
        }
      ],
      "name": "available",
      "outputs": [
        {
          "internalType": "uint256",
          "name": "",
          "type": "uint256"
        }
      ],
      "stateMutability": "view",
      "type": "function"
    },
    {
      "inputs": [
        {
          "internalType": "address",
          "name": "_beneficiary",
          "type": "address"
        }
      ],
      "name": "balanceInPairedToken",
      "outputs": [
        {
          "internalType": "uint256",
          "name": "",
          "type": "uint256"
        }
      ],
      "stateMutability": "view",
      "type": "function"
    },
    {
      "inputs": [],
      "name": "baseTokenAddress",
      "outputs": [
        {
          "internalType": "address",
          "name": "",
          "type": "address"
        }
      ],
      "stateMutability": "view",
      "type": "function"
    },
    {
      "inputs": [
        {
          "internalType": "uint256[]",
          "name": "_amountsIn",
          "type": "uint256[]"
        },
        {
          "internalType": "address[]",
          "name": "_beneficiaryArray",
          "type": "address[]"
        },
        {
          "internalType": "uint256",
          "name": "_slippage",
          "type": "uint256"
        },
        {
          "internalType": "string",
          "name": "_exchange",
          "type": "string"
        }
      ],
      "name": "buy",
      "outputs": [],
      "stateMutability": "nonpayable",
      "type": "function"
    },
    {
      "inputs": [],
      "name": "claimFees",
      "outputs": [],
      "stateMutability": "nonpayable",
      "type": "function"
    },
    {
      "inputs": [
        {
          "internalType": "address",
          "name": "_beneficiary",
          "type": "address"
        }
      ],
      "name": "computeReleasableAmount",
      "outputs": [
        {
          "internalType": "uint256",
          "name": "",
          "type": "uint256"
        }
      ],
      "stateMutability": "view",
      "type": "function"
    },
    {
      "inputs": [],
      "name": "controller",
      "outputs": [
        {
          "internalType": "address payable",
          "name": "",
          "type": "address"
        }
      ],
      "stateMutability": "view",
      "type": "function"
    },
    {
      "inputs": [
        {
          "internalType": "address[]",
          "name": "_beneficiaryArray",
          "type": "address[]"
        },
        {
          "internalType": "uint32",
          "name": "_start",
          "type": "uint32"
        },
        {
          "internalType": "uint32",
          "name": "_cliff",
          "type": "uint32"
        },
        {
          "internalType": "uint32",
          "name": "_duration",
          "type": "uint32"
        },
        {
          "internalType": "uint32",
          "name": "_slicePeriodSeconds",
          "type": "uint32"
        },
        {
          "internalType": "bool",
          "name": "_revocable",
          "type": "bool"
        },
        {
          "internalType": "uint256[]",
          "name": "_amounts",
          "type": "uint256[]"
        }
      ],
      "name": "createVestingSchedule",
      "outputs": [],
      "stateMutability": "nonpayable",
      "type": "function"
    },
    {
      "inputs": [
        {
          "internalType": "address",
          "name": "_beneficiary",
          "type": "address"
        }
      ],
      "name": "getWithdrawablePairedTokens",
      "outputs": [
        {
          "internalType": "uint256",
          "name": "total",
          "type": "uint256"
        }
      ],
      "stateMutability": "view",
      "type": "function"
    },
    {
      "inputs": [
        {
          "internalType": "address",
          "name": "",
          "type": "address"
        }
      ],
      "name": "holdersMapping",
      "outputs": [
        {
          "internalType": "uint256",
          "name": "balanceInPairedToken",
          "type": "uint256"
        },
        {
          "internalType": "uint256",
          "name": "available",
          "type": "uint256"
        },
        {
          "internalType": "uint256",
          "name": "amountVested",
          "type": "uint256"
        },
        {
          "internalType": "uint256",
          "name": "released",
          "type": "uint256"
        },
        {
          "internalType": "uint128",
          "name": "baseAmountBought",
          "type": "uint128"
        },
        {
          "internalType": "uint128",
          "name": "pairedAmountBought",
          "type": "uint128"
        },
        {
          "internalType": "uint128",
          "name": "baseAmountSold",
          "type": "uint128"
        },
        {
          "internalType": "uint128",
          "name": "pairedAmountSold",
          "type": "uint128"
        },
        {
          "internalType": "uint32",
          "name": "cliff",
          "type": "uint32"
        },
        {
          "internalType": "uint32",
          "name": "start",
          "type": "uint32"
        },
        {
          "internalType": "uint32",
          "name": "duration",
          "type": "uint32"
        },
        {
          "internalType": "uint32",
          "name": "slicePeriodSeconds",
          "type": "uint32"
        },
        {
          "internalType": "bool",
          "name": "projectOwner",
          "type": "bool"
        },
        {
          "internalType": "bool",
          "name": "revocable",
          "type": "bool"
        }
      ],
      "stateMutability": "view",
      "type": "function"
    },
    {
      "inputs": [],
      "name": "marketMakerLibraryAddress",
      "outputs": [
        {
          "internalType": "address",
          "name": "",
          "type": "address"
        }
      ],
      "stateMutability": "view",
      "type": "function"
    },
    {
      "inputs": [],
      "name": "masterContract",
      "outputs": [
        {
          "internalType": "contract IMasterContract",
          "name": "",
          "type": "address"
        }
      ],
      "stateMutability": "view",
      "type": "function"
    },
    {
      "inputs": [],
      "name": "moderator",
      "outputs": [
        {
          "internalType": "address",
          "name": "",
          "type": "address"
        }
      ],
      "stateMutability": "view",
      "type": "function"
    },
    {
      "inputs": [],
      "name": "owner",
      "outputs": [
        {
          "internalType": "address",
          "name": "",
          "type": "address"
        }
      ],
      "stateMutability": "view",
      "type": "function"
    },
    {
      "inputs": [],
      "name": "pairedTokenAddress",
      "outputs": [
        {
          "internalType": "address",
          "name": "",
          "type": "address"
        }
      ],
      "stateMutability": "view",
      "type": "function"
    },
    {
      "inputs": [],
      "name": "pause",
      "outputs": [],
      "stateMutability": "nonpayable",
      "type": "function"
    },
    {
      "inputs": [],
      "name": "paused",
      "outputs": [
        {
          "internalType": "bool",
          "name": "",
          "type": "bool"
        }
      ],
      "stateMutability": "view",
      "type": "function"
    },
    {
      "inputs": [],
      "name": "release",
      "outputs": [],
      "stateMutability": "nonpayable",
      "type": "function"
    },
    {
      "inputs": [
        {
          "internalType": "address",
          "name": "_beneficiary",
          "type": "address"
        }
      ],
      "name": "released",
      "outputs": [
        {
          "internalType": "uint256",
          "name": "",
          "type": "uint256"
        }
      ],
      "stateMutability": "view",
      "type": "function"
    },
    {
      "inputs": [
        {
          "internalType": "address[]",
          "name": "_beneficiaryArray",
          "type": "address[]"
        }
      ],
      "name": "removeProjectOwner",
      "outputs": [],
      "stateMutability": "nonpayable",
      "type": "function"
    },
    {
      "inputs": [],
      "name": "revocableContract",
      "outputs": [
        {
          "internalType": "bool",
          "name": "",
          "type": "bool"
        }
      ],
      "stateMutability": "view",
      "type": "function"
    },
    {
      "inputs": [
        {
          "internalType": "address",
          "name": "_beneficiary",
          "type": "address"
        }
      ],
      "name": "revoke",
      "outputs": [],
      "stateMutability": "nonpayable",
      "type": "function"
    },
    {
      "inputs": [
        {
          "internalType": "uint256[]",
          "name": "_amountsIn",
          "type": "uint256[]"
        },
        {
          "internalType": "address[]",
          "name": "_beneficiaryArray",
          "type": "address[]"
        },
        {
          "internalType": "uint256",
          "name": "_slippage",
          "type": "uint256"
        },
        {
          "internalType": "string",
          "name": "_exchange",
          "type": "string"
        }
      ],
      "name": "sell",
      "outputs": [],
      "stateMutability": "nonpayable",
      "type": "function"
    },
    {
      "inputs": [
        {
          "internalType": "address",
          "name": "_marketMakerLibraryAddress",
          "type": "address"
        }
      ],
      "name": "setMarketMakerLibraryAddress",
      "outputs": [],
      "stateMutability": "nonpayable",
      "type": "function"
    },
    {
      "inputs": [
        {
          "internalType": "address[]",
          "name": "_beneficiaryArray",
          "type": "address[]"
        }
      ],
      "name": "setProjectOwner",
      "outputs": [],
      "stateMutability": "nonpayable",
      "type": "function"
    },
    {
      "inputs": [
        {
          "internalType": "uint256",
          "name": "_amount",
          "type": "uint256"
        }
      ],
      "name": "stake",
      "outputs": [],
      "stateMutability": "nonpayable",
      "type": "function"
    },
    {
      "inputs": [
        {
          "internalType": "uint256[]",
          "name": "_amounts",
          "type": "uint256[]"
        },
        {
          "internalType": "address[]",
          "name": "_beneficiaryArray",
          "type": "address[]"
        }
      ],
      "name": "stakeBatch",
      "outputs": [],
      "stateMutability": "nonpayable",
      "type": "function"
    },
    {
      "inputs": [
        {
          "internalType": "uint256",
          "name": "_amount",
          "type": "uint256"
        }
      ],
      "name": "stakePairedToken",
      "outputs": [],
      "stateMutability": "nonpayable",
      "type": "function"
    },
    {
      "inputs": [],
      "name": "stakePairedTokenInETH",
      "outputs": [],
      "stateMutability": "payable",
      "type": "function"
    },
    {
      "inputs": [
        {
          "internalType": "uint256[]",
          "name": "_amountsIn",
          "type": "uint256[]"
        },
        {
          "internalType": "address[]",
          "name": "_beneficiaryArray",
          "type": "address[]"
        },
        {
          "internalType": "address",
          "name": "_seller",
          "type": "address"
        },
        {
          "internalType": "string",
          "name": "_exchange",
          "type": "string"
        }
      ],
      "name": "swap",
      "outputs": [],
      "stateMutability": "nonpayable",
      "type": "function"
    },
    {
      "inputs": [],
      "name": "totalVested",
      "outputs": [
        {
          "internalType": "uint256",
          "name": "",
          "type": "uint256"
        }
      ],
      "stateMutability": "view",
      "type": "function"
    },
    {
      "inputs": [
        {
          "internalType": "address",
          "name": "newOwner",
          "type": "address"
        }
      ],
      "name": "transferOwnership",
      "outputs": [],
      "stateMutability": "nonpayable",
      "type": "function"
    },
    {
      "inputs": [],
      "name": "unpause",
      "outputs": [],
      "stateMutability": "nonpayable",
      "type": "function"
    },
    {
      "inputs": [
        {
          "internalType": "uint256",
          "name": "_amount",
          "type": "uint256"
        }
      ],
      "name": "withdrawBaseToken",
      "outputs": [],
      "stateMutability": "nonpayable",
      "type": "function"
    },
    {
      "inputs": [
        {
          "internalType": "uint256",
          "name": "_amount",
          "type": "uint256"
        }
      ],
      "name": "withdrawPairedToken",
      "outputs": [],
      "stateMutability": "nonpayable",
      "type": "function"
    },
    {
      "stateMutability": "payable",
      "type": "receive"
    }
  ],
  "bytecode": "0x6101606040523480156200001257600080fd5b5060405162004b9d38038062004b9d833981016040819052620000359162000375565b600080546001600160a01b03191633178082556040516001600160a01b0391909116919060008051602062004b7d833981519152908290a3600180556002805460ff191690556001600160601b031960608a811b821660e081905260c05289811b82166101208190526101005286811b821660805287901b1660a05283151560f81b61014052600380546001600160a01b0383166001600160a01b0319909116179055620000e3826200013a565b620000ee8762000260565b600080546001600160a01b03168152600460205260409020600601805460ff60801b1916600160801b17905582156200012b576200012b620002d7565b50505050505050505062000545565b7fa8f5d6a26420dbca563af82edda993be302bfa0d82b1540ed55eac3326eb85f2600260019054906101000a90046001600160a01b031682604051620001829291906200047c565b60405180910390a1600354604051630b90f5dd60e41b81526001600160a01b039091169063b90f5dd090620001bc90849060040162000468565b60206040518083038186803b158015620001d557600080fd5b505afa158015620001ea573d6000803e3d6000fd5b505050506040513d601f19601f8201168201806040525081019062000210919062000444565b620002385760405162461bcd60e51b81526004016200022f90620004f5565b60405180910390fd5b600280546001600160a01b0390921661010002610100600160a81b0319909216919091179055565b6000546001600160a01b031633146200028d5760405162461bcd60e51b81526004016200022f90620004c0565b600080546040516001600160a01b038085169392169160008051602062004b7d83398151915291a3600080546001600160a01b0319166001600160a01b0392909216919091179055565b620002e162000352565b15620003015760405162461bcd60e51b81526004016200022f9062000496565b6002805460ff191660011790557f62e78cea01bee320cd4e420270b5ea74000d11b0c9f74754ebdbfc544b05a258620003396200035b565b60405162000348919062000468565b60405180910390a1565b60025460ff1690565b3390565b805180151581146200037057600080fd5b919050565b60008060008060008060008060006101208a8c03121562000394578485fd5b8951620003a1816200052c565b60208b0151909950620003b4816200052c565b60408b0151909850620003c7816200052c565b60608b0151909750620003da816200052c565b60808b0151909650620003ed816200052c565b9450620003fd60a08b016200035f565b93506200040d60c08b016200035f565b925060e08a01516200041f816200052c565b6101008b015190925062000433816200052c565b809150509295985092959850929598565b60006020828403121562000456578081fd5b62000461826200035f565b9392505050565b6001600160a01b0391909116815260200190565b6001600160a01b0392831681529116602082015260400190565b60208082526010908201526f14185d5cd8589b194e881c185d5cd95960821b604082015260600190565b6020808252818101527f4f776e61626c653a2063616c6c6572206973206e6f7420746865206f776e6572604082015260600190565b6020808252601e908201527f4d61726b65744d616b65724c696272617279206e6f7420616c6c6f7765640000604082015260600190565b6001600160a01b03811681146200054257600080fd5b50565b60805160601c60a05160601c60c05160601c60e05160601c6101005160601c6101205160601c6101405160f81c6144e16200069c600039600081816114470152611b22015260008181611e3201528181611f49015261231501526000818161086701528181610ae4015281816111d5015281816112b401528181611c9b01528181612229015281816126100152818161266a015281816128c0015261359d015260008181610cda01528181610e2b0152818161165101528181611ae701528181611c490152611e6b01526000818161084601528181610b05015281816111f601526116d1015260008181610f5001528181610f7d015281816112e1015281816116fe0152818161195f0152611de401526000818161067b0152818161093701528181610faf015281816110a001528181611730015281816124550152818161284f0152818161288d01526129ab01526144e16000f3fe6080604052600436106101ee5760003560e01c806386d1a69f11610113578063baf2a116116100ab578063e5bf6a7f1161006f578063e5bf6a7f1461059f578063f2fde38b146105bf578063f47c733f146105df578063f6c788b2146105ff578063f77c47911461061f576101f5565b8063baf2a11614610515578063cd446e2214610535578063d294f0931461054a578063d82f19671461055f578063dd1fdb621461057f576101f5565b806386d1a69f1461042e5780638da5cb5b146104435780639270704a146104585780639852595c14610478578063a694fc3a14610498578063a92a8875146104b8578063ac678735146104cd578063afbd7ac1146104ed578063b2822c311461050d576101f5565b80633f4ba83a116101865780633f4ba83a1461031e57806347fd27f0146103335780635c975abb1461036d5780635d2cd2dc1461038f5780636927810d146103af57806372db12cb146103c457806374a8f103146103e45780637cb374bd146104045780638456cb5914610419576101f5565b806310098ad5146101fa5780631742541a14610230578063199cbc54146102525780631de53d94146102675780632f764a83146102895780632fd33ddb146102a95780633423ee60146102c957806337e3a19e146102e95780633874390414610309576101f5565b366101f557005b600080fd5b34801561020657600080fd5b5061021a61021536600461381f565b610634565b6040516102279190614246565b60405180910390f35b34801561023c57600080fd5b50610245610656565b6040516102279190613c2f565b34801561025e57600080fd5b5061021a61066a565b34801561027357600080fd5b50610287610282366004613a7b565b610670565b005b34801561029557600080fd5b506102876102a43660046139dc565b61092c565b3480156102b557600080fd5b506102876102c4366004613b9c565b610c39565b3480156102d557600080fd5b506102876102e436600461397c565b610d49565b3480156102f557600080fd5b5061021a61030436600461381f565b610e5c565b34801561031557600080fd5b50610245610f4e565b34801561032a57600080fd5b50610287610f72565b34801561033f57600080fd5b5061035361034e36600461381f565b610ff7565b6040516102279e9d9c9b9a9998979695949392919061425d565b34801561037957600080fd5b5061038261108c565b6040516102279190613d4c565b34801561039b57600080fd5b506102876103aa366004613a7b565b611095565b3480156103bb57600080fd5b506102456112b2565b3480156103d057600080fd5b506102876103df366004613857565b6112d6565b3480156103f057600080fd5b506102876103ff36600461381f565b61141b565b34801561041057600080fd5b506102456116cf565b34801561042557600080fd5b506102876116f3565b34801561043a57600080fd5b50610287611776565b34801561044f57600080fd5b50610245611945565b34801561046457600080fd5b50610287610473366004613857565b611954565b34801561048457600080fd5b5061021a61049336600461381f565b611a94565b3480156104a457600080fd5b506102876104b3366004613b9c565b611ab2565b3480156104c457600080fd5b50610382611b20565b3480156104d957600080fd5b5061021a6104e836600461381f565b611b44565b3480156104f957600080fd5b506102876105083660046138c5565b611b62565b610287611c71565b34801561052157600080fd5b5061028761053036600461381f565b611d6c565b34801561054157600080fd5b50610245611da2565b34801561055657600080fd5b50610287611db1565b34801561056b57600080fd5b5061028761057a366004613b9c565b611f14565b34801561058b57600080fd5b5061021a61059a36600461381f565b611f7a565b3480156105ab57600080fd5b506102876105ba366004613b9c565b61206e565b3480156105cb57600080fd5b506102876105da36600461381f565b612386565b3480156105eb57600080fd5b5061021a6105fa36600461381f565b61240b565b34801561060b57600080fd5b5061021a61061a36600461381f565b612426565b34801561062b57600080fd5b50610245612453565b6001600160a01b0381166000908152600460205260409020600101545b919050565b60025461010090046001600160a01b031681565b60055481565b336001600160a01b037f000000000000000000000000000000000000000000000000000000000000000016146106c15760405162461bcd60e51b81526004016106b890613d8a565b60405180910390fd5b600260015414156106e45760405162461bcd60e51b81526004016106b89061420f565b60026001556106f161108c565b1561070e5760405162461bcd60e51b81526004016106b890613f54565b6000805b855181101561083e576107cb86828151811061073e57634e487b7160e01b600052603260045260246000fd5b60200260200101516107c689848151811061076957634e487b7160e01b600052603260045260246000fd5b6020026020010151600460008b878151811061079557634e487b7160e01b600052603260045260246000fd5b60200260200101516001600160a01b03166001600160a01b0316815260200190815260200160002060010154612477565b61248e565b8782815181106107eb57634e487b7160e01b600052603260045260246000fd5b60200260200101818152505086818151811061081757634e487b7160e01b600052603260045260246000fd5b60200260200101518261082a9190614384565b91508061083681614441565b915050610712565b50600061088f7f00000000000000000000000000000000000000000000000000000000000000007f00000000000000000000000000000000000000000000000000000000000000008488888861260c565b905060005b865181101561091e5761090b8782815181106108c057634e487b7160e01b600052603260045260246000fd5b6020026020010151848a84815181106108e957634e487b7160e01b600052603260045260246000fd5b6020026020010151856108fc91906143db565b61090691906143bb565b6126bb565b508061091681614441565b915050610894565b505060018055505050505050565b336001600160a01b037f000000000000000000000000000000000000000000000000000000000000000016146109745760405162461bcd60e51b81526004016106b890613d8a565b600260015414156109975760405162461bcd60e51b81526004016106b89061420f565b60026001556109a461108c565b156109c15760405162461bcd60e51b81526004016106b890613f54565b6000805b8551811015610ac157610a4e8782815181106109f157634e487b7160e01b600052603260045260246000fd5b602002602001015160046000898581518110610a1d57634e487b7160e01b600052603260045260246000fd5b60200260200101516001600160a01b03166001600160a01b0316815260200190815260200160002060000154612477565b878281518110610a6e57634e487b7160e01b600052603260045260246000fd5b602002602001018181525050868181518110610a9a57634e487b7160e01b600052603260045260246000fd5b602002602001015182610aad9190614384565b915080610ab981614441565b9150506109c5565b506000610ace85836126bb565b9050610adb818585612841565b90506000610b2c7f00000000000000000000000000000000000000000000000000000000000000007f0000000000000000000000000000000000000000000000000000000000000000848888612a1d565b6001600160a01b038716600090815260046020526040902060010154909150811115610b6a5760405162461bcd60e51b81526004016106b890613eb8565b610b74868261248e565b905060005b8751811015610c2a57610c18888281518110610ba557634e487b7160e01b600052603260045260246000fd5b60200260200101518a8381518110610bcd57634e487b7160e01b600052603260045260246000fd5b6020026020010151868c8581518110610bf657634e487b7160e01b600052603260045260246000fd5b602002602001015186610c0991906143db565b610c1391906143bb565b612adf565b80610c2281614441565b915050610b79565b50506001805550505050505050565b60026001541415610c5c5760405162461bcd60e51b81526004016106b89061420f565b6002600155610c6961108c565b15610c865760405162461bcd60e51b81526004016106b890613f54565b33600090815260046020526040902060010154811115610ca557600080fd5b3360009081526004602052604081206001018054839290610cc79084906143fa565b90915550610d0190506001600160a01b037f0000000000000000000000000000000000000000000000000000000000000000163383612c0c565b336001600160a01b03167fb2475cc0963391d593f1a890df550d0c0551e1317e08cba0cdece5014f0555f682604051610d3a9190614246565b60405180910390a25060018055565b60026001541415610d6c5760405162461bcd60e51b81526004016106b89061420f565b60026001556000805b8251811015610e1d57838181518110610d9e57634e487b7160e01b600052603260045260246000fd5b602002602001015182610db19190614384565b9150610e0b838281518110610dd657634e487b7160e01b600052603260045260246000fd5b6020026020010151858381518110610dfe57634e487b7160e01b600052603260045260246000fd5b6020026020010151612d0b565b80610e1581614441565b915050610d75565b50610e536001600160a01b037f000000000000000000000000000000000000000000000000000000000000000016333084612d82565b50506001805550565b6001600160a01b03811660009081526004602052604081205490670de0b6b3a7640000610e87612e6b565b6001600160a01b03858116600090815260046020819052604091829020600601549151631820cc6160e11b8152939092169263304198c292610ed7928992600160801b90910460ff169101613cf0565b60206040518083038186803b158015610eef57600080fd5b505afa158015610f03573d6000803e3d6000fd5b505050506040513d601f19601f82011682018060405250810190610f279190613bb4565b610f3190846143db565b610f3b91906143bb565b9050610f4781836143fa565b9392505050565b7f000000000000000000000000000000000000000000000000000000000000000081565b336001600160a01b037f0000000000000000000000000000000000000000000000000000000000000000161480610fd15750336001600160a01b037f000000000000000000000000000000000000000000000000000000000000000016145b610fed5760405162461bcd60e51b81526004016106b890613f7e565b610ff5612eed565b565b600460208190526000918252604090912080546001820154600283015460038401549484015460058501546006909501549395929491936001600160801b0380831693600160801b9384900482169381831693918190049092169163ffffffff80831692600160201b8104821692600160401b8204831692600160601b8304169160ff918104821691600160881b909104168e565b60025460ff1690565b336001600160a01b037f000000000000000000000000000000000000000000000000000000000000000016146110dd5760405162461bcd60e51b81526004016106b890613d8a565b600260015414156111005760405162461bcd60e51b81526004016106b89061420f565b600260015561110d61108c565b1561112a5760405162461bcd60e51b81526004016106b890613f54565b6000805b85518110156111cd5761115a8782815181106109f157634e487b7160e01b600052603260045260246000fd5b87828151811061117a57634e487b7160e01b600052603260045260246000fd5b6020026020010181815250508681815181106111a657634e487b7160e01b600052603260045260246000fd5b6020026020010151826111b99190614384565b9150806111c581614441565b91505061112e565b50600061121e7f00000000000000000000000000000000000000000000000000000000000000007f00000000000000000000000000000000000000000000000000000000000000008488888861260c565b905060005b865181101561091e576112a087828151811061124f57634e487b7160e01b600052603260045260246000fd5b602002602001015189838151811061127757634e487b7160e01b600052603260045260246000fd5b6020026020010151858b8581518110610bf657634e487b7160e01b600052603260045260246000fd5b806112aa81614441565b915050611223565b7f000000000000000000000000000000000000000000000000000000000000000081565b336001600160a01b037f0000000000000000000000000000000000000000000000000000000000000000161461131e5760405162461bcd60e51b81526004016106b8906140c9565b60005b818110156114165760006004600085858581811061134f57634e487b7160e01b600052603260045260246000fd5b9050602002016020810190611364919061381f565b6001600160a01b0316815260208101919091526040016000206006018054911515600160801b0260ff60801b199092169190911790558282828181106113ba57634e487b7160e01b600052603260045260246000fd5b90506020020160208101906113cf919061381f565b6001600160a01b03167fa3bfdef3d8149bacf15b7b64199fca8228c0fd4f8fcdd11cc7871829baf319c360405160405180910390a28061140e81614441565b915050611321565b505050565b6000546001600160a01b031633146114455760405162461bcd60e51b81526004016106b890613fd7565b7f00000000000000000000000000000000000000000000000000000000000000006114825760405162461bcd60e51b81526004016106b890614083565b6001600160a01b03811660009081526004602052604090206006810154600160881b900460ff166114c55760405162461bcd60e51b81526004016106b890613f0e565b806003015481600201546114d991906143fa565b600560008282546114ea91906143fa565b9091555050604080516101c08101825282548152600183015460208201526002830154918101919091526003820154606082015260048201546001600160801b038082166080840152600160801b91829004811660a0840152600584015480821660c08501528290041660e0830152600683015463ffffffff808216610100850152600160201b82048116610120850152600160401b82048116610140850152600160601b82041661016084015260ff91810482161515610180840152600160881b90041615156101a08201526000906115c390612f5b565b9050808260010160008282546115d99190614384565b92505081905550826001600160a01b03167f94fd705dafc89ff1f03c1207631245602407f0e8ee47e1878a4e2ae954cd7674826040516116199190614246565b60405180910390a260008183600301546116339190614384565b836002015461164291906143fa565b90506116786001600160a01b037f0000000000000000000000000000000000000000000000000000000000000000163383612c0c565b60006002840181905560038401556040516001600160a01b038516907f57c76f5e278bfbd4eeb5207d287aa5a1a9e1113c65f7eefa540e379a2774d13b906116c1908490614246565b60405180910390a250505050565b7f000000000000000000000000000000000000000000000000000000000000000081565b336001600160a01b037f00000000000000000000000000000000000000000000000000000000000000001614806117525750336001600160a01b037f000000000000000000000000000000000000000000000000000000000000000016145b61176e5760405162461bcd60e51b81526004016106b890613f7e565b610ff5613047565b600260015414156117995760405162461bcd60e51b81526004016106b89061420f565b60026001556117a661108c565b156117c35760405162461bcd60e51b81526004016106b890613f54565b33600090815260046020526040902060028101546117e057600080fd5b604080516101c08101825282548152600183015460208201526002830154918101919091526003820154606082015260048201546001600160801b038082166080840152600160801b91829004811660a0840152600584015480821660c08501528290041660e0830152600683015463ffffffff808216610100850152600160201b82048116610120850152600160401b82048116610140850152600160601b82041661016084015260ff91810482161515610180840152600160881b90041615156101a08201526000906118b490612f5b565b9050808260030160008282546118ca9190614384565b9250508190555080600560008282546118e391906143fa565b92505081905550808260010160008282546118fe9190614384565b909155505060405133907f94fd705dafc89ff1f03c1207631245602407f0e8ee47e1878a4e2ae954cd767490611935908490614246565b60405180910390a2505060018055565b6000546001600160a01b031681565b336001600160a01b037f0000000000000000000000000000000000000000000000000000000000000000161461199c5760405162461bcd60e51b81526004016106b8906140c9565b60005b81811015611416576001600460008585858181106119cd57634e487b7160e01b600052603260045260246000fd5b90506020020160208101906119e2919061381f565b6001600160a01b0316815260208101919091526040016000206006018054911515600160801b0260ff60801b19909216919091179055828282818110611a3857634e487b7160e01b600052603260045260246000fd5b9050602002016020810190611a4d919061381f565b6001600160a01b03167fb72139c440b4fd552bd1ef2077ce2ef7de385e96860222e8ad491235caf5af6660405160405180910390a280611a8c81614441565b91505061199f565b6001600160a01b031660009081526004602052604090206003015490565b60026001541415611ad55760405162461bcd60e51b81526004016106b89061420f565b6002600155611b0f6001600160a01b037f000000000000000000000000000000000000000000000000000000000000000016333084612d82565b611b193382612d0b565b5060018055565b7f000000000000000000000000000000000000000000000000000000000000000081565b6001600160a01b031660009081526004602052604090206002015490565b60026001541415611b855760405162461bcd60e51b81526004016106b89061420f565b60026001556000805b8851811015611c3b57828181518110611bb757634e487b7160e01b600052603260045260246000fd5b602002602001015182611bca9190614384565b9150611c29898281518110611bef57634e487b7160e01b600052603260045260246000fd5b60200260200101518989898989898881518110611c1c57634e487b7160e01b600052603260045260246000fd5b60200260200101516130a2565b80611c3381614441565b915050611b8e565b5061091e6001600160a01b037f000000000000000000000000000000000000000000000000000000000000000016333084612d82565b60026001541415611c945760405162461bcd60e51b81526004016106b89061420f565b60026001557f00000000000000000000000000000000000000000000000000000000000000006001600160a01b031673bb4cdb9cbd36b01bd1cbaebf2de08d9173bc095c14611cf55760405162461bcd60e51b81526004016106b8906141a6565b73bb4cdb9cbd36b01bd1cbaebf2de08d9173bc095c6001600160a01b031663d0e30db0346040518263ffffffff1660e01b81526004016000604051808303818588803b158015611d4457600080fd5b505af1158015611d58573d6000803e3d6000fd5b5050505050611d6634613343565b60018055565b6000546001600160a01b03163314611d965760405162461bcd60e51b81526004016106b890613fd7565b611d9f816133a4565b50565b6003546001600160a01b031681565b60026001541415611dd45760405162461bcd60e51b81526004016106b89061420f565b6002600155336001600160a01b037f00000000000000000000000000000000000000000000000000000000000000001614611e215760405162461bcd60e51b81526004016106b8906140c9565b600954611e5a906001600160a01b037f000000000000000000000000000000000000000000000000000000000000000016903390612c0c565b600a54611e93906001600160a01b037f000000000000000000000000000000000000000000000000000000000000000016903390612c0c565b60095460076000828254611ea79190614384565b9091555050600a5460088054600090611ec1908490614384565b9091555050600a546009546040517fa1f87f32d0f17fab0242ca800d736293de8988c14b27747e218cf13d5c249f5392611efc92909161424f565b60405180910390a160006009819055600a5560018055565b60026001541415611f375760405162461bcd60e51b81526004016106b89061420f565b6002600155611f716001600160a01b037f000000000000000000000000000000000000000000000000000000000000000016333084612d82565b611b1981613343565b6001600160a01b038116600090815260046020818152604080842081516101c0810183528154815260018201549381019390935260028101549183019190915260038101546060830152918201546001600160801b038082166080840152600160801b91829004811660a0840152600584015480821660c08501528290041660e083015260069092015463ffffffff808216610100840152600160201b82048116610120840152600160401b82048116610140840152600160601b82041661016083015260ff92810483161515610180830152600160881b900490911615156101a082015261206890612f5b565b92915050565b600260015414156120915760405162461bcd60e51b81526004016106b89061420f565b600260015561209e61108c565b156120bb5760405162461bcd60e51b81526004016106b890613f54565b806120c533610e5c565b10156120e35760405162461bcd60e51b81526004016106b890613e81565b60006120ed612e6b565b33600081815260046020819052604091829020600601549151631820cc6160e11b81526001600160a01b03949094169363304198c29361213b939092600160801b90910460ff169101613cf0565b60206040518083038186803b15801561215357600080fd5b505afa158015612167573d6000803e3d6000fd5b505050506040513d601f19601f8201168201806040525081019061218b9190613bb4565b905060006121a182670de0b6b3a76400006143fa565b6121ab83856143db565b6121b591906143bb565b336000908152600460205260409020549091506121de9084906121d99084906143fa565b612477565b92506121ea8184614384565b33600090815260046020526040812080549091906122099084906143fa565b9250508190555080600960008282546122229190614384565b90915550507f00000000000000000000000000000000000000000000000000000000000000006001600160a01b031673bb4cdb9cbd36b01bd1cbaebf2de08d9173bc095c141561230857604051632e1a7d4d60e01b815273bb4cdb9cbd36b01bd1cbaebf2de08d9173bc095c90632e1a7d4d906122a3908690600401614246565b600060405180830381600087803b1580156122bd57600080fd5b505af11580156122d1573d6000803e3d6000fd5b505060405133925085156108fc02915085906000818181858888f19350505050158015612302573d6000803e3d6000fd5b5061233c565b61233c6001600160a01b037f0000000000000000000000000000000000000000000000000000000000000000163385612c0c565b336001600160a01b03167f5135ea2f98d3f162e3ddba39690cb01c8efe7e45ca7d4a15cf43be3d2981bc79846040516123759190614246565b60405180910390a250506001805550565b6000546001600160a01b031633146123b05760405162461bcd60e51b81526004016106b890613fd7565b600080546040516001600160a01b03808516939216917f8be0079c531659141344cd1fd0a4f28419497f9722a3daafe3b4186f6b6457e091a3600080546001600160a01b0319166001600160a01b0392909216919091179055565b6001600160a01b031660009081526004602052604090205490565b6001600160a01b0381166000908152600460205260408120600381015460029091015461206891906143fa565b7f000000000000000000000000000000000000000000000000000000000000000081565b6000818311156124875781610f47565b5090919050565b6001600160a01b0382166000908152600460205260408120600101805483919083906124bb9084906143fa565b90915550506001600160a01b038316600090815260046020526040812060050180548492906124f49084906001600160801b0316614359565b92506101000a8154816001600160801b0302191690836001600160801b031602179055506000670de0b6b3a764000061252b612e6b565b6001600160a01b03868116600090815260046020819052604091829020600601549151631907bfab60e01b81529390921692631907bfab9261257b928a92600160801b90910460ff169101613cf0565b60206040518083038186803b15801561259357600080fd5b505afa1580156125a7573d6000803e3d6000fd5b505050506040513d601f19601f820116820180604052508101906125cb9190613bb4565b6125d590856143db565b6125df91906143bb565b90506125eb81846143fa565b925080600a60008282546125ff9190614384565b9091555092949350505050565b60007f00000000000000000000000000000000000000000000000000000000000000006001600160a01b0316876001600160a01b0316141561265657612653858484612841565b94505b60006126668888888888886134b6565b90507f00000000000000000000000000000000000000000000000000000000000000006001600160a01b0316876001600160a01b031614156126b0576126ad818585612841565b90505b979650505050505050565b600080670de0b6b3a76400006126cf612e6b565b6001600160a01b0386811660009081526004602081905260409182902060060154915163d9906e7d60e01b8152939092169263d9906e7d9261271f928a92600160801b90910460ff169101613cf0565b60206040518083038186803b15801561273757600080fd5b505afa15801561274b573d6000803e3d6000fd5b505050506040513d601f19601f8201168201806040525081019061276f9190613bb4565b61277990856143db565b61278391906143bb565b905061278f81846143fa565b925080600960008282546127a39190614384565b90915550506001600160a01b038416600090815260046020526040812080548592906127d0908490614384565b90915550506001600160a01b03841660009081526004602052604090206005018054849190601090612813908490600160801b90046001600160801b0316614359565b92506101000a8154816001600160801b0302191690836001600160801b031602179055508291505092915050565b60008067016345785d8a00007f00000000000000000000000000000000000000000000000000000000000000006001600160a01b0316311015612a0a5760006128bc6001600160a01b037f0000000000000000000000000000000000000000000000000000000000000000163167016345785d8a00006143fa565b90507f00000000000000000000000000000000000000000000000000000000000000006001600160a01b031673bb4cdb9cbd36b01bd1cbaebf2de08d9173bc095c146129145761290d81868661357b565b9150612918565b8091505b8186116129375760405162461bcd60e51b81526004016106b890614113565b604051632e1a7d4d60e01b815273bb4cdb9cbd36b01bd1cbaebf2de08d9173bc095c90632e1a7d4d9061296e908490600401614246565b600060405180830381600087803b15801561298857600080fd5b505af115801561299c573d6000803e3d6000fd5b50506040516001600160a01b037f000000000000000000000000000000000000000000000000000000000000000016925083156108fc02915083906000818181858888f193505050501580156129f6573d6000803e3d6000fd5b5081600654612a059190614384565b600655505b612a1481866143fa565b95945050505050565b6002546040516000918291829161010090046001600160a01b031690612a4f908a908a908a908a908a90602401613c81565b60408051601f198184030181529181526020820180516001600160e01b031663206e6e2960e11b17905251612a849190613c13565b600060405180830381855afa9150503d8060008114612abf576040519150601f19603f3d011682016040523d82523d6000602084013e612ac4565b606091505b5091509150612ad38282613659565b98975050505050505050565b6001600160a01b03831660009081526004602052604081206001018054839290612b0a908490614384565b90915550506001600160a01b03831660009081526004602081905260408220018054839290612b439084906001600160801b0316614359565b92506101000a8154816001600160801b0302191690836001600160801b031602179055508160046000856001600160a01b03166001600160a01b031681526020019081526020016000206000016000828254612b9f91906143fa565b90915550506001600160a01b0383166000908152600460208190526040909120018054839190601090612be3908490600160801b90046001600160801b0316614359565b92506101000a8154816001600160801b0302191690836001600160801b03160217905550505050565b600080846001600160a01b031663a9059cbb60e01b8585604051602401612c34929190613d0b565b60408051601f198184030181529181526020820180516001600160e01b03166001600160e01b0319909416939093179092529051612c729190613c13565b6000604051808303816000865af19150503d8060008114612caf576040519150601f19603f3d011682016040523d82523d6000602084013e612cb4565b606091505b5091509150818015612cde575080511580612cde575080806020019051810190612cde9190613af1565b612d0457612ceb81613692565b60405162461bcd60e51b81526004016106b89190613d57565b5050505050565b6001600160a01b03821660009081526004602052604081206001018054839290612d36908490614384565b92505081905550816001600160a01b03167f9e71bc8eea02a63969f509818f2dafb9254532904319f9dbda79b67bd34a5f3d82604051612d769190614246565b60405180910390a25050565b600080856001600160a01b03166323b872dd60e01b868686604051602401612dac93929190613c5d565b60408051601f198184030181529181526020820180516001600160e01b03166001600160e01b0319909416939093179092529051612dea9190613c13565b6000604051808303816000865af19150503d8060008114612e27576040519150601f19603f3d011682016040523d82523d6000602084013e612e2c565b606091505b5091509150818015612e56575080511580612e56575080806020019051810190612e569190613af1565b612e6357612ceb81613692565b505050505050565b600354604080516312209d2f60e31b815290516000926001600160a01b031691639104e978916004808301926020929190829003018186803b158015612eb057600080fd5b505afa158015612ec4573d6000803e3d6000fd5b505050506040513d601f19601f82011682018060405250810190612ee8919061383b565b905090565b612ef561108c565b612f115760405162461bcd60e51b81526004016106b890613dd6565b6002805460ff191690557f5db9ee0a495bf2e6ff9c91a7834c1ba4fdd244a5e8aa4e537bd38aeae4b073aa612f446136f2565b604051612f519190613c2f565b60405180910390a1565b610100810151600090429063ffffffff16811015612f7d576000915050610651565b826101400151836101200151612f93919061439c565b63ffffffff168110612fbb5782606001518360400151612fb391906143fa565b915050610651565b600083610120015163ffffffff1682612fd491906143fa565b61016085015190915063ffffffff166000612fef82846143bb565b90506000612ffd83836143db565b9050600087610140015163ffffffff1682896040015161301d91906143db565b61302791906143bb565b905087606001518161303991906143fa565b965061065195505050505050565b61304f61108c565b1561306c5760405162461bcd60e51b81526004016106b890613f54565b6002805460ff191660011790557f62e78cea01bee320cd4e420270b5ea74000d11b0c9f74754ebdbfc544b05a258612f446136f2565b60008463ffffffff16116130c85760405162461bcd60e51b81526004016106b890614041565b600081116130e85760405162461bcd60e51b81526004016106b89061400c565b60018363ffffffff16101561310f5760405162461bcd60e51b81526004016106b890613e34565b6001600160a01b038716600090815260046020526040902060020154156131485760405162461bcd60e51b81526004016106b890614159565b6000613154868861439c565b905080600460008a6001600160a01b03166001600160a01b0316815260200190815260200160002060060160006101000a81548163ffffffff021916908363ffffffff16021790555086600460008a6001600160a01b03166001600160a01b0316815260200190815260200160002060060160046101000a81548163ffffffff021916908363ffffffff16021790555084600460008a6001600160a01b03166001600160a01b0316815260200190815260200160002060060160086101000a81548163ffffffff021916908363ffffffff16021790555083600460008a6001600160a01b03166001600160a01b03168152602001908152602001600020600601600c6101000a81548163ffffffff021916908363ffffffff16021790555082600460008a6001600160a01b03166001600160a01b0316815260200190815260200160002060060160116101000a81548160ff02191690831515021790555081600460008a6001600160a01b03166001600160a01b031681526020019081526020016000206002018190555081600560008282546132f19190614384565b92505081905550876001600160a01b03167f82a09c12487d9950c96682e398533045828bd33d830b54dddd5684ac79bf27bd836040516133319190614246565b60405180910390a25050505050505050565b3360009081526004602052604081208054839290613362908490614384565b909155505060405133907f8109037fc5b3b3f0368806e9cd981c30daa1a3d0c26be8307576c4f5f2125d5e90613399908490614246565b60405180910390a250565b7fa8f5d6a26420dbca563af82edda993be302bfa0d82b1540ed55eac3326eb85f2600260019054906101000a90046001600160a01b0316826040516133ea929190613c43565b60405180910390a1600354604051630b90f5dd60e41b81526001600160a01b039091169063b90f5dd090613422908490600401613c2f565b60206040518083038186803b15801561343a57600080fd5b505afa15801561344e573d6000803e3d6000fd5b505050506040513d601f19601f820116820180604052508101906134729190613af1565b61348e5760405162461bcd60e51b81526004016106b8906141d8565b600280546001600160a01b0390921661010002610100600160a81b0319909216919091179055565b6002546040516000918291829161010090046001600160a01b0316906134ea908b908b908b908b908b908b90602401613cb5565b60408051601f198184030181529181526020820180516001600160e01b0316632d607d0b60e21b1790525161351f9190613c13565b600060405180830381855af49150503d806000811461355a576040519150601f19603f3d011682016040523d82523d6000602084013e61355f565b606091505b509150915061356e8282613659565b9998505050505050505050565b6002546040516000918291829161010090046001600160a01b0316906135cb907f000000000000000000000000000000000000000000000000000000000000000090899089908990602401613d24565b60408051601f198184030181529181526020820180516001600160e01b031663fc7d1c8d60e01b179052516136009190613c13565b600060405180830381855af49150503d806000811461363b576040519150601f19603f3d011682016040523d82523d6000602084013e613640565b606091505b509150915061364f8282613659565b9695505050505050565b600082613688578151156136705781518083602001fd5b60405162461bcd60e51b81526004016106b890613e04565b5060200151919050565b60606044825110156136d8575060408051808201909152601d81527f5472616e73616374696f6e2072657665727465642073696c656e746c790000006020820152610651565b600482019150818060200190518101906120689190613b0d565b3390565b600082601f830112613706578081fd5b8135602061371b61371683614336565b61430d565b8281528181019085830183850287018401881015613737578586fd5b855b8581101561375e57813561374c81614488565b84529284019290840190600101613739565b5090979650505050505050565b600082601f83011261377b578081fd5b8135602061378b61371683614336565b82815281810190858301838502870184018810156137a7578586fd5b855b8581101561375e578135845292840192908401906001016137a9565b60008083601f8401126137d6578182fd5b5081356001600160401b038111156137ec578182fd5b60208301915083602082850101111561380457600080fd5b9250929050565b803563ffffffff8116811461065157600080fd5b600060208284031215613830578081fd5b8135610f4781614488565b60006020828403121561384c578081fd5b8151610f4781614488565b60008060208385031215613869578081fd5b82356001600160401b038082111561387f578283fd5b818501915085601f830112613892578283fd5b8135818111156138a0578384fd5b86602080830285010111156138b3578384fd5b60209290920196919550909350505050565b600080600080600080600060e0888a0312156138df578283fd5b87356001600160401b03808211156138f5578485fd5b6139018b838c016136f6565b985061390f60208b0161380b565b975061391d60408b0161380b565b965061392b60608b0161380b565b955061393960808b0161380b565b945060a08a0135915061394b8261449d565b90925060c08901359080821115613960578283fd5b5061396d8a828b0161376b565b91505092959891949750929550565b6000806040838503121561398e578182fd5b82356001600160401b03808211156139a4578384fd5b6139b08683870161376b565b935060208501359150808211156139c5578283fd5b506139d2858286016136f6565b9150509250929050565b6000806000806000608086880312156139f3578081fd5b85356001600160401b0380821115613a09578283fd5b613a1589838a0161376b565b96506020880135915080821115613a2a578283fd5b613a3689838a016136f6565b955060408801359150613a4882614488565b90935060608701359080821115613a5d578283fd5b50613a6a888289016137c5565b969995985093965092949392505050565b600080600080600060808688031215613a92578081fd5b85356001600160401b0380821115613aa8578283fd5b613ab489838a0161376b565b96506020880135915080821115613ac9578283fd5b613ad589838a016136f6565b9550604088013594506060880135915080821115613a5d578283fd5b600060208284031215613b02578081fd5b8151610f478161449d565b600060208284031215613b1e578081fd5b81516001600160401b0380821115613b34578283fd5b818401915084601f830112613b47578283fd5b815181811115613b5957613b59614472565b613b6c601f8201601f191660200161430d565b9150808252856020828501011115613b82578384fd5b613b93816020840160208601614411565b50949350505050565b600060208284031215613bad578081fd5b5035919050565b600060208284031215613bc5578081fd5b5051919050565b15159052565b60008284528282602086013780602084860101526020601f19601f85011685010190509392505050565b6001600160801b03169052565b63ffffffff169052565b60008251613c25818460208701614411565b9190910192915050565b6001600160a01b0391909116815260200190565b6001600160a01b0392831681529116602082015260400190565b6001600160a01b039384168152919092166020820152604081019190915260600190565b6001600160a01b03868116825285166020820152604081018490526080606082018190526000906126b09083018486613bd2565b6001600160a01b03878116825286166020820152604081018590526060810184905260a060808201819052600090612ad39083018486613bd2565b6001600160a01b039290921682521515602082015260400190565b6001600160a01b03929092168252602082015260400190565b600060018060a01b03861682528460208301526060604083015261364f606083018486613bd2565b901515815260200190565b6000602082528251806020840152613d76816040850160208701614411565b601f01601f19169190910160400192915050565b6020808252602c908201527f6f6e6c79436f6e74726f6c6c65723a2063616c6c6572206973206e6f7420746860408201526b329031b7b73a3937b63632b960a11b606082015260800190565b60208082526014908201527314185d5cd8589b194e881b9bdd081c185d5cd95960621b604082015260600190565b60208082526016908201527511195b1959d85d194818d85b1b081c995d995c9d195960521b604082015260600190565b6020808252602d908201527f546f6b656e56657374696e673a20736c696365506572696f645365636f6e647360408201526c206d757374206265203e3d203160981b606082015260800190565b6020808252601d908201527f4e6f7420656e6f75676820746f6b656e7320746f207769746864726177000000604082015260600190565b60208082526036908201527f53656c6c657220646f6573206e6f74206861766520656e6f75676820746f6b656040820152751b9cc81d1bc81cd95b1b081d1a1a5cc8185b5bdd5b9d60521b606082015260800190565b60208082526026908201527f546f6b656e56657374696e673a2076657374696e67206973206e6f74207265766040820152656f6361626c6560d01b606082015260800190565b60208082526010908201526f14185d5cd8589b194e881c185d5cd95960821b604082015260600190565b60208082526039908201527f6f6e6c794d6f64657261746f723a2063616c6c6572206973206e6f74207468656040820152781031b7b73a3937b63632b9103737b91036b7b232b930ba37b960391b606082015260800190565b6020808252818101527f4f776e61626c653a2063616c6c6572206973206e6f7420746865206f776e6572604082015260600190565b6020808252818101527f546f6b656e56657374696e673a20616d6f756e74206d757374206265203e2030604082015260600190565b60208082526022908201527f546f6b656e56657374696e673a206475726174696f6e206d757374206265203e604082015261020360f41b606082015260800190565b60208082526026908201527f5468697320636f6e747261637420646f6573206e6f7420616c6c6f7720746f206040820152657265766f6b6560d01b606082015260800190565b6020808252602a908201527f6f6e6c794d6f64657261746f723a2063616c6c6572206973206e6f74207468656040820152691036b7b232b930ba37b960b11b606082015260800190565b60208082526026908201527f5472616e73616374696f6e20636f737473206d6f7265207468616e20676173206040820152651b995959195960d21b606082015260800190565b6020808252602d908201527f546f6b656e56657374696e673a2056657374696e67207363686564756c65206160408201526c6c72656164792065786973747360981b606082015260800190565b6020808252601890820152770a0c2d2e4cac840e8ded6cadc40d2e640dcdee840ae8aa8960431b604082015260600190565b6020808252601e908201527f4d61726b65744d616b65724c696272617279206e6f7420616c6c6f7765640000604082015260600190565b6020808252601f908201527f5265656e7472616e637947756172643a207265656e7472616e742063616c6c00604082015260600190565b90815260200190565b918252602082015260400190565b8e8152602081018e9052604081018d9052606081018c90526001600160801b038b811660808301528a811660a0830152891660c08201526101c081016142a660e083018a613bfc565b6142b4610100830189613c09565b6142c2610120830188613c09565b6142d0610140830187613c09565b6142de610160830186613c09565b6142ec610180830185613bcc565b6142fa6101a0830184613bcc565b9f9e505050505050505050505050505050565b6040518181016001600160401b038111828210171561432e5761432e614472565b604052919050565b60006001600160401b0382111561434f5761434f614472565b5060209081020190565b60006001600160801b0382811684821680830382111561437b5761437b61445c565b01949350505050565b600082198211156143975761439761445c565b500190565b600063ffffffff80831681851680830382111561437b5761437b61445c565b6000826143d657634e487b7160e01b81526012600452602481fd5b500490565b60008160001904831182151516156143f5576143f561445c565b500290565b60008282101561440c5761440c61445c565b500390565b60005b8381101561442c578181015183820152602001614414565b8381111561443b576000848401525b50505050565b60006000198214156144555761445561445c565b5060010190565b634e487b7160e01b600052601160045260246000fd5b634e487b7160e01b600052604160045260246000fd5b6001600160a01b0381168114611d9f57600080fd5b8015158114611d9f57600080fdfea26469706673582212204709d6d5f8d69a6a7530cc77702cc7fa1ea4c46ac0dc896701ee8b1766d31e6b64736f6c634300080000338be0079c531659141344cd1fd0a4f28419497f9722a3daafe3b4186f6b6457e0",
  "linkReferences": {},
  "deployedLinkReferences": {}
}