{
  "_format": "hh-sol-artifact-1",
  "contractName": "MarketMaker",
  "sourceName": "contracts/MarketMaker.sol",
  "abi": [
    {
      "inputs": [
        {
          "internalType": "address",
          "name": "_baseToken",
          "type": "address"
        },
        {
          "internalType": "address",
          "name": "_pairedToken",
          "type": "address"
        },
        {
          "internalType": "address",
          "name": "_owner",
          "type": "address"
        },
        {
          "internalType": "address",
          "name": "_moderator",
          "type": "address"
        },
        {
          "internalType": "address payable",
          "name": "_controller",
          "type": "address"
        },
        {
          "internalType": "bool",
          "name": "_revocableContract",
          "type": "bool"
        },
        {
          "internalType": "bool",
          "name": "_paused",
          "type": "bool"
        },
        {
          "internalType": "address",
          "name": "_marketMakerLibraryAddress",
          "type": "address"
        },
        {
          "internalType": "address",
          "name": "_masterContractAddress",
          "type": "address"
        }
      ],
      "stateMutability": "nonpayable",
      "type": "constructor"
    },
    {
      "anonymous": false,
      "inputs": [
        {
          "indexed": true,
          "internalType": "address",
          "name": "_user",
          "type": "address"
        },
        {
          "indexed": false,
          "internalType": "uint256",
          "name": "_amount",
          "type": "uint256"
        }
      ],
      "name": "AmountReleased",
      "type": "event"
    },
    {
      "anonymous": false,
      "inputs": [
        {
          "indexed": false,
          "internalType": "address",
          "name": "_OldmarketMakerLibraryAddress",
          "type": "address"
        },
        {
          "indexed": false,
          "internalType": "address",
          "name": "_NewmarketMakerLibraryAddress",
          "type": "address"
        }
      ],
      "name": "ChangeMarketMakerLibraryAddress",
      "type": "event"
    },
    {
      "anonymous": false,
      "inputs": [
        {
          "indexed": true,
          "internalType": "address",
          "name": "_beneficiary",
          "type": "address"
        },
        {
          "indexed": false,
          "internalType": "uint256",
          "name": "_amount",
          "type": "uint256"
        }
      ],
      "name": "CreatedVestingSchedule",
      "type": "event"
    },
    {
      "anonymous": false,
      "inputs": [
        {
          "indexed": false,
          "internalType": "uint256",
          "name": "claimedBaseFee",
          "type": "uint256"
        },
        {
          "indexed": false,
          "internalType": "uint256",
          "name": "claimedPairedFee",
          "type": "uint256"
        }
      ],
      "name": "FeesClaimed",
      "type": "event"
    },
    {
      "anonymous": false,
      "inputs": [
        {
          "indexed": true,
          "internalType": "address",
          "name": "previousOwner",
          "type": "address"
        },
        {
          "indexed": true,
          "internalType": "address",
          "name": "newOwner",
          "type": "address"
        }
      ],
      "name": "OwnershipTransferred",
      "type": "event"
    },
    {
      "anonymous": false,
      "inputs": [
        {
          "indexed": false,
          "internalType": "address",
          "name": "account",
          "type": "address"
        }
      ],
      "name": "Paused",
      "type": "event"
    },
    {
      "anonymous": false,
      "inputs": [
        {
          "indexed": true,
          "internalType": "address",
          "name": "_user",
          "type": "address"
        }
      ],
      "name": "ProjectOwnerRemoved",
      "type": "event"
    },
    {
      "anonymous": false,
      "inputs": [
        {
          "indexed": true,
          "internalType": "address",
          "name": "_user",
          "type": "address"
        }
      ],
      "name": "ProjectOwnerSet",
      "type": "event"
    },
    {
      "anonymous": false,
      "inputs": [
        {
          "indexed": false,
          "internalType": "bool",
          "name": "_allowReleasing",
          "type": "bool"
        }
      ],
      "name": "SetAllowReleasing",
      "type": "event"
    },
    {
      "anonymous": false,
      "inputs": [
        {
          "indexed": false,
          "internalType": "bool",
          "name": "_allowSelling",
          "type": "bool"
        }
      ],
      "name": "SetAllowSelling",
      "type": "event"
    },
    {
      "anonymous": false,
      "inputs": [
        {
          "indexed": false,
          "internalType": "uint8",
          "name": "_ratio",
          "type": "uint8"
        }
      ],
      "name": "SetMaxBaseStakingRatio",
      "type": "event"
    },
    {
      "anonymous": false,
      "inputs": [
        {
          "indexed": false,
          "internalType": "uint8",
          "name": "_ratio",
          "type": "uint8"
        }
      ],
      "name": "SetMaxPairedStakingRatio",
      "type": "event"
    },
    {
      "anonymous": false,
      "inputs": [
        {
          "indexed": true,
          "internalType": "address",
          "name": "_user",
          "type": "address"
        },
        {
          "indexed": false,
          "internalType": "uint256",
          "name": "_amount",
          "type": "uint256"
        }
      ],
      "name": "Staked",
      "type": "event"
    },
    {
      "anonymous": false,
      "inputs": [
        {
          "indexed": true,
          "internalType": "address",
          "name": "_user",
          "type": "address"
        },
        {
          "indexed": false,
          "internalType": "uint256",
          "name": "_amount",
          "type": "uint256"
        }
      ],
      "name": "StakedInPairedToken",
      "type": "event"
    },
    {
      "anonymous": false,
      "inputs": [
        {
          "indexed": false,
          "internalType": "address",
          "name": "account",
          "type": "address"
        }
      ],
      "name": "Unpaused",
      "type": "event"
    },
    {
      "anonymous": false,
      "inputs": [
        {
          "indexed": true,
          "internalType": "address",
          "name": "_user",
          "type": "address"
        },
        {
          "indexed": false,
          "internalType": "uint256",
          "name": "_amount",
          "type": "uint256"
        }
      ],
      "name": "VestingRevoked",
      "type": "event"
    },
    {
      "anonymous": false,
      "inputs": [
        {
          "indexed": true,
          "internalType": "address",
          "name": "_user",
          "type": "address"
        },
        {
          "indexed": false,
          "internalType": "uint256",
          "name": "_amount",
          "type": "uint256"
        }
      ],
      "name": "WithdrawnBaseToken",
      "type": "event"
    },
    {
      "anonymous": false,
      "inputs": [
        {
          "indexed": true,
          "internalType": "address",
          "name": "_user",
          "type": "address"
        },
        {
          "indexed": false,
          "internalType": "uint256",
          "name": "_amount",
          "type": "uint256"
        }
      ],
      "name": "WithdrawnPairedToken",
      "type": "event"
    },
    {
      "inputs": [],
      "name": "baseTokenAddress",
      "outputs": [
        {
          "internalType": "address",
          "name": "",
          "type": "address"
        }
      ],
      "stateMutability": "view",
      "type": "function"
    },
    {
      "inputs": [
        {
          "internalType": "uint256[]",
          "name": "_amountsIn",
          "type": "uint256[]"
        },
        {
          "internalType": "address[]",
          "name": "_beneficiaryArray",
          "type": "address[]"
        },
        {
          "internalType": "uint256",
          "name": "_slippage",
          "type": "uint256"
        },
        {
          "internalType": "string",
          "name": "_exchange",
          "type": "string"
        }
      ],
      "name": "buy",
      "outputs": [],
      "stateMutability": "nonpayable",
      "type": "function"
    },
    {
      "inputs": [],
      "name": "claimFees",
      "outputs": [],
      "stateMutability": "nonpayable",
      "type": "function"
    },
    {
      "inputs": [
        {
          "internalType": "address",
          "name": "_beneficiary",
          "type": "address"
        }
      ],
      "name": "computeReleasableAmount",
      "outputs": [
        {
          "internalType": "uint256",
          "name": "",
          "type": "uint256"
        }
      ],
      "stateMutability": "view",
      "type": "function"
    },
    {
      "inputs": [],
      "name": "controller",
      "outputs": [
        {
          "internalType": "address payable",
          "name": "",
          "type": "address"
        }
      ],
      "stateMutability": "view",
      "type": "function"
    },
    {
      "inputs": [
        {
          "internalType": "address[]",
          "name": "_beneficiaryArray",
          "type": "address[]"
        },
        {
          "internalType": "uint32",
          "name": "_start",
          "type": "uint32"
        },
        {
          "internalType": "uint32",
          "name": "_cliff",
          "type": "uint32"
        },
        {
          "internalType": "uint32",
          "name": "_duration",
          "type": "uint32"
        },
        {
          "internalType": "uint32",
          "name": "_slicePeriodSeconds",
          "type": "uint32"
        },
        {
          "internalType": "bool",
          "name": "_revocable",
          "type": "bool"
        },
        {
          "internalType": "uint256[]",
          "name": "_amounts",
          "type": "uint256[]"
        }
      ],
      "name": "createVestingSchedule",
      "outputs": [],
      "stateMutability": "nonpayable",
      "type": "function"
    },
    {
      "inputs": [
        {
          "internalType": "address",
          "name": "_beneficiary",
          "type": "address"
        }
      ],
      "name": "getWithdrawablePairedTokens",
      "outputs": [
        {
          "internalType": "uint256",
          "name": "total",
          "type": "uint256"
        }
      ],
      "stateMutability": "view",
      "type": "function"
    },
    {
      "inputs": [
        {
          "internalType": "address",
          "name": "",
          "type": "address"
        }
      ],
      "name": "holdersMapping",
      "outputs": [
        {
          "internalType": "uint256",
          "name": "balanceInPairedToken",
          "type": "uint256"
        },
        {
          "internalType": "uint256",
          "name": "available",
          "type": "uint256"
        },
        {
          "internalType": "uint256",
          "name": "stakedInBaseToken",
          "type": "uint256"
        },
        {
          "internalType": "uint256",
          "name": "stakedInPairedToken",
          "type": "uint256"
        },
        {
          "internalType": "uint120",
          "name": "baseAmountBought",
          "type": "uint120"
        },
        {
          "internalType": "uint120",
          "name": "pairedAmountBought",
          "type": "uint120"
        },
        {
          "internalType": "bool",
          "name": "allowSelling",
          "type": "bool"
        },
        {
          "internalType": "bool",
          "name": "projectOwner",
          "type": "bool"
        },
        {
          "internalType": "uint120",
          "name": "baseAmountSold",
          "type": "uint120"
        },
        {
          "internalType": "uint120",
          "name": "pairedAmountSold",
          "type": "uint120"
        },
        {
          "internalType": "uint8",
          "name": "maxBaseStakingRatio",
          "type": "uint8"
        },
        {
          "internalType": "uint8",
          "name": "maxPairedStakingRatio",
          "type": "uint8"
        }
      ],
      "stateMutability": "view",
      "type": "function"
    },
    {
      "inputs": [
        {
          "internalType": "address",
          "name": "",
          "type": "address"
        }
      ],
      "name": "holdersVestingMapping",
      "outputs": [
        {
          "internalType": "uint256",
          "name": "amountVested",
          "type": "uint256"
        },
        {
          "internalType": "uint256",
          "name": "released",
          "type": "uint256"
        },
        {
          "internalType": "uint32",
          "name": "cliff",
          "type": "uint32"
        },
        {
          "internalType": "uint32",
          "name": "start",
          "type": "uint32"
        },
        {
          "internalType": "uint32",
          "name": "duration",
          "type": "uint32"
        },
        {
          "internalType": "uint32",
          "name": "slicePeriodSeconds",
          "type": "uint32"
        },
        {
          "internalType": "bool",
          "name": "revocable",
          "type": "bool"
        },
        {
          "internalType": "bool",
          "name": "allowReleasing",
          "type": "bool"
        }
      ],
      "stateMutability": "view",
      "type": "function"
    },
    {
      "inputs": [],
      "name": "liquidityMaker",
      "outputs": [
        {
          "internalType": "contract ILiquidityMaker",
          "name": "",
          "type": "address"
        }
      ],
      "stateMutability": "view",
      "type": "function"
    },
    {
      "inputs": [],
      "name": "marketMakerLibraryAddress",
      "outputs": [
        {
          "internalType": "address",
          "name": "",
          "type": "address"
        }
      ],
      "stateMutability": "view",
      "type": "function"
    },
    {
      "inputs": [],
      "name": "masterContract",
      "outputs": [
        {
          "internalType": "contract IMasterContract",
          "name": "",
          "type": "address"
        }
      ],
      "stateMutability": "view",
      "type": "function"
    },
    {
      "inputs": [],
      "name": "moderator",
      "outputs": [
        {
          "internalType": "address",
          "name": "",
          "type": "address"
        }
      ],
      "stateMutability": "view",
      "type": "function"
    },
    {
      "inputs": [],
      "name": "owner",
      "outputs": [
        {
          "internalType": "address",
          "name": "",
          "type": "address"
        }
      ],
      "stateMutability": "view",
      "type": "function"
    },
    {
      "inputs": [],
      "name": "pairedTokenAddress",
      "outputs": [
        {
          "internalType": "address",
          "name": "",
          "type": "address"
        }
      ],
      "stateMutability": "view",
      "type": "function"
    },
    {
      "inputs": [],
      "name": "pause",
      "outputs": [],
      "stateMutability": "nonpayable",
      "type": "function"
    },
    {
      "inputs": [],
      "name": "paused",
      "outputs": [
        {
          "internalType": "bool",
          "name": "",
          "type": "bool"
        }
      ],
      "stateMutability": "view",
      "type": "function"
    },
    {
      "inputs": [],
      "name": "release",
      "outputs": [],
      "stateMutability": "nonpayable",
      "type": "function"
    },
    {
      "inputs": [
        {
          "internalType": "address[]",
          "name": "_beneficiaryArray",
          "type": "address[]"
        }
      ],
      "name": "releaseFor",
      "outputs": [],
      "stateMutability": "nonpayable",
      "type": "function"
    },
    {
      "inputs": [
        {
          "internalType": "address[]",
          "name": "_beneficiaryArray",
          "type": "address[]"
        }
      ],
      "name": "removeProjectOwner",
      "outputs": [],
      "stateMutability": "nonpayable",
      "type": "function"
    },
    {
      "inputs": [],
      "name": "renounceOwnership",
      "outputs": [],
      "stateMutability": "nonpayable",
      "type": "function"
    },
    {
      "inputs": [],
      "name": "revocableContract",
      "outputs": [
        {
          "internalType": "bool",
          "name": "",
          "type": "bool"
        }
      ],
      "stateMutability": "view",
      "type": "function"
    },
    {
      "inputs": [
        {
          "internalType": "address",
          "name": "_beneficiary",
          "type": "address"
        }
      ],
      "name": "revoke",
      "outputs": [],
      "stateMutability": "nonpayable",
      "type": "function"
    },
    {
      "inputs": [
        {
          "internalType": "uint256[]",
          "name": "_amountsIn",
          "type": "uint256[]"
        },
        {
          "internalType": "address[]",
          "name": "_beneficiaryArray",
          "type": "address[]"
        },
        {
          "internalType": "uint256",
          "name": "_slippage",
          "type": "uint256"
        },
        {
          "internalType": "string",
          "name": "_exchange",
          "type": "string"
        }
      ],
      "name": "sell",
      "outputs": [],
      "stateMutability": "nonpayable",
      "type": "function"
    },
    {
      "inputs": [
        {
          "internalType": "bool",
          "name": "_allowReleasing",
          "type": "bool"
        }
      ],
      "name": "setAllowReleasing",
      "outputs": [],
      "stateMutability": "nonpayable",
      "type": "function"
    },
    {
      "inputs": [
        {
          "internalType": "bool",
          "name": "_allowSelling",
          "type": "bool"
        }
      ],
      "name": "setAllowSelling",
      "outputs": [],
      "stateMutability": "nonpayable",
      "type": "function"
    },
    {
      "inputs": [
        {
          "internalType": "address",
          "name": "liquidityMakerAddress",
          "type": "address"
        }
      ],
      "name": "setLiquidityMaker",
      "outputs": [],
      "stateMutability": "nonpayable",
      "type": "function"
    },
    {
      "inputs": [
        {
          "internalType": "address",
          "name": "_marketMakerLibraryAddress",
          "type": "address"
        }
      ],
      "name": "setMarketMakerLibraryAddress",
      "outputs": [],
      "stateMutability": "nonpayable",
      "type": "function"
    },
    {
      "inputs": [
        {
          "internalType": "uint8",
          "name": "ratio",
          "type": "uint8"
        }
      ],
      "name": "setMaxBaseStakingRatio",
      "outputs": [],
      "stateMutability": "nonpayable",
      "type": "function"
    },
    {
      "inputs": [
        {
          "internalType": "uint8",
          "name": "ratio",
          "type": "uint8"
        }
      ],
      "name": "setMaxPairedStakingRatio",
      "outputs": [],
      "stateMutability": "nonpayable",
      "type": "function"
    },
    {
      "inputs": [
        {
          "internalType": "address[]",
          "name": "_beneficiaryArray",
          "type": "address[]"
        }
      ],
      "name": "setProjectOwner",
      "outputs": [],
      "stateMutability": "nonpayable",
      "type": "function"
    },
    {
      "inputs": [
        {
          "internalType": "uint256",
          "name": "_amount",
          "type": "uint256"
        }
      ],
      "name": "stake",
      "outputs": [],
      "stateMutability": "nonpayable",
      "type": "function"
    },
    {
      "inputs": [
        {
          "internalType": "uint256[]",
          "name": "_amounts",
          "type": "uint256[]"
        },
        {
          "internalType": "address[]",
          "name": "_beneficiaryArray",
          "type": "address[]"
        }
      ],
      "name": "stakeBatch",
      "outputs": [],
      "stateMutability": "nonpayable",
      "type": "function"
    },
    {
      "inputs": [
        {
          "internalType": "uint256[]",
          "name": "_amountsBaseTokenIn",
          "type": "uint256[]"
        },
        {
          "internalType": "address[]",
          "name": "_beneficiaryBaseArray",
          "type": "address[]"
        },
        {
          "internalType": "uint256[]",
          "name": "_amountsPairedTokenIn",
          "type": "uint256[]"
        },
        {
          "internalType": "address[]",
          "name": "_beneficiaryPairedArray",
          "type": "address[]"
        },
        {
          "internalType": "uint256",
          "name": "_slippage",
          "type": "uint256"
        },
        {
          "internalType": "string",
          "name": "_exchange",
          "type": "string"
        }
      ],
      "name": "stakeBatchInLP",
      "outputs": [],
      "stateMutability": "nonpayable",
      "type": "function"
    },
    {
      "inputs": [
        {
          "internalType": "uint256",
          "name": "_amount",
          "type": "uint256"
        }
      ],
      "name": "stakePairedToken",
      "outputs": [],
      "stateMutability": "nonpayable",
      "type": "function"
    },
    {
      "inputs": [],
      "name": "stakePairedTokenInETH",
      "outputs": [],
      "stateMutability": "payable",
      "type": "function"
    },
    {
      "inputs": [],
      "name": "totalVested",
      "outputs": [
        {
          "internalType": "uint256",
          "name": "",
          "type": "uint256"
        }
      ],
      "stateMutability": "view",
      "type": "function"
    },
    {
      "inputs": [
        {
          "internalType": "address",
          "name": "newOwner",
          "type": "address"
        }
      ],
      "name": "transferOwnership",
      "outputs": [],
      "stateMutability": "nonpayable",
      "type": "function"
    },
    {
      "inputs": [],
      "name": "unpause",
      "outputs": [],
      "stateMutability": "nonpayable",
      "type": "function"
    },
    {
      "inputs": [
        {
          "internalType": "uint256",
          "name": "_amount",
          "type": "uint256"
        }
      ],
      "name": "withdrawBaseToken",
      "outputs": [],
      "stateMutability": "nonpayable",
      "type": "function"
    },
    {
      "inputs": [
        {
          "internalType": "uint256",
          "name": "_amount",
          "type": "uint256"
        }
      ],
      "name": "withdrawPairedToken",
      "outputs": [],
      "stateMutability": "nonpayable",
      "type": "function"
    },
    {
      "stateMutability": "payable",
      "type": "receive"
    }
  ],
  "bytecode": "0x6101606040523480156200001257600080fd5b506040516200536f3803806200536f833981016040819052620000359162000464565b62000040336200011f565b600180556002805460ff191690556001600160a01b0389811660e081905260c0528881166101208190526101005285811660805286811660a05284151561014052600380546001600160a01b031916918316919091179055620000a3826200016f565b620000ae87620002b6565b600160056000620000c76000546001600160a01b031690565b6001600160a01b0316815260208101919091526040016000206004018054911515600160f81b026001600160f81b03909216919091179055821562000110576200011062000335565b50505050505050505062000559565b600080546001600160a01b038381166001600160a01b0319831681178455604051919092169283917f8be0079c531659141344cd1fd0a4f28419497f9722a3daafe3b4186f6b6457e09190a35050565b600254604080516001600160a01b036101009093048316815291831660208301527fa8f5d6a26420dbca563af82edda993be302bfa0d82b1540ed55eac3326eb85f2910160405180910390a1600354604051630b90f5dd60e41b81526001600160a01b0383811660048301529091169063b90f5dd09060240160206040518083038186803b1580156200020157600080fd5b505afa15801562000216573d6000803e3d6000fd5b505050506040513d601f19601f820116820180604052508101906200023c919062000534565b6200028e5760405162461bcd60e51b815260206004820152601e60248201527f4d61726b65744d616b65724c696272617279206e6f7420616c6c6f776564000060448201526064015b60405180910390fd5b600280546001600160a01b0390921661010002610100600160a81b0319909216919091179055565b620002c062000392565b6001600160a01b038116620003275760405162461bcd60e51b815260206004820152602660248201527f4f776e61626c653a206e6577206f776e657220697320746865207a65726f206160448201526564647265737360d01b606482015260840162000285565b62000332816200011f565b50565b6200033f620003f0565b6002805460ff191660011790557f62e78cea01bee320cd4e420270b5ea74000d11b0c9f74754ebdbfc544b05a258620003753390565b6040516001600160a01b03909116815260200160405180910390a1565b6000546001600160a01b03163314620003ee5760405162461bcd60e51b815260206004820181905260248201527f4f776e61626c653a2063616c6c6572206973206e6f7420746865206f776e6572604482015260640162000285565b565b60025460ff1615620003ee5760405162461bcd60e51b815260206004820152601060248201526f14185d5cd8589b194e881c185d5cd95960821b604482015260640162000285565b6001600160a01b03811681146200033257600080fd5b805180151581146200045f57600080fd5b919050565b60008060008060008060008060006101208a8c0312156200048457600080fd5b8951620004918162000438565b60208b0151909950620004a48162000438565b60408b0151909850620004b78162000438565b60608b0151909750620004ca8162000438565b60808b0151909650620004dd8162000438565b9450620004ed60a08b016200044e565b9350620004fd60c08b016200044e565b925060e08a01516200050f8162000438565b6101008b0151909250620005238162000438565b809150509295985092959850929598565b6000602082840312156200054757600080fd5b62000552826200044e565b9392505050565b60805160a05160c05160e051610100516101205161014051614cc6620006a9600039600081816106dd0152611410015260008181611e0901528181611f27015281816122b8015261292501526000818161053801528181610b420152818161116001528181611c7e015281816121d001528181612c9801528181612cf201528181613a860152613f07015260008181610c6f01528181610d8a0152818161165b01528181611a6201528181611c2c01528181611e4201526128800152600081816105c101528181610b21015261118101526000818161034901528181610eb801528181610f3d015281816112e6015281816116db015281816118b10152611dbb0152600081816108f30152818161094001528181610eea015281816110230152818161170d015281816117cd0152818161239e01528181613a1501528181613a530152613bac0152614cc66000f3fe60806040526004361061024a5760003560e01c806386d1a69f11610139578063b2822c31116100b6578063dd1fdb621161007a578063dd1fdb62146107bc578063e0d47694146107dc578063e5bf6a7f146108a1578063f2fde38b146108c1578063f77c4791146108e1578063f82d49cf1461091557600080fd5b8063b2822c311461073f578063baf2a11614610747578063cd446e2214610767578063d294f09314610787578063d82f19671461079c57600080fd5b8063a4c37959116100fd578063a4c379591461068b578063a694fc3a146106ab578063a92a8875146106cb578063aa40c0e0146106ff578063afbd7ac11461071f57600080fd5b806386d1a69f146105f85780638da5cb5b1461060d5780639129d8b11461062b5780639270704a1461064b578063a1a092e31461066b57600080fd5b80635427dc00116101c7578063715018a61161018b578063715018a61461055a57806372db12cb1461056f57806374a8f1031461058f5780637cb374bd146105af5780638456cb59146105e357600080fd5b80635427dc00146104a25780635c975abb146104c25780635d2cd2dc146104e65780636397d80f146105065780636927810d1461052657600080fd5b806337e3a19e1161020e57806337e3a19e1461031757806338743904146103375780633f4ba83a1461036b57806346ab8ab01461038057806347fd27f0146103a057600080fd5b80631742541a14610256578063199cbc54146102915780631de53d94146102b55780632fd33ddb146102d75780633423ee60146102f757600080fd5b3661025157005b600080fd5b34801561026257600080fd5b5060025461027b9061010090046001600160a01b031681565b6040516102889190614252565b60405180910390f35b34801561029d57600080fd5b506102a760075481565b604051908152602001610288565b3480156102c157600080fd5b506102d56102d03660046143fb565b610935565b005b3480156102e357600080fd5b506102d56102f2366004614493565b610beb565b34801561030357600080fd5b506102d56103123660046144ac565b610cd2565b34801561032357600080fd5b506102a761033236600461450f565b610dbb565b34801561034357600080fd5b5061027b7f000000000000000000000000000000000000000000000000000000000000000081565b34801561037757600080fd5b506102d5610ead565b34801561038c57600080fd5b506102d561039b36600461450f565b610f32565b3480156103ac57600080fd5b506104336103bb36600461450f565b60056020819052600091825260409091208054600182015460028301546003840154600485015494909501549294919390926001600160781b0380831692600160781b80820483169360ff600160f01b808504821695600160f81b95869004831695848216958504909116939182048316929104168c565b604080519c8d5260208d019b909b52998b019890985260608a01969096526001600160781b0394851660808a015292841660a089015290151560c0880152151560e087015281166101008601521661012084015260ff9081166101408401521661016082015261018001610288565b3480156104ae57600080fd5b506102d56104bd36600461452c565b610fb2565b3480156104ce57600080fd5b5060025460ff165b6040519015158152602001610288565b3480156104f257600080fd5b506102d56105013660046143fb565b611018565b34801561051257600080fd5b506102d561052136600461455d565b611235565b34801561053257600080fd5b5061027b7f000000000000000000000000000000000000000000000000000000000000000081565b34801561056657600080fd5b506102d56112c9565b34801561057b57600080fd5b506102d561058a36600461457a565b6112db565b34801561059b57600080fd5b506102d56105aa36600461450f565b611406565b3480156105bb57600080fd5b5061027b7f000000000000000000000000000000000000000000000000000000000000000081565b3480156105ef57600080fd5b506102d56116d0565b34801561060457600080fd5b506102d5611753565b34801561061957600080fd5b506000546001600160a01b031661027b565b34801561063757600080fd5b506102d56106463660046145ee565b611792565b34801561065757600080fd5b506102d561066636600461457a565b6118a6565b34801561067757600080fd5b506102d561068636600461452c565b6119cc565b34801561069757600080fd5b5060045461027b906001600160a01b031681565b3480156106b757600080fd5b506102d56106c6366004614493565b611a2d565b3480156106d757600080fd5b506104d67f000000000000000000000000000000000000000000000000000000000000000081565b34801561070b57600080fd5b506102d561071a36600461455d565b611ae8565b34801561072b57600080fd5b506102d561073a36600461463b565b611b6f565b6102d5611c54565b34801561075357600080fd5b506102d561076236600461450f565b611d74565b34801561077357600080fd5b5060035461027b906001600160a01b031681565b34801561079357600080fd5b506102d5611d88565b3480156107a857600080fd5b506102d56107b7366004614493565b611ef2565b3480156107c857600080fd5b506102a76107d736600461450f565b611f5f565b3480156107e857600080fd5b506108546107f736600461450f565b60066020526000908152604090208054600182015460029092015490919063ffffffff80821691600160201b8104821691600160401b8204811691600160601b81049091169060ff600160801b8204811691600160881b90041688565b60408051988952602089019790975263ffffffff958616968801969096529284166060870152908316608086015290911660a0840152151560c0830152151560e082015261010001610288565b3480156108ad57600080fd5b506102d56108bc366004614493565b612002565b3480156108cd57600080fd5b506102d56108dc36600461450f565b61231d565b3480156108ed57600080fd5b5061027b7f000000000000000000000000000000000000000000000000000000000000000081565b34801561092157600080fd5b506102d56109303660046146f5565b612393565b336001600160a01b037f000000000000000000000000000000000000000000000000000000000000000016146109865760405162461bcd60e51b815260040161097d906147d6565b60405180910390fd5b600260015414156109a95760405162461bcd60e51b815260040161097d90614822565b60026001556109b6612ab9565b6000805b8551811015610b1957600560008783815181106109d9576109d9614859565b60200260200101516001600160a01b03166001600160a01b03168152602001908152602001600020600401601e9054906101000a900460ff16610a3b576000878281518110610a2a57610a2a614859565b602002602001018181525050610ae0565b610ac1868281518110610a5057610a50614859565b6020026020010151610abc898481518110610a6d57610a6d614859565b6020026020010151600560008b8781518110610a8b57610a8b614859565b60200260200101516001600160a01b03166001600160a01b0316815260200190815260200160002060010154612aff565b612b16565b878281518110610ad357610ad3614859565b6020026020010181815250505b868181518110610af257610af2614859565b602002602001015182610b059190614885565b915080610b118161489d565b9150506109ba565b506000610b6a7f00000000000000000000000000000000000000000000000000000000000000007f000000000000000000000000000000000000000000000000000000000000000084888888612c94565b905060005b8651811015610bdd57610bca878281518110610b8d57610b8d614859565b6020026020010151848a8481518110610ba857610ba8614859565b602002602001015185610bbb91906148b8565b610bc591906148d7565b612d43565b5080610bd58161489d565b915050610b6f565b505060018055505050505050565b60026001541415610c0e5760405162461bcd60e51b815260040161097d90614822565b6002600155610c1b612ab9565b33600090815260056020526040902060010154811115610c3a57600080fd5b3360009081526005602052604081206001018054839290610c5c9084906148f9565b90915550610c9690506001600160a01b037f0000000000000000000000000000000000000000000000000000000000000000163383612eca565b60405181815233907fb2475cc0963391d593f1a890df550d0c0551e1317e08cba0cdece5014f0555f69060200160405180910390a25060018055565b60026001541415610cf55760405162461bcd60e51b815260040161097d90614822565b60026001556000805b8251811015610d7c57838181518110610d1957610d19614859565b602002602001015182610d2c9190614885565b9150610d6a838281518110610d4357610d43614859565b6020026020010151858381518110610d5d57610d5d614859565b6020026020010151612f20565b80610d748161489d565b915050610cfe565b50610db26001600160a01b037f000000000000000000000000000000000000000000000000000000000000000016333084612f92565b50506001805550565b6001600160a01b03811660009081526005602052604081205490670de0b6b3a7640000610de6612fd0565b6001600160a01b03858116600090815260056020526040908190206004908101549151631820cc6160e11b8152939092169263304198c292610e36928992600160f81b90910460ff169101614910565b60206040518083038186803b158015610e4e57600080fd5b505afa158015610e62573d6000803e3d6000fd5b505050506040513d601f19601f82011682018060405250810190610e86919061492b565b610e9090846148b8565b610e9a91906148d7565b9050610ea681836148f9565b9392505050565b336001600160a01b037f0000000000000000000000000000000000000000000000000000000000000000161480610f0c5750336001600160a01b037f000000000000000000000000000000000000000000000000000000000000000016145b610f285760405162461bcd60e51b815260040161097d90614944565b610f30613052565b565b336001600160a01b037f00000000000000000000000000000000000000000000000000000000000000001614610f7a5760405162461bcd60e51b815260040161097d9061499d565b6004546001600160a01b031615610f9057600080fd5b600480546001600160a01b0319166001600160a01b0392909216919091179055565b33600090815260056020818152604092839020909101805460ff60f01b1916600160f01b60ff86169081029190911790915591519182527f77ed550e4ce6a6e207491469db8a26599d2759712b30e5d4138272a3614f62d591015b60405180910390a150565b336001600160a01b037f000000000000000000000000000000000000000000000000000000000000000016146110605760405162461bcd60e51b815260040161097d906147d6565b600260015414156110835760405162461bcd60e51b815260040161097d90614822565b6002600155611090612ab9565b6000805b8551811015611158576111018782815181106110b2576110b2614859565b6020026020010151600560008985815181106110d0576110d0614859565b60200260200101516001600160a01b03166001600160a01b0316815260200190815260200160002060000154612aff565b87828151811061111357611113614859565b60200260200101818152505086818151811061113157611131614859565b6020026020010151826111449190614885565b9150806111508161489d565b915050611094565b5060006111a97f00000000000000000000000000000000000000000000000000000000000000007f000000000000000000000000000000000000000000000000000000000000000084888888612c94565b905060005b8651811015610bdd576112238782815181106111cc576111cc614859565b60200260200101518983815181106111e6576111e6614859565b6020026020010151858b858151811061120157611201614859565b60200260200101518661121491906148b8565b61121e91906148d7565b61309e565b8061122d8161489d565b9150506111ae565b600260015414156112585760405162461bcd60e51b815260040161097d90614822565b600260015533600090815260056020526040908190206004018054831515600160f01b0260ff60f01b19909116179055517fd72547ad77e9806d3502cb62f025f39b0f91fc8d748a41c6ac147ecc19c8d683906112ba90831515815260200190565b60405180910390a15060018055565b6112d16131ca565b610f306000613224565b336001600160a01b037f000000000000000000000000000000000000000000000000000000000000000016146113235760405162461bcd60e51b815260040161097d9061499d565b60005b818110156114015760006005600085858581811061134657611346614859565b905060200201602081019061135b919061450f565b6001600160a01b0316815260208101919091526040016000206004018054911515600160f81b026001600160f81b039092169190911790558282828181106113a5576113a5614859565b90506020020160208101906113ba919061450f565b6001600160a01b03167fa3bfdef3d8149bacf15b7b64199fca8228c0fd4f8fcdd11cc7871829baf319c360405160405180910390a2806113f98161489d565b915050611326565b505050565b61140e6131ca565b7f000000000000000000000000000000000000000000000000000000000000000061148a5760405162461bcd60e51b815260206004820152602660248201527f5468697320636f6e747261637420646f6573206e6f7420616c6c6f7720746f206044820152657265766f6b6560d01b606482015260840161097d565b6001600160a01b03811660009081526006602052604090206002810154600160801b900460ff1661150c5760405162461bcd60e51b815260206004820152602660248201527f546f6b656e56657374696e673a2076657374696e67206973206e6f74207265766044820152656f6361626c6560d01b606482015260840161097d565b6001810154815461151d91906148f9565b6007600082825461152e91906148f9565b909155505060408051610100810182528254815260018301546020820152600283015463ffffffff80821693830193909352600160201b810483166060830152600160401b810483166080830152600160601b810490921660a082015260ff600160801b83048116151560c0830152600160881b909204909116151560e08201526000906115bb90613274565b6001600160a01b0384166000908152600560205260408120600101805492935083929091906115eb908490614885565b90915550506040518181526001600160a01b038416907f94fd705dafc89ff1f03c1207631245602407f0e8ee47e1878a4e2ae954cd76749060200160405180910390a260008183600101546116409190614885565b835461164c91906148f9565b90506116826001600160a01b037f0000000000000000000000000000000000000000000000000000000000000000163383612eca565b600080845560018401556040518181526001600160a01b038516907f57c76f5e278bfbd4eeb5207d287aa5a1a9e1113c65f7eefa540e379a2774d13b9060200160405180910390a250505050565b336001600160a01b037f000000000000000000000000000000000000000000000000000000000000000016148061172f5750336001600160a01b037f000000000000000000000000000000000000000000000000000000000000000016145b61174b5760405162461bcd60e51b815260040161097d90614944565b610f3061334c565b600260015414156117765760405162461bcd60e51b815260040161097d90614822565b6002600155611783612ab9565b61178c33613389565b60018055565b600260015414156117b55760405162461bcd60e51b815260040161097d90614822565b60026001556117c2612ab9565b336001600160a01b037f0000000000000000000000000000000000000000000000000000000000000000161461180a5760405162461bcd60e51b815260040161097d906147d6565b60005b815181101561189e576006600083838151811061182c5761182c614859565b60200260200101516001600160a01b03166001600160a01b0316815260200190815260200160002060020160119054906101000a900460ff161561188c5761188c82828151811061187f5761187f614859565b6020026020010151613389565b806118968161489d565b91505061180d565b505060018055565b336001600160a01b037f000000000000000000000000000000000000000000000000000000000000000016146118ee5760405162461bcd60e51b815260040161097d9061499d565b60005b818110156114015760016005600085858581811061191157611911614859565b9050602002016020810190611926919061450f565b6001600160a01b0316815260208101919091526040016000206004018054911515600160f81b026001600160f81b0390921691909117905582828281811061197057611970614859565b9050602002016020810190611985919061450f565b6001600160a01b03167fb72139c440b4fd552bd1ef2077ce2ef7de385e96860222e8ad491235caf5af6660405160405180910390a2806119c48161489d565b9150506118f1565b3360009081526005602081815260409283902090910180546001600160f81b0316600160f81b60ff86169081029190911790915591519182527f904afa43f77d88a905d8c6cc3b533b4a95bac10d941b471f4f885a16ccf028db910161100d565b60026001541415611a505760405162461bcd60e51b815260040161097d90614822565b6002600155611a8a6001600160a01b037f000000000000000000000000000000000000000000000000000000000000000016333084612f92565b336000818152600560205260409020600401805460ff60f01b1916600160f01b179055611ab79082612f20565b604051600181527fd72547ad77e9806d3502cb62f025f39b0f91fc8d748a41c6ac147ecc19c8d683906020016112ba565b60026001541415611b0b5760405162461bcd60e51b815260040161097d90614822565b6002600181905533600090815260066020526040908190209091018054831515600160881b0260ff60881b19909116179055517f77772e1d36f25423d87182db3c5ed774dbdb85378da5f7f88f53e6007f0e3756906112ba90831515815260200190565b60026001541415611b925760405162461bcd60e51b815260040161097d90614822565b60026001556000805b8851811015611c1e57828181518110611bb657611bb6614859565b602002602001015182611bc99190614885565b9150611c0c898281518110611be057611be0614859565b60200260200101518989898989898881518110611bff57611bff614859565b60200260200101516134db565b80611c168161489d565b915050611b9b565b50610bdd6001600160a01b037f000000000000000000000000000000000000000000000000000000000000000016333084612f92565b60026001541415611c775760405162461bcd60e51b815260040161097d90614822565b60026001557f00000000000000000000000000000000000000000000000000000000000000006001600160a01b031673bb4cdb9cbd36b01bd1cbaebf2de08d9173bc095c14611d035760405162461bcd60e51b81526020600482015260186024820152770a0c2d2e4cac840e8ded6cadc40d2e640dcdee840ae8aa8960431b604482015260640161097d565b73bb4cdb9cbd36b01bd1cbaebf2de08d9173bc095c6001600160a01b031663d0e30db0346040518263ffffffff1660e01b81526004016000604051808303818588803b158015611d5257600080fd5b505af1158015611d66573d6000803e3d6000fd5b505050505061178c3461386b565b611d7c6131ca565b611d85816138c7565b50565b60026001541415611dab5760405162461bcd60e51b815260040161097d90614822565b6002600155336001600160a01b037f00000000000000000000000000000000000000000000000000000000000000001614611df85760405162461bcd60e51b815260040161097d9061499d565b600b54611e31906001600160a01b037f000000000000000000000000000000000000000000000000000000000000000016903390612eca565b600c54611e6a906001600160a01b037f000000000000000000000000000000000000000000000000000000000000000016903390612eca565b600b5460096000828254611e7e9190614885565b9091555050600c54600a8054600090611e98908490614885565b9091555050600c54600b546040517fa1f87f32d0f17fab0242ca800d736293de8988c14b27747e218cf13d5c249f5392611eda92908252602082015260400190565b60405180910390a16000600b819055600c5560018055565b60026001541415611f155760405162461bcd60e51b815260040161097d90614822565b6002600155611f4f6001600160a01b037f000000000000000000000000000000000000000000000000000000000000000016333084612f92565b611f588161386b565b5060018055565b6001600160a01b0381166000908152600660209081526040808320815161010081018352815481526001820154938101939093526002015463ffffffff80821692840192909252600160201b810482166060840152600160401b810482166080840152600160601b810490911660a083015260ff600160801b82048116151560c0840152600160881b90910416151560e0820152611ffc90613274565b92915050565b600260015414156120255760405162461bcd60e51b815260040161097d90614822565b6002600155612032612ab9565b8061203c33610dbb565b101561208a5760405162461bcd60e51b815260206004820152601d60248201527f4e6f7420656e6f75676820746f6b656e7320746f207769746864726177000000604482015260640161097d565b6000612094612fd0565b33600081815260056020526040908190206004908101549151631820cc6160e11b81526001600160a01b03949094169363304198c2936120e2939092600160f81b90910460ff169101614910565b60206040518083038186803b1580156120fa57600080fd5b505afa15801561210e573d6000803e3d6000fd5b505050506040513d601f19601f82011682018060405250810190612132919061492b565b9050600061214882670de0b6b3a76400006148f9565b61215283856148b8565b61215c91906148d7565b336000908152600560205260409020549091506121859084906121809084906148f9565b612aff565b92506121918184614885565b33600090815260056020526040812080549091906121b09084906148f9565b9250508190555080600b60008282546121c99190614885565b90915550507f00000000000000000000000000000000000000000000000000000000000000006001600160a01b031673bb4cdb9cbd36b01bd1cbaebf2de08d9173bc095c14156122ab57604051632e1a7d4d60e01b81526004810184905273bb4cdb9cbd36b01bd1cbaebf2de08d9173bc095c90632e1a7d4d90602401600060405180830381600087803b15801561226057600080fd5b505af1158015612274573d6000803e3d6000fd5b505060405133925085156108fc02915085906000818181858888f193505050501580156122a5573d6000803e3d6000fd5b506122df565b6122df6001600160a01b037f0000000000000000000000000000000000000000000000000000000000000000163385612eca565b60405183815233907f5135ea2f98d3f162e3ddba39690cb01c8efe7e45ca7d4a15cf43be3d2981bc799060200160405180910390a250506001805550565b6123256131ca565b6001600160a01b03811661238a5760405162461bcd60e51b815260206004820152602660248201527f4f776e61626c653a206e6577206f776e657220697320746865207a65726f206160448201526564647265737360d01b606482015260840161097d565b611d8581613224565b336001600160a01b037f000000000000000000000000000000000000000000000000000000000000000016146123db5760405162461bcd60e51b815260040161097d906147d6565b600260015414156123fe5760405162461bcd60e51b815260040161097d90614822565b600260015561240b612ab9565b6000604051806101000160405280898152602001888152602001878152602001868152602001600081526020016000815260200185815260200184848080601f016020809104026020016040519081016040528093929190818152602001838380828437600092018290525093909452509293509150505b81602001515181101561267057600060056000846020015184815181106124ac576124ac614859565b6020908102919091018101516001600160a01b0316825281810192909252604090810160002081516101808101835281548152600182015493810184905260028201549281018390526003820154606082015260048201546001600160781b038082166080840152600160781b808304821660a085015260ff600160f01b8085048216151560c0870152600160f81b948590048216151560e087015260059096015480841661010087015291820490921661012085015293840481166101408401819052919093049092166101608201529350909160649190612590908490614885565b61259a91906148b8565b6125a491906148d7565b111561265d5761260d836000015183815181106125c3576125c3614859565b60200260200101518260400151606484610140015160ff16856040015186602001516125ef9190614885565b6125f991906148b8565b61260391906148d7565b61218091906148f9565b835180518490811061262157612621614859565b6020908102919091010152825180518390811061264057612640614859565b6020026020010151836080018181516126599190614885565b9052505b50806126688161489d565b915050612483565b5060005b81606001515181101561284b576000600560008460600151848151811061269d5761269d614859565b6020908102919091018101516001600160a01b03168252818101929092526040908101600020815161018081018352815480825260018301549482019490945260028201549281019290925260038101546060830181905260048201546001600160781b038082166080860152600160781b808304821660a087015260ff600160f01b8085048216151560c0890152600160f81b948590048216151560e08901526005909601548084166101008901529182049092166101208701529384048116610140860152920490911661016083018190529193509160649190612784908490614885565b61278e91906148b8565b61279891906148d7565b1115612838576127e3836040015183815181106127b7576127b7614859565b60200260200101518260600151606484610160015160ff16856060015186600001516125ef9190614885565b836040015183815181106127f9576127f9614859565b6020026020010181815250508260400151828151811061281b5761281b614859565b60200260200101518360a0018181516128349190614885565b9052505b50806128438161489d565b915050612674565b50600061285d8260a001518585613a07565b60048054608085015160405163095ea7b360e01b81529394506001600160a01b037f000000000000000000000000000000000000000000000000000000000000000081169463095ea7b3946128b7949092169291016149e7565b602060405180830381600087803b1580156128d157600080fd5b505af11580156128e5573d6000803e3d6000fd5b505050506040513d601f19601f820116820180604052508101906129099190614a00565b506004805460405163095ea7b360e01b81526001600160a01b037f000000000000000000000000000000000000000000000000000000000000000081169363095ea7b39361295c939216918691016149e7565b602060405180830381600087803b15801561297657600080fd5b505af115801561298a573d6000803e3d6000fd5b505050506040513d601f19601f820116820180604052508101906129ae9190614a00565b5060048054835160208501516040808701516060880151608089015160c08a01519351632928d8b360e11b815260009889986001600160a01b031697635251b16697612a0797919690959094909390928d929101614a91565b6040805180830381600087803b158015612a2057600080fd5b505af1158015612a34573d6000803e3d6000fd5b505050506040513d601f19601f82011682018060405250810190612a589190614afe565b91509150828460a00151612a6c91906148f9565b612a769082614885565b9050612a9084602001518560000151848760800151613c1e565b612aa884606001518560400151838760a00151613c95565b505060018055505050505050505050565b60025460ff1615610f305760405162461bcd60e51b815260206004820152601060248201526f14185d5cd8589b194e881c185d5cd95960821b604482015260640161097d565b600081831115612b0f5781610ea6565b5090919050565b6001600160a01b038216600090815260056020526040812060010180548391908390612b439084906148f9565b90915550506001600160a01b03831660009081526005602081905260408220018054849290612b7c9084906001600160781b0316614b22565b92506101000a8154816001600160781b0302191690836001600160781b031602179055506000670de0b6b3a7640000612bb3612fd0565b6001600160a01b03868116600090815260056020526040908190206004908101549151631907bfab60e01b81529390921692631907bfab92612c03928a92600160f81b90910460ff169101614910565b60206040518083038186803b158015612c1b57600080fd5b505afa158015612c2f573d6000803e3d6000fd5b505050506040513d601f19601f82011682018060405250810190612c53919061492b565b612c5d90856148b8565b612c6791906148d7565b9050612c7381846148f9565b925080600c6000828254612c879190614885565b9091555092949350505050565b60007f00000000000000000000000000000000000000000000000000000000000000006001600160a01b0316876001600160a01b03161415612cde57612cdb858484613a07565b94505b6000612cee888888888888613d05565b90507f00000000000000000000000000000000000000000000000000000000000000006001600160a01b0316876001600160a01b03161415612d3857612d35818585613a07565b90505b979650505050505050565b600080670de0b6b3a7640000612d57612fd0565b6001600160a01b0386811660009081526005602052604090819020600490810154915163d9906e7d60e01b8152939092169263d9906e7d92612da7928a92600160f81b90910460ff169101614910565b60206040518083038186803b158015612dbf57600080fd5b505afa158015612dd3573d6000803e3d6000fd5b505050506040513d601f19601f82011682018060405250810190612df7919061492b565b612e0190856148b8565b612e0b91906148d7565b9050612e1781846148f9565b925080600b6000828254612e2b9190614885565b90915550506001600160a01b03841660009081526005602052604081208054859290612e58908490614885565b90915550506001600160a01b0384166000908152600560208190526040909120018054849190600f90612e9c908490600160781b90046001600160781b0316614b22565b92506101000a8154816001600160781b0302191690836001600160781b031602179055508291505092915050565b6114018363a9059cbb60e01b8484604051602401612ee99291906149e7565b60408051601f198184030181529190526020810180516001600160e01b03166001600160e01b031990931692909217909152613dca565b6001600160a01b03821660009081526005602052604081206001018054839290612f4b908490614885565b90915550506040518181526001600160a01b038316907f9e71bc8eea02a63969f509818f2dafb9254532904319f9dbda79b67bd34a5f3d9060200160405180910390a25050565b6040516001600160a01b0380851660248301528316604482015260648101829052612fca9085906323b872dd60e01b90608401612ee9565b50505050565b600354604080516312209d2f60e31b815290516000926001600160a01b031691639104e978916004808301926020929190829003018186803b15801561301557600080fd5b505afa158015613029573d6000803e3d6000fd5b505050506040513d601f19601f8201168201806040525081019061304d9190614b4d565b905090565b61305a613e9c565b6002805460ff191690557f5db9ee0a495bf2e6ff9c91a7834c1ba4fdd244a5e8aa4e537bd38aeae4b073aa335b6040516130949190614252565b60405180910390a1565b6001600160a01b038316600090815260056020526040812060010180548392906130c9908490614885565b90915550506001600160a01b038316600090815260056020526040812060040180548392906131029084906001600160781b0316614b22565b92506101000a8154816001600160781b0302191690836001600160781b031602179055508160056000856001600160a01b03166001600160a01b03168152602001908152602001600020600001600082825461315e91906148f9565b90915550506001600160a01b03831660009081526005602052604090206004018054839190600f906131a1908490600160781b90046001600160781b0316614b22565b92506101000a8154816001600160781b0302191690836001600160781b03160217905550505050565b6000546001600160a01b03163314610f305760405162461bcd60e51b815260206004820181905260248201527f4f776e61626c653a2063616c6c6572206973206e6f7420746865206f776e6572604482015260640161097d565b600080546001600160a01b038381166001600160a01b0319831681178455604051919092169283917f8be0079c531659141344cd1fd0a4f28419497f9722a3daafe3b4186f6b6457e09190a35050565b6040810151600090429063ffffffff168110156132945750600092915050565b826080015183606001516132a89190614b6a565b63ffffffff1681106132c55760208301518351610ea691906148f9565b6000836060015163ffffffff16826132dd91906148f9565b60a085015190915063ffffffff1660006132f782846148d7565b9050600061330583836148b8565b90506000876080015163ffffffff1682896000015161332491906148b8565b61332e91906148d7565b905087602001518161334091906148f9565b98975050505050505050565b613354612ab9565b6002805460ff191660011790557f62e78cea01bee320cd4e420270b5ea74000d11b0c9f74754ebdbfc544b05a2586130873390565b6001600160a01b038116600090815260066020526040902080546133ac57600080fd5b60408051610100810182528254815260018301546020820152600283015463ffffffff80821693830193909352600160201b810483166060830152600160401b810483166080830152600160601b810490921660a082015260ff600160801b83048116151560c0830152600160881b909204909116151560e082015260009061343490613274565b90508082600101600082825461344a9190614885565b92505081905550806007600082825461346391906148f9565b90915550506001600160a01b03831660009081526005602052604081206001018054839290613493908490614885565b90915550506040518181526001600160a01b038416907f94fd705dafc89ff1f03c1207631245602407f0e8ee47e1878a4e2ae954cd76749060200160405180910390a2505050565b60008463ffffffff161161353c5760405162461bcd60e51b815260206004820152602260248201527f546f6b656e56657374696e673a206475726174696f6e206d757374206265203e604482015261020360f41b606482015260840161097d565b6000811161358c5760405162461bcd60e51b815260206004820181905260248201527f546f6b656e56657374696e673a20616d6f756e74206d757374206265203e2030604482015260640161097d565b60018363ffffffff1610156135f95760405162461bcd60e51b815260206004820152602d60248201527f546f6b656e56657374696e673a20736c696365506572696f645365636f6e647360448201526c206d757374206265203e3d203160981b606482015260840161097d565b6001600160a01b038716600090815260066020526040902054156136755760405162461bcd60e51b815260206004820152602d60248201527f546f6b656e56657374696e673a2056657374696e67207363686564756c65206160448201526c6c72656164792065786973747360981b606482015260840161097d565b60006136818688614b6a565b905080600660008a6001600160a01b03166001600160a01b0316815260200190815260200160002060020160006101000a81548163ffffffff021916908363ffffffff16021790555086600660008a6001600160a01b03166001600160a01b0316815260200190815260200160002060020160046101000a81548163ffffffff021916908363ffffffff16021790555084600660008a6001600160a01b03166001600160a01b0316815260200190815260200160002060020160086101000a81548163ffffffff021916908363ffffffff16021790555083600660008a6001600160a01b03166001600160a01b03168152602001908152602001600020600201600c6101000a81548163ffffffff021916908363ffffffff16021790555082600660008a6001600160a01b03166001600160a01b0316815260200190815260200160002060020160106101000a81548160ff02191690831515021790555081600660008a6001600160a01b03166001600160a01b0316815260200190815260200160002060000181905550816007600082825461381e9190614885565b90915550506040518281526001600160a01b038916907f82a09c12487d9950c96682e398533045828bd33d830b54dddd5684ac79bf27bd9060200160405180910390a25050505050505050565b336000908152600560205260408120805483929061388a908490614885565b909155505060405181815233907f8109037fc5b3b3f0368806e9cd981c30daa1a3d0c26be8307576c4f5f2125d5e9060200160405180910390a250565b600254604080516001600160a01b036101009093048316815291831660208301527fa8f5d6a26420dbca563af82edda993be302bfa0d82b1540ed55eac3326eb85f2910160405180910390a1600354604051630b90f5dd60e41b81526001600160a01b039091169063b90f5dd090613943908490600401614252565b60206040518083038186803b15801561395b57600080fd5b505afa15801561396f573d6000803e3d6000fd5b505050506040513d601f19601f820116820180604052508101906139939190614a00565b6139df5760405162461bcd60e51b815260206004820152601e60248201527f4d61726b65744d616b65724c696272617279206e6f7420616c6c6f7765640000604482015260640161097d565b600280546001600160a01b0390921661010002610100600160a81b0319909216919091179055565b60008067016345785d8a00007f00000000000000000000000000000000000000000000000000000000000000006001600160a01b0316311015613c0b576000613a826001600160a01b037f0000000000000000000000000000000000000000000000000000000000000000163167016345785d8a00006148f9565b90507f00000000000000000000000000000000000000000000000000000000000000006001600160a01b031673bb4cdb9cbd36b01bd1cbaebf2de08d9173bc095c14613ada57613ad3818686613ee5565b9150613ade565b8091505b818611613b3c5760405162461bcd60e51b815260206004820152602660248201527f5472616e73616374696f6e20636f737473206d6f7265207468616e20676173206044820152651b995959195960d21b606482015260840161097d565b604051632e1a7d4d60e01b81526004810182905273bb4cdb9cbd36b01bd1cbaebf2de08d9173bc095c90632e1a7d4d90602401600060405180830381600087803b158015613b8957600080fd5b505af1158015613b9d573d6000803e3d6000fd5b50506040516001600160a01b037f000000000000000000000000000000000000000000000000000000000000000016925083156108fc02915083906000818181858888f19350505050158015613bf7573d6000803e3d6000fd5b5081600854613c069190614885565b600855505b613c1581866148f9565b95945050505050565b60005b8451811015613c8e57613c7c858281518110613c3f57613c3f614859565b602002602001015183868481518110613c5a57613c5a614859565b602002602001015186613c6d91906148b8565b613c7791906148d7565b613fc3565b80613c868161489d565b915050613c21565b5050505050565b60005b8451811015613c8e57613cf3858281518110613cb657613cb6614859565b602002602001015183868481518110613cd157613cd1614859565b602002602001015186613ce491906148b8565b613cee91906148d7565b614027565b80613cfd8161489d565b915050613c98565b6002546040516000918291829161010090046001600160a01b031690613d39908b908b908b908b908b908b90602401614bb2565b60408051601f198184030181529181526020820180516001600160e01b0316632d607d0b60e21b17905251613d6e9190614c19565b600060405180830381855af49150503d8060008114613da9576040519150601f19603f3d011682016040523d82523d6000602084013e613dae565b606091505b5091509150613dbd828261407f565b9998505050505050505050565b6000613e1f826040518060400160405280602081526020017f5361666545524332303a206c6f772d6c6576656c2063616c6c206661696c6564815250856001600160a01b03166140e19092919063ffffffff16565b8051909150156114015780806020019051810190613e3d9190614a00565b6114015760405162461bcd60e51b815260206004820152602a60248201527f5361666545524332303a204552433230206f7065726174696f6e20646964206e6044820152691bdd081cdd58d8d9595960b21b606482015260840161097d565b60025460ff16610f305760405162461bcd60e51b815260206004820152601460248201527314185d5cd8589b194e881b9bdd081c185d5cd95960621b604482015260640161097d565b6002546040516000918291829161010090046001600160a01b031690613f35907f000000000000000000000000000000000000000000000000000000000000000090899089908990602401614c35565b60408051601f198184030181529181526020820180516001600160e01b031663fc7d1c8d60e01b17905251613f6a9190614c19565b600060405180830381855af49150503d8060008114613fa5576040519150601f19603f3d011682016040523d82523d6000602084013e613faa565b606091505b5091509150613fb9828261407f565b9695505050505050565b6001600160a01b03821660009081526005602052604081206002018054839290613fee908490614885565b90915550506001600160a01b0382166000908152600560205260408120600101805483929061401e9084906148f9565b90915550505050565b6001600160a01b03821660009081526005602052604081206003018054839290614052908490614885565b90915550506001600160a01b0382166000908152600560205260408120805483929061401e9084906148f9565b6000826140d7578151156140965781518083602001fd5b60405162461bcd60e51b815260206004820152601660248201527511195b1959d85d194818d85b1b081c995d995c9d195960521b604482015260640161097d565b5060200151919050565b60606140f084846000856140f8565b949350505050565b6060824710156141595760405162461bcd60e51b815260206004820152602660248201527f416464726573733a20696e73756666696369656e742062616c616e636520666f6044820152651c8818d85b1b60d21b606482015260840161097d565b6001600160a01b0385163b6141b05760405162461bcd60e51b815260206004820152601d60248201527f416464726573733a2063616c6c20746f206e6f6e2d636f6e7472616374000000604482015260640161097d565b600080866001600160a01b031685876040516141cc9190614c19565b60006040518083038185875af1925050503d8060008114614209576040519150601f19603f3d011682016040523d82523d6000602084013e61420e565b606091505b5091509150612d3882828660608315614228575081610ea6565b8251156142385782518084602001fd5b8160405162461bcd60e51b815260040161097d9190614c5d565b6001600160a01b0391909116815260200190565b634e487b7160e01b600052604160045260246000fd5b604051601f8201601f191681016001600160401b03811182821017156142a4576142a4614266565b604052919050565b60006001600160401b038211156142c5576142c5614266565b5060051b60200190565b600082601f8301126142e057600080fd5b813560206142f56142f0836142ac565b61427c565b82815260059290921b8401810191818101908684111561431457600080fd5b8286015b8481101561432f5780358352918301918301614318565b509695505050505050565b6001600160a01b0381168114611d8557600080fd5b600082601f83011261436057600080fd5b813560206143706142f0836142ac565b82815260059290921b8401810191818101908684111561438f57600080fd5b8286015b8481101561432f5780356143a68161433a565b8352918301918301614393565b60008083601f8401126143c557600080fd5b5081356001600160401b038111156143dc57600080fd5b6020830191508360208285010111156143f457600080fd5b9250929050565b60008060008060006080868803121561441357600080fd5b85356001600160401b038082111561442a57600080fd5b61443689838a016142cf565b9650602088013591508082111561444c57600080fd5b61445889838a0161434f565b955060408801359450606088013591508082111561447557600080fd5b50614482888289016143b3565b969995985093965092949392505050565b6000602082840312156144a557600080fd5b5035919050565b600080604083850312156144bf57600080fd5b82356001600160401b03808211156144d657600080fd5b6144e2868387016142cf565b935060208501359150808211156144f857600080fd5b506145058582860161434f565b9150509250929050565b60006020828403121561452157600080fd5b8135610ea68161433a565b60006020828403121561453e57600080fd5b813560ff81168114610ea657600080fd5b8015158114611d8557600080fd5b60006020828403121561456f57600080fd5b8135610ea68161454f565b6000806020838503121561458d57600080fd5b82356001600160401b03808211156145a457600080fd5b818501915085601f8301126145b857600080fd5b8135818111156145c757600080fd5b8660208260051b85010111156145dc57600080fd5b60209290920196919550909350505050565b60006020828403121561460057600080fd5b81356001600160401b0381111561461657600080fd5b6140f08482850161434f565b803563ffffffff8116811461463657600080fd5b919050565b600080600080600080600060e0888a03121561465657600080fd5b87356001600160401b038082111561466d57600080fd5b6146798b838c0161434f565b985061468760208b01614622565b975061469560408b01614622565b96506146a360608b01614622565b95506146b160808b01614622565b945060a08a013591506146c38261454f565b90925060c089013590808211156146d957600080fd5b506146e68a828b016142cf565b91505092959891949750929550565b600080600080600080600060c0888a03121561471057600080fd5b87356001600160401b038082111561472757600080fd5b6147338b838c016142cf565b985060208a013591508082111561474957600080fd5b6147558b838c0161434f565b975060408a013591508082111561476b57600080fd5b6147778b838c016142cf565b965060608a013591508082111561478d57600080fd5b6147998b838c0161434f565b955060808a0135945060a08a01359150808211156147b657600080fd5b506147c38a828b016143b3565b989b979a50959850939692959293505050565b6020808252602c908201527f6f6e6c79436f6e74726f6c6c65723a2063616c6c6572206973206e6f7420746860408201526b329031b7b73a3937b63632b960a11b606082015260800190565b6020808252601f908201527f5265656e7472616e637947756172643a207265656e7472616e742063616c6c00604082015260600190565b634e487b7160e01b600052603260045260246000fd5b634e487b7160e01b600052601160045260246000fd5b600082198211156148985761489861486f565b500190565b60006000198214156148b1576148b161486f565b5060010190565b60008160001904831182151516156148d2576148d261486f565b500290565b6000826148f457634e487b7160e01b600052601260045260246000fd5b500490565b60008282101561490b5761490b61486f565b500390565b6001600160a01b039290921682521515602082015260400190565b60006020828403121561493d57600080fd5b5051919050565b60208082526039908201527f6f6e6c794d6f64657261746f723a2063616c6c6572206973206e6f74207468656040820152781031b7b73a3937b63632b9103737b91036b7b232b930ba37b960391b606082015260800190565b6020808252602a908201527f6f6e6c794d6f64657261746f723a2063616c6c6572206973206e6f74207468656040820152691036b7b232b930ba37b960b11b606082015260800190565b6001600160a01b03929092168252602082015260400190565b600060208284031215614a1257600080fd5b8151610ea68161454f565b600081518084526020808501945080840160005b83811015614a4d57815187529582019590820190600101614a31565b509495945050505050565b600081518084526020808501945080840160005b83811015614a4d5781516001600160a01b031687529582019590820190600101614a6c565b60e081526000614aa460e083018a614a1d565b8281036020840152614ab6818a614a58565b90508281036040840152614aca8189614a1d565b90508281036060840152614ade8188614a58565b6080840196909652505060a081019290925260c090910152949350505050565b60008060408385031215614b1157600080fd5b505080516020909101519092909150565b60006001600160781b03828116848216808303821115614b4457614b4461486f565b01949350505050565b600060208284031215614b5f57600080fd5b8151610ea68161433a565b600063ffffffff808316818516808303821115614b4457614b4461486f565b81835281816020850137506000828201602090810191909152601f909101601f19169091010190565b6001600160a01b03878116825286166020820152604081018590526060810184905260a0608082018190526000906133409083018486614b89565b60005b83811015614c08578181015183820152602001614bf0565b83811115612fca5750506000910152565b60008251614c2b818460208701614bed565b9190910192915050565b60018060a01b0385168152836020820152606060408201526000613fb9606083018486614b89565b6020815260008251806020840152614c7c816040850160208701614bed565b601f01601f1916919091016040019291505056fea26469706673582212200b3ec859c75689eaf58e4e04aa2ebc96153e2a645a9d1c823e61831b6ba6f61664736f6c63430008090033",
  "linkReferences": {},
  "deployedLinkReferences": {}
}