{
  "_format": "hh-sol-artifact-1",
  "contractName": "MarketMaker",
  "sourceName": "contracts/MarketMaker.sol",
  "abi": [
    {
      "inputs": [
        {
          "internalType": "address",
          "name": "_baseToken",
          "type": "address"
        },
        {
          "internalType": "address",
          "name": "_pairedToken",
          "type": "address"
        },
        {
          "internalType": "address",
          "name": "_owner",
          "type": "address"
        },
        {
          "internalType": "address",
          "name": "_moderator",
          "type": "address"
        },
        {
          "internalType": "address payable",
          "name": "_controller",
          "type": "address"
        },
        {
          "internalType": "bool",
          "name": "_revocableContract",
          "type": "bool"
        },
        {
          "internalType": "bool",
          "name": "_paused",
          "type": "bool"
        },
        {
          "internalType": "address",
          "name": "_marketMakerLibraryAddress",
          "type": "address"
        },
        {
          "internalType": "address",
          "name": "_masterContractAddress",
          "type": "address"
        }
      ],
      "stateMutability": "nonpayable",
      "type": "constructor"
    },
    {
      "anonymous": false,
      "inputs": [
        {
          "indexed": true,
          "internalType": "address",
          "name": "_user",
          "type": "address"
        },
        {
          "indexed": false,
          "internalType": "uint256",
          "name": "_amount",
          "type": "uint256"
        }
      ],
      "name": "AmountReleased",
      "type": "event"
    },
    {
      "anonymous": false,
      "inputs": [
        {
          "indexed": false,
          "internalType": "address",
          "name": "_OldmarketMakerLibraryAddress",
          "type": "address"
        },
        {
          "indexed": false,
          "internalType": "address",
          "name": "_NewmarketMakerLibraryAddress",
          "type": "address"
        }
      ],
      "name": "ChangeMarketMakerLibraryAddress",
      "type": "event"
    },
    {
      "anonymous": false,
      "inputs": [
        {
          "indexed": true,
          "internalType": "address",
          "name": "_beneficiary",
          "type": "address"
        },
        {
          "indexed": false,
          "internalType": "uint256",
          "name": "_amount",
          "type": "uint256"
        }
      ],
      "name": "CreatedVestingSchedule",
      "type": "event"
    },
    {
      "anonymous": false,
      "inputs": [
        {
          "indexed": false,
          "internalType": "uint256",
          "name": "claimedBaseFee",
          "type": "uint256"
        },
        {
          "indexed": false,
          "internalType": "uint256",
          "name": "claimedPairedFee",
          "type": "uint256"
        }
      ],
      "name": "FeesClaimed",
      "type": "event"
    },
    {
      "anonymous": false,
      "inputs": [
        {
          "indexed": true,
          "internalType": "address",
          "name": "oldOwner",
          "type": "address"
        },
        {
          "indexed": true,
          "internalType": "address",
          "name": "newOwner",
          "type": "address"
        }
      ],
      "name": "OwnershipTransferred",
      "type": "event"
    },
    {
      "anonymous": false,
      "inputs": [
        {
          "indexed": false,
          "internalType": "address",
          "name": "account",
          "type": "address"
        }
      ],
      "name": "Paused",
      "type": "event"
    },
    {
      "anonymous": false,
      "inputs": [
        {
          "indexed": true,
          "internalType": "address",
          "name": "_user",
          "type": "address"
        }
      ],
      "name": "ProjectOwnerRemoved",
      "type": "event"
    },
    {
      "anonymous": false,
      "inputs": [
        {
          "indexed": true,
          "internalType": "address",
          "name": "_user",
          "type": "address"
        }
      ],
      "name": "ProjectOwnerSet",
      "type": "event"
    },
    {
      "anonymous": false,
      "inputs": [
        {
          "indexed": true,
          "internalType": "address",
          "name": "_user",
          "type": "address"
        },
        {
          "indexed": false,
          "internalType": "uint256",
          "name": "_amount",
          "type": "uint256"
        }
      ],
      "name": "Staked",
      "type": "event"
    },
    {
      "anonymous": false,
      "inputs": [
        {
          "indexed": true,
          "internalType": "address",
          "name": "_user",
          "type": "address"
        },
        {
          "indexed": false,
          "internalType": "uint256",
          "name": "_amount",
          "type": "uint256"
        }
      ],
      "name": "StakedInPairedToken",
      "type": "event"
    },
    {
      "anonymous": false,
      "inputs": [
        {
          "indexed": false,
          "internalType": "address",
          "name": "account",
          "type": "address"
        }
      ],
      "name": "Unpaused",
      "type": "event"
    },
    {
      "anonymous": false,
      "inputs": [
        {
          "indexed": true,
          "internalType": "address",
          "name": "_user",
          "type": "address"
        }
      ],
      "name": "VestingRevoked",
      "type": "event"
    },
    {
      "anonymous": false,
      "inputs": [
        {
          "indexed": true,
          "internalType": "address",
          "name": "_user",
          "type": "address"
        },
        {
          "indexed": false,
          "internalType": "uint256",
          "name": "_amount",
          "type": "uint256"
        }
      ],
      "name": "WithdrawnBaseToken",
      "type": "event"
    },
    {
      "anonymous": false,
      "inputs": [
        {
          "indexed": true,
          "internalType": "address",
          "name": "_user",
          "type": "address"
        },
        {
          "indexed": false,
          "internalType": "uint256",
          "name": "_amount",
          "type": "uint256"
        }
      ],
      "name": "WithdrawnPairedToken",
      "type": "event"
    },
    {
      "inputs": [
        {
          "internalType": "address",
          "name": "_beneficiary",
          "type": "address"
        }
      ],
      "name": "amountLocked",
      "outputs": [
        {
          "internalType": "uint256",
          "name": "",
          "type": "uint256"
        }
      ],
      "stateMutability": "view",
      "type": "function"
    },
    {
      "inputs": [
        {
          "internalType": "address",
          "name": "_beneficiary",
          "type": "address"
        }
      ],
      "name": "amountVested",
      "outputs": [
        {
          "internalType": "uint256",
          "name": "",
          "type": "uint256"
        }
      ],
      "stateMutability": "view",
      "type": "function"
    },
    {
      "inputs": [
        {
          "internalType": "address",
          "name": "_beneficiary",
          "type": "address"
        }
      ],
      "name": "available",
      "outputs": [
        {
          "internalType": "uint256",
          "name": "",
          "type": "uint256"
        }
      ],
      "stateMutability": "view",
      "type": "function"
    },
    {
      "inputs": [
        {
          "internalType": "address",
          "name": "_beneficiary",
          "type": "address"
        }
      ],
      "name": "balanceInPairedToken",
      "outputs": [
        {
          "internalType": "uint256",
          "name": "",
          "type": "uint256"
        }
      ],
      "stateMutability": "view",
      "type": "function"
    },
    {
      "inputs": [],
      "name": "baseTokenAddress",
      "outputs": [
        {
          "internalType": "address",
          "name": "",
          "type": "address"
        }
      ],
      "stateMutability": "view",
      "type": "function"
    },
    {
      "inputs": [
        {
          "internalType": "uint256[]",
          "name": "_amountsIn",
          "type": "uint256[]"
        },
        {
          "internalType": "address[]",
          "name": "_beneficiaryArray",
          "type": "address[]"
        },
        {
          "internalType": "uint256",
          "name": "_slippage",
          "type": "uint256"
        },
        {
          "internalType": "string",
          "name": "_exchange",
          "type": "string"
        }
      ],
      "name": "buy",
      "outputs": [],
      "stateMutability": "nonpayable",
      "type": "function"
    },
    {
      "inputs": [],
      "name": "claimFees",
      "outputs": [],
      "stateMutability": "nonpayable",
      "type": "function"
    },
    {
      "inputs": [
        {
          "internalType": "address",
          "name": "_beneficiary",
          "type": "address"
        }
      ],
      "name": "computeReleasableAmount",
      "outputs": [
        {
          "internalType": "uint256",
          "name": "",
          "type": "uint256"
        }
      ],
      "stateMutability": "view",
      "type": "function"
    },
    {
      "inputs": [],
      "name": "controller",
      "outputs": [
        {
          "internalType": "address payable",
          "name": "",
          "type": "address"
        }
      ],
      "stateMutability": "view",
      "type": "function"
    },
    {
      "inputs": [
        {
          "internalType": "address[]",
          "name": "_beneficiaryArray",
          "type": "address[]"
        },
        {
          "internalType": "uint32",
          "name": "_start",
          "type": "uint32"
        },
        {
          "internalType": "uint32",
          "name": "_cliff",
          "type": "uint32"
        },
        {
          "internalType": "uint32",
          "name": "_duration",
          "type": "uint32"
        },
        {
          "internalType": "uint32",
          "name": "_slicePeriodSeconds",
          "type": "uint32"
        },
        {
          "internalType": "bool",
          "name": "_revocable",
          "type": "bool"
        },
        {
          "internalType": "uint256[]",
          "name": "_amounts",
          "type": "uint256[]"
        }
      ],
      "name": "createVestingSchedule",
      "outputs": [],
      "stateMutability": "nonpayable",
      "type": "function"
    },
    {
      "inputs": [
        {
          "internalType": "address",
          "name": "_beneficiary",
          "type": "address"
        }
      ],
      "name": "getWithdrawablePairedTokens",
      "outputs": [
        {
          "internalType": "uint256",
          "name": "total",
          "type": "uint256"
        }
      ],
      "stateMutability": "view",
      "type": "function"
    },
    {
      "inputs": [
        {
          "internalType": "address",
          "name": "",
          "type": "address"
        }
      ],
      "name": "holdersMapping",
      "outputs": [
        {
          "internalType": "uint256",
          "name": "balanceInPairedToken",
          "type": "uint256"
        },
        {
          "internalType": "uint256",
          "name": "available",
          "type": "uint256"
        },
        {
          "internalType": "uint256",
          "name": "amountVested",
          "type": "uint256"
        },
        {
          "internalType": "uint256",
          "name": "released",
          "type": "uint256"
        },
        {
          "internalType": "uint32",
          "name": "cliff",
          "type": "uint32"
        },
        {
          "internalType": "uint32",
          "name": "start",
          "type": "uint32"
        },
        {
          "internalType": "uint32",
          "name": "duration",
          "type": "uint32"
        },
        {
          "internalType": "uint32",
          "name": "slicePeriodSeconds",
          "type": "uint32"
        },
        {
          "internalType": "bool",
          "name": "initialized",
          "type": "bool"
        },
        {
          "internalType": "bool",
          "name": "projectOwner",
          "type": "bool"
        },
        {
          "internalType": "bool",
          "name": "revocable",
          "type": "bool"
        }
      ],
      "stateMutability": "view",
      "type": "function"
    },
    {
      "inputs": [],
      "name": "marketMakerLibraryAddress",
      "outputs": [
        {
          "internalType": "address",
          "name": "",
          "type": "address"
        }
      ],
      "stateMutability": "view",
      "type": "function"
    },
    {
      "inputs": [],
      "name": "masterContract",
      "outputs": [
        {
          "internalType": "contract IMasterContract",
          "name": "",
          "type": "address"
        }
      ],
      "stateMutability": "view",
      "type": "function"
    },
    {
      "inputs": [],
      "name": "moderator",
      "outputs": [
        {
          "internalType": "address",
          "name": "",
          "type": "address"
        }
      ],
      "stateMutability": "view",
      "type": "function"
    },
    {
      "inputs": [],
      "name": "owner",
      "outputs": [
        {
          "internalType": "address",
          "name": "",
          "type": "address"
        }
      ],
      "stateMutability": "view",
      "type": "function"
    },
    {
      "inputs": [],
      "name": "pairedTokenAddress",
      "outputs": [
        {
          "internalType": "address",
          "name": "",
          "type": "address"
        }
      ],
      "stateMutability": "view",
      "type": "function"
    },
    {
      "inputs": [],
      "name": "pause",
      "outputs": [],
      "stateMutability": "nonpayable",
      "type": "function"
    },
    {
      "inputs": [],
      "name": "paused",
      "outputs": [
        {
          "internalType": "bool",
          "name": "",
          "type": "bool"
        }
      ],
      "stateMutability": "view",
      "type": "function"
    },
    {
      "inputs": [
        {
          "internalType": "uint256",
          "name": "_amount",
          "type": "uint256"
        }
      ],
      "name": "release",
      "outputs": [],
      "stateMutability": "nonpayable",
      "type": "function"
    },
    {
      "inputs": [
        {
          "internalType": "address",
          "name": "_beneficiary",
          "type": "address"
        }
      ],
      "name": "released",
      "outputs": [
        {
          "internalType": "uint256",
          "name": "",
          "type": "uint256"
        }
      ],
      "stateMutability": "view",
      "type": "function"
    },
    {
      "inputs": [
        {
          "internalType": "address[]",
          "name": "_beneficiaryArray",
          "type": "address[]"
        }
      ],
      "name": "removeProjectOwner",
      "outputs": [],
      "stateMutability": "nonpayable",
      "type": "function"
    },
    {
      "inputs": [],
      "name": "revocableContract",
      "outputs": [
        {
          "internalType": "bool",
          "name": "",
          "type": "bool"
        }
      ],
      "stateMutability": "view",
      "type": "function"
    },
    {
      "inputs": [
        {
          "internalType": "address",
          "name": "_beneficiary",
          "type": "address"
        }
      ],
      "name": "revoke",
      "outputs": [],
      "stateMutability": "nonpayable",
      "type": "function"
    },
    {
      "inputs": [
        {
          "internalType": "uint256[]",
          "name": "_amountsIn",
          "type": "uint256[]"
        },
        {
          "internalType": "address[]",
          "name": "_beneficiaryArray",
          "type": "address[]"
        },
        {
          "internalType": "uint256",
          "name": "_slippage",
          "type": "uint256"
        },
        {
          "internalType": "string",
          "name": "_exchange",
          "type": "string"
        }
      ],
      "name": "sell",
      "outputs": [],
      "stateMutability": "nonpayable",
      "type": "function"
    },
    {
      "inputs": [
        {
          "internalType": "address",
          "name": "_marketMakerLibraryAddress",
          "type": "address"
        }
      ],
      "name": "setMarketMakerLibraryAddress",
      "outputs": [],
      "stateMutability": "nonpayable",
      "type": "function"
    },
    {
      "inputs": [
        {
          "internalType": "address[]",
          "name": "_beneficiaryArray",
          "type": "address[]"
        }
      ],
      "name": "setProjectOwner",
      "outputs": [],
      "stateMutability": "nonpayable",
      "type": "function"
    },
    {
      "inputs": [
        {
          "internalType": "uint256",
          "name": "_amount",
          "type": "uint256"
        }
      ],
      "name": "stake",
      "outputs": [],
      "stateMutability": "nonpayable",
      "type": "function"
    },
    {
      "inputs": [
        {
          "internalType": "uint256[]",
          "name": "_amounts",
          "type": "uint256[]"
        },
        {
          "internalType": "address[]",
          "name": "_beneficiaryArray",
          "type": "address[]"
        }
      ],
      "name": "stakeBatch",
      "outputs": [],
      "stateMutability": "nonpayable",
      "type": "function"
    },
    {
      "inputs": [
        {
          "internalType": "uint256",
          "name": "_amount",
          "type": "uint256"
        }
      ],
      "name": "stakePairedToken",
      "outputs": [],
      "stateMutability": "nonpayable",
      "type": "function"
    },
    {
      "inputs": [],
      "name": "stakePairedTokenInETH",
      "outputs": [],
      "stateMutability": "payable",
      "type": "function"
    },
    {
      "inputs": [
        {
          "internalType": "uint256[]",
          "name": "_amountsIn",
          "type": "uint256[]"
        },
        {
          "internalType": "address[]",
          "name": "_beneficiaryArray",
          "type": "address[]"
        },
        {
          "internalType": "address",
          "name": "_seller",
          "type": "address"
        },
        {
          "internalType": "string",
          "name": "_exchange",
          "type": "string"
        }
      ],
      "name": "swap",
      "outputs": [],
      "stateMutability": "nonpayable",
      "type": "function"
    },
    {
      "inputs": [],
      "name": "totalVested",
      "outputs": [
        {
          "internalType": "uint256",
          "name": "",
          "type": "uint256"
        }
      ],
      "stateMutability": "view",
      "type": "function"
    },
    {
      "inputs": [
        {
          "internalType": "address",
          "name": "newOwner",
          "type": "address"
        }
      ],
      "name": "transferOwnership",
      "outputs": [],
      "stateMutability": "nonpayable",
      "type": "function"
    },
    {
      "inputs": [],
      "name": "unpause",
      "outputs": [],
      "stateMutability": "nonpayable",
      "type": "function"
    },
    {
      "inputs": [
        {
          "internalType": "uint256",
          "name": "_amount",
          "type": "uint256"
        }
      ],
      "name": "withdrawBaseToken",
      "outputs": [],
      "stateMutability": "nonpayable",
      "type": "function"
    },
    {
      "inputs": [
        {
          "internalType": "uint256",
          "name": "_amount",
          "type": "uint256"
        }
      ],
      "name": "withdrawPairedToken",
      "outputs": [],
      "stateMutability": "nonpayable",
      "type": "function"
    },
    {
      "stateMutability": "payable",
      "type": "receive"
    }
  ],
  "bytecode": "0x6101606040523480156200001257600080fd5b506040516200499438038062004994833981016040819052620000359162000376565b600080546001600160a01b03191633178082556040516001600160a01b0391909116919060008051602062004974833981519152908290a3600180556002805460ff191690556001600160601b031960608a811b821660e081905260c05289811b82166101208190526101005286811b821660805287901b1660a05283151560f81b61014052600380546001600160a01b0383166001600160a01b0319909116179055620000e3826200013b565b620000ee8762000261565b600080546001600160a01b0316815260046020819052604090912001805460ff60881b1916600160881b17905582156200012c576200012c620002d8565b50505050505050505062000546565b7fa8f5d6a26420dbca563af82edda993be302bfa0d82b1540ed55eac3326eb85f2600260019054906101000a90046001600160a01b031682604051620001839291906200047d565b60405180910390a1600354604051630b90f5dd60e41b81526001600160a01b039091169063b90f5dd090620001bd90849060040162000469565b60206040518083038186803b158015620001d657600080fd5b505afa158015620001eb573d6000803e3d6000fd5b505050506040513d601f19601f8201168201806040525081019062000211919062000445565b620002395760405162461bcd60e51b81526004016200023090620004f6565b60405180910390fd5b600280546001600160a01b0390921661010002610100600160a81b0319909216919091179055565b6000546001600160a01b031633146200028e5760405162461bcd60e51b81526004016200023090620004c1565b600080546040516001600160a01b03808516939216916000805160206200497483398151915291a3600080546001600160a01b0319166001600160a01b0392909216919091179055565b620002e262000353565b15620003025760405162461bcd60e51b8152600401620002309062000497565b6002805460ff191660011790557f62e78cea01bee320cd4e420270b5ea74000d11b0c9f74754ebdbfc544b05a2586200033a6200035c565b60405162000349919062000469565b60405180910390a1565b60025460ff1690565b3390565b805180151581146200037157600080fd5b919050565b60008060008060008060008060006101208a8c03121562000395578485fd5b8951620003a2816200052d565b60208b0151909950620003b5816200052d565b60408b0151909850620003c8816200052d565b60608b0151909750620003db816200052d565b60808b0151909650620003ee816200052d565b9450620003fe60a08b0162000360565b93506200040e60c08b0162000360565b925060e08a015162000420816200052d565b6101008b015190925062000434816200052d565b809150509295985092959850929598565b60006020828403121562000457578081fd5b620004628262000360565b9392505050565b6001600160a01b0391909116815260200190565b6001600160a01b0392831681529116602082015260400190565b60208082526010908201526f14185d5cd8589b194e881c185d5cd95960821b604082015260600190565b6020808252818101527f4f776e61626c653a2063616c6c6572206973206e6f7420746865206f776e6572604082015260600190565b6020808252601e908201527f4d61726b65744d616b65724c696272617279206e6f7420616c6c6f7765640000604082015260600190565b6001600160a01b03811681146200054357600080fd5b50565b60805160601c60a05160601c60c05160601c60e05160601c6101005160601c6101205160601c6101405160f81c6142d76200069d600039600081816115f70152611adb015260008181611deb01528181611f0201526122a101526000818161086f01528181610aec015281816113850152818161146401528181611c54015281816121b5015281816125330152818161258d0152818161277101526133c9015260008181610ce201528181610e33015281816117da01528181611aa001528181611c020152611e2401526000818161084e01528181610b0d015281816113a6015261185901526000818161111e0152818161114b0152818161149101528181611886015281816119180152611d9d0152600081816106830152818161093f0152818161117d01528181611250015281816118b8015281816123d0015281816127000152818161273e015261285c01526142d76000f3fe6080604052600436106101ee5760003560e01c80638456cb5911610113578063baf2a116116100ab578063e5bf6a7f1161006f578063e5bf6a7f146105a7578063f2fde38b146105c7578063f47c733f146105e7578063f6c788b214610607578063f77c479114610627576101f5565b8063baf2a1161461051d578063cd446e221461053d578063d294f09314610552578063d82f196714610567578063dd1fdb6214610587576101f5565b80638456cb59146104365780638da5cb5b1461044b5780639270704a146104605780639852595c14610480578063a694fc3a146104a0578063a92a8875146104c0578063ac678735146104d5578063afbd7ac1146104f5578063b2822c3114610515576101f5565b8063387439041161018657806338743904146103295780633f4ba83a1461033e57806347fd27f0146103535780635c975abb1461038a5780635d2cd2dc146103ac5780636927810d146103cc57806372db12cb146103e157806374a8f103146104015780637cb374bd14610421576101f5565b806310098ad5146101fa5780631742541a14610230578063199cbc54146102525780631de53d94146102675780632f764a83146102895780632fd33ddb146102a95780633423ee60146102c957806337bdc99b146102e957806337e3a19e14610309576101f5565b366101f557005b600080fd5b34801561020657600080fd5b5061021a61021536600461364b565b61063c565b60405161022791906140b2565b60405180910390f35b34801561023c57600080fd5b5061024561065e565b6040516102279190613a3e565b34801561025e57600080fd5b5061021a610672565b34801561027357600080fd5b506102876102823660046138a7565b610678565b005b34801561029557600080fd5b506102876102a4366004613808565b610934565b3480156102b557600080fd5b506102876102c43660046139c8565b610c41565b3480156102d557600080fd5b506102876102e43660046137a8565b610d51565b3480156102f557600080fd5b506102876103043660046139c8565b610e64565b34801561031557600080fd5b5061021a61032436600461364b565b61102b565b34801561033557600080fd5b5061024561111c565b34801561034a57600080fd5b50610287611140565b34801561035f57600080fd5b5061037361036e36600461364b565b6111c5565b6040516102279b9a999897969594939291906140c9565b34801561039657600080fd5b5061039f61123c565b6040516102279190613b5b565b3480156103b857600080fd5b506102876103c73660046138a7565b611245565b3480156103d857600080fd5b50610245611462565b3480156103ed57600080fd5b506102876103fc366004613683565b611486565b34801561040d57600080fd5b5061028761041c36600461364b565b6115cb565b34801561042d57600080fd5b50610245611857565b34801561044257600080fd5b5061028761187b565b34801561045757600080fd5b506102456118fe565b34801561046c57600080fd5b5061028761047b366004613683565b61190d565b34801561048c57600080fd5b5061021a61049b36600461364b565b611a4d565b3480156104ac57600080fd5b506102876104bb3660046139c8565b611a6b565b3480156104cc57600080fd5b5061039f611ad9565b3480156104e157600080fd5b5061021a6104f036600461364b565b611afd565b34801561050157600080fd5b506102876105103660046136f1565b611b1b565b610287611c2a565b34801561052957600080fd5b5061028761053836600461364b565b611d25565b34801561054957600080fd5b50610245611d5b565b34801561055e57600080fd5b50610287611d6a565b34801561057357600080fd5b506102876105823660046139c8565b611ecd565b34801561059357600080fd5b5061021a6105a236600461364b565b611f33565b3480156105b357600080fd5b506102876105c23660046139c8565b611ffb565b3480156105d357600080fd5b506102876105e236600461364b565b612301565b3480156105f357600080fd5b5061021a61060236600461364b565b612386565b34801561061357600080fd5b5061021a61062236600461364b565b6123a1565b34801561063357600080fd5b506102456123ce565b6001600160a01b0381166000908152600460205260409020600101545b919050565b60025461010090046001600160a01b031681565b60055481565b336001600160a01b037f000000000000000000000000000000000000000000000000000000000000000016146106c95760405162461bcd60e51b81526004016106c090613b99565b60405180910390fd5b600260015414156106ec5760405162461bcd60e51b81526004016106c09061407b565b60026001556106f961123c565b156107165760405162461bcd60e51b81526004016106c090613dc0565b6000805b8551811015610846576107d386828151811061074657634e487b7160e01b600052603260045260246000fd5b60200260200101516107ce89848151811061077157634e487b7160e01b600052603260045260246000fd5b6020026020010151600460008b878151811061079d57634e487b7160e01b600052603260045260246000fd5b60200260200101516001600160a01b03166001600160a01b03168152602001908152602001600020600101546123f2565b612409565b8782815181106107f357634e487b7160e01b600052603260045260246000fd5b60200260200101818152505086818151811061081f57634e487b7160e01b600052603260045260246000fd5b6020026020010151826108329190614171565b91508061083e81614237565b91505061071a565b5060006108977f00000000000000000000000000000000000000000000000000000000000000007f00000000000000000000000000000000000000000000000000000000000000008488888861252f565b905060005b8651811015610926576109138782815181106108c857634e487b7160e01b600052603260045260246000fd5b6020026020010151848a84815181106108f157634e487b7160e01b600052603260045260246000fd5b60200260200101518561090491906141d1565b61090e91906141b1565b6125de565b508061091e81614237565b91505061089c565b505060018055505050505050565b336001600160a01b037f0000000000000000000000000000000000000000000000000000000000000000161461097c5760405162461bcd60e51b81526004016106c090613b99565b6002600154141561099f5760405162461bcd60e51b81526004016106c09061407b565b60026001556109ac61123c565b156109c95760405162461bcd60e51b81526004016106c090613dc0565b6000805b8551811015610ac957610a568782815181106109f957634e487b7160e01b600052603260045260246000fd5b602002602001015160046000898581518110610a2557634e487b7160e01b600052603260045260246000fd5b60200260200101516001600160a01b03166001600160a01b03168152602001908152602001600020600001546123f2565b878281518110610a7657634e487b7160e01b600052603260045260246000fd5b602002602001018181525050868181518110610aa257634e487b7160e01b600052603260045260246000fd5b602002602001015182610ab59190614171565b915080610ac181614237565b9150506109cd565b506000610ad685836125de565b9050610ae38185856126f2565b90506000610b347f00000000000000000000000000000000000000000000000000000000000000007f00000000000000000000000000000000000000000000000000000000000000008488886128ce565b6001600160a01b038716600090815260046020526040902060010154909150811115610b725760405162461bcd60e51b81526004016106c090613d24565b610b7c8682612409565b905060005b8751811015610c3257610c20888281518110610bad57634e487b7160e01b600052603260045260246000fd5b60200260200101518a8381518110610bd557634e487b7160e01b600052603260045260246000fd5b6020026020010151868c8581518110610bfe57634e487b7160e01b600052603260045260246000fd5b602002602001015186610c1191906141d1565b610c1b91906141b1565b612990565b80610c2a81614237565b915050610b81565b50506001805550505050505050565b60026001541415610c645760405162461bcd60e51b81526004016106c09061407b565b6002600155610c7161123c565b15610c8e5760405162461bcd60e51b81526004016106c090613dc0565b33600090815260046020526040902060010154811115610cad57600080fd5b3360009081526004602052604081206001018054839290610ccf9084906141f0565b90915550610d0990506001600160a01b037f00000000000000000000000000000000000000000000000000000000000000001633836129f2565b336001600160a01b03167fb2475cc0963391d593f1a890df550d0c0551e1317e08cba0cdece5014f0555f682604051610d4291906140b2565b60405180910390a25060018055565b60026001541415610d745760405162461bcd60e51b81526004016106c09061407b565b60026001556000805b8251811015610e2557838181518110610da657634e487b7160e01b600052603260045260246000fd5b602002602001015182610db99190614171565b9150610e13838281518110610dde57634e487b7160e01b600052603260045260246000fd5b6020026020010151858381518110610e0657634e487b7160e01b600052603260045260246000fd5b6020026020010151612af1565b80610e1d81614237565b915050610d7d565b50610e5b6001600160a01b037f000000000000000000000000000000000000000000000000000000000000000016333084612b68565b50506001805550565b60026001541415610e875760405162461bcd60e51b81526004016106c09061407b565b6002600155610e9461123c565b15610eb15760405162461bcd60e51b81526004016106c090613dc0565b3360009081526004602052604090206002810154610ece57600080fd5b6040805161016081018252825481526001830154602082015260028301549181019190915260038201546060820152600482015463ffffffff8082166080840152600160201b8204811660a0840152600160401b8204811660c0840152600160601b82041660e083015260ff600160801b820481161515610100840152600160881b820481161515610120840152600160901b909104161515610140820152600090610f7990612c51565b905082811015610f9b5760405162461bcd60e51b81526004016106c090613cc7565b82826003016000828254610faf9190614171565b925050819055508260056000828254610fc891906141f0565b9250508190555082826001016000828254610fe39190614171565b909155505060405133907f94fd705dafc89ff1f03c1207631245602407f0e8ee47e1878a4e2ae954cd76749061101a9086906140b2565b60405180910390a250506001805550565b6001600160a01b03811660009081526004602052604081205490670de0b6b3a7640000611056612d37565b6001600160a01b038581166000908152600460208190526040918290208101549151631820cc6160e11b8152939092169263304198c2926110a5928992600160881b90910460ff169101613aff565b60206040518083038186803b1580156110bd57600080fd5b505afa1580156110d1573d6000803e3d6000fd5b505050506040513d601f19601f820116820180604052508101906110f591906139e0565b6110ff90846141d1565b61110991906141b1565b905061111581836141f0565b9392505050565b7f000000000000000000000000000000000000000000000000000000000000000081565b336001600160a01b037f000000000000000000000000000000000000000000000000000000000000000016148061119f5750336001600160a01b037f000000000000000000000000000000000000000000000000000000000000000016145b6111bb5760405162461bcd60e51b81526004016106c090613dea565b6111c3612db9565b565b60046020819052600091825260409091208054600182015460028301546003840154939094015491939092909163ffffffff80821691600160201b8104821691600160401b8204811691600160601b81049091169060ff600160801b8204811691600160881b8104821691600160901b909104168b565b60025460ff1690565b336001600160a01b037f0000000000000000000000000000000000000000000000000000000000000000161461128d5760405162461bcd60e51b81526004016106c090613b99565b600260015414156112b05760405162461bcd60e51b81526004016106c09061407b565b60026001556112bd61123c565b156112da5760405162461bcd60e51b81526004016106c090613dc0565b6000805b855181101561137d5761130a8782815181106109f957634e487b7160e01b600052603260045260246000fd5b87828151811061132a57634e487b7160e01b600052603260045260246000fd5b60200260200101818152505086818151811061135657634e487b7160e01b600052603260045260246000fd5b6020026020010151826113699190614171565b91508061137581614237565b9150506112de565b5060006113ce7f00000000000000000000000000000000000000000000000000000000000000007f00000000000000000000000000000000000000000000000000000000000000008488888861252f565b905060005b8651811015610926576114508782815181106113ff57634e487b7160e01b600052603260045260246000fd5b602002602001015189838151811061142757634e487b7160e01b600052603260045260246000fd5b6020026020010151858b8581518110610bfe57634e487b7160e01b600052603260045260246000fd5b8061145a81614237565b9150506113d3565b7f000000000000000000000000000000000000000000000000000000000000000081565b336001600160a01b037f000000000000000000000000000000000000000000000000000000000000000016146114ce5760405162461bcd60e51b81526004016106c090613f35565b60005b818110156115c6576000600460008585858181106114ff57634e487b7160e01b600052603260045260246000fd5b9050602002016020810190611514919061364b565b6001600160a01b0316815260208101919091526040016000206004018054911515600160881b0260ff60881b1990921691909117905582828281811061156a57634e487b7160e01b600052603260045260246000fd5b905060200201602081019061157f919061364b565b6001600160a01b03167fa3bfdef3d8149bacf15b7b64199fca8228c0fd4f8fcdd11cc7871829baf319c360405160405180910390a2806115be81614237565b9150506114d1565b505050565b6000546001600160a01b031633146115f55760405162461bcd60e51b81526004016106c090613e43565b7f00000000000000000000000000000000000000000000000000000000000000006116325760405162461bcd60e51b81526004016106c090613eef565b6001600160a01b038116600090815260046020819052604090912090810154600160901b900460ff166116775760405162461bcd60e51b81526004016106c090613d7a565b8060030154816002015461168b91906141f0565b6005600082825461169c91906141f0565b90915550506040805161016081018252825481526001830154602082015260028301549181019190915260038201546060820152600482015463ffffffff8082166080840152600160201b8204811660a0840152600160401b8204811660c0840152600160601b82041660e083015260ff600160801b820481161515610100840152600160881b820481161515610120840152600160901b90910416151561014082015260009061174c90612c51565b9050808260010160008282546117629190614171565b92505081905550826001600160a01b03167f94fd705dafc89ff1f03c1207631245602407f0e8ee47e1878a4e2ae954cd7674826040516117a291906140b2565b60405180910390a260008183600301546117bc9190614171565b83600201546117cb91906141f0565b90506118016001600160a01b037f00000000000000000000000000000000000000000000000000000000000000001633836129f2565b6000600284018190556003840181905560048401805460ff60801b191690556040516001600160a01b038616917f68d870ac0aff3819234e8a1fc8f357b40d75212f2dc8594b97690fa205b3bab291a250505050565b7f000000000000000000000000000000000000000000000000000000000000000081565b336001600160a01b037f00000000000000000000000000000000000000000000000000000000000000001614806118da5750336001600160a01b037f000000000000000000000000000000000000000000000000000000000000000016145b6118f65760405162461bcd60e51b81526004016106c090613dea565b6111c3612e27565b6000546001600160a01b031681565b336001600160a01b037f000000000000000000000000000000000000000000000000000000000000000016146119555760405162461bcd60e51b81526004016106c090613f35565b60005b818110156115c65760016004600085858581811061198657634e487b7160e01b600052603260045260246000fd5b905060200201602081019061199b919061364b565b6001600160a01b0316815260208101919091526040016000206004018054911515600160881b0260ff60881b199092169190911790558282828181106119f157634e487b7160e01b600052603260045260246000fd5b9050602002016020810190611a06919061364b565b6001600160a01b03167fb72139c440b4fd552bd1ef2077ce2ef7de385e96860222e8ad491235caf5af6660405160405180910390a280611a4581614237565b915050611958565b6001600160a01b031660009081526004602052604090206003015490565b60026001541415611a8e5760405162461bcd60e51b81526004016106c09061407b565b6002600155611ac86001600160a01b037f000000000000000000000000000000000000000000000000000000000000000016333084612b68565b611ad23382612af1565b5060018055565b7f000000000000000000000000000000000000000000000000000000000000000081565b6001600160a01b031660009081526004602052604090206002015490565b60026001541415611b3e5760405162461bcd60e51b81526004016106c09061407b565b60026001556000805b8851811015611bf457828181518110611b7057634e487b7160e01b600052603260045260246000fd5b602002602001015182611b839190614171565b9150611be2898281518110611ba857634e487b7160e01b600052603260045260246000fd5b60200260200101518989898989898881518110611bd557634e487b7160e01b600052603260045260246000fd5b6020026020010151612e82565b80611bec81614237565b915050611b47565b506109266001600160a01b037f000000000000000000000000000000000000000000000000000000000000000016333084612b68565b60026001541415611c4d5760405162461bcd60e51b81526004016106c09061407b565b60026001557f00000000000000000000000000000000000000000000000000000000000000006001600160a01b031673bb4cdb9cbd36b01bd1cbaebf2de08d9173bc095c14611cae5760405162461bcd60e51b81526004016106c090614012565b73bb4cdb9cbd36b01bd1cbaebf2de08d9173bc095c6001600160a01b031663d0e30db0346040518263ffffffff1660e01b81526004016000604051808303818588803b158015611cfd57600080fd5b505af1158015611d11573d6000803e3d6000fd5b5050505050611d1f3461316f565b60018055565b6000546001600160a01b03163314611d4f5760405162461bcd60e51b81526004016106c090613e43565b611d58816131d0565b50565b6003546001600160a01b031681565b60026001541415611d8d5760405162461bcd60e51b81526004016106c09061407b565b6002600155336001600160a01b037f00000000000000000000000000000000000000000000000000000000000000001614611dda5760405162461bcd60e51b81526004016106c090613f35565b600954611e13906001600160a01b037f0000000000000000000000000000000000000000000000000000000000000000169033906129f2565b600a54611e4c906001600160a01b037f0000000000000000000000000000000000000000000000000000000000000000169033906129f2565b60095460076000828254611e609190614171565b9091555050600a5460088054600090611e7a908490614171565b9091555050600a546009546040517fa1f87f32d0f17fab0242ca800d736293de8988c14b27747e218cf13d5c249f5392611eb59290916140bb565b60405180910390a160006009819055600a5560018055565b60026001541415611ef05760405162461bcd60e51b81526004016106c09061407b565b6002600155611f2a6001600160a01b037f000000000000000000000000000000000000000000000000000000000000000016333084612b68565b611ad28161316f565b6001600160a01b038116600090815260046020818152604080842081516101608101835281548152600182015493810193909352600281015491830191909152600381015460608301529091015463ffffffff8082166080840152600160201b8204811660a0840152600160401b8204811660c0840152600160601b82041660e083015260ff600160801b820481161515610100840152600160881b820481161515610120840152600160901b909104161515610140820152611ff590612c51565b92915050565b6002600154141561201e5760405162461bcd60e51b81526004016106c09061407b565b600260015561202b61123c565b156120485760405162461bcd60e51b81526004016106c090613dc0565b806120523361102b565b10156120705760405162461bcd60e51b81526004016106c090613c90565b600061207a612d37565b336000818152600460208190526040918290208101549151631820cc6160e11b81526001600160a01b03949094169363304198c2936120c7939092600160881b90910460ff169101613aff565b60206040518083038186803b1580156120df57600080fd5b505afa1580156120f3573d6000803e3d6000fd5b505050506040513d601f19601f8201168201806040525081019061211791906139e0565b9050600061212d82670de0b6b3a76400006141f0565b61213783856141d1565b61214191906141b1565b3360009081526004602052604090205490915061216a9084906121659084906141f0565b6123f2565b92506121768184614171565b33600090815260046020526040812080549091906121959084906141f0565b9250508190555080600960008282546121ae9190614171565b90915550507f00000000000000000000000000000000000000000000000000000000000000006001600160a01b031673bb4cdb9cbd36b01bd1cbaebf2de08d9173bc095c141561229457604051632e1a7d4d60e01b815273bb4cdb9cbd36b01bd1cbaebf2de08d9173bc095c90632e1a7d4d9061222f9086906004016140b2565b600060405180830381600087803b15801561224957600080fd5b505af115801561225d573d6000803e3d6000fd5b505060405133925085156108fc02915085906000818181858888f1935050505015801561228e573d6000803e3d6000fd5b506122c8565b6122c86001600160a01b037f00000000000000000000000000000000000000000000000000000000000000001633856129f2565b336001600160a01b03167f5135ea2f98d3f162e3ddba39690cb01c8efe7e45ca7d4a15cf43be3d2981bc798460405161101a91906140b2565b6000546001600160a01b0316331461232b5760405162461bcd60e51b81526004016106c090613e43565b600080546040516001600160a01b03808516939216917f8be0079c531659141344cd1fd0a4f28419497f9722a3daafe3b4186f6b6457e091a3600080546001600160a01b0319166001600160a01b0392909216919091179055565b6001600160a01b031660009081526004602052604090205490565b6001600160a01b03811660009081526004602052604081206003810154600290910154611ff591906141f0565b7f000000000000000000000000000000000000000000000000000000000000000081565b6000818311156124025781611115565b5090919050565b6001600160a01b0382166000908152600460205260408120600101805483919083906124369084906141f0565b9091555060009050670de0b6b3a764000061244f612d37565b6001600160a01b038681166000908152600460208190526040918290208101549151631907bfab60e01b81529390921692631907bfab9261249e928a92600160881b90910460ff169101613aff565b60206040518083038186803b1580156124b657600080fd5b505afa1580156124ca573d6000803e3d6000fd5b505050506040513d601f19601f820116820180604052508101906124ee91906139e0565b6124f890856141d1565b61250291906141b1565b905061250e81846141f0565b925080600a60008282546125229190614171565b9091555092949350505050565b60007f00000000000000000000000000000000000000000000000000000000000000006001600160a01b0316876001600160a01b03161415612579576125768584846126f2565b94505b60006125898888888888886132e2565b90507f00000000000000000000000000000000000000000000000000000000000000006001600160a01b0316876001600160a01b031614156125d3576125d08185856126f2565b90505b979650505050505050565b600080670de0b6b3a76400006125f2612d37565b6001600160a01b03868116600090815260046020819052604091829020810154915163d9906e7d60e01b8152939092169263d9906e7d92612641928a92600160881b90910460ff169101613aff565b60206040518083038186803b15801561265957600080fd5b505afa15801561266d573d6000803e3d6000fd5b505050506040513d601f19601f8201168201806040525081019061269191906139e0565b61269b90856141d1565b6126a591906141b1565b90506126b181846141f0565b925080600960008282546126c59190614171565b90915550506001600160a01b03841660009081526004602052604081208054859290612522908490614171565b60008067016345785d8a00007f00000000000000000000000000000000000000000000000000000000000000006001600160a01b03163110156128bb57600061276d6001600160a01b037f0000000000000000000000000000000000000000000000000000000000000000163167016345785d8a00006141f0565b90507f00000000000000000000000000000000000000000000000000000000000000006001600160a01b031673bb4cdb9cbd36b01bd1cbaebf2de08d9173bc095c146127c5576127be8186866133a7565b91506127c9565b8091505b8186116127e85760405162461bcd60e51b81526004016106c090613f7f565b604051632e1a7d4d60e01b815273bb4cdb9cbd36b01bd1cbaebf2de08d9173bc095c90632e1a7d4d9061281f9084906004016140b2565b600060405180830381600087803b15801561283957600080fd5b505af115801561284d573d6000803e3d6000fd5b50506040516001600160a01b037f000000000000000000000000000000000000000000000000000000000000000016925083156108fc02915083906000818181858888f193505050501580156128a7573d6000803e3d6000fd5b50816006546128b69190614171565b600655505b6128c581866141f0565b95945050505050565b6002546040516000918291829161010090046001600160a01b031690612900908a908a908a908a908a90602401613a90565b60408051601f198184030181529181526020820180516001600160e01b031663206e6e2960e11b179052516129359190613a22565b600060405180830381855afa9150503d8060008114612970576040519150601f19603f3d011682016040523d82523d6000602084013e612975565b606091505b50915091506129848282613485565b98975050505050505050565b6001600160a01b038316600090815260046020526040812060010180548392906129bb908490614171565b90915550506001600160a01b038316600090815260046020526040812080548492906129e89084906141f0565b9091555050505050565b600080846001600160a01b031663a9059cbb60e01b8585604051602401612a1a929190613b1a565b60408051601f198184030181529181526020820180516001600160e01b03166001600160e01b0319909416939093179092529051612a589190613a22565b6000604051808303816000865af19150503d8060008114612a95576040519150601f19603f3d011682016040523d82523d6000602084013e612a9a565b606091505b5091509150818015612ac4575080511580612ac4575080806020019051810190612ac4919061391d565b612aea57612ad1816134be565b60405162461bcd60e51b81526004016106c09190613b66565b5050505050565b6001600160a01b03821660009081526004602052604081206001018054839290612b1c908490614171565b92505081905550816001600160a01b03167f9e71bc8eea02a63969f509818f2dafb9254532904319f9dbda79b67bd34a5f3d82604051612b5c91906140b2565b60405180910390a25050565b600080856001600160a01b03166323b872dd60e01b868686604051602401612b9293929190613a6c565b60408051601f198184030181529181526020820180516001600160e01b03166001600160e01b0319909416939093179092529051612bd09190613a22565b6000604051808303816000865af19150503d8060008114612c0d576040519150601f19603f3d011682016040523d82523d6000602084013e612c12565b606091505b5091509150818015612c3c575080511580612c3c575080806020019051810190612c3c919061391d565b612c4957612ad1816134be565b505050505050565b6080810151600090429063ffffffff16811015612c72576000915050610659565b8260c001518360a00151612c869190614189565b63ffffffff168110612cae5782606001518360400151612ca691906141f0565b915050610659565b60008360a0015163ffffffff1682612cc691906141f0565b60e085015190915063ffffffff166000612ce082846141b1565b90506000612cee83836141d1565b905060008760c0015163ffffffff16828960400151612d0d91906141d1565b612d1791906141b1565b9050876060015181612d2991906141f0565b965061065995505050505050565b600354604080516312209d2f60e31b815290516000926001600160a01b031691639104e978916004808301926020929190829003018186803b158015612d7c57600080fd5b505afa158015612d90573d6000803e3d6000fd5b505050506040513d601f19601f82011682018060405250810190612db49190613667565b905090565b612dc161123c565b612ddd5760405162461bcd60e51b81526004016106c090613be5565b6002805460ff191690557f5db9ee0a495bf2e6ff9c91a7834c1ba4fdd244a5e8aa4e537bd38aeae4b073aa612e1061351e565b604051612e1d9190613a3e565b60405180910390a1565b612e2f61123c565b15612e4c5760405162461bcd60e51b81526004016106c090613dc0565b6002805460ff191660011790557f62e78cea01bee320cd4e420270b5ea74000d11b0c9f74754ebdbfc544b05a258612e1061351e565b60008463ffffffff1611612ea85760405162461bcd60e51b81526004016106c090613ead565b60008111612ec85760405162461bcd60e51b81526004016106c090613e78565b60018363ffffffff161015612eef5760405162461bcd60e51b81526004016106c090613c43565b6001600160a01b03871660009081526004602081905260409091200154600160801b900460ff1615612f335760405162461bcd60e51b81526004016106c090613fc5565b6000612f3f8688614189565b90506001600460008a6001600160a01b03166001600160a01b0316815260200190815260200160002060040160106101000a81548160ff02191690831515021790555080600460008a6001600160a01b03166001600160a01b0316815260200190815260200160002060040160006101000a81548163ffffffff021916908363ffffffff16021790555086600460008a6001600160a01b03166001600160a01b0316815260200190815260200160002060040160046101000a81548163ffffffff021916908363ffffffff16021790555084600460008a6001600160a01b03166001600160a01b0316815260200190815260200160002060040160086101000a81548163ffffffff021916908363ffffffff16021790555083600460008a6001600160a01b03166001600160a01b03168152602001908152602001600020600401600c6101000a81548163ffffffff021916908363ffffffff16021790555082600460008a6001600160a01b03166001600160a01b0316815260200190815260200160002060040160126101000a81548160ff02191690831515021790555081600460008a6001600160a01b03166001600160a01b0316815260200190815260200160002060020181905550816005600082825461311d9190614171565b92505081905550876001600160a01b03167f82a09c12487d9950c96682e398533045828bd33d830b54dddd5684ac79bf27bd8360405161315d91906140b2565b60405180910390a25050505050505050565b336000908152600460205260408120805483929061318e908490614171565b909155505060405133907f8109037fc5b3b3f0368806e9cd981c30daa1a3d0c26be8307576c4f5f2125d5e906131c59084906140b2565b60405180910390a250565b7fa8f5d6a26420dbca563af82edda993be302bfa0d82b1540ed55eac3326eb85f2600260019054906101000a90046001600160a01b031682604051613216929190613a52565b60405180910390a1600354604051630b90f5dd60e41b81526001600160a01b039091169063b90f5dd09061324e908490600401613a3e565b60206040518083038186803b15801561326657600080fd5b505afa15801561327a573d6000803e3d6000fd5b505050506040513d601f19601f8201168201806040525081019061329e919061391d565b6132ba5760405162461bcd60e51b81526004016106c090614044565b600280546001600160a01b0390921661010002610100600160a81b0319909216919091179055565b6002546040516000918291829161010090046001600160a01b031690613316908b908b908b908b908b908b90602401613ac4565b60408051601f198184030181529181526020820180516001600160e01b0316632d607d0b60e21b1790525161334b9190613a22565b600060405180830381855af49150503d8060008114613386576040519150601f19603f3d011682016040523d82523d6000602084013e61338b565b606091505b509150915061339a8282613485565b9998505050505050505050565b6002546040516000918291829161010090046001600160a01b0316906133f7907f000000000000000000000000000000000000000000000000000000000000000090899089908990602401613b33565b60408051601f198184030181529181526020820180516001600160e01b031663fc7d1c8d60e01b1790525161342c9190613a22565b600060405180830381855af49150503d8060008114613467576040519150601f19603f3d011682016040523d82523d6000602084013e61346c565b606091505b509150915061347b8282613485565b9695505050505050565b6000826134b45781511561349c5781518083602001fd5b60405162461bcd60e51b81526004016106c090613c13565b5060200151919050565b6060604482511015613504575060408051808201909152601d81527f5472616e73616374696f6e2072657665727465642073696c656e746c790000006020820152610659565b60048201915081806020019051810190611ff59190613939565b3390565b600082601f830112613532578081fd5b813560206135476135428361414e565b614125565b8281528181019085830183850287018401881015613563578586fd5b855b8581101561358a5781356135788161427e565b84529284019290840190600101613565565b5090979650505050505050565b600082601f8301126135a7578081fd5b813560206135b76135428361414e565b82815281810190858301838502870184018810156135d3578586fd5b855b8581101561358a578135845292840192908401906001016135d5565b60008083601f840112613602578182fd5b5081356001600160401b03811115613618578182fd5b60208301915083602082850101111561363057600080fd5b9250929050565b803563ffffffff8116811461065957600080fd5b60006020828403121561365c578081fd5b81356111158161427e565b600060208284031215613678578081fd5b81516111158161427e565b60008060208385031215613695578081fd5b82356001600160401b03808211156136ab578283fd5b818501915085601f8301126136be578283fd5b8135818111156136cc578384fd5b86602080830285010111156136df578384fd5b60209290920196919550909350505050565b600080600080600080600060e0888a03121561370b578283fd5b87356001600160401b0380821115613721578485fd5b61372d8b838c01613522565b985061373b60208b01613637565b975061374960408b01613637565b965061375760608b01613637565b955061376560808b01613637565b945060a08a0135915061377782614293565b90925060c0890135908082111561378c578283fd5b506137998a828b01613597565b91505092959891949750929550565b600080604083850312156137ba578182fd5b82356001600160401b03808211156137d0578384fd5b6137dc86838701613597565b935060208501359150808211156137f1578283fd5b506137fe85828601613522565b9150509250929050565b60008060008060006080868803121561381f578081fd5b85356001600160401b0380821115613835578283fd5b61384189838a01613597565b96506020880135915080821115613856578283fd5b61386289838a01613522565b9550604088013591506138748261427e565b90935060608701359080821115613889578283fd5b50613896888289016135f1565b969995985093965092949392505050565b6000806000806000608086880312156138be578081fd5b85356001600160401b03808211156138d4578283fd5b6138e089838a01613597565b965060208801359150808211156138f5578283fd5b61390189838a01613522565b9550604088013594506060880135915080821115613889578283fd5b60006020828403121561392e578081fd5b815161111581614293565b60006020828403121561394a578081fd5b81516001600160401b0380821115613960578283fd5b818401915084601f830112613973578283fd5b81518181111561398557613985614268565b613998601f8201601f1916602001614125565b91508082528560208285010111156139ae578384fd5b6139bf816020840160208601614207565b50949350505050565b6000602082840312156139d9578081fd5b5035919050565b6000602082840312156139f1578081fd5b5051919050565b60008284528282602086013780602084860101526020601f19601f85011685010190509392505050565b60008251613a34818460208701614207565b9190910192915050565b6001600160a01b0391909116815260200190565b6001600160a01b0392831681529116602082015260400190565b6001600160a01b039384168152919092166020820152604081019190915260600190565b6001600160a01b03868116825285166020820152604081018490526080606082018190526000906125d390830184866139f8565b6001600160a01b03878116825286166020820152604081018590526060810184905260a06080820181905260009061298490830184866139f8565b6001600160a01b039290921682521515602082015260400190565b6001600160a01b03929092168252602082015260400190565b600060018060a01b03861682528460208301526060604083015261347b6060830184866139f8565b901515815260200190565b6000602082528251806020840152613b85816040850160208701614207565b601f01601f19169190910160400192915050565b6020808252602c908201527f6f6e6c79436f6e74726f6c6c65723a2063616c6c6572206973206e6f7420746860408201526b329031b7b73a3937b63632b960a11b606082015260800190565b60208082526014908201527314185d5cd8589b194e881b9bdd081c185d5cd95960621b604082015260600190565b60208082526016908201527511195b1959d85d194818d85b1b081c995d995c9d195960521b604082015260600190565b6020808252602d908201527f546f6b656e56657374696e673a20736c696365506572696f645365636f6e647360408201526c206d757374206265203e3d203160981b606082015260800190565b6020808252601d908201527f4e6f7420656e6f75676820746f6b656e7320746f207769746864726177000000604082015260600190565b6020808252603d908201527f546f6b656e56657374696e673a2063616e6e6f742072656c6561736520746f6b60408201527f656e732c206e6f7420656e6f7567682076657374656420746f6b656e73000000606082015260800190565b60208082526036908201527f53656c6c657220646f6573206e6f74206861766520656e6f75676820746f6b656040820152751b9cc81d1bc81cd95b1b081d1a1a5cc8185b5bdd5b9d60521b606082015260800190565b60208082526026908201527f546f6b656e56657374696e673a2076657374696e67206973206e6f74207265766040820152656f6361626c6560d01b606082015260800190565b60208082526010908201526f14185d5cd8589b194e881c185d5cd95960821b604082015260600190565b60208082526039908201527f6f6e6c794d6f64657261746f723a2063616c6c6572206973206e6f74207468656040820152781031b7b73a3937b63632b9103737b91036b7b232b930ba37b960391b606082015260800190565b6020808252818101527f4f776e61626c653a2063616c6c6572206973206e6f7420746865206f776e6572604082015260600190565b6020808252818101527f546f6b656e56657374696e673a20616d6f756e74206d757374206265203e2030604082015260600190565b60208082526022908201527f546f6b656e56657374696e673a206475726174696f6e206d757374206265203e604082015261020360f41b606082015260800190565b60208082526026908201527f5468697320636f6e747261637420646f6573206e6f7420616c6c6f7720746f206040820152657265766f6b6560d01b606082015260800190565b6020808252602a908201527f6f6e6c794d6f64657261746f723a2063616c6c6572206973206e6f74207468656040820152691036b7b232b930ba37b960b11b606082015260800190565b60208082526026908201527f5472616e73616374696f6e20636f737473206d6f7265207468616e20676173206040820152651b995959195960d21b606082015260800190565b6020808252602d908201527f546f6b656e56657374696e673a2056657374696e67207363686564756c65206160408201526c6c72656164792065786973747360981b606082015260800190565b6020808252601890820152770a0c2d2e4cac840e8ded6cadc40d2e640dcdee840ae8aa8960431b604082015260600190565b6020808252601e908201527f4d61726b65744d616b65724c696272617279206e6f7420616c6c6f7765640000604082015260600190565b6020808252601f908201527f5265656e7472616e637947756172643a207265656e7472616e742063616c6c00604082015260600190565b90815260200190565b918252602082015260400190565b9a8b5260208b019990995260408a0197909752606089019590955263ffffffff938416608089015291831660a0880152821660c08701521660e08501521515610100840152151561012083015215156101408201526101600190565b6040518181016001600160401b038111828210171561414657614146614268565b604052919050565b60006001600160401b0382111561416757614167614268565b5060209081020190565b6000821982111561418457614184614252565b500190565b600063ffffffff8083168185168083038211156141a8576141a8614252565b01949350505050565b6000826141cc57634e487b7160e01b81526012600452602481fd5b500490565b60008160001904831182151516156141eb576141eb614252565b500290565b60008282101561420257614202614252565b500390565b60005b8381101561422257818101518382015260200161420a565b83811115614231576000848401525b50505050565b600060001982141561424b5761424b614252565b5060010190565b634e487b7160e01b600052601160045260246000fd5b634e487b7160e01b600052604160045260246000fd5b6001600160a01b0381168114611d5857600080fd5b8015158114611d5857600080fdfea2646970667358221220224883db7d822166e8bd0580d58501c084a9d3aa18eef5210dddb5a8e4b9706664736f6c634300080000338be0079c531659141344cd1fd0a4f28419497f9722a3daafe3b4186f6b6457e0",
  "linkReferences": {},
  "deployedLinkReferences": {}
}