{
  "_format": "hh-sol-artifact-1",
  "contractName": "Vault",
  "sourceName": "contracts/Vault.sol",
  "abi": [
    {
      "inputs": [
        {
          "internalType": "address",
          "name": "_rewardsToken",
          "type": "address"
        },
        {
          "internalType": "address",
          "name": "_stakingToken",
          "type": "address"
        }
      ],
      "stateMutability": "nonpayable",
      "type": "constructor"
    },
    {
      "anonymous": false,
      "inputs": [
        {
          "indexed": true,
          "internalType": "address",
          "name": "oldOwner",
          "type": "address"
        },
        {
          "indexed": true,
          "internalType": "address",
          "name": "newOwner",
          "type": "address"
        }
      ],
      "name": "OwnershipTransferred",
      "type": "event"
    },
    {
      "anonymous": false,
      "inputs": [
        {
          "indexed": false,
          "internalType": "address",
          "name": "account",
          "type": "address"
        }
      ],
      "name": "Paused",
      "type": "event"
    },
    {
      "anonymous": false,
      "inputs": [
        {
          "indexed": false,
          "internalType": "address",
          "name": "token",
          "type": "address"
        },
        {
          "indexed": false,
          "internalType": "uint256",
          "name": "amount",
          "type": "uint256"
        }
      ],
      "name": "Recovered",
      "type": "event"
    },
    {
      "anonymous": false,
      "inputs": [
        {
          "indexed": false,
          "internalType": "uint256",
          "name": "reward",
          "type": "uint256"
        }
      ],
      "name": "RewardAdded",
      "type": "event"
    },
    {
      "anonymous": false,
      "inputs": [
        {
          "indexed": true,
          "internalType": "address",
          "name": "user",
          "type": "address"
        },
        {
          "indexed": false,
          "internalType": "uint256",
          "name": "reward",
          "type": "uint256"
        }
      ],
      "name": "RewardPaid",
      "type": "event"
    },
    {
      "anonymous": false,
      "inputs": [
        {
          "indexed": false,
          "internalType": "uint256",
          "name": "newDuration",
          "type": "uint256"
        }
      ],
      "name": "RewardsDurationUpdated",
      "type": "event"
    },
    {
      "anonymous": false,
      "inputs": [
        {
          "indexed": true,
          "internalType": "address",
          "name": "user",
          "type": "address"
        },
        {
          "indexed": false,
          "internalType": "uint256",
          "name": "amount",
          "type": "uint256"
        }
      ],
      "name": "Staked",
      "type": "event"
    },
    {
      "anonymous": false,
      "inputs": [
        {
          "indexed": false,
          "internalType": "address",
          "name": "account",
          "type": "address"
        }
      ],
      "name": "Unpaused",
      "type": "event"
    },
    {
      "anonymous": false,
      "inputs": [
        {
          "indexed": true,
          "internalType": "address",
          "name": "user",
          "type": "address"
        },
        {
          "indexed": false,
          "internalType": "uint256",
          "name": "amount",
          "type": "uint256"
        }
      ],
      "name": "Withdrawn",
      "type": "event"
    },
    {
      "inputs": [
        {
          "internalType": "uint256",
          "name": "reward",
          "type": "uint256"
        }
      ],
      "name": "addReward",
      "outputs": [],
      "stateMutability": "nonpayable",
      "type": "function"
    },
    {
      "inputs": [
        {
          "internalType": "address",
          "name": "account",
          "type": "address"
        }
      ],
      "name": "balanceOf",
      "outputs": [
        {
          "internalType": "uint256",
          "name": "",
          "type": "uint256"
        }
      ],
      "stateMutability": "view",
      "type": "function"
    },
    {
      "inputs": [
        {
          "internalType": "address",
          "name": "account",
          "type": "address"
        }
      ],
      "name": "earned",
      "outputs": [
        {
          "internalType": "uint256",
          "name": "",
          "type": "uint256"
        }
      ],
      "stateMutability": "view",
      "type": "function"
    },
    {
      "inputs": [],
      "name": "exit",
      "outputs": [],
      "stateMutability": "nonpayable",
      "type": "function"
    },
    {
      "inputs": [],
      "name": "getReward",
      "outputs": [],
      "stateMutability": "nonpayable",
      "type": "function"
    },
    {
      "inputs": [],
      "name": "getRewardForDuration",
      "outputs": [
        {
          "internalType": "uint256",
          "name": "",
          "type": "uint256"
        }
      ],
      "stateMutability": "view",
      "type": "function"
    },
    {
      "inputs": [],
      "name": "lastTimeRewardApplicable",
      "outputs": [
        {
          "internalType": "uint256",
          "name": "",
          "type": "uint256"
        }
      ],
      "stateMutability": "view",
      "type": "function"
    },
    {
      "inputs": [],
      "name": "lastUpdateTime",
      "outputs": [
        {
          "internalType": "uint256",
          "name": "",
          "type": "uint256"
        }
      ],
      "stateMutability": "view",
      "type": "function"
    },
    {
      "inputs": [
        {
          "internalType": "uint256",
          "name": "reward",
          "type": "uint256"
        }
      ],
      "name": "notifyRewardAmount",
      "outputs": [],
      "stateMutability": "nonpayable",
      "type": "function"
    },
    {
      "inputs": [],
      "name": "owner",
      "outputs": [
        {
          "internalType": "address",
          "name": "",
          "type": "address"
        }
      ],
      "stateMutability": "view",
      "type": "function"
    },
    {
      "inputs": [],
      "name": "paused",
      "outputs": [
        {
          "internalType": "bool",
          "name": "",
          "type": "bool"
        }
      ],
      "stateMutability": "view",
      "type": "function"
    },
    {
      "inputs": [],
      "name": "periodFinish",
      "outputs": [
        {
          "internalType": "uint256",
          "name": "",
          "type": "uint256"
        }
      ],
      "stateMutability": "view",
      "type": "function"
    },
    {
      "inputs": [
        {
          "internalType": "address",
          "name": "tokenAddress",
          "type": "address"
        },
        {
          "internalType": "uint256",
          "name": "tokenAmount",
          "type": "uint256"
        }
      ],
      "name": "recoverERC20",
      "outputs": [],
      "stateMutability": "nonpayable",
      "type": "function"
    },
    {
      "inputs": [],
      "name": "rewardPerToken",
      "outputs": [
        {
          "internalType": "uint256",
          "name": "",
          "type": "uint256"
        }
      ],
      "stateMutability": "view",
      "type": "function"
    },
    {
      "inputs": [],
      "name": "rewardPerTokenStored",
      "outputs": [
        {
          "internalType": "uint256",
          "name": "",
          "type": "uint256"
        }
      ],
      "stateMutability": "view",
      "type": "function"
    },
    {
      "inputs": [],
      "name": "rewardRate",
      "outputs": [
        {
          "internalType": "uint256",
          "name": "",
          "type": "uint256"
        }
      ],
      "stateMutability": "view",
      "type": "function"
    },
    {
      "inputs": [
        {
          "internalType": "address",
          "name": "",
          "type": "address"
        }
      ],
      "name": "rewards",
      "outputs": [
        {
          "internalType": "uint256",
          "name": "",
          "type": "uint256"
        }
      ],
      "stateMutability": "view",
      "type": "function"
    },
    {
      "inputs": [],
      "name": "rewardsDuration",
      "outputs": [
        {
          "internalType": "uint256",
          "name": "",
          "type": "uint256"
        }
      ],
      "stateMutability": "view",
      "type": "function"
    },
    {
      "inputs": [],
      "name": "rewardsToken",
      "outputs": [
        {
          "internalType": "contract IERC20",
          "name": "",
          "type": "address"
        }
      ],
      "stateMutability": "view",
      "type": "function"
    },
    {
      "inputs": [
        {
          "internalType": "uint256",
          "name": "_rewardsDuration",
          "type": "uint256"
        }
      ],
      "name": "setRewardsDuration",
      "outputs": [],
      "stateMutability": "nonpayable",
      "type": "function"
    },
    {
      "inputs": [
        {
          "internalType": "uint256",
          "name": "amount",
          "type": "uint256"
        }
      ],
      "name": "stake",
      "outputs": [],
      "stateMutability": "nonpayable",
      "type": "function"
    },
    {
      "inputs": [],
      "name": "stakingToken",
      "outputs": [
        {
          "internalType": "contract IERC20",
          "name": "",
          "type": "address"
        }
      ],
      "stateMutability": "view",
      "type": "function"
    },
    {
      "inputs": [],
      "name": "totalSupply",
      "outputs": [
        {
          "internalType": "uint256",
          "name": "",
          "type": "uint256"
        }
      ],
      "stateMutability": "view",
      "type": "function"
    },
    {
      "inputs": [
        {
          "internalType": "address",
          "name": "newOwner",
          "type": "address"
        }
      ],
      "name": "transferOwnership",
      "outputs": [],
      "stateMutability": "nonpayable",
      "type": "function"
    },
    {
      "inputs": [
        {
          "internalType": "address",
          "name": "",
          "type": "address"
        }
      ],
      "name": "userRewardPerTokenPaid",
      "outputs": [
        {
          "internalType": "uint256",
          "name": "",
          "type": "uint256"
        }
      ],
      "stateMutability": "view",
      "type": "function"
    },
    {
      "inputs": [
        {
          "internalType": "uint256",
          "name": "amount",
          "type": "uint256"
        }
      ],
      "name": "withdraw",
      "outputs": [],
      "stateMutability": "nonpayable",
      "type": "function"
    }
  ],
  "bytecode": "0x60806040526000600455600060055562278d0060065534801561002157600080fd5b50604051611488380380611488833981016040819052610040916100e3565b600080546001600160a01b03191633178082556040516001600160a01b039190911691907f8be0079c531659141344cd1fd0a4f28419497f9722a3daafe3b4186f6b6457e0908290a360018055600280546001600160a81b0319166101006001600160a01b0394851602179055600380546001600160a01b03191691909216179055610115565b80516001600160a01b03811681146100de57600080fd5b919050565b600080604083850312156100f5578182fd5b6100fe836100c7565b915061010c602084016100c7565b90509250929050565b611364806101246000396000f3fe608060405234801561001057600080fd5b506004361061016d5760003560e01c806380faa57d116100ce578063cc1a378f11610087578063cc1a378f1461029f578063cd3daf9d146102b2578063d1af0c7d146102ba578063df136d65146102c2578063e9fad8ee146102ca578063ebe2b12b146102d2578063f2fde38b146102da5761016d565b806380faa57d1461024e5780638980f11f146102565780638b876347146102695780638da5cb5b1461027c578063a694fc3a14610284578063c8f33c91146102975761016d565b80633c6b16ab1161012b5780633c6b16ab146101db5780633d18b912146101ee5780635c975abb146101f657806370a082311461020b57806372f702f31461021e57806374de4ec4146102335780637b0a47ee146102465761016d565b80628cc262146101725780630700037d1461019b57806318160ddd146101ae5780631c1f78eb146101b65780632e1a7d4d146101be578063386a9525146101d3575b600080fd5b610185610180366004610e99565b6102ed565b604051610192919061125b565b60405180910390f35b6101856101a9366004610e99565b61036c565b61018561037e565b610185610385565b6101d16101cc366004610fa6565b61039c565b005b6101856104e3565b6101d16101e9366004610fa6565b6104e9565b6101d161051f565b6101fe610626565b6040516101929190611043565b610185610219366004610e99565b61062f565b61022661064a565b6040516101929190610ff2565b6101d1610241366004610fa6565b610659565b610185610676565b61018561067c565b6101d1610264366004610eba565b610694565b610185610277366004610e99565b610743565b610226610755565b6101d1610292366004610fa6565b610764565b6101856108b8565b6101d16102ad366004610fa6565b6108be565b610185610949565b6102266109ad565b6101856109c1565b6101d16109c7565b6101856109ea565b6101d16102e8366004610e99565b6109f0565b6001600160a01b0381166000908152600a60209081526040808320546009909252822054670de0b6b3a764000090610323610949565b61032d91906112bb565b6001600160a01b0385166000908152600c6020526040902054610350919061129c565b61035a919061127c565b6103649190611264565b90505b919050565b600a6020526000908152604090205481565b600b545b90565b6000600654600554610397919061129c565b905090565b600260015414156103c85760405162461bcd60e51b81526004016103bf906111e3565b60405180910390fd5b6002600155336103d6610949565b6008556103e161067c565b6007556001600160a01b03811615610428576103fc816102ed565b6001600160a01b0382166000908152600a60209081526040808320939093556008546009909152919020555b600082116104485760405162461bcd60e51b81526004016103bf90611151565b81600b600082825461045a91906112bb565b9091555050336000908152600c60205260408120805484929061047e9084906112bb565b909155505060035461049a906001600160a01b03163384610a75565b336001600160a01b03167f7084f5476618d8e60b11ef0d7d3f06914655adb8793e28ff7f018d4c76d505d5836040516104d3919061125b565b60405180910390a2505060018055565b60065481565b6000546001600160a01b031633146105135760405162461bcd60e51b81526004016103bf9061117c565b61051c81610b74565b50565b600260015414156105425760405162461bcd60e51b81526004016103bf906111e3565b600260015533610550610949565b60085561055b61067c565b6007556001600160a01b038116156105a257610576816102ed565b6001600160a01b0382166000908152600a60209081526040808320939093556008546009909152919020555b336000908152600a6020526040902054801561061e57336000818152600a60205260408120556002546105e5916101009091046001600160a01b03169083610a75565b336001600160a01b03167fe2403640ba68fed3a2f88b7557551d1993f84b99bb10ff833f0cf8db0c5e0486826040516104d3919061125b565b505060018055565b60025460ff1690565b6001600160a01b03166000908152600c602052604090205490565b6003546001600160a01b031681565b6002546105139061010090046001600160a01b0316333084610d39565b60055481565b6000600454421061068f57600454610397565b504290565b6000546001600160a01b031633146106be5760405162461bcd60e51b81526004016103bf9061117c565b6003546001600160a01b03838116911614156106ec5760405162461bcd60e51b81526004016103bf9061121a565b600054610706906001600160a01b03848116911683610a75565b7f8c1256b8896378cd5044f80c202f9772b9d77dc85c8a6eb51967210b09bfaa28828260405161073792919061102a565b60405180910390a15050565b60096020526000908152604090205481565b6000546001600160a01b031681565b600260015414156107875760405162461bcd60e51b81526004016103bf906111e3565b6002600155610794610626565b156107b15760405162461bcd60e51b81526004016103bf90611127565b336107ba610949565b6008556107c561067c565b6007556001600160a01b0381161561080c576107e0816102ed565b6001600160a01b0382166000908152600a60209081526040808320939093556008546009909152919020555b6000821161082c5760405162461bcd60e51b81526004016103bf906110ff565b81600b600082825461083e9190611264565b9091555050336000908152600c602052604081208054849290610862908490611264565b909155505060035461087f906001600160a01b0316333085610d39565b336001600160a01b03167f9e71bc8eea02a63969f509818f2dafb9254532904319f9dbda79b67bd34a5f3d836040516104d3919061125b565b60075481565b6000546001600160a01b031633146108e85760405162461bcd60e51b81526004016103bf9061117c565b60045442116109095760405162461bcd60e51b81526004016103bf90611081565b60068190556040517ffb46ca5a5e06d4540d6387b930a7c978bce0db5f449ec6b3f5d07c6e1d44f2d39061093e90839061125b565b60405180910390a150565b6000600b546000141561095f5750600854610382565b600b5460055460075461097061067c565b61097a91906112bb565b610984919061129c565b61099690670de0b6b3a764000061129c565b6109a0919061127c565b6008546103979190611264565b60025461010090046001600160a01b031681565b60085481565b336000908152600c60205260409020546109e09061039c565b6109e861051f565b565b60045481565b6000546001600160a01b03163314610a1a5760405162461bcd60e51b81526004016103bf9061117c565b600080546040516001600160a01b03808516939216917f8be0079c531659141344cd1fd0a4f28419497f9722a3daafe3b4186f6b6457e091a3600080546001600160a01b0319166001600160a01b0392909216919091179055565b600080846001600160a01b031663a9059cbb60e01b8585604051602401610a9d92919061102a565b60408051601f198184030181529181526020820180516001600160e01b03166001600160e01b0319909416939093179092529051610adb9190610fd6565b6000604051808303816000865af19150503d8060008114610b18576040519150601f19603f3d011682016040523d82523d6000602084013e610b1d565b606091505b5091509150818015610b47575080511580610b47575080806020019051810190610b479190610ee3565b610b6d57610b5481610e22565b60405162461bcd60e51b81526004016103bf919061104e565b5050505050565b6000610b7e610949565b600855610b8961067c565b6007556001600160a01b03811615610bd057610ba4816102ed565b6001600160a01b0382166000908152600a60209081526040808320939093556008546009909152919020555b6004544210610bee57600654610be6908361127c565b600555610c30565b600042600454610bfe91906112bb565b9050600060055482610c10919061129c565b600654909150610c208286611264565b610c2a919061127c565b60055550505b6002546040516370a0823160e01b815260009161010090046001600160a01b0316906370a0823190610c66903090600401610ff2565b60206040518083038186803b158015610c7e57600080fd5b505afa158015610c92573d6000803e3d6000fd5b505050506040513d601f19601f82011682018060405250810190610cb69190610fbe565b905060065481610cc6919061127c565b6005541115610ce75760405162461bcd60e51b81526004016103bf906111b1565b426007819055600654610cf991611264565b6004556040517fde88a922e0d3b88b24e9623efeb464919c6bf9f66857a65e2bfcf2ce87a9433d90610d2c90859061125b565b60405180910390a1505050565b600080856001600160a01b03166323b872dd60e01b868686604051602401610d6393929190611006565b60408051601f198184030181529181526020820180516001600160e01b03166001600160e01b0319909416939093179092529051610da19190610fd6565b6000604051808303816000865af19150503d8060008114610dde576040519150601f19603f3d011682016040523d82523d6000602084013e610de3565b606091505b5091509150818015610e0d575080511580610e0d575080806020019051810190610e0d9190610ee3565b610e1a57610b5481610e22565b505050505050565b6060604482511015610e68575060408051808201909152601d81527f5472616e73616374696f6e2072657665727465642073696c656e746c790000006020820152610367565b600482019150818060200190518101906103649190610f03565b80356001600160a01b038116811461036757600080fd5b600060208284031215610eaa578081fd5b610eb382610e82565b9392505050565b60008060408385031215610ecc578081fd5b610ed583610e82565b946020939093013593505050565b600060208284031215610ef4578081fd5b81518015158114610eb3578182fd5b600060208284031215610f14578081fd5b815167ffffffffffffffff80821115610f2b578283fd5b818401915084601f830112610f3e578283fd5b815181811115610f5057610f50611318565b604051601f8201601f191681016020018381118282101715610f7457610f74611318565b604052818152838201602001871015610f8b578485fd5b610f9c8260208301602087016112d2565b9695505050505050565b600060208284031215610fb7578081fd5b5035919050565b600060208284031215610fcf578081fd5b5051919050565b60008251610fe88184602087016112d2565b9190910192915050565b6001600160a01b0391909116815260200190565b6001600160a01b039384168152919092166020820152604081019190915260600190565b6001600160a01b03929092168252602082015260400190565b901515815260200190565b600060208252825180602084015261106d8160408501602087016112d2565b601f01601f19169190910160400192915050565b60208082526058908201527f50726576696f7573207265776172647320706572696f64206d7573742062652060408201527f636f6d706c657465206265666f7265206368616e67696e672074686520647572606082015277185d1a5bdb88199bdc881d1a19481b995dc81c195c9a5bd960421b608082015260a00190565b6020808252600e908201526d043616e6e6f74207374616b6520360941b604082015260600190565b60208082526010908201526f14185d5cd8589b194e881c185d5cd95960821b604082015260600190565b602080825260119082015270043616e6e6f74207769746864726177203607c1b604082015260600190565b6020808252818101527f4f776e61626c653a2063616c6c6572206973206e6f7420746865206f776e6572604082015260600190565b6020808252601890820152770a0e4deecd2c8cac840e4caeec2e4c840e8dede40d0d2ced60431b604082015260600190565b6020808252601f908201527f5265656e7472616e637947756172643a207265656e7472616e742063616c6c00604082015260600190565b60208082526021908201527f43616e6e6f7420776974686472617720746865207374616b696e6720746f6b656040820152603760f91b606082015260800190565b90815260200190565b6000821982111561127757611277611302565b500190565b60008261129757634e487b7160e01b81526012600452602481fd5b500490565b60008160001904831182151516156112b6576112b6611302565b500290565b6000828210156112cd576112cd611302565b500390565b60005b838110156112ed5781810151838201526020016112d5565b838111156112fc576000848401525b50505050565b634e487b7160e01b600052601160045260246000fd5b634e487b7160e01b600052604160045260246000fdfea26469706673582212203841787cc28276d119587eb80f08fbc46739e8de921363a3af658b9bbb2f991a64736f6c63430008000033",
  "linkReferences": {},
  "deployedLinkReferences": {}
}